{"contracts/NeonLaunchFactoryMock.sol":{"NeonLaunchFactory":{"abi":[{"inputs":[{"internalType":"address","name":"routerAddress","type":"address"},{"internalType":"uint256","name":"_minLiquidityWei","type":"uint256"}],"stateMutability":"nonpayable","type":"constructor"},{"anonymous":false,"inputs":[{"indexed":true,"internalType":"address","name":"creator","type":"address"},{"indexed":true,"internalType":"address","name":"token","type":"address"},{"indexed":true,"internalType":"address","name":"pair","type":"address"},{"indexed":false,"internalType":"uint256","name":"totalSupply","type":"uint256"},{"indexed":false,"internalType":"uint256","name":"liquidityWei","type":"uint256"},{"indexed":false,"internalType":"uint256","name":"feeWei","type":"uint256"},{"indexed":false,"internalType":"uint256","name":"launchBlock","type":"uint256"},{"indexed":false,"internalType":"uint256","name":"protectionEndBlock","type":"uint256"},{"components":[{"internalType":"bool","name":"renounceOwnership","type":"bool"},{"internalType":"bool","name":"enableAntiBot","type":"bool"},{"internalType":"bool","name":"lpLockRequested","type":"bool"}],"indexed":false,"internalType":"struct NeonLaunchFactory.CreateOptions","name":"options","type":"tuple"}],"name":"TokenCreated","type":"event"},{"inputs":[],"name":"COOLDOWN_1TX_PER_BLOCK","outputs":[{"internalType":"bool","name":"","type":"bool"}],"stateMutability":"view","type":"function"},{"inputs":[],"name":"FEE1","outputs":[{"internalType":"uint256","name":"","type":"uint256"}],"stateMutability":"view","type":"function"},{"inputs":[],"name":"FEE2","outputs":[{"internalType":"uint256","name":"","type":"uint256"}],"stateMutability":"view","type":"function"},{"inputs":[],"name":"FEE3","outputs":[{"internalType":"uint256","name":"","type":"uint256"}],"stateMutability":"view","type":"function"},{"inputs":[],"name":"FEE4","outputs":[{"internalType":"uint256","name":"","type":"uint256"}],"stateMutability":"view","type":"function"},{"inputs":[],"name":"LP_TOKEN_BPS","outputs":[{"internalType":"uint16","name":"","type":"uint16"}],"stateMutability":"view","type":"function"},{"inputs":[],"name":"MAX_TX_BPS","outputs":[{"internalType":"uint16","name":"","type":"uint16"}],"stateMutability":"view","type":"function"},{"inputs":[],"name":"PROTECTION_BLOCKS","outputs":[{"internalType":"uint16","name":"","type":"uint16"}],"stateMutability":"view","type":"function"},{"inputs":[],"name":"TRADING_DELAY_BLOCKS","outputs":[{"internalType":"uint16","name":"","type":"uint16"}],"stateMutability":"view","type":"function"},{"inputs":[],"name":"WINDOW","outputs":[{"internalType":"uint256","name":"","type":"uint256"}],"stateMutability":"view","type":"function"},{"inputs":[{"internalType":"string","name":"name","type":"string"},{"internalType":"string","name":"symbol","type":"string"},{"internalType":"uint256","name":"totalSupply","type":"uint256"},{"internalType":"uint256","name":"liquidityWei","type":"uint256"},{"components":[{"internalType":"bool","name":"renounceOwnership","type":"bool"},{"internalType":"bool","name":"enableAntiBot","type":"bool"},{"internalType":"bool","name":"lpLockRequested","type":"bool"}],"internalType":"struct NeonLaunchFactory.CreateOptions","name":"options","type":"tuple"}],"name":"createToken","outputs":[{"internalType":"address","name":"token","type":"address"},{"internalType":"address","name":"pair","type":"address"}],"stateMutability":"payable","type":"function"},{"inputs":[],"name":"dexFactory","outputs":[{"internalType":"contract IPancakeFactoryV2","name":"","type":"address"}],"stateMutability":"view","type":"function"},{"inputs":[{"internalType":"address","name":"user","type":"address"}],"name":"getCreateFee","outputs":[{"internalType":"uint256","name":"","type":"uint256"}],"stateMutability":"view","type":"function"},{"inputs":[{"internalType":"address","name":"user","type":"address"}],"name":"getSoftLimitState","outputs":[{"internalType":"uint64","name":"resetAt","type":"uint64"},{"internalType":"uint8","name":"count24h","type":"uint8"}],"stateMutability":"view","type":"function"},{"inputs":[],"name":"minLiquidityWei","outputs":[{"internalType":"uint256","name":"","type":"uint256"}],"stateMutability":"view","type":"function"},{"inputs":[],"name":"router","outputs":[{"internalType":"contract IPancakeRouterV2","name":"","type":"address"}],"stateMutability":"view","type":"function"},{"stateMutability":"payable","type":"receive"}],"evm":{"bytecode":{"linkReferences":{},"object":"60e06040908082523462000142578181620021d9803803809162000024828562000147565b83398101031262000142576200003a8162000181565b602091820151916001600160a01b039182168015620001115790808260049360a05286519384809263c45a015560e01b82525afa9081156200010657600091620000c7575b5090501660c0526080525161204290816200019782396080518181816102d30152610b27015260a0518181816101010152610440015260c0518181816101fe01526106180152f35b82813d8311620000fe575b620000de818362000147565b81010312620000fb5750620000f39062000181565b80386200007f565b80fd5b503d620000d2565b85513d6000823e3d90fd5b845162461bcd60e51b815260048101839052600a6024820152692120a22fa927aaaa22a960b11b6044820152606490fd5b600080fd5b601f909101601f19168101906001600160401b038211908210176200016b57604052565b634e487b7160e01b600052604160045260246000fd5b51906001600160a01b0382168203620001425756fe608060405260043610156200001d575b36156200001b57600080fd5b005b6000803560e01c806304e03d4c1462000b9357806324f7b3681462000b6f5780633a0af5821462000b4a5780633b8b896d1462000b0d5780635561079d1462000aef5780635653c0cd1462000aca57806374b600311462000aac578063873289b8146200026b578063a53e5412146200024b578063af34da3c146200022d578063b8d8fbb414620001e6578063bf3b9a721462000194578063cc2925051462000175578063ebffa67b1462000151578063f40db5ec14620001335763f887ea4014620000ea57506200000f565b3462000130578060031936011262000130576040517f00000000000000000000000000000000000000000000000000000000000000006001600160a01b03168152602090f35b80fd5b50346200013057806003193601126200013057602060405160328152f35b50346200013057806003193601126200013057602060405166b1a2bc2ec500008152f35b5034620001305780600319360112620001305760206040516103e88152f35b5034620001305760203660031901126200013057600435906001600160a01b03821682036200013057604060ff620001cc8462000c6d565b67ffffffffffffffff849392935193168352166020820152f35b503462000130578060031936011262000130576040517f00000000000000000000000000000000000000000000000000000000000000006001600160a01b03168152602090f35b50346200013057806003193601126200013057602060405160028152f35b503462000130578060031936011262000130576020604051620151808152f35b5060e0366003190112620001305760043567ffffffffffffffff811162000aa8576200029c90369060040162000bd1565b60249291923567ffffffffffffffff81116200080f57620002c290369060040162000bd1565b9290606036608319011262000aa8577f00000000000000000000000000000000000000000000000000000000000000006064351062000a7557338252816020526040822092835467ffffffffffffffff8116801590811562000a6a575b5062000a3b575b50620003323362000ce8565b938054600160ff8260401c160160ff811162000a275760ff60401b9060401b169060ff60401b19161790556064358401808511620009a8573403620009f2576200037b62000d9c565b15620009ea576002955b6200038f62000d9c565b15620009e2576005925b620003a362000d9c565b15620009d8576032965b620003b762000d9c565b15620009d0576001925b604051948561120481011067ffffffffffffffff61120488011117620009bc57916200040b86959492620004229461120462000e0989396101406112048901818152019162000dac565b916112048601830360206112048801015262000dac565b604435611204840160408101919091523360608201523060808201527f00000000000000000000000000000000000000000000000000000000000000006001600160a01b031660a0820181905261ffff9a8b1660c0830152868b1660e0830152988a1661010082015291151561012090920191909152959695039083f0801562000804576001600160a01b0316936103e8604435818102918183041490151715620009a857612710900480604435036044358111620008ca5760405163a9059cbb60e01b81523360048201526024810191909152602081604481888b5af19081156200094857859162000984575b5015620009535760405163095ea7b360e01b81526001600160a01b038816600482015260248101829052602081604481888b5af19081156200094857859162000912575b5015620008de576104b04201804211620008ca576040519163f305d71960e01b8352876004840152602483015284604483015284606483015233608483015260a482015260608160c4816064358b5af18015620008295762000899575b506020600496604051978880926315ab88c960e31b82525afa9586156200086c576200061496602091859162000877575b5060405163e6a4390560e01b81526001600160a01b038089166004830152909116602482015296879081906044820190565b03817f00000000000000000000000000000000000000000000000000000000000000006001600160a01b03165afa9586156200086c57839662000834575b50843b156200080f576040516340c3fa8b60e11b81526001600160a01b03871660048201528381602481838a5af18015620008295762000813575b50843b156200080f57604051635b3ea13360e11b815243600482015291166024820152818160448183885af180156200080457908291620007ec575b5050604051639605ddbb60e01b8152602081600481875afa918215620007e0578092620007a5575b5050604051916044358352606435602084015260408301524360608301526080820152608435801515809103620007a05760a082015260a435801515809103620007a05760c082015260c435801515809103620007a05760e08201526001600160a01b03831690829033907f65e0e9b2fe5ddf5dd3083f368a861e6c2035c2c7fdccd6864d77cddffdab69509061010090a4604080516001600160a01b03928316815292909116602083015290f35b600080fd5b9091506020823d602011620007d7575b81620007c46020938362000c4a565b81010312620001305750513880620006f1565b3d9150620007b5565b604051903d90823e3d90fd5b620007f79062000c02565b62000130578038620006c9565b6040513d84823e3d90fd5b8280fd5b620008219093919362000c02565b91386200068d565b6040513d86823e3d90fd5b6200085c91965060203d60201162000864575b62000853818362000c4a565b81019062000de7565b943862000652565b503d62000847565b6040513d85823e3d90fd5b620008929150823d8411620008645762000853818362000c4a565b38620005e2565b606090813d8311620008c2575b620008b2818362000c4a565b810103126200080f5738620005b1565b503d620008a6565b634e487b7160e01b85526011600452602485fd5b60405162461bcd60e51b815260206004820152600c60248201526b1054141493d59157d190525360a21b6044820152606490fd5b62000939915060203d60201162000940575b62000930818362000c4a565b81019062000dcd565b3862000554565b503d62000924565b6040513d87823e3d90fd5b60405162461bcd60e51b81526020600482015260096024820152681611915497d190525360ba1b6044820152606490fd5b620009a1915060203d602011620009405762000930818362000c4a565b3862000510565b634e487b7160e01b84526011600452602484fd5b634e487b7160e01b88526041600452602488fd5b8592620003c1565b61271096620003ad565b839262000399565b829562000385565b60405162461bcd60e51b815260206004820152600d60248201526c4241445f4d53475f56414c554560981b6044820152606490fd5b634e487b7160e01b86526011600452602486fd5b620151804201804211620008ca5767ffffffffffffffff169068ffffffffffffffffff19161784553862000326565b90504211386200031f565b60405162461bcd60e51b815260206004820152600b60248201526a4c49515f544f4f5f4c4f5760a81b6044820152606490fd5b5080fd5b50346200013057806003193601126200013057602060405160018152f35b50346200013057806003193601126200013057602060405167016345785d8a00008152f35b50346200013057806003193601126200013057602060405160058152f35b5034620001305780600319360112620001305760206040517f00000000000000000000000000000000000000000000000000000000000000008152f35b5034620001305780600319360112620001305760206040516702c68af0bb1400008152f35b50346200013057806003193601126200013057602060405166470de4df8200008152f35b5034620001305760203660031901126200013057600435906001600160a01b03821682036200013057602062000bc98362000ce8565b604051908152f35b9181601f84011215620007a05782359167ffffffffffffffff8311620007a05760208381860195010111620007a057565b67ffffffffffffffff811162000c1757604052565b634e487b7160e01b600052604160045260246000fd5b6040810190811067ffffffffffffffff82111762000c1757604052565b90601f8019910116810190811067ffffffffffffffff82111762000c1757604052565b6001600160a01b0316600090815260208190526040808220905192919062000c958462000c2d565b549267ffffffffffffffff9182851680835260ff602084019660401c1686521562000cd25782825116421162000cd257509060ff91511692511690565b935050620151804201804211620009a857169190565b60018060a01b03166000526000602052604060002060206040519162000d0e8362000c2d565b549160ff67ffffffffffffffff84169384835260401c16918291015290801590811562000d91575b5062000d88575b60ff16801562000d7c576001811462000d705760021462000d64576702c68af0bb14000090565b67016345785d8a000090565b5066b1a2bc2ec5000090565b5066470de4df82000090565b50600062000d3d565b905042113862000d36565b60a4358015158103620007a05790565b908060209392818452848401376000828201840152601f01601f1916010190565b90816020910312620007a057518015158103620007a05790565b90816020910312620007a057516001600160a01b0381168103620007a0579056fe608060405234620005225762001204803803806200001d8162000527565b928339810161014082820312620005225781516001600160401b039290838111620005225782620000509183016200054d565b9160208201519084821162000522576200006c9183016200054d565b926040820151906200008160608401620005bf565b916200009060808501620005bf565b6200009e60a08601620005bf565b92620000ad60c08701620005d4565b96620000bc60e08801620005d4565b50610120620000cf6101008901620005d4565b9701519586151587036200052257600080546001600160a01b0319166001600160a01b039290921691821781557f8be0079c531659141344cd1fd0a4f28419497f9722a3daafe3b4186f6b6457e08180a3805190828211620004135760015490600182811c9216801562000517575b6020831014620003f25781601f849311620004b3575b50602090601f8311600114620004355760009262000429575b50508160011b916000199060031b1c1916176001555b87519081116200041357600254600181811c9116801562000408575b6020821014620003f257601f811162000388575b506020601f8211600114620002fc5792600080516020620011c4833981519152928260209360009663ffff00009a9b9c8892620002f0575b50508160011b9187199060031b1c1916176002555b600b80546001600160a01b039283166001600160a01b03199182168117909255600c805498909316971696909617905560035462000240908290620005e4565b60035584845260048252604084206200025b828254620005e4565b9055604051908152a361ffff64ff0000000060085492151560201b1694169064ffffffffff1916179160101b16171760085560018060a01b03600b54166000526009602052604060002060ff199060018282541617905560018060a01b03600c54166000526040600020600182825416179055600080526001604060002091825416179055604051610bbb9081620006098239f35b015190503880620001eb565b600260005260206000209860005b601f19841681106200036f57509260018363ffff0000999a9b60009794600080516020620011c483398151915297602097601f1981161062000356575b505050811b0160025562000200565b0151881960f88460031b161c1916905538808062000347565b828201518b556001909a0199602092830192016200030a565b60026000527f405787fa12a823e0f2b7631cc41b3ba8828b3321ca811111fa75cd3aa3bb5ace601f830160051c81019160208410620003e7575b601f0160051c01905b818110620003da5750620001b3565b60008155600101620003cb565b9091508190620003c2565b634e487b7160e01b600052602260045260246000fd5b90607f16906200019f565b634e487b7160e01b600052604160045260246000fd5b0151905038806200016d565b600160009081529350600080516020620011e483398151915291905b601f198416851062000497576001945083601f198116106200047d575b505050811b0160015562000183565b015160001960f88460031b161c191690553880806200046e565b8181015183556020948501946001909301929091019062000451565b6001600052909150600080516020620011e4833981519152601f840160051c810191602085106200050c575b90601f859493920160051c01905b818110620004fc575062000154565b60008155849350600101620004ed565b9091508190620004df565b91607f16916200013e565b600080fd5b6040519190601f01601f191682016001600160401b038111838210176200041357604052565b919080601f84011215620005225782516001600160401b038111620004135760209062000583601f8201601f1916830162000527565b92818452828287010111620005225760005b818110620005ab57508260009394955001015290565b858101830151848201840152820162000595565b51906001600160a01b03821682036200052257565b519061ffff821682036200052257565b91908201809211620005f257565b634e487b7160e01b600052601160045260246000fdfe608060408181526004918236101561001657600080fd5b600092833560e01c91826306fdde03146107c057508163095ea7b31461074f57816318160ddd1461073057816323b872dd1461068a578163313ce5671461066e5781636760e74c1461064b57816370a0823114610615578163715018a61461058a5781638187f516146104ce5781638712523e146104965781638da5cb5b1461046e57816395d89b411461034d5781639605ddbb1461032e5781639ebaa1c314610309578163a8aa1b31146102e0578163a9059cbb146102af578163ad5dff7314610271578163b67d42661461020057508063c45a0155146101d8578063d00efb2f146101ba578063dd62ed3e14610172578063f887ea401461014a5763ff8ea3e51461012257600080fd5b3461014657816003193601126101465760209061ffff60085460101c169051908152f35b5080fd5b5034610146578160031936011261014657600c5490516001600160a01b039091168152602090f35b50346101465780600319360112610146578060209261018f6108e0565b6101976108fb565b6001600160a01b0391821683526005865283832091168252845220549051908152f35b50346101465781600319360112610146576020906006549051908152f35b5034610146578160031936011261014657600b5490516001600160a01b039091168152602090f35b9190503461026d57366003190112610146573560243561ffff8082168092036102695761023860018060a01b03600b54163314610911565b60065415610244578380f35b8261025a9161025f94600655600854169061094b565b61094b565b6007553880808380f35b8380fd5b8280fd5b5050346101465760203660031901126101465760209160ff9082906001600160a01b0361029c6108e0565b1681526009855220541690519015158152f35b5050346101465780600319360112610146576020906102d96102cf6108e0565b602435903361097b565b5160018152f35b505034610146578160031936011261014657600d5490516001600160a01b039091168152602090f35b5050346101465781600319360112610146576008549051602091821c60ff1615158152f35b5050346101465781600319360112610146576020906007549051908152f35b83833461014657816003193601126101465780519082600254600181811c90808316928315610464575b60209384841081146104515783885290811561043557506001146103df575b505050829003601f01601f191682019267ffffffffffffffff8411838510176103cc57508291826103c8925282610897565b0390f35b634e487b7160e01b815260418552602490fd5b600287529192508591837f405787fa12a823e0f2b7631cc41b3ba8828b3321ca811111fa75cd3aa3bb5ace5b8385106104215750505050830101858080610396565b80548886018301529301928490820161040b565b60ff1916878501525050151560051b8401019050858080610396565b634e487b7160e01b895260228a52602489fd5b91607f1691610377565b505034610146578160031936011261014657905490516001600160a01b039091168152602090f35b5050346101465760203660031901126101465760209181906001600160a01b036104be6108e0565b168152600a845220549051908152f35b90503461026d57602036600319011261026d576104e96108e0565b9060018060a01b0361050081600b54163314610911565b600d549281841661055457169283156105265750506001600160a01b03191617600d5580f35b906020606492519162461bcd60e51b835282015260086024820152672120a22fa820a4a960c11b6044820152fd5b845162461bcd60e51b8152602081850152601060248201526f1410525497d053149150511657d4d15560821b6044820152606490fd5b90503461026d578260031936011261026d578254916001600160a01b03831633036105e65750506001600160a01b031916815580337f8be0079c531659141344cd1fd0a4f28419497f9722a3daafe3b4186f6b6457e08280a380f35b906020606492519162461bcd60e51b835282015260096024820152682727aa2fa7aba722a960b91b6044820152fd5b90503461026d57602036600319011261026d5760209282916001600160a01b0361063d6108e0565b168252845220549051908152f35b50503461014657816003193601126101465760209061ffff600854169051908152f35b5050346101465781600319360112610146576020905160128152f35b9190503461026d57606036600319011261026d576106a66108e0565b6106ae6108fb565b6044359160018060a01b03811680875260209560058752858820338952875285882054908582106107015750948096976106eb866102d99861096e565b928152600589528181203382528952205561097b565b865162461bcd60e51b81529081018890526009602482015268414c4c4f57414e434560b81b6044820152606490fd5b5050346101465781600319360112610146576020906003549051908152f35b5050346101465780600319360112610146576020918161076d6108e0565b91602435918291338152600587528181209460018060a01b0316948582528752205582519081527f8c5be1e5ebec7d5bd14f71427d1e84f3dd0314c0f7b2291e5b200ac8c7c3b925843392a35160018152f35b8490843461026d578260031936011261026d5782600180549081811c9080831692831561088d575b602093848410811461045157838852908115610435575060011461083857505050829003601f01601f191682019267ffffffffffffffff8411838510176103cc57508291826103c8925282610897565b8087529192508591837fb10e2d527612073b26eecdfd717e6a320cf44b4afac2b0732d9fcbe2b7fa0cf65b8385106108795750505050830101858080610396565b805488860183015293019284908201610863565b91607f16916107e8565b6020808252825181830181905290939260005b8281106108cc57505060409293506000838284010152601f8019910116010190565b8181018601518482016040015285016108aa565b600435906001600160a01b03821682036108f657565b600080fd5b602435906001600160a01b03821682036108f657565b1561091857565b60405162461bcd60e51b815260206004820152600b60248201526a4e4f545f464143544f525960a81b6044820152606490fd5b9190820180921161095857565b634e487b7160e01b600052601160045260246000fd5b9190820391821161095857565b9060018060a01b0392838316926000848152600495602094878652604093858585205410610b58578784526009875260ff85852054161580610b45575b610a19575b50918392917fddf252ad1be2c89b69c2b068fc378daa952ba7f163c4a11628f55a4df523b3ef969594928883528987528383206109fb87825461096e565b90551697888252855220610a1083825461094b565b905551908152a3565b6006548015610b355760085490610a3661ffff918284169061094b565b431115610b2557600754431115610a4f575b50506109bd565b600354908260101c1690818102918183041490151715610b125761271090048711610b0257871c60ff16610a85575b8080610a48565b829081600d54168015159081610af8575b5015610af35750815b16808452600a8752438585205414610ae3578352600a86528383204390557fddf252ad1be2c89b69c2b068fc378daa952ba7f163c4a11628f55a4df523b3ef610a7e565b845163aa9a98df60e01b81528990fd5b610a9f565b9050891438610a96565b8551634d22aedf60e11b81528a90fd5b634e487b7160e01b865260118b52602486fd5b8651637b85e8b960e01b81528b90fd5b85516312f1f92360e01b81528a90fd5b50828216845260ff8585205416156109b8565b845162461bcd60e51b8152808a01889052600760248201526642414c414e434560c81b6044820152606490fdfea264697066735822122065474668e201ac05dea47a69fc4b12046ce31756b60115a495a75f2c7aef846464736f6c63430008140033ddf252ad1be2c89b69c2b068fc378daa952ba7f163c4a11628f55a4df523b3efb10e2d527612073b26eecdfd717e6a320cf44b4afac2b0732d9fcbe2b7fa0cf6a26469706673582212209ca26095bc0313e385a02b51c58843f08aa8e7e960eec57744cfe2310ad1537f64736f6c63430008140033","opcodes":"PUSH1 0xE0 PUSH1 0x40 SWAP1 DUP1 DUP3 MSTORE CALLVALUE PUSH3 0x142 JUMPI DUP2 DUP2 PUSH3 0x21D9 DUP1 CODESIZE SUB DUP1 SWAP2 PUSH3 0x24 DUP3 DUP6 PUSH3 0x147 JUMP JUMPDEST DUP4 CODECOPY DUP2 ADD SUB SLT PUSH3 0x142 JUMPI PUSH3 0x3A DUP2 PUSH3 0x181 JUMP JUMPDEST PUSH1 0x20 SWAP2 DUP3 ADD MLOAD SWAP2 PUSH1 0x1 PUSH1 0x1 PUSH1 0xA0 SHL SUB SWAP2 DUP3 AND DUP1 ISZERO PUSH3 0x111 JUMPI SWAP1 DUP1 DUP3 PUSH1 0x4 SWAP4 PUSH1 0xA0 MSTORE DUP7 MLOAD SWAP4 DUP5 DUP1 SWAP3 PUSH4 0xC45A0155 PUSH1 0xE0 SHL DUP3 MSTORE GAS STATICCALL SWAP1 DUP2 ISZERO PUSH3 0x106 JUMPI PUSH1 0x0 SWAP2 PUSH3 0xC7 JUMPI JUMPDEST POP SWAP1 POP AND PUSH1 0xC0 MSTORE PUSH1 0x80 MSTORE MLOAD PUSH2 0x2042 SWAP1 DUP2 PUSH3 0x197 DUP3 CODECOPY PUSH1 0x80 MLOAD DUP2 DUP2 DUP2 PUSH2 0x2D3 ADD MSTORE PUSH2 0xB27 ADD MSTORE PUSH1 0xA0 MLOAD DUP2 DUP2 DUP2 PUSH2 0x101 ADD MSTORE PUSH2 0x440 ADD MSTORE PUSH1 0xC0 MLOAD DUP2 DUP2 DUP2 PUSH2 0x1FE ADD MSTORE PUSH2 0x618 ADD MSTORE RETURN JUMPDEST DUP3 DUP2 RETURNDATASIZE DUP4 GT PUSH3 0xFE JUMPI JUMPDEST PUSH3 0xDE DUP2 DUP4 PUSH3 0x147 JUMP JUMPDEST DUP2 ADD SUB SLT PUSH3 0xFB JUMPI POP PUSH3 0xF3 SWAP1 PUSH3 0x181 JUMP JUMPDEST DUP1 CODESIZE PUSH3 0x7F JUMP JUMPDEST DUP1 REVERT JUMPDEST POP RETURNDATASIZE PUSH3 0xD2 JUMP JUMPDEST DUP6 MLOAD RETURNDATASIZE PUSH1 0x0 DUP3 RETURNDATACOPY RETURNDATASIZE SWAP1 REVERT JUMPDEST DUP5 MLOAD PUSH3 0x461BCD PUSH1 0xE5 SHL DUP2 MSTORE PUSH1 0x4 DUP2 ADD DUP4 SWAP1 MSTORE PUSH1 0xA PUSH1 0x24 DUP3 ADD MSTORE PUSH10 0x2120A22FA927AAAA22A9 PUSH1 0xB1 SHL PUSH1 0x44 DUP3 ADD MSTORE PUSH1 0x64 SWAP1 REVERT JUMPDEST PUSH1 0x0 DUP1 REVERT JUMPDEST PUSH1 0x1F SWAP1 SWAP2 ADD PUSH1 0x1F NOT AND DUP2 ADD SWAP1 PUSH1 0x1 PUSH1 0x1 PUSH1 0x40 SHL SUB DUP3 GT SWAP1 DUP3 LT OR PUSH3 0x16B JUMPI PUSH1 0x40 MSTORE JUMP JUMPDEST PUSH4 0x4E487B71 PUSH1 0xE0 SHL PUSH1 0x0 MSTORE PUSH1 0x41 PUSH1 0x4 MSTORE PUSH1 0x24 PUSH1 0x0 REVERT JUMPDEST MLOAD SWAP1 PUSH1 0x1 PUSH1 0x1 PUSH1 0xA0 SHL SUB DUP3 AND DUP3 SUB PUSH3 0x142 JUMPI JUMP INVALID PUSH1 0x80 PUSH1 0x40 MSTORE PUSH1 0x4 CALLDATASIZE LT ISZERO PUSH3 0x1D JUMPI JUMPDEST CALLDATASIZE ISZERO PUSH3 0x1B JUMPI PUSH1 0x0 DUP1 REVERT JUMPDEST STOP JUMPDEST PUSH1 0x0 DUP1 CALLDATALOAD PUSH1 0xE0 SHR DUP1 PUSH4 0x4E03D4C EQ PUSH3 0xB93 JUMPI DUP1 PUSH4 0x24F7B368 EQ PUSH3 0xB6F JUMPI DUP1 PUSH4 0x3A0AF582 EQ PUSH3 0xB4A JUMPI DUP1 PUSH4 0x3B8B896D EQ PUSH3 0xB0D JUMPI DUP1 PUSH4 0x5561079D EQ PUSH3 0xAEF JUMPI DUP1 PUSH4 0x5653C0CD EQ PUSH3 0xACA JUMPI DUP1 PUSH4 0x74B60031 EQ PUSH3 0xAAC JUMPI DUP1 PUSH4 0x873289B8 EQ PUSH3 0x26B JUMPI DUP1 PUSH4 0xA53E5412 EQ PUSH3 0x24B JUMPI DUP1 PUSH4 0xAF34DA3C EQ PUSH3 0x22D JUMPI DUP1 PUSH4 0xB8D8FBB4 EQ PUSH3 0x1E6 JUMPI DUP1 PUSH4 0xBF3B9A72 EQ PUSH3 0x194 JUMPI DUP1 PUSH4 0xCC292505 EQ PUSH3 0x175 JUMPI DUP1 PUSH4 0xEBFFA67B EQ PUSH3 0x151 JUMPI DUP1 PUSH4 0xF40DB5EC EQ PUSH3 0x133 JUMPI PUSH4 0xF887EA40 EQ PUSH3 0xEA JUMPI POP PUSH3 0xF JUMP JUMPDEST CALLVALUE PUSH3 0x130 JUMPI DUP1 PUSH1 0x3 NOT CALLDATASIZE ADD SLT PUSH3 0x130 JUMPI PUSH1 0x40 MLOAD PUSH32 0x0 PUSH1 0x1 PUSH1 0x1 PUSH1 0xA0 SHL SUB AND DUP2 MSTORE PUSH1 0x20 SWAP1 RETURN JUMPDEST DUP1 REVERT JUMPDEST POP CALLVALUE PUSH3 0x130 JUMPI DUP1 PUSH1 0x3 NOT CALLDATASIZE ADD SLT PUSH3 0x130 JUMPI PUSH1 0x20 PUSH1 0x40 MLOAD PUSH1 0x32 DUP2 MSTORE RETURN JUMPDEST POP CALLVALUE PUSH3 0x130 JUMPI DUP1 PUSH1 0x3 NOT CALLDATASIZE ADD SLT PUSH3 0x130 JUMPI PUSH1 0x20 PUSH1 0x40 MLOAD PUSH7 0xB1A2BC2EC50000 DUP2 MSTORE RETURN JUMPDEST POP CALLVALUE PUSH3 0x130 JUMPI DUP1 PUSH1 0x3 NOT CALLDATASIZE ADD SLT PUSH3 0x130 JUMPI PUSH1 0x20 PUSH1 0x40 MLOAD PUSH2 0x3E8 DUP2 MSTORE RETURN JUMPDEST POP CALLVALUE PUSH3 0x130 JUMPI PUSH1 0x20 CALLDATASIZE PUSH1 0x3 NOT ADD SLT PUSH3 0x130 JUMPI PUSH1 0x4 CALLDATALOAD SWAP1 PUSH1 0x1 PUSH1 0x1 PUSH1 0xA0 SHL SUB DUP3 AND DUP3 SUB PUSH3 0x130 JUMPI PUSH1 0x40 PUSH1 0xFF PUSH3 0x1CC DUP5 PUSH3 0xC6D JUMP JUMPDEST PUSH8 0xFFFFFFFFFFFFFFFF DUP5 SWAP4 SWAP3 SWAP4 MLOAD SWAP4 AND DUP4 MSTORE AND PUSH1 0x20 DUP3 ADD MSTORE RETURN JUMPDEST POP CALLVALUE PUSH3 0x130 JUMPI DUP1 PUSH1 0x3 NOT CALLDATASIZE ADD SLT PUSH3 0x130 JUMPI PUSH1 0x40 MLOAD PUSH32 0x0 PUSH1 0x1 PUSH1 0x1 PUSH1 0xA0 SHL SUB AND DUP2 MSTORE PUSH1 0x20 SWAP1 RETURN JUMPDEST POP CALLVALUE PUSH3 0x130 JUMPI DUP1 PUSH1 0x3 NOT CALLDATASIZE ADD SLT PUSH3 0x130 JUMPI PUSH1 0x20 PUSH1 0x40 MLOAD PUSH1 0x2 DUP2 MSTORE RETURN JUMPDEST POP CALLVALUE PUSH3 0x130 JUMPI DUP1 PUSH1 0x3 NOT CALLDATASIZE ADD SLT PUSH3 0x130 JUMPI PUSH1 0x20 PUSH1 0x40 MLOAD PUSH3 0x15180 DUP2 MSTORE RETURN JUMPDEST POP PUSH1 0xE0 CALLDATASIZE PUSH1 0x3 NOT ADD SLT PUSH3 0x130 JUMPI PUSH1 0x4 CALLDATALOAD PUSH8 0xFFFFFFFFFFFFFFFF DUP2 GT PUSH3 0xAA8 JUMPI PUSH3 0x29C SWAP1 CALLDATASIZE SWAP1 PUSH1 0x4 ADD PUSH3 0xBD1 JUMP JUMPDEST PUSH1 0x24 SWAP3 SWAP2 SWAP3 CALLDATALOAD PUSH8 0xFFFFFFFFFFFFFFFF DUP2 GT PUSH3 0x80F JUMPI PUSH3 0x2C2 SWAP1 CALLDATASIZE SWAP1 PUSH1 0x4 ADD PUSH3 0xBD1 JUMP JUMPDEST SWAP3 SWAP1 PUSH1 0x60 CALLDATASIZE PUSH1 0x83 NOT ADD SLT PUSH3 0xAA8 JUMPI PUSH32 0x0 PUSH1 0x64 CALLDATALOAD LT PUSH3 0xA75 JUMPI CALLER DUP3 MSTORE DUP2 PUSH1 0x20 MSTORE PUSH1 0x40 DUP3 KECCAK256 SWAP3 DUP4 SLOAD PUSH8 0xFFFFFFFFFFFFFFFF DUP2 AND DUP1 ISZERO SWAP1 DUP2 ISZERO PUSH3 0xA6A JUMPI JUMPDEST POP PUSH3 0xA3B JUMPI JUMPDEST POP PUSH3 0x332 CALLER PUSH3 0xCE8 JUMP JUMPDEST SWAP4 DUP1 SLOAD PUSH1 0x1 PUSH1 0xFF DUP3 PUSH1 0x40 SHR AND ADD PUSH1 0xFF DUP2 GT PUSH3 0xA27 JUMPI PUSH1 0xFF PUSH1 0x40 SHL SWAP1 PUSH1 0x40 SHL AND SWAP1 PUSH1 0xFF PUSH1 0x40 SHL NOT AND OR SWAP1 SSTORE PUSH1 0x64 CALLDATALOAD DUP5 ADD DUP1 DUP6 GT PUSH3 0x9A8 JUMPI CALLVALUE SUB PUSH3 0x9F2 JUMPI PUSH3 0x37B PUSH3 0xD9C JUMP JUMPDEST ISZERO PUSH3 0x9EA JUMPI PUSH1 0x2 SWAP6 JUMPDEST PUSH3 0x38F PUSH3 0xD9C JUMP JUMPDEST ISZERO PUSH3 0x9E2 JUMPI PUSH1 0x5 SWAP3 JUMPDEST PUSH3 0x3A3 PUSH3 0xD9C JUMP JUMPDEST ISZERO PUSH3 0x9D8 JUMPI PUSH1 0x32 SWAP7 JUMPDEST PUSH3 0x3B7 PUSH3 0xD9C JUMP JUMPDEST ISZERO PUSH3 0x9D0 JUMPI PUSH1 0x1 SWAP3 JUMPDEST PUSH1 0x40 MLOAD SWAP5 DUP6 PUSH2 0x1204 DUP2 ADD LT PUSH8 0xFFFFFFFFFFFFFFFF PUSH2 0x1204 DUP9 ADD GT OR PUSH3 0x9BC JUMPI SWAP2 PUSH3 0x40B DUP7 SWAP6 SWAP5 SWAP3 PUSH3 0x422 SWAP5 PUSH2 0x1204 PUSH3 0xE09 DUP10 CODECOPY PUSH2 0x140 PUSH2 0x1204 DUP10 ADD DUP2 DUP2 MSTORE ADD SWAP2 PUSH3 0xDAC JUMP JUMPDEST SWAP2 PUSH2 0x1204 DUP7 ADD DUP4 SUB PUSH1 0x20 PUSH2 0x1204 DUP9 ADD ADD MSTORE PUSH3 0xDAC JUMP JUMPDEST PUSH1 0x44 CALLDATALOAD PUSH2 0x1204 DUP5 ADD PUSH1 0x40 DUP2 ADD SWAP2 SWAP1 SWAP2 MSTORE CALLER PUSH1 0x60 DUP3 ADD MSTORE ADDRESS PUSH1 0x80 DUP3 ADD MSTORE PUSH32 0x0 PUSH1 0x1 PUSH1 0x1 PUSH1 0xA0 SHL SUB AND PUSH1 0xA0 DUP3 ADD DUP2 SWAP1 MSTORE PUSH2 0xFFFF SWAP11 DUP12 AND PUSH1 0xC0 DUP4 ADD MSTORE DUP7 DUP12 AND PUSH1 0xE0 DUP4 ADD MSTORE SWAP9 DUP11 AND PUSH2 0x100 DUP3 ADD MSTORE SWAP2 ISZERO ISZERO PUSH2 0x120 SWAP1 SWAP3 ADD SWAP2 SWAP1 SWAP2 MSTORE SWAP6 SWAP7 SWAP6 SUB SWAP1 DUP4 CREATE DUP1 ISZERO PUSH3 0x804 JUMPI PUSH1 0x1 PUSH1 0x1 PUSH1 0xA0 SHL SUB AND SWAP4 PUSH2 0x3E8 PUSH1 0x44 CALLDATALOAD DUP2 DUP2 MUL SWAP2 DUP2 DUP4 DIV EQ SWAP1 ISZERO OR ISZERO PUSH3 0x9A8 JUMPI PUSH2 0x2710 SWAP1 DIV DUP1 PUSH1 0x44 CALLDATALOAD SUB PUSH1 0x44 CALLDATALOAD DUP2 GT PUSH3 0x8CA JUMPI PUSH1 0x40 MLOAD PUSH4 0xA9059CBB PUSH1 0xE0 SHL DUP2 MSTORE CALLER PUSH1 0x4 DUP3 ADD MSTORE PUSH1 0x24 DUP2 ADD SWAP2 SWAP1 SWAP2 MSTORE PUSH1 0x20 DUP2 PUSH1 0x44 DUP2 DUP9 DUP12 GAS CALL SWAP1 DUP2 ISZERO PUSH3 0x948 JUMPI DUP6 SWAP2 PUSH3 0x984 JUMPI JUMPDEST POP ISZERO PUSH3 0x953 JUMPI PUSH1 0x40 MLOAD PUSH4 0x95EA7B3 PUSH1 0xE0 SHL DUP2 MSTORE PUSH1 0x1 PUSH1 0x1 PUSH1 0xA0 SHL SUB DUP9 AND PUSH1 0x4 DUP3 ADD MSTORE PUSH1 0x24 DUP2 ADD DUP3 SWAP1 MSTORE PUSH1 0x20 DUP2 PUSH1 0x44 DUP2 DUP9 DUP12 GAS CALL SWAP1 DUP2 ISZERO PUSH3 0x948 JUMPI DUP6 SWAP2 PUSH3 0x912 JUMPI JUMPDEST POP ISZERO PUSH3 0x8DE JUMPI PUSH2 0x4B0 TIMESTAMP ADD DUP1 TIMESTAMP GT PUSH3 0x8CA JUMPI PUSH1 0x40 MLOAD SWAP2 PUSH4 0xF305D719 PUSH1 0xE0 SHL DUP4 MSTORE DUP8 PUSH1 0x4 DUP5 ADD MSTORE PUSH1 0x24 DUP4 ADD MSTORE DUP5 PUSH1 0x44 DUP4 ADD MSTORE DUP5 PUSH1 0x64 DUP4 ADD MSTORE CALLER PUSH1 0x84 DUP4 ADD MSTORE PUSH1 0xA4 DUP3 ADD MSTORE PUSH1 0x60 DUP2 PUSH1 0xC4 DUP2 PUSH1 0x64 CALLDATALOAD DUP12 GAS CALL DUP1 ISZERO PUSH3 0x829 JUMPI PUSH3 0x899 JUMPI JUMPDEST POP PUSH1 0x20 PUSH1 0x4 SWAP7 PUSH1 0x40 MLOAD SWAP8 DUP9 DUP1 SWAP3 PUSH4 0x15AB88C9 PUSH1 0xE3 SHL DUP3 MSTORE GAS STATICCALL SWAP6 DUP7 ISZERO PUSH3 0x86C JUMPI PUSH3 0x614 SWAP7 PUSH1 0x20 SWAP2 DUP6 SWAP2 PUSH3 0x877 JUMPI JUMPDEST POP PUSH1 0x40 MLOAD PUSH4 0xE6A43905 PUSH1 0xE0 SHL DUP2 MSTORE PUSH1 0x1 PUSH1 0x1 PUSH1 0xA0 SHL SUB DUP1 DUP10 AND PUSH1 0x4 DUP4 ADD MSTORE SWAP1 SWAP2 AND PUSH1 0x24 DUP3 ADD MSTORE SWAP7 DUP8 SWAP1 DUP2 SWAP1 PUSH1 0x44 DUP3 ADD SWAP1 JUMP JUMPDEST SUB DUP2 PUSH32 0x0 PUSH1 0x1 PUSH1 0x1 PUSH1 0xA0 SHL SUB AND GAS STATICCALL SWAP6 DUP7 ISZERO PUSH3 0x86C JUMPI DUP4 SWAP7 PUSH3 0x834 JUMPI JUMPDEST POP DUP5 EXTCODESIZE ISZERO PUSH3 0x80F JUMPI PUSH1 0x40 MLOAD PUSH4 0x40C3FA8B PUSH1 0xE1 SHL DUP2 MSTORE PUSH1 0x1 PUSH1 0x1 PUSH1 0xA0 SHL SUB DUP8 AND PUSH1 0x4 DUP3 ADD MSTORE DUP4 DUP2 PUSH1 0x24 DUP2 DUP4 DUP11 GAS CALL DUP1 ISZERO PUSH3 0x829 JUMPI PUSH3 0x813 JUMPI JUMPDEST POP DUP5 EXTCODESIZE ISZERO PUSH3 0x80F JUMPI PUSH1 0x40 MLOAD PUSH4 0x5B3EA133 PUSH1 0xE1 SHL DUP2 MSTORE NUMBER PUSH1 0x4 DUP3 ADD MSTORE SWAP2 AND PUSH1 0x24 DUP3 ADD MSTORE DUP2 DUP2 PUSH1 0x44 DUP2 DUP4 DUP9 GAS CALL DUP1 ISZERO PUSH3 0x804 JUMPI SWAP1 DUP3 SWAP2 PUSH3 0x7EC JUMPI JUMPDEST POP POP PUSH1 0x40 MLOAD PUSH4 0x9605DDBB PUSH1 0xE0 SHL DUP2 MSTORE PUSH1 0x20 DUP2 PUSH1 0x4 DUP2 DUP8 GAS STATICCALL SWAP2 DUP3 ISZERO PUSH3 0x7E0 JUMPI DUP1 SWAP3 PUSH3 0x7A5 JUMPI JUMPDEST POP POP PUSH1 0x40 MLOAD SWAP2 PUSH1 0x44 CALLDATALOAD DUP4 MSTORE PUSH1 0x64 CALLDATALOAD PUSH1 0x20 DUP5 ADD MSTORE PUSH1 0x40 DUP4 ADD MSTORE NUMBER PUSH1 0x60 DUP4 ADD MSTORE PUSH1 0x80 DUP3 ADD MSTORE PUSH1 0x84 CALLDATALOAD DUP1 ISZERO ISZERO DUP1 SWAP2 SUB PUSH3 0x7A0 JUMPI PUSH1 0xA0 DUP3 ADD MSTORE PUSH1 0xA4 CALLDATALOAD DUP1 ISZERO ISZERO DUP1 SWAP2 SUB PUSH3 0x7A0 JUMPI PUSH1 0xC0 DUP3 ADD MSTORE PUSH1 0xC4 CALLDATALOAD DUP1 ISZERO ISZERO DUP1 SWAP2 SUB PUSH3 0x7A0 JUMPI PUSH1 0xE0 DUP3 ADD MSTORE PUSH1 0x1 PUSH1 0x1 PUSH1 0xA0 SHL SUB DUP4 AND SWAP1 DUP3 SWAP1 CALLER SWAP1 PUSH32 0x65E0E9B2FE5DDF5DD3083F368A861E6C2035C2C7FDCCD6864D77CDDFFDAB6950 SWAP1 PUSH2 0x100 SWAP1 LOG4 PUSH1 0x40 DUP1 MLOAD PUSH1 0x1 PUSH1 0x1 PUSH1 0xA0 SHL SUB SWAP3 DUP4 AND DUP2 MSTORE SWAP3 SWAP1 SWAP2 AND PUSH1 0x20 DUP4 ADD MSTORE SWAP1 RETURN JUMPDEST PUSH1 0x0 DUP1 REVERT JUMPDEST SWAP1 SWAP2 POP PUSH1 0x20 DUP3 RETURNDATASIZE PUSH1 0x20 GT PUSH3 0x7D7 JUMPI JUMPDEST DUP2 PUSH3 0x7C4 PUSH1 0x20 SWAP4 DUP4 PUSH3 0xC4A JUMP JUMPDEST DUP2 ADD SUB SLT PUSH3 0x130 JUMPI POP MLOAD CODESIZE DUP1 PUSH3 0x6F1 JUMP JUMPDEST RETURNDATASIZE SWAP2 POP PUSH3 0x7B5 JUMP JUMPDEST PUSH1 0x40 MLOAD SWAP1 RETURNDATASIZE SWAP1 DUP3 RETURNDATACOPY RETURNDATASIZE SWAP1 REVERT JUMPDEST PUSH3 0x7F7 SWAP1 PUSH3 0xC02 JUMP JUMPDEST PUSH3 0x130 JUMPI DUP1 CODESIZE PUSH3 0x6C9 JUMP JUMPDEST PUSH1 0x40 MLOAD RETURNDATASIZE DUP5 DUP3 RETURNDATACOPY RETURNDATASIZE SWAP1 REVERT JUMPDEST DUP3 DUP1 REVERT JUMPDEST PUSH3 0x821 SWAP1 SWAP4 SWAP2 SWAP4 PUSH3 0xC02 JUMP JUMPDEST SWAP2 CODESIZE PUSH3 0x68D JUMP JUMPDEST PUSH1 0x40 MLOAD RETURNDATASIZE DUP7 DUP3 RETURNDATACOPY RETURNDATASIZE SWAP1 REVERT JUMPDEST PUSH3 0x85C SWAP2 SWAP7 POP PUSH1 0x20 RETURNDATASIZE PUSH1 0x20 GT PUSH3 0x864 JUMPI JUMPDEST PUSH3 0x853 DUP2 DUP4 PUSH3 0xC4A JUMP JUMPDEST DUP2 ADD SWAP1 PUSH3 0xDE7 JUMP JUMPDEST SWAP5 CODESIZE PUSH3 0x652 JUMP JUMPDEST POP RETURNDATASIZE PUSH3 0x847 JUMP JUMPDEST PUSH1 0x40 MLOAD RETURNDATASIZE DUP6 DUP3 RETURNDATACOPY RETURNDATASIZE SWAP1 REVERT JUMPDEST PUSH3 0x892 SWAP2 POP DUP3 RETURNDATASIZE DUP5 GT PUSH3 0x864 JUMPI PUSH3 0x853 DUP2 DUP4 PUSH3 0xC4A JUMP JUMPDEST CODESIZE PUSH3 0x5E2 JUMP JUMPDEST PUSH1 0x60 SWAP1 DUP2 RETURNDATASIZE DUP4 GT PUSH3 0x8C2 JUMPI JUMPDEST PUSH3 0x8B2 DUP2 DUP4 PUSH3 0xC4A JUMP JUMPDEST DUP2 ADD SUB SLT PUSH3 0x80F JUMPI CODESIZE PUSH3 0x5B1 JUMP JUMPDEST POP RETURNDATASIZE PUSH3 0x8A6 JUMP JUMPDEST PUSH4 0x4E487B71 PUSH1 0xE0 SHL DUP6 MSTORE PUSH1 0x11 PUSH1 0x4 MSTORE PUSH1 0x24 DUP6 REVERT JUMPDEST PUSH1 0x40 MLOAD PUSH3 0x461BCD PUSH1 0xE5 SHL DUP2 MSTORE PUSH1 0x20 PUSH1 0x4 DUP3 ADD MSTORE PUSH1 0xC PUSH1 0x24 DUP3 ADD MSTORE PUSH12 0x1054141493D59157D1905253 PUSH1 0xA2 SHL PUSH1 0x44 DUP3 ADD MSTORE PUSH1 0x64 SWAP1 REVERT JUMPDEST PUSH3 0x939 SWAP2 POP PUSH1 0x20 RETURNDATASIZE PUSH1 0x20 GT PUSH3 0x940 JUMPI JUMPDEST PUSH3 0x930 DUP2 DUP4 PUSH3 0xC4A JUMP JUMPDEST DUP2 ADD SWAP1 PUSH3 0xDCD JUMP JUMPDEST CODESIZE PUSH3 0x554 JUMP JUMPDEST POP RETURNDATASIZE PUSH3 0x924 JUMP JUMPDEST PUSH1 0x40 MLOAD RETURNDATASIZE DUP8 DUP3 RETURNDATACOPY RETURNDATASIZE SWAP1 REVERT JUMPDEST PUSH1 0x40 MLOAD PUSH3 0x461BCD PUSH1 0xE5 SHL DUP2 MSTORE PUSH1 0x20 PUSH1 0x4 DUP3 ADD MSTORE PUSH1 0x9 PUSH1 0x24 DUP3 ADD MSTORE PUSH9 0x1611915497D1905253 PUSH1 0xBA SHL PUSH1 0x44 DUP3 ADD MSTORE PUSH1 0x64 SWAP1 REVERT JUMPDEST PUSH3 0x9A1 SWAP2 POP PUSH1 0x20 RETURNDATASIZE PUSH1 0x20 GT PUSH3 0x940 JUMPI PUSH3 0x930 DUP2 DUP4 PUSH3 0xC4A JUMP JUMPDEST CODESIZE PUSH3 0x510 JUMP JUMPDEST PUSH4 0x4E487B71 PUSH1 0xE0 SHL DUP5 MSTORE PUSH1 0x11 PUSH1 0x4 MSTORE PUSH1 0x24 DUP5 REVERT JUMPDEST PUSH4 0x4E487B71 PUSH1 0xE0 SHL DUP9 MSTORE PUSH1 0x41 PUSH1 0x4 MSTORE PUSH1 0x24 DUP9 REVERT JUMPDEST DUP6 SWAP3 PUSH3 0x3C1 JUMP JUMPDEST PUSH2 0x2710 SWAP7 PUSH3 0x3AD JUMP JUMPDEST DUP4 SWAP3 PUSH3 0x399 JUMP JUMPDEST DUP3 SWAP6 PUSH3 0x385 JUMP JUMPDEST PUSH1 0x40 MLOAD PUSH3 0x461BCD PUSH1 0xE5 SHL DUP2 MSTORE PUSH1 0x20 PUSH1 0x4 DUP3 ADD MSTORE PUSH1 0xD PUSH1 0x24 DUP3 ADD MSTORE PUSH13 0x4241445F4D53475F56414C5545 PUSH1 0x98 SHL PUSH1 0x44 DUP3 ADD MSTORE PUSH1 0x64 SWAP1 REVERT JUMPDEST PUSH4 0x4E487B71 PUSH1 0xE0 SHL DUP7 MSTORE PUSH1 0x11 PUSH1 0x4 MSTORE PUSH1 0x24 DUP7 REVERT JUMPDEST PUSH3 0x15180 TIMESTAMP ADD DUP1 TIMESTAMP GT PUSH3 0x8CA JUMPI PUSH8 0xFFFFFFFFFFFFFFFF AND SWAP1 PUSH9 0xFFFFFFFFFFFFFFFFFF NOT AND OR DUP5 SSTORE CODESIZE PUSH3 0x326 JUMP JUMPDEST SWAP1 POP TIMESTAMP GT CODESIZE PUSH3 0x31F JUMP JUMPDEST PUSH1 0x40 MLOAD PUSH3 0x461BCD PUSH1 0xE5 SHL DUP2 MSTORE PUSH1 0x20 PUSH1 0x4 DUP3 ADD MSTORE PUSH1 0xB PUSH1 0x24 DUP3 ADD MSTORE PUSH11 0x4C49515F544F4F5F4C4F57 PUSH1 0xA8 SHL PUSH1 0x44 DUP3 ADD MSTORE PUSH1 0x64 SWAP1 REVERT JUMPDEST POP DUP1 REVERT JUMPDEST POP CALLVALUE PUSH3 0x130 JUMPI DUP1 PUSH1 0x3 NOT CALLDATASIZE ADD SLT PUSH3 0x130 JUMPI PUSH1 0x20 PUSH1 0x40 MLOAD PUSH1 0x1 DUP2 MSTORE RETURN JUMPDEST POP CALLVALUE PUSH3 0x130 JUMPI DUP1 PUSH1 0x3 NOT CALLDATASIZE ADD SLT PUSH3 0x130 JUMPI PUSH1 0x20 PUSH1 0x40 MLOAD PUSH8 0x16345785D8A0000 DUP2 MSTORE RETURN JUMPDEST POP CALLVALUE PUSH3 0x130 JUMPI DUP1 PUSH1 0x3 NOT CALLDATASIZE ADD SLT PUSH3 0x130 JUMPI PUSH1 0x20 PUSH1 0x40 MLOAD PUSH1 0x5 DUP2 MSTORE RETURN JUMPDEST POP CALLVALUE PUSH3 0x130 JUMPI DUP1 PUSH1 0x3 NOT CALLDATASIZE ADD SLT PUSH3 0x130 JUMPI PUSH1 0x20 PUSH1 0x40 MLOAD PUSH32 0x0 DUP2 MSTORE RETURN JUMPDEST POP CALLVALUE PUSH3 0x130 JUMPI DUP1 PUSH1 0x3 NOT CALLDATASIZE ADD SLT PUSH3 0x130 JUMPI PUSH1 0x20 PUSH1 0x40 MLOAD PUSH8 0x2C68AF0BB140000 DUP2 MSTORE RETURN JUMPDEST POP CALLVALUE PUSH3 0x130 JUMPI DUP1 PUSH1 0x3 NOT CALLDATASIZE ADD SLT PUSH3 0x130 JUMPI PUSH1 0x20 PUSH1 0x40 MLOAD PUSH7 0x470DE4DF820000 DUP2 MSTORE RETURN JUMPDEST POP CALLVALUE PUSH3 0x130 JUMPI PUSH1 0x20 CALLDATASIZE PUSH1 0x3 NOT ADD SLT PUSH3 0x130 JUMPI PUSH1 0x4 CALLDATALOAD SWAP1 PUSH1 0x1 PUSH1 0x1 PUSH1 0xA0 SHL SUB DUP3 AND DUP3 SUB PUSH3 0x130 JUMPI PUSH1 0x20 PUSH3 0xBC9 DUP4 PUSH3 0xCE8 JUMP JUMPDEST PUSH1 0x40 MLOAD SWAP1 DUP2 MSTORE RETURN JUMPDEST SWAP2 DUP2 PUSH1 0x1F DUP5 ADD SLT ISZERO PUSH3 0x7A0 JUMPI DUP3 CALLDATALOAD SWAP2 PUSH8 0xFFFFFFFFFFFFFFFF DUP4 GT PUSH3 0x7A0 JUMPI PUSH1 0x20 DUP4 DUP2 DUP7 ADD SWAP6 ADD ADD GT PUSH3 0x7A0 JUMPI JUMP JUMPDEST PUSH8 0xFFFFFFFFFFFFFFFF DUP2 GT PUSH3 0xC17 JUMPI PUSH1 0x40 MSTORE JUMP JUMPDEST PUSH4 0x4E487B71 PUSH1 0xE0 SHL PUSH1 0x0 MSTORE PUSH1 0x41 PUSH1 0x4 MSTORE PUSH1 0x24 PUSH1 0x0 REVERT JUMPDEST PUSH1 0x40 DUP2 ADD SWAP1 DUP2 LT PUSH8 0xFFFFFFFFFFFFFFFF DUP3 GT OR PUSH3 0xC17 JUMPI PUSH1 0x40 MSTORE JUMP JUMPDEST SWAP1 PUSH1 0x1F DUP1 NOT SWAP2 ADD AND DUP2 ADD SWAP1 DUP2 LT PUSH8 0xFFFFFFFFFFFFFFFF DUP3 GT OR PUSH3 0xC17 JUMPI PUSH1 0x40 MSTORE JUMP JUMPDEST PUSH1 0x1 PUSH1 0x1 PUSH1 0xA0 SHL SUB AND PUSH1 0x0 SWAP1 DUP2 MSTORE PUSH1 0x20 DUP2 SWAP1 MSTORE PUSH1 0x40 DUP1 DUP3 KECCAK256 SWAP1 MLOAD SWAP3 SWAP2 SWAP1 PUSH3 0xC95 DUP5 PUSH3 0xC2D JUMP JUMPDEST SLOAD SWAP3 PUSH8 0xFFFFFFFFFFFFFFFF SWAP2 DUP3 DUP6 AND DUP1 DUP4 MSTORE PUSH1 0xFF PUSH1 0x20 DUP5 ADD SWAP7 PUSH1 0x40 SHR AND DUP7 MSTORE ISZERO PUSH3 0xCD2 JUMPI DUP3 DUP3 MLOAD AND TIMESTAMP GT PUSH3 0xCD2 JUMPI POP SWAP1 PUSH1 0xFF SWAP2 MLOAD AND SWAP3 MLOAD AND SWAP1 JUMP JUMPDEST SWAP4 POP POP PUSH3 0x15180 TIMESTAMP ADD DUP1 TIMESTAMP GT PUSH3 0x9A8 JUMPI AND SWAP2 SWAP1 JUMP JUMPDEST PUSH1 0x1 DUP1 PUSH1 0xA0 SHL SUB AND PUSH1 0x0 MSTORE PUSH1 0x0 PUSH1 0x20 MSTORE PUSH1 0x40 PUSH1 0x0 KECCAK256 PUSH1 0x20 PUSH1 0x40 MLOAD SWAP2 PUSH3 0xD0E DUP4 PUSH3 0xC2D JUMP JUMPDEST SLOAD SWAP2 PUSH1 0xFF PUSH8 0xFFFFFFFFFFFFFFFF DUP5 AND SWAP4 DUP5 DUP4 MSTORE PUSH1 0x40 SHR AND SWAP2 DUP3 SWAP2 ADD MSTORE SWAP1 DUP1 ISZERO SWAP1 DUP2 ISZERO PUSH3 0xD91 JUMPI JUMPDEST POP PUSH3 0xD88 JUMPI JUMPDEST PUSH1 0xFF AND DUP1 ISZERO PUSH3 0xD7C JUMPI PUSH1 0x1 DUP2 EQ PUSH3 0xD70 JUMPI PUSH1 0x2 EQ PUSH3 0xD64 JUMPI PUSH8 0x2C68AF0BB140000 SWAP1 JUMP JUMPDEST PUSH8 0x16345785D8A0000 SWAP1 JUMP JUMPDEST POP PUSH7 0xB1A2BC2EC50000 SWAP1 JUMP JUMPDEST POP PUSH7 0x470DE4DF820000 SWAP1 JUMP JUMPDEST POP PUSH1 0x0 PUSH3 0xD3D JUMP JUMPDEST SWAP1 POP TIMESTAMP GT CODESIZE PUSH3 0xD36 JUMP JUMPDEST PUSH1 0xA4 CALLDATALOAD DUP1 ISZERO ISZERO DUP2 SUB PUSH3 0x7A0 JUMPI SWAP1 JUMP JUMPDEST SWAP1 DUP1 PUSH1 0x20 SWAP4 SWAP3 DUP2 DUP5 MSTORE DUP5 DUP5 ADD CALLDATACOPY PUSH1 0x0 DUP3 DUP3 ADD DUP5 ADD MSTORE PUSH1 0x1F ADD PUSH1 0x1F NOT AND ADD ADD SWAP1 JUMP JUMPDEST SWAP1 DUP2 PUSH1 0x20 SWAP2 SUB SLT PUSH3 0x7A0 JUMPI MLOAD DUP1 ISZERO ISZERO DUP2 SUB PUSH3 0x7A0 JUMPI SWAP1 JUMP JUMPDEST SWAP1 DUP2 PUSH1 0x20 SWAP2 SUB SLT PUSH3 0x7A0 JUMPI MLOAD PUSH1 0x1 PUSH1 0x1 PUSH1 0xA0 SHL SUB DUP2 AND DUP2 SUB PUSH3 0x7A0 JUMPI SWAP1 JUMP INVALID PUSH1 0x80 PUSH1 0x40 MSTORE CALLVALUE PUSH3 0x522 JUMPI PUSH3 0x1204 DUP1 CODESIZE SUB DUP1 PUSH3 0x1D DUP2 PUSH3 0x527 JUMP JUMPDEST SWAP3 DUP4 CODECOPY DUP2 ADD PUSH2 0x140 DUP3 DUP3 SUB SLT PUSH3 0x522 JUMPI DUP2 MLOAD PUSH1 0x1 PUSH1 0x1 PUSH1 0x40 SHL SUB SWAP3 SWAP1 DUP4 DUP2 GT PUSH3 0x522 JUMPI DUP3 PUSH3 0x50 SWAP2 DUP4 ADD PUSH3 0x54D JUMP JUMPDEST SWAP2 PUSH1 0x20 DUP3 ADD MLOAD SWAP1 DUP5 DUP3 GT PUSH3 0x522 JUMPI PUSH3 0x6C SWAP2 DUP4 ADD PUSH3 0x54D JUMP JUMPDEST SWAP3 PUSH1 0x40 DUP3 ADD MLOAD SWAP1 PUSH3 0x81 PUSH1 0x60 DUP5 ADD PUSH3 0x5BF JUMP JUMPDEST SWAP2 PUSH3 0x90 PUSH1 0x80 DUP6 ADD PUSH3 0x5BF JUMP JUMPDEST PUSH3 0x9E PUSH1 0xA0 DUP7 ADD PUSH3 0x5BF JUMP JUMPDEST SWAP3 PUSH3 0xAD PUSH1 0xC0 DUP8 ADD PUSH3 0x5D4 JUMP JUMPDEST SWAP7 PUSH3 0xBC PUSH1 0xE0 DUP9 ADD PUSH3 0x5D4 JUMP JUMPDEST POP PUSH2 0x120 PUSH3 0xCF PUSH2 0x100 DUP10 ADD PUSH3 0x5D4 JUMP JUMPDEST SWAP8 ADD MLOAD SWAP6 DUP7 ISZERO ISZERO DUP8 SUB PUSH3 0x522 JUMPI PUSH1 0x0 DUP1 SLOAD PUSH1 0x1 PUSH1 0x1 PUSH1 0xA0 SHL SUB NOT AND PUSH1 0x1 PUSH1 0x1 PUSH1 0xA0 SHL SUB SWAP3 SWAP1 SWAP3 AND SWAP2 DUP3 OR DUP2 SSTORE PUSH32 0x8BE0079C531659141344CD1FD0A4F28419497F9722A3DAAFE3B4186F6B6457E0 DUP2 DUP1 LOG3 DUP1 MLOAD SWAP1 DUP3 DUP3 GT PUSH3 0x413 JUMPI PUSH1 0x1 SLOAD SWAP1 PUSH1 0x1 DUP3 DUP2 SHR SWAP3 AND DUP1 ISZERO PUSH3 0x517 JUMPI JUMPDEST PUSH1 0x20 DUP4 LT EQ PUSH3 0x3F2 JUMPI DUP2 PUSH1 0x1F DUP5 SWAP4 GT PUSH3 0x4B3 JUMPI JUMPDEST POP PUSH1 0x20 SWAP1 PUSH1 0x1F DUP4 GT PUSH1 0x1 EQ PUSH3 0x435 JUMPI PUSH1 0x0 SWAP3 PUSH3 0x429 JUMPI JUMPDEST POP POP DUP2 PUSH1 0x1 SHL SWAP2 PUSH1 0x0 NOT SWAP1 PUSH1 0x3 SHL SHR NOT AND OR PUSH1 0x1 SSTORE JUMPDEST DUP8 MLOAD SWAP1 DUP2 GT PUSH3 0x413 JUMPI PUSH1 0x2 SLOAD PUSH1 0x1 DUP2 DUP2 SHR SWAP2 AND DUP1 ISZERO PUSH3 0x408 JUMPI JUMPDEST PUSH1 0x20 DUP3 LT EQ PUSH3 0x3F2 JUMPI PUSH1 0x1F DUP2 GT PUSH3 0x388 JUMPI JUMPDEST POP PUSH1 0x20 PUSH1 0x1F DUP3 GT PUSH1 0x1 EQ PUSH3 0x2FC JUMPI SWAP3 PUSH1 0x0 DUP1 MLOAD PUSH1 0x20 PUSH3 0x11C4 DUP4 CODECOPY DUP2 MLOAD SWAP2 MSTORE SWAP3 DUP3 PUSH1 0x20 SWAP4 PUSH1 0x0 SWAP7 PUSH4 0xFFFF0000 SWAP11 SWAP12 SWAP13 DUP9 SWAP3 PUSH3 0x2F0 JUMPI JUMPDEST POP POP DUP2 PUSH1 0x1 SHL SWAP2 DUP8 NOT SWAP1 PUSH1 0x3 SHL SHR NOT AND OR PUSH1 0x2 SSTORE JUMPDEST PUSH1 0xB DUP1 SLOAD PUSH1 0x1 PUSH1 0x1 PUSH1 0xA0 SHL SUB SWAP3 DUP4 AND PUSH1 0x1 PUSH1 0x1 PUSH1 0xA0 SHL SUB NOT SWAP2 DUP3 AND DUP2 OR SWAP1 SWAP3 SSTORE PUSH1 0xC DUP1 SLOAD SWAP9 SWAP1 SWAP4 AND SWAP8 AND SWAP7 SWAP1 SWAP7 OR SWAP1 SSTORE PUSH1 0x3 SLOAD PUSH3 0x240 SWAP1 DUP3 SWAP1 PUSH3 0x5E4 JUMP JUMPDEST PUSH1 0x3 SSTORE DUP5 DUP5 MSTORE PUSH1 0x4 DUP3 MSTORE PUSH1 0x40 DUP5 KECCAK256 PUSH3 0x25B DUP3 DUP3 SLOAD PUSH3 0x5E4 JUMP JUMPDEST SWAP1 SSTORE PUSH1 0x40 MLOAD SWAP1 DUP2 MSTORE LOG3 PUSH2 0xFFFF PUSH5 0xFF00000000 PUSH1 0x8 SLOAD SWAP3 ISZERO ISZERO PUSH1 0x20 SHL AND SWAP5 AND SWAP1 PUSH5 0xFFFFFFFFFF NOT AND OR SWAP2 PUSH1 0x10 SHL AND OR OR PUSH1 0x8 SSTORE PUSH1 0x1 DUP1 PUSH1 0xA0 SHL SUB PUSH1 0xB SLOAD AND PUSH1 0x0 MSTORE PUSH1 0x9 PUSH1 0x20 MSTORE PUSH1 0x40 PUSH1 0x0 KECCAK256 PUSH1 0xFF NOT SWAP1 PUSH1 0x1 DUP3 DUP3 SLOAD AND OR SWAP1 SSTORE PUSH1 0x1 DUP1 PUSH1 0xA0 SHL SUB PUSH1 0xC SLOAD AND PUSH1 0x0 MSTORE PUSH1 0x40 PUSH1 0x0 KECCAK256 PUSH1 0x1 DUP3 DUP3 SLOAD AND OR SWAP1 SSTORE PUSH1 0x0 DUP1 MSTORE PUSH1 0x1 PUSH1 0x40 PUSH1 0x0 KECCAK256 SWAP2 DUP3 SLOAD AND OR SWAP1 SSTORE PUSH1 0x40 MLOAD PUSH2 0xBBB SWAP1 DUP2 PUSH3 0x609 DUP3 CODECOPY RETURN JUMPDEST ADD MLOAD SWAP1 POP CODESIZE DUP1 PUSH3 0x1EB JUMP JUMPDEST PUSH1 0x2 PUSH1 0x0 MSTORE PUSH1 0x20 PUSH1 0x0 KECCAK256 SWAP9 PUSH1 0x0 JUMPDEST PUSH1 0x1F NOT DUP5 AND DUP2 LT PUSH3 0x36F JUMPI POP SWAP3 PUSH1 0x1 DUP4 PUSH4 0xFFFF0000 SWAP10 SWAP11 SWAP12 PUSH1 0x0 SWAP8 SWAP5 PUSH1 0x0 DUP1 MLOAD PUSH1 0x20 PUSH3 0x11C4 DUP4 CODECOPY DUP2 MLOAD SWAP2 MSTORE SWAP8 PUSH1 0x20 SWAP8 PUSH1 0x1F NOT DUP2 AND LT PUSH3 0x356 JUMPI JUMPDEST POP POP POP DUP2 SHL ADD PUSH1 0x2 SSTORE PUSH3 0x200 JUMP JUMPDEST ADD MLOAD DUP9 NOT PUSH1 0xF8 DUP5 PUSH1 0x3 SHL AND SHR NOT AND SWAP1 SSTORE CODESIZE DUP1 DUP1 PUSH3 0x347 JUMP JUMPDEST DUP3 DUP3 ADD MLOAD DUP12 SSTORE PUSH1 0x1 SWAP1 SWAP11 ADD SWAP10 PUSH1 0x20 SWAP3 DUP4 ADD SWAP3 ADD PUSH3 0x30A JUMP JUMPDEST PUSH1 0x2 PUSH1 0x0 MSTORE PUSH32 0x405787FA12A823E0F2B7631CC41B3BA8828B3321CA811111FA75CD3AA3BB5ACE PUSH1 0x1F DUP4 ADD PUSH1 0x5 SHR DUP2 ADD SWAP2 PUSH1 0x20 DUP5 LT PUSH3 0x3E7 JUMPI JUMPDEST PUSH1 0x1F ADD PUSH1 0x5 SHR ADD SWAP1 JUMPDEST DUP2 DUP2 LT PUSH3 0x3DA JUMPI POP PUSH3 0x1B3 JUMP JUMPDEST PUSH1 0x0 DUP2 SSTORE PUSH1 0x1 ADD PUSH3 0x3CB JUMP JUMPDEST SWAP1 SWAP2 POP DUP2 SWAP1 PUSH3 0x3C2 JUMP JUMPDEST PUSH4 0x4E487B71 PUSH1 0xE0 SHL PUSH1 0x0 MSTORE PUSH1 0x22 PUSH1 0x4 MSTORE PUSH1 0x24 PUSH1 0x0 REVERT JUMPDEST SWAP1 PUSH1 0x7F AND SWAP1 PUSH3 0x19F JUMP JUMPDEST PUSH4 0x4E487B71 PUSH1 0xE0 SHL PUSH1 0x0 MSTORE PUSH1 0x41 PUSH1 0x4 MSTORE PUSH1 0x24 PUSH1 0x0 REVERT JUMPDEST ADD MLOAD SWAP1 POP CODESIZE DUP1 PUSH3 0x16D JUMP JUMPDEST PUSH1 0x1 PUSH1 0x0 SWAP1 DUP2 MSTORE SWAP4 POP PUSH1 0x0 DUP1 MLOAD PUSH1 0x20 PUSH3 0x11E4 DUP4 CODECOPY DUP2 MLOAD SWAP2 MSTORE SWAP2 SWAP1 JUMPDEST PUSH1 0x1F NOT DUP5 AND DUP6 LT PUSH3 0x497 JUMPI PUSH1 0x1 SWAP5 POP DUP4 PUSH1 0x1F NOT DUP2 AND LT PUSH3 0x47D JUMPI JUMPDEST POP POP POP DUP2 SHL ADD PUSH1 0x1 SSTORE PUSH3 0x183 JUMP JUMPDEST ADD MLOAD PUSH1 0x0 NOT PUSH1 0xF8 DUP5 PUSH1 0x3 SHL AND SHR NOT AND SWAP1 SSTORE CODESIZE DUP1 DUP1 PUSH3 0x46E JUMP JUMPDEST DUP2 DUP2 ADD MLOAD DUP4 SSTORE PUSH1 0x20 SWAP5 DUP6 ADD SWAP5 PUSH1 0x1 SWAP1 SWAP4 ADD SWAP3 SWAP1 SWAP2 ADD SWAP1 PUSH3 0x451 JUMP JUMPDEST PUSH1 0x1 PUSH1 0x0 MSTORE SWAP1 SWAP2 POP PUSH1 0x0 DUP1 MLOAD PUSH1 0x20 PUSH3 0x11E4 DUP4 CODECOPY DUP2 MLOAD SWAP2 MSTORE PUSH1 0x1F DUP5 ADD PUSH1 0x5 SHR DUP2 ADD SWAP2 PUSH1 0x20 DUP6 LT PUSH3 0x50C JUMPI JUMPDEST SWAP1 PUSH1 0x1F DUP6 SWAP5 SWAP4 SWAP3 ADD PUSH1 0x5 SHR ADD SWAP1 JUMPDEST DUP2 DUP2 LT PUSH3 0x4FC JUMPI POP PUSH3 0x154 JUMP JUMPDEST PUSH1 0x0 DUP2 SSTORE DUP5 SWAP4 POP PUSH1 0x1 ADD PUSH3 0x4ED JUMP JUMPDEST SWAP1 SWAP2 POP DUP2 SWAP1 PUSH3 0x4DF JUMP JUMPDEST SWAP2 PUSH1 0x7F AND SWAP2 PUSH3 0x13E JUMP JUMPDEST PUSH1 0x0 DUP1 REVERT JUMPDEST PUSH1 0x40 MLOAD SWAP2 SWAP1 PUSH1 0x1F ADD PUSH1 0x1F NOT AND DUP3 ADD PUSH1 0x1 PUSH1 0x1 PUSH1 0x40 SHL SUB DUP2 GT DUP4 DUP3 LT OR PUSH3 0x413 JUMPI PUSH1 0x40 MSTORE JUMP JUMPDEST SWAP2 SWAP1 DUP1 PUSH1 0x1F DUP5 ADD SLT ISZERO PUSH3 0x522 JUMPI DUP3 MLOAD PUSH1 0x1 PUSH1 0x1 PUSH1 0x40 SHL SUB DUP2 GT PUSH3 0x413 JUMPI PUSH1 0x20 SWAP1 PUSH3 0x583 PUSH1 0x1F DUP3 ADD PUSH1 0x1F NOT AND DUP4 ADD PUSH3 0x527 JUMP JUMPDEST SWAP3 DUP2 DUP5 MSTORE DUP3 DUP3 DUP8 ADD ADD GT PUSH3 0x522 JUMPI PUSH1 0x0 JUMPDEST DUP2 DUP2 LT PUSH3 0x5AB JUMPI POP DUP3 PUSH1 0x0 SWAP4 SWAP5 SWAP6 POP ADD ADD MSTORE SWAP1 JUMP JUMPDEST DUP6 DUP2 ADD DUP4 ADD MLOAD DUP5 DUP3 ADD DUP5 ADD MSTORE DUP3 ADD PUSH3 0x595 JUMP JUMPDEST MLOAD SWAP1 PUSH1 0x1 PUSH1 0x1 PUSH1 0xA0 SHL SUB DUP3 AND DUP3 SUB PUSH3 0x522 JUMPI JUMP JUMPDEST MLOAD SWAP1 PUSH2 0xFFFF DUP3 AND DUP3 SUB PUSH3 0x522 JUMPI JUMP JUMPDEST SWAP2 SWAP1 DUP3 ADD DUP1 SWAP3 GT PUSH3 0x5F2 JUMPI JUMP JUMPDEST PUSH4 0x4E487B71 PUSH1 0xE0 SHL PUSH1 0x0 MSTORE PUSH1 0x11 PUSH1 0x4 MSTORE PUSH1 0x24 PUSH1 0x0 REVERT INVALID PUSH1 0x80 PUSH1 0x40 DUP2 DUP2 MSTORE PUSH1 0x4 SWAP2 DUP3 CALLDATASIZE LT ISZERO PUSH2 0x16 JUMPI PUSH1 0x0 DUP1 REVERT JUMPDEST PUSH1 0x0 SWAP3 DUP4 CALLDATALOAD PUSH1 0xE0 SHR SWAP2 DUP3 PUSH4 0x6FDDE03 EQ PUSH2 0x7C0 JUMPI POP DUP2 PUSH4 0x95EA7B3 EQ PUSH2 0x74F JUMPI DUP2 PUSH4 0x18160DDD EQ PUSH2 0x730 JUMPI DUP2 PUSH4 0x23B872DD EQ PUSH2 0x68A JUMPI DUP2 PUSH4 0x313CE567 EQ PUSH2 0x66E JUMPI DUP2 PUSH4 0x6760E74C EQ PUSH2 0x64B JUMPI DUP2 PUSH4 0x70A08231 EQ PUSH2 0x615 JUMPI DUP2 PUSH4 0x715018A6 EQ PUSH2 0x58A JUMPI DUP2 PUSH4 0x8187F516 EQ PUSH2 0x4CE JUMPI DUP2 PUSH4 0x8712523E EQ PUSH2 0x496 JUMPI DUP2 PUSH4 0x8DA5CB5B EQ PUSH2 0x46E JUMPI DUP2 PUSH4 0x95D89B41 EQ PUSH2 0x34D JUMPI DUP2 PUSH4 0x9605DDBB EQ PUSH2 0x32E JUMPI DUP2 PUSH4 0x9EBAA1C3 EQ PUSH2 0x309 JUMPI DUP2 PUSH4 0xA8AA1B31 EQ PUSH2 0x2E0 JUMPI DUP2 PUSH4 0xA9059CBB EQ PUSH2 0x2AF JUMPI DUP2 PUSH4 0xAD5DFF73 EQ PUSH2 0x271 JUMPI DUP2 PUSH4 0xB67D4266 EQ PUSH2 0x200 JUMPI POP DUP1 PUSH4 0xC45A0155 EQ PUSH2 0x1D8 JUMPI DUP1 PUSH4 0xD00EFB2F EQ PUSH2 0x1BA JUMPI DUP1 PUSH4 0xDD62ED3E EQ PUSH2 0x172 JUMPI DUP1 PUSH4 0xF887EA40 EQ PUSH2 0x14A JUMPI PUSH4 0xFF8EA3E5 EQ PUSH2 0x122 JUMPI PUSH1 0x0 DUP1 REVERT JUMPDEST CALLVALUE PUSH2 0x146 JUMPI DUP2 PUSH1 0x3 NOT CALLDATASIZE ADD SLT PUSH2 0x146 JUMPI PUSH1 0x20 SWAP1 PUSH2 0xFFFF PUSH1 0x8 SLOAD PUSH1 0x10 SHR AND SWAP1 MLOAD SWAP1 DUP2 MSTORE RETURN JUMPDEST POP DUP1 REVERT JUMPDEST POP CALLVALUE PUSH2 0x146 JUMPI DUP2 PUSH1 0x3 NOT CALLDATASIZE ADD SLT PUSH2 0x146 JUMPI PUSH1 0xC SLOAD SWAP1 MLOAD PUSH1 0x1 PUSH1 0x1 PUSH1 0xA0 SHL SUB SWAP1 SWAP2 AND DUP2 MSTORE PUSH1 0x20 SWAP1 RETURN JUMPDEST POP CALLVALUE PUSH2 0x146 JUMPI DUP1 PUSH1 0x3 NOT CALLDATASIZE ADD SLT PUSH2 0x146 JUMPI DUP1 PUSH1 0x20 SWAP3 PUSH2 0x18F PUSH2 0x8E0 JUMP JUMPDEST PUSH2 0x197 PUSH2 0x8FB JUMP JUMPDEST PUSH1 0x1 PUSH1 0x1 PUSH1 0xA0 SHL SUB SWAP2 DUP3 AND DUP4 MSTORE PUSH1 0x5 DUP7 MSTORE DUP4 DUP4 KECCAK256 SWAP2 AND DUP3 MSTORE DUP5 MSTORE KECCAK256 SLOAD SWAP1 MLOAD SWAP1 DUP2 MSTORE RETURN JUMPDEST POP CALLVALUE PUSH2 0x146 JUMPI DUP2 PUSH1 0x3 NOT CALLDATASIZE ADD SLT PUSH2 0x146 JUMPI PUSH1 0x20 SWAP1 PUSH1 0x6 SLOAD SWAP1 MLOAD SWAP1 DUP2 MSTORE RETURN JUMPDEST POP CALLVALUE PUSH2 0x146 JUMPI DUP2 PUSH1 0x3 NOT CALLDATASIZE ADD SLT PUSH2 0x146 JUMPI PUSH1 0xB SLOAD SWAP1 MLOAD PUSH1 0x1 PUSH1 0x1 PUSH1 0xA0 SHL SUB SWAP1 SWAP2 AND DUP2 MSTORE PUSH1 0x20 SWAP1 RETURN JUMPDEST SWAP2 SWAP1 POP CALLVALUE PUSH2 0x26D JUMPI CALLDATASIZE PUSH1 0x3 NOT ADD SLT PUSH2 0x146 JUMPI CALLDATALOAD PUSH1 0x24 CALLDATALOAD PUSH2 0xFFFF DUP1 DUP3 AND DUP1 SWAP3 SUB PUSH2 0x269 JUMPI PUSH2 0x238 PUSH1 0x1 DUP1 PUSH1 0xA0 SHL SUB PUSH1 0xB SLOAD AND CALLER EQ PUSH2 0x911 JUMP JUMPDEST PUSH1 0x6 SLOAD ISZERO PUSH2 0x244 JUMPI DUP4 DUP1 RETURN JUMPDEST DUP3 PUSH2 0x25A SWAP2 PUSH2 0x25F SWAP5 PUSH1 0x6 SSTORE PUSH1 0x8 SLOAD AND SWAP1 PUSH2 0x94B JUMP JUMPDEST PUSH2 0x94B JUMP JUMPDEST PUSH1 0x7 SSTORE CODESIZE DUP1 DUP1 DUP4 DUP1 RETURN JUMPDEST DUP4 DUP1 REVERT JUMPDEST DUP3 DUP1 REVERT JUMPDEST POP POP CALLVALUE PUSH2 0x146 JUMPI PUSH1 0x20 CALLDATASIZE PUSH1 0x3 NOT ADD SLT PUSH2 0x146 JUMPI PUSH1 0x20 SWAP2 PUSH1 0xFF SWAP1 DUP3 SWAP1 PUSH1 0x1 PUSH1 0x1 PUSH1 0xA0 SHL SUB PUSH2 0x29C PUSH2 0x8E0 JUMP JUMPDEST AND DUP2 MSTORE PUSH1 0x9 DUP6 MSTORE KECCAK256 SLOAD AND SWAP1 MLOAD SWAP1 ISZERO ISZERO DUP2 MSTORE RETURN JUMPDEST POP POP CALLVALUE PUSH2 0x146 JUMPI DUP1 PUSH1 0x3 NOT CALLDATASIZE ADD SLT PUSH2 0x146 JUMPI PUSH1 0x20 SWAP1 PUSH2 0x2D9 PUSH2 0x2CF PUSH2 0x8E0 JUMP JUMPDEST PUSH1 0x24 CALLDATALOAD SWAP1 CALLER PUSH2 0x97B JUMP JUMPDEST MLOAD PUSH1 0x1 DUP2 MSTORE RETURN JUMPDEST POP POP CALLVALUE PUSH2 0x146 JUMPI DUP2 PUSH1 0x3 NOT CALLDATASIZE ADD SLT PUSH2 0x146 JUMPI PUSH1 0xD SLOAD SWAP1 MLOAD PUSH1 0x1 PUSH1 0x1 PUSH1 0xA0 SHL SUB SWAP1 SWAP2 AND DUP2 MSTORE PUSH1 0x20 SWAP1 RETURN JUMPDEST POP POP CALLVALUE PUSH2 0x146 JUMPI DUP2 PUSH1 0x3 NOT CALLDATASIZE ADD SLT PUSH2 0x146 JUMPI PUSH1 0x8 SLOAD SWAP1 MLOAD PUSH1 0x20 SWAP2 DUP3 SHR PUSH1 0xFF AND ISZERO ISZERO DUP2 MSTORE RETURN JUMPDEST POP POP CALLVALUE PUSH2 0x146 JUMPI DUP2 PUSH1 0x3 NOT CALLDATASIZE ADD SLT PUSH2 0x146 JUMPI PUSH1 0x20 SWAP1 PUSH1 0x7 SLOAD SWAP1 MLOAD SWAP1 DUP2 MSTORE RETURN JUMPDEST DUP4 DUP4 CALLVALUE PUSH2 0x146 JUMPI DUP2 PUSH1 0x3 NOT CALLDATASIZE ADD SLT PUSH2 0x146 JUMPI DUP1 MLOAD SWAP1 DUP3 PUSH1 0x2 SLOAD PUSH1 0x1 DUP2 DUP2 SHR SWAP1 DUP1 DUP4 AND SWAP3 DUP4 ISZERO PUSH2 0x464 JUMPI JUMPDEST PUSH1 0x20 SWAP4 DUP5 DUP5 LT DUP2 EQ PUSH2 0x451 JUMPI DUP4 DUP9 MSTORE SWAP1 DUP2 ISZERO PUSH2 0x435 JUMPI POP PUSH1 0x1 EQ PUSH2 0x3DF JUMPI JUMPDEST POP POP POP DUP3 SWAP1 SUB PUSH1 0x1F ADD PUSH1 0x1F NOT AND DUP3 ADD SWAP3 PUSH8 0xFFFFFFFFFFFFFFFF DUP5 GT DUP4 DUP6 LT OR PUSH2 0x3CC JUMPI POP DUP3 SWAP2 DUP3 PUSH2 0x3C8 SWAP3 MSTORE DUP3 PUSH2 0x897 JUMP JUMPDEST SUB SWAP1 RETURN JUMPDEST PUSH4 0x4E487B71 PUSH1 0xE0 SHL DUP2 MSTORE PUSH1 0x41 DUP6 MSTORE PUSH1 0x24 SWAP1 REVERT JUMPDEST PUSH1 0x2 DUP8 MSTORE SWAP2 SWAP3 POP DUP6 SWAP2 DUP4 PUSH32 0x405787FA12A823E0F2B7631CC41B3BA8828B3321CA811111FA75CD3AA3BB5ACE JUMPDEST DUP4 DUP6 LT PUSH2 0x421 JUMPI POP POP POP POP DUP4 ADD ADD DUP6 DUP1 DUP1 PUSH2 0x396 JUMP JUMPDEST DUP1 SLOAD DUP9 DUP7 ADD DUP4 ADD MSTORE SWAP4 ADD SWAP3 DUP5 SWAP1 DUP3 ADD PUSH2 0x40B JUMP JUMPDEST PUSH1 0xFF NOT AND DUP8 DUP6 ADD MSTORE POP POP ISZERO ISZERO PUSH1 0x5 SHL DUP5 ADD ADD SWAP1 POP DUP6 DUP1 DUP1 PUSH2 0x396 JUMP JUMPDEST PUSH4 0x4E487B71 PUSH1 0xE0 SHL DUP10 MSTORE PUSH1 0x22 DUP11 MSTORE PUSH1 0x24 DUP10 REVERT JUMPDEST SWAP2 PUSH1 0x7F AND SWAP2 PUSH2 0x377 JUMP JUMPDEST POP POP CALLVALUE PUSH2 0x146 JUMPI DUP2 PUSH1 0x3 NOT CALLDATASIZE ADD SLT PUSH2 0x146 JUMPI SWAP1 SLOAD SWAP1 MLOAD PUSH1 0x1 PUSH1 0x1 PUSH1 0xA0 SHL SUB SWAP1 SWAP2 AND DUP2 MSTORE PUSH1 0x20 SWAP1 RETURN JUMPDEST POP POP CALLVALUE PUSH2 0x146 JUMPI PUSH1 0x20 CALLDATASIZE PUSH1 0x3 NOT ADD SLT PUSH2 0x146 JUMPI PUSH1 0x20 SWAP2 DUP2 SWAP1 PUSH1 0x1 PUSH1 0x1 PUSH1 0xA0 SHL SUB PUSH2 0x4BE PUSH2 0x8E0 JUMP JUMPDEST AND DUP2 MSTORE PUSH1 0xA DUP5 MSTORE KECCAK256 SLOAD SWAP1 MLOAD SWAP1 DUP2 MSTORE RETURN JUMPDEST SWAP1 POP CALLVALUE PUSH2 0x26D JUMPI PUSH1 0x20 CALLDATASIZE PUSH1 0x3 NOT ADD SLT PUSH2 0x26D JUMPI PUSH2 0x4E9 PUSH2 0x8E0 JUMP JUMPDEST SWAP1 PUSH1 0x1 DUP1 PUSH1 0xA0 SHL SUB PUSH2 0x500 DUP2 PUSH1 0xB SLOAD AND CALLER EQ PUSH2 0x911 JUMP JUMPDEST PUSH1 0xD SLOAD SWAP3 DUP2 DUP5 AND PUSH2 0x554 JUMPI AND SWAP3 DUP4 ISZERO PUSH2 0x526 JUMPI POP POP PUSH1 0x1 PUSH1 0x1 PUSH1 0xA0 SHL SUB NOT AND OR PUSH1 0xD SSTORE DUP1 RETURN JUMPDEST SWAP1 PUSH1 0x20 PUSH1 0x64 SWAP3 MLOAD SWAP2 PUSH3 0x461BCD PUSH1 0xE5 SHL DUP4 MSTORE DUP3 ADD MSTORE PUSH1 0x8 PUSH1 0x24 DUP3 ADD MSTORE PUSH8 0x2120A22FA820A4A9 PUSH1 0xC1 SHL PUSH1 0x44 DUP3 ADD MSTORE REVERT JUMPDEST DUP5 MLOAD PUSH3 0x461BCD PUSH1 0xE5 SHL DUP2 MSTORE PUSH1 0x20 DUP2 DUP6 ADD MSTORE PUSH1 0x10 PUSH1 0x24 DUP3 ADD MSTORE PUSH16 0x1410525497D053149150511657D4D155 PUSH1 0x82 SHL PUSH1 0x44 DUP3 ADD MSTORE PUSH1 0x64 SWAP1 REVERT JUMPDEST SWAP1 POP CALLVALUE PUSH2 0x26D JUMPI DUP3 PUSH1 0x3 NOT CALLDATASIZE ADD SLT PUSH2 0x26D JUMPI DUP3 SLOAD SWAP2 PUSH1 0x1 PUSH1 0x1 PUSH1 0xA0 SHL SUB DUP4 AND CALLER SUB PUSH2 0x5E6 JUMPI POP POP PUSH1 0x1 PUSH1 0x1 PUSH1 0xA0 SHL SUB NOT AND DUP2 SSTORE DUP1 CALLER PUSH32 0x8BE0079C531659141344CD1FD0A4F28419497F9722A3DAAFE3B4186F6B6457E0 DUP3 DUP1 LOG3 DUP1 RETURN JUMPDEST SWAP1 PUSH1 0x20 PUSH1 0x64 SWAP3 MLOAD SWAP2 PUSH3 0x461BCD PUSH1 0xE5 SHL DUP4 MSTORE DUP3 ADD MSTORE PUSH1 0x9 PUSH1 0x24 DUP3 ADD MSTORE PUSH9 0x2727AA2FA7ABA722A9 PUSH1 0xB9 SHL PUSH1 0x44 DUP3 ADD MSTORE REVERT JUMPDEST SWAP1 POP CALLVALUE PUSH2 0x26D JUMPI PUSH1 0x20 CALLDATASIZE PUSH1 0x3 NOT ADD SLT PUSH2 0x26D JUMPI PUSH1 0x20 SWAP3 DUP3 SWAP2 PUSH1 0x1 PUSH1 0x1 PUSH1 0xA0 SHL SUB PUSH2 0x63D PUSH2 0x8E0 JUMP JUMPDEST AND DUP3 MSTORE DUP5 MSTORE KECCAK256 SLOAD SWAP1 MLOAD SWAP1 DUP2 MSTORE RETURN JUMPDEST POP POP CALLVALUE PUSH2 0x146 JUMPI DUP2 PUSH1 0x3 NOT CALLDATASIZE ADD SLT PUSH2 0x146 JUMPI PUSH1 0x20 SWAP1 PUSH2 0xFFFF PUSH1 0x8 SLOAD AND SWAP1 MLOAD SWAP1 DUP2 MSTORE RETURN JUMPDEST POP POP CALLVALUE PUSH2 0x146 JUMPI DUP2 PUSH1 0x3 NOT CALLDATASIZE ADD SLT PUSH2 0x146 JUMPI PUSH1 0x20 SWAP1 MLOAD PUSH1 0x12 DUP2 MSTORE RETURN JUMPDEST SWAP2 SWAP1 POP CALLVALUE PUSH2 0x26D JUMPI PUSH1 0x60 CALLDATASIZE PUSH1 0x3 NOT ADD SLT PUSH2 0x26D JUMPI PUSH2 0x6A6 PUSH2 0x8E0 JUMP JUMPDEST PUSH2 0x6AE PUSH2 0x8FB JUMP JUMPDEST PUSH1 0x44 CALLDATALOAD SWAP2 PUSH1 0x1 DUP1 PUSH1 0xA0 SHL SUB DUP2 AND DUP1 DUP8 MSTORE PUSH1 0x20 SWAP6 PUSH1 0x5 DUP8 MSTORE DUP6 DUP9 KECCAK256 CALLER DUP10 MSTORE DUP8 MSTORE DUP6 DUP9 KECCAK256 SLOAD SWAP1 DUP6 DUP3 LT PUSH2 0x701 JUMPI POP SWAP5 DUP1 SWAP7 SWAP8 PUSH2 0x6EB DUP7 PUSH2 0x2D9 SWAP9 PUSH2 0x96E JUMP JUMPDEST SWAP3 DUP2 MSTORE PUSH1 0x5 DUP10 MSTORE DUP2 DUP2 KECCAK256 CALLER DUP3 MSTORE DUP10 MSTORE KECCAK256 SSTORE PUSH2 0x97B JUMP JUMPDEST DUP7 MLOAD PUSH3 0x461BCD PUSH1 0xE5 SHL DUP2 MSTORE SWAP1 DUP2 ADD DUP9 SWAP1 MSTORE PUSH1 0x9 PUSH1 0x24 DUP3 ADD MSTORE PUSH9 0x414C4C4F57414E4345 PUSH1 0xB8 SHL PUSH1 0x44 DUP3 ADD MSTORE PUSH1 0x64 SWAP1 REVERT JUMPDEST POP POP CALLVALUE PUSH2 0x146 JUMPI DUP2 PUSH1 0x3 NOT CALLDATASIZE ADD SLT PUSH2 0x146 JUMPI PUSH1 0x20 SWAP1 PUSH1 0x3 SLOAD SWAP1 MLOAD SWAP1 DUP2 MSTORE RETURN JUMPDEST POP POP CALLVALUE PUSH2 0x146 JUMPI DUP1 PUSH1 0x3 NOT CALLDATASIZE ADD SLT PUSH2 0x146 JUMPI PUSH1 0x20 SWAP2 DUP2 PUSH2 0x76D PUSH2 0x8E0 JUMP JUMPDEST SWAP2 PUSH1 0x24 CALLDATALOAD SWAP2 DUP3 SWAP2 CALLER DUP2 MSTORE PUSH1 0x5 DUP8 MSTORE DUP2 DUP2 KECCAK256 SWAP5 PUSH1 0x1 DUP1 PUSH1 0xA0 SHL SUB AND SWAP5 DUP6 DUP3 MSTORE DUP8 MSTORE KECCAK256 SSTORE DUP3 MLOAD SWAP1 DUP2 MSTORE PUSH32 0x8C5BE1E5EBEC7D5BD14F71427D1E84F3DD0314C0F7B2291E5B200AC8C7C3B925 DUP5 CALLER SWAP3 LOG3 MLOAD PUSH1 0x1 DUP2 MSTORE RETURN JUMPDEST DUP5 SWAP1 DUP5 CALLVALUE PUSH2 0x26D JUMPI DUP3 PUSH1 0x3 NOT CALLDATASIZE ADD SLT PUSH2 0x26D JUMPI DUP3 PUSH1 0x1 DUP1 SLOAD SWAP1 DUP2 DUP2 SHR SWAP1 DUP1 DUP4 AND SWAP3 DUP4 ISZERO PUSH2 0x88D JUMPI JUMPDEST PUSH1 0x20 SWAP4 DUP5 DUP5 LT DUP2 EQ PUSH2 0x451 JUMPI DUP4 DUP9 MSTORE SWAP1 DUP2 ISZERO PUSH2 0x435 JUMPI POP PUSH1 0x1 EQ PUSH2 0x838 JUMPI POP POP POP DUP3 SWAP1 SUB PUSH1 0x1F ADD PUSH1 0x1F NOT AND DUP3 ADD SWAP3 PUSH8 0xFFFFFFFFFFFFFFFF DUP5 GT DUP4 DUP6 LT OR PUSH2 0x3CC JUMPI POP DUP3 SWAP2 DUP3 PUSH2 0x3C8 SWAP3 MSTORE DUP3 PUSH2 0x897 JUMP JUMPDEST DUP1 DUP8 MSTORE SWAP2 SWAP3 POP DUP6 SWAP2 DUP4 PUSH32 0xB10E2D527612073B26EECDFD717E6A320CF44B4AFAC2B0732D9FCBE2B7FA0CF6 JUMPDEST DUP4 DUP6 LT PUSH2 0x879 JUMPI POP POP POP POP DUP4 ADD ADD DUP6 DUP1 DUP1 PUSH2 0x396 JUMP JUMPDEST DUP1 SLOAD DUP9 DUP7 ADD DUP4 ADD MSTORE SWAP4 ADD SWAP3 DUP5 SWAP1 DUP3 ADD PUSH2 0x863 JUMP JUMPDEST SWAP2 PUSH1 0x7F AND SWAP2 PUSH2 0x7E8 JUMP JUMPDEST PUSH1 0x20 DUP1 DUP3 MSTORE DUP3 MLOAD DUP2 DUP4 ADD DUP2 SWAP1 MSTORE SWAP1 SWAP4 SWAP3 PUSH1 0x0 JUMPDEST DUP3 DUP2 LT PUSH2 0x8CC JUMPI POP POP PUSH1 0x40 SWAP3 SWAP4 POP PUSH1 0x0 DUP4 DUP3 DUP5 ADD ADD MSTORE PUSH1 0x1F DUP1 NOT SWAP2 ADD AND ADD ADD SWAP1 JUMP JUMPDEST DUP2 DUP2 ADD DUP7 ADD MLOAD DUP5 DUP3 ADD PUSH1 0x40 ADD MSTORE DUP6 ADD PUSH2 0x8AA JUMP JUMPDEST PUSH1 0x4 CALLDATALOAD SWAP1 PUSH1 0x1 PUSH1 0x1 PUSH1 0xA0 SHL SUB DUP3 AND DUP3 SUB PUSH2 0x8F6 JUMPI JUMP JUMPDEST PUSH1 0x0 DUP1 REVERT JUMPDEST PUSH1 0x24 CALLDATALOAD SWAP1 PUSH1 0x1 PUSH1 0x1 PUSH1 0xA0 SHL SUB DUP3 AND DUP3 SUB PUSH2 0x8F6 JUMPI JUMP JUMPDEST ISZERO PUSH2 0x918 JUMPI JUMP JUMPDEST PUSH1 0x40 MLOAD PUSH3 0x461BCD PUSH1 0xE5 SHL DUP2 MSTORE PUSH1 0x20 PUSH1 0x4 DUP3 ADD MSTORE PUSH1 0xB PUSH1 0x24 DUP3 ADD MSTORE PUSH11 0x4E4F545F464143544F5259 PUSH1 0xA8 SHL PUSH1 0x44 DUP3 ADD MSTORE PUSH1 0x64 SWAP1 REVERT JUMPDEST SWAP2 SWAP1 DUP3 ADD DUP1 SWAP3 GT PUSH2 0x958 JUMPI JUMP JUMPDEST PUSH4 0x4E487B71 PUSH1 0xE0 SHL PUSH1 0x0 MSTORE PUSH1 0x11 PUSH1 0x4 MSTORE PUSH1 0x24 PUSH1 0x0 REVERT JUMPDEST SWAP2 SWAP1 DUP3 SUB SWAP2 DUP3 GT PUSH2 0x958 JUMPI JUMP JUMPDEST SWAP1 PUSH1 0x1 DUP1 PUSH1 0xA0 SHL SUB SWAP3 DUP4 DUP4 AND SWAP3 PUSH1 0x0 DUP5 DUP2 MSTORE PUSH1 0x4 SWAP6 PUSH1 0x20 SWAP5 DUP8 DUP7 MSTORE PUSH1 0x40 SWAP4 DUP6 DUP6 DUP6 KECCAK256 SLOAD LT PUSH2 0xB58 JUMPI DUP8 DUP5 MSTORE PUSH1 0x9 DUP8 MSTORE PUSH1 0xFF DUP6 DUP6 KECCAK256 SLOAD AND ISZERO DUP1 PUSH2 0xB45 JUMPI JUMPDEST PUSH2 0xA19 JUMPI JUMPDEST POP SWAP2 DUP4 SWAP3 SWAP2 PUSH32 0xDDF252AD1BE2C89B69C2B068FC378DAA952BA7F163C4A11628F55A4DF523B3EF SWAP7 SWAP6 SWAP5 SWAP3 DUP9 DUP4 MSTORE DUP10 DUP8 MSTORE DUP4 DUP4 KECCAK256 PUSH2 0x9FB DUP8 DUP3 SLOAD PUSH2 0x96E JUMP JUMPDEST SWAP1 SSTORE AND SWAP8 DUP9 DUP3 MSTORE DUP6 MSTORE KECCAK256 PUSH2 0xA10 DUP4 DUP3 SLOAD PUSH2 0x94B JUMP JUMPDEST SWAP1 SSTORE MLOAD SWAP1 DUP2 MSTORE LOG3 JUMP JUMPDEST PUSH1 0x6 SLOAD DUP1 ISZERO PUSH2 0xB35 JUMPI PUSH1 0x8 SLOAD SWAP1 PUSH2 0xA36 PUSH2 0xFFFF SWAP2 DUP3 DUP5 AND SWAP1 PUSH2 0x94B JUMP JUMPDEST NUMBER GT ISZERO PUSH2 0xB25 JUMPI PUSH1 0x7 SLOAD NUMBER GT ISZERO PUSH2 0xA4F JUMPI JUMPDEST POP POP PUSH2 0x9BD JUMP JUMPDEST PUSH1 0x3 SLOAD SWAP1 DUP3 PUSH1 0x10 SHR AND SWAP1 DUP2 DUP2 MUL SWAP2 DUP2 DUP4 DIV EQ SWAP1 ISZERO OR ISZERO PUSH2 0xB12 JUMPI PUSH2 0x2710 SWAP1 DIV DUP8 GT PUSH2 0xB02 JUMPI DUP8 SHR PUSH1 0xFF AND PUSH2 0xA85 JUMPI JUMPDEST DUP1 DUP1 PUSH2 0xA48 JUMP JUMPDEST DUP3 SWAP1 DUP2 PUSH1 0xD SLOAD AND DUP1 ISZERO ISZERO SWAP1 DUP2 PUSH2 0xAF8 JUMPI JUMPDEST POP ISZERO PUSH2 0xAF3 JUMPI POP DUP2 JUMPDEST AND DUP1 DUP5 MSTORE PUSH1 0xA DUP8 MSTORE NUMBER DUP6 DUP6 KECCAK256 SLOAD EQ PUSH2 0xAE3 JUMPI DUP4 MSTORE PUSH1 0xA DUP7 MSTORE DUP4 DUP4 KECCAK256 NUMBER SWAP1 SSTORE PUSH32 0xDDF252AD1BE2C89B69C2B068FC378DAA952BA7F163C4A11628F55A4DF523B3EF PUSH2 0xA7E JUMP JUMPDEST DUP5 MLOAD PUSH4 0xAA9A98DF PUSH1 0xE0 SHL DUP2 MSTORE DUP10 SWAP1 REVERT JUMPDEST PUSH2 0xA9F JUMP JUMPDEST SWAP1 POP DUP10 EQ CODESIZE PUSH2 0xA96 JUMP JUMPDEST DUP6 MLOAD PUSH4 0x4D22AEDF PUSH1 0xE1 SHL DUP2 MSTORE DUP11 SWAP1 REVERT JUMPDEST PUSH4 0x4E487B71 PUSH1 0xE0 SHL DUP7 MSTORE PUSH1 0x11 DUP12 MSTORE PUSH1 0x24 DUP7 REVERT JUMPDEST DUP7 MLOAD PUSH4 0x7B85E8B9 PUSH1 0xE0 SHL DUP2 MSTORE DUP12 SWAP1 REVERT JUMPDEST DUP6 MLOAD PUSH4 0x12F1F923 PUSH1 0xE0 SHL DUP2 MSTORE DUP11 SWAP1 REVERT JUMPDEST POP DUP3 DUP3 AND DUP5 MSTORE PUSH1 0xFF DUP6 DUP6 KECCAK256 SLOAD AND ISZERO PUSH2 0x9B8 JUMP JUMPDEST DUP5 MLOAD PUSH3 0x461BCD PUSH1 0xE5 SHL DUP2 MSTORE DUP1 DUP11 ADD DUP9 SWAP1 MSTORE PUSH1 0x7 PUSH1 0x24 DUP3 ADD MSTORE PUSH7 0x42414C414E4345 PUSH1 0xC8 SHL PUSH1 0x44 DUP3 ADD MSTORE PUSH1 0x64 SWAP1 REVERT INVALID LOG2 PUSH5 0x6970667358 0x22 SLT KECCAK256 PUSH6 0x474668E201AC SDIV 0xDE LOG4 PUSH27 0x69FC4B12046CE31756B60115A495A75F2C7AEF846464736F6C6343 STOP ADDMOD EQ STOP CALLER 0xDD CALLCODE MSTORE 0xAD SHL 0xE2 0xC8 SWAP12 PUSH10 0xC2B068FC378DAA952BA7 CALL PUSH4 0xC4A11628 CREATE2 GAS 0x4D CREATE2 0x23 0xB3 0xEF 0xB1 0xE 0x2D MSTORE PUSH23 0x12073B26EECDFD717E6A320CF44B4AFAC2B0732D9FCBE2 0xB7 STATICCALL 0xC 0xF6 LOG2 PUSH5 0x6970667358 0x22 SLT KECCAK256 SWAP13 LOG2 PUSH1 0x95 0xBC SUB SGT 0xE3 DUP6 LOG0 0x2B MLOAD 0xC5 DUP9 NUMBER CREATE DUP11 0xA8 0xE7 0xE9 PUSH1 0xEE 0xC5 PUSH24 0x44CFE2310AD1537F64736F6C634300081400330000000000 "},"methodIdentifiers":{"COOLDOWN_1TX_PER_BLOCK()":"74b60031","FEE1()":"24f7b368","FEE2()":"ebffa67b","FEE3()":"5653c0cd","FEE4()":"3a0af582","LP_TOKEN_BPS()":"cc292505","MAX_TX_BPS()":"f40db5ec","PROTECTION_BLOCKS()":"5561079d","TRADING_DELAY_BLOCKS()":"af34da3c","WINDOW()":"a53e5412","createToken(string,string,uint256,uint256,(bool,bool,bool))":"873289b8","dexFactory()":"b8d8fbb4","getCreateFee(address)":"04e03d4c","getSoftLimitState(address)":"bf3b9a72","minLiquidityWei()":"3b8b896d","router()":"f887ea40"}}}}}