{"contracts/NeonToken.sol":{"NeonToken":{"abi":[{"inputs":[{"internalType":"string","name":"_name","type":"string"},{"internalType":"string","name":"_symbol","type":"string"},{"internalType":"uint256","name":"supply","type":"uint256"},{"internalType":"address","name":"initialOwner","type":"address"},{"internalType":"address","name":"_factory","type":"address"},{"internalType":"address","name":"_router","type":"address"},{"internalType":"uint16","name":"_delayBlocks","type":"uint16"},{"internalType":"uint16","name":"","type":"uint16"},{"internalType":"uint16","name":"_maxTxBps","type":"uint16"},{"internalType":"bool","name":"_cooldown","type":"bool"}],"stateMutability":"nonpayable","type":"constructor"},{"inputs":[],"name":"CooldownActive","type":"error"},{"inputs":[],"name":"MaxTxActive","type":"error"},{"inputs":[],"name":"TradingDelayActive","type":"error"},{"inputs":[],"name":"TradingNotEnabled","type":"error"},{"anonymous":false,"inputs":[{"indexed":true,"internalType":"address","name":"owner","type":"address"},{"indexed":true,"internalType":"address","name":"spender","type":"address"},{"indexed":false,"internalType":"uint256","name":"value","type":"uint256"}],"name":"Approval","type":"event"},{"anonymous":false,"inputs":[{"indexed":true,"internalType":"address","name":"prev","type":"address"},{"indexed":true,"internalType":"address","name":"next","type":"address"}],"name":"OwnershipTransferred","type":"event"},{"anonymous":false,"inputs":[{"indexed":true,"internalType":"address","name":"from","type":"address"},{"indexed":true,"internalType":"address","name":"to","type":"address"},{"indexed":false,"internalType":"uint256","name":"value","type":"uint256"}],"name":"Transfer","type":"event"},{"inputs":[{"internalType":"address","name":"o","type":"address"},{"internalType":"address","name":"s","type":"address"}],"name":"allowance","outputs":[{"internalType":"uint256","name":"","type":"uint256"}],"stateMutability":"view","type":"function"},{"inputs":[{"internalType":"address","name":"spender","type":"address"},{"internalType":"uint256","name":"value","type":"uint256"}],"name":"approve","outputs":[{"internalType":"bool","name":"","type":"bool"}],"stateMutability":"nonpayable","type":"function"},{"inputs":[{"internalType":"address","name":"who","type":"address"}],"name":"balanceOf","outputs":[{"internalType":"uint256","name":"","type":"uint256"}],"stateMutability":"view","type":"function"},{"inputs":[],"name":"cooldownOneTxPerBlock","outputs":[{"internalType":"bool","name":"","type":"bool"}],"stateMutability":"view","type":"function"},{"inputs":[],"name":"decimals","outputs":[{"internalType":"uint8","name":"","type":"uint8"}],"stateMutability":"view","type":"function"},{"inputs":[],"name":"factory","outputs":[{"internalType":"address","name":"","type":"address"}],"stateMutability":"view","type":"function"},{"inputs":[{"internalType":"address","name":"","type":"address"}],"name":"isExempt","outputs":[{"internalType":"bool","name":"","type":"bool"}],"stateMutability":"view","type":"function"},{"inputs":[{"internalType":"address","name":"","type":"address"}],"name":"lastTransferBlock","outputs":[{"internalType":"uint256","name":"","type":"uint256"}],"stateMutability":"view","type":"function"},{"inputs":[],"name":"launchBlock","outputs":[{"internalType":"uint256","name":"","type":"uint256"}],"stateMutability":"view","type":"function"},{"inputs":[],"name":"maxTxBps","outputs":[{"internalType":"uint16","name":"","type":"uint16"}],"stateMutability":"view","type":"function"},{"inputs":[],"name":"name","outputs":[{"internalType":"string","name":"","type":"string"}],"stateMutability":"view","type":"function"},{"inputs":[],"name":"owner","outputs":[{"internalType":"address","name":"","type":"address"}],"stateMutability":"view","type":"function"},{"inputs":[],"name":"pair","outputs":[{"internalType":"address","name":"","type":"address"}],"stateMutability":"view","type":"function"},{"inputs":[],"name":"protectionEndBlock","outputs":[{"internalType":"uint256","name":"","type":"uint256"}],"stateMutability":"view","type":"function"},{"inputs":[],"name":"renounceOwnership","outputs":[],"stateMutability":"nonpayable","type":"function"},{"inputs":[],"name":"router","outputs":[{"internalType":"address","name":"","type":"address"}],"stateMutability":"view","type":"function"},{"inputs":[{"internalType":"uint256","name":"_launchBlock","type":"uint256"},{"internalType":"uint16","name":"protectionBlocks","type":"uint16"}],"name":"setLaunchBlock","outputs":[],"stateMutability":"nonpayable","type":"function"},{"inputs":[{"internalType":"address","name":"_pair","type":"address"}],"name":"setPair","outputs":[],"stateMutability":"nonpayable","type":"function"},{"inputs":[],"name":"symbol","outputs":[{"internalType":"string","name":"","type":"string"}],"stateMutability":"view","type":"function"},{"inputs":[],"name":"totalSupply","outputs":[{"internalType":"uint256","name":"","type":"uint256"}],"stateMutability":"view","type":"function"},{"inputs":[],"name":"tradingDelayBlocks","outputs":[{"internalType":"uint16","name":"","type":"uint16"}],"stateMutability":"view","type":"function"},{"inputs":[{"internalType":"address","name":"to","type":"address"},{"internalType":"uint256","name":"value","type":"uint256"}],"name":"transfer","outputs":[{"internalType":"bool","name":"","type":"bool"}],"stateMutability":"nonpayable","type":"function"},{"inputs":[{"internalType":"address","name":"from","type":"address"},{"internalType":"address","name":"to","type":"address"},{"internalType":"uint256","name":"value","type":"uint256"}],"name":"transferFrom","outputs":[{"internalType":"bool","name":"","type":"bool"}],"stateMutability":"nonpayable","type":"function"}],"evm":{"bytecode":{"linkReferences":{},"object":"608060405234620005225762001204803803806200001d8162000527565b928339810161014082820312620005225781516001600160401b039290838111620005225782620000509183016200054d565b9160208201519084821162000522576200006c9183016200054d565b926040820151906200008160608401620005bf565b916200009060808501620005bf565b6200009e60a08601620005bf565b92620000ad60c08701620005d4565b96620000bc60e08801620005d4565b50610120620000cf6101008901620005d4565b9701519586151587036200052257600080546001600160a01b0319166001600160a01b039290921691821781557f8be0079c531659141344cd1fd0a4f28419497f9722a3daafe3b4186f6b6457e08180a3805190828211620004135760015490600182811c9216801562000517575b6020831014620003f25781601f849311620004b3575b50602090601f8311600114620004355760009262000429575b50508160011b916000199060031b1c1916176001555b87519081116200041357600254600181811c9116801562000408575b6020821014620003f257601f811162000388575b506020601f8211600114620002fc5792600080516020620011c4833981519152928260209360009663ffff00009a9b9c8892620002f0575b50508160011b9187199060031b1c1916176002555b600b80546001600160a01b039283166001600160a01b03199182168117909255600c805498909316971696909617905560035462000240908290620005e4565b60035584845260048252604084206200025b828254620005e4565b9055604051908152a361ffff64ff0000000060085492151560201b1694169064ffffffffff1916179160101b16171760085560018060a01b03600b54166000526009602052604060002060ff199060018282541617905560018060a01b03600c54166000526040600020600182825416179055600080526001604060002091825416179055604051610bbb9081620006098239f35b015190503880620001eb565b600260005260206000209860005b601f19841681106200036f57509260018363ffff0000999a9b60009794600080516020620011c483398151915297602097601f1981161062000356575b505050811b0160025562000200565b0151881960f88460031b161c1916905538808062000347565b828201518b556001909a0199602092830192016200030a565b60026000527f405787fa12a823e0f2b7631cc41b3ba8828b3321ca811111fa75cd3aa3bb5ace601f830160051c81019160208410620003e7575b601f0160051c01905b818110620003da5750620001b3565b60008155600101620003cb565b9091508190620003c2565b634e487b7160e01b600052602260045260246000fd5b90607f16906200019f565b634e487b7160e01b600052604160045260246000fd5b0151905038806200016d565b600160009081529350600080516020620011e483398151915291905b601f198416851062000497576001945083601f198116106200047d575b505050811b0160015562000183565b015160001960f88460031b161c191690553880806200046e565b8181015183556020948501946001909301929091019062000451565b6001600052909150600080516020620011e4833981519152601f840160051c810191602085106200050c575b90601f859493920160051c01905b818110620004fc575062000154565b60008155849350600101620004ed565b9091508190620004df565b91607f16916200013e565b600080fd5b6040519190601f01601f191682016001600160401b038111838210176200041357604052565b919080601f84011215620005225782516001600160401b038111620004135760209062000583601f8201601f1916830162000527565b92818452828287010111620005225760005b818110620005ab57508260009394955001015290565b858101830151848201840152820162000595565b51906001600160a01b03821682036200052257565b519061ffff821682036200052257565b91908201809211620005f257565b634e487b7160e01b600052601160045260246000fdfe608060408181526004918236101561001657600080fd5b600092833560e01c91826306fdde03146107c057508163095ea7b31461074f57816318160ddd1461073057816323b872dd1461068a578163313ce5671461066e5781636760e74c1461064b57816370a0823114610615578163715018a61461058a5781638187f516146104ce5781638712523e146104965781638da5cb5b1461046e57816395d89b411461034d5781639605ddbb1461032e5781639ebaa1c314610309578163a8aa1b31146102e0578163a9059cbb146102af578163ad5dff7314610271578163b67d42661461020057508063c45a0155146101d8578063d00efb2f146101ba578063dd62ed3e14610172578063f887ea401461014a5763ff8ea3e51461012257600080fd5b3461014657816003193601126101465760209061ffff60085460101c169051908152f35b5080fd5b5034610146578160031936011261014657600c5490516001600160a01b039091168152602090f35b50346101465780600319360112610146578060209261018f6108e0565b6101976108fb565b6001600160a01b0391821683526005865283832091168252845220549051908152f35b50346101465781600319360112610146576020906006549051908152f35b5034610146578160031936011261014657600b5490516001600160a01b039091168152602090f35b9190503461026d57366003190112610146573560243561ffff8082168092036102695761023860018060a01b03600b54163314610911565b60065415610244578380f35b8261025a9161025f94600655600854169061094b565b61094b565b6007553880808380f35b8380fd5b8280fd5b5050346101465760203660031901126101465760209160ff9082906001600160a01b0361029c6108e0565b1681526009855220541690519015158152f35b5050346101465780600319360112610146576020906102d96102cf6108e0565b602435903361097b565b5160018152f35b505034610146578160031936011261014657600d5490516001600160a01b039091168152602090f35b5050346101465781600319360112610146576008549051602091821c60ff1615158152f35b5050346101465781600319360112610146576020906007549051908152f35b83833461014657816003193601126101465780519082600254600181811c90808316928315610464575b60209384841081146104515783885290811561043557506001146103df575b505050829003601f01601f191682019267ffffffffffffffff8411838510176103cc57508291826103c8925282610897565b0390f35b634e487b7160e01b815260418552602490fd5b600287529192508591837f405787fa12a823e0f2b7631cc41b3ba8828b3321ca811111fa75cd3aa3bb5ace5b8385106104215750505050830101858080610396565b80548886018301529301928490820161040b565b60ff1916878501525050151560051b8401019050858080610396565b634e487b7160e01b895260228a52602489fd5b91607f1691610377565b505034610146578160031936011261014657905490516001600160a01b039091168152602090f35b5050346101465760203660031901126101465760209181906001600160a01b036104be6108e0565b168152600a845220549051908152f35b90503461026d57602036600319011261026d576104e96108e0565b9060018060a01b0361050081600b54163314610911565b600d549281841661055457169283156105265750506001600160a01b03191617600d5580f35b906020606492519162461bcd60e51b835282015260086024820152672120a22fa820a4a960c11b6044820152fd5b845162461bcd60e51b8152602081850152601060248201526f1410525497d053149150511657d4d15560821b6044820152606490fd5b90503461026d578260031936011261026d578254916001600160a01b03831633036105e65750506001600160a01b031916815580337f8be0079c531659141344cd1fd0a4f28419497f9722a3daafe3b4186f6b6457e08280a380f35b906020606492519162461bcd60e51b835282015260096024820152682727aa2fa7aba722a960b91b6044820152fd5b90503461026d57602036600319011261026d5760209282916001600160a01b0361063d6108e0565b168252845220549051908152f35b50503461014657816003193601126101465760209061ffff600854169051908152f35b5050346101465781600319360112610146576020905160128152f35b9190503461026d57606036600319011261026d576106a66108e0565b6106ae6108fb565b6044359160018060a01b03811680875260209560058752858820338952875285882054908582106107015750948096976106eb866102d99861096e565b928152600589528181203382528952205561097b565b865162461bcd60e51b81529081018890526009602482015268414c4c4f57414e434560b81b6044820152606490fd5b5050346101465781600319360112610146576020906003549051908152f35b5050346101465780600319360112610146576020918161076d6108e0565b91602435918291338152600587528181209460018060a01b0316948582528752205582519081527f8c5be1e5ebec7d5bd14f71427d1e84f3dd0314c0f7b2291e5b200ac8c7c3b925843392a35160018152f35b8490843461026d578260031936011261026d5782600180549081811c9080831692831561088d575b602093848410811461045157838852908115610435575060011461083857505050829003601f01601f191682019267ffffffffffffffff8411838510176103cc57508291826103c8925282610897565b8087529192508591837fb10e2d527612073b26eecdfd717e6a320cf44b4afac2b0732d9fcbe2b7fa0cf65b8385106108795750505050830101858080610396565b805488860183015293019284908201610863565b91607f16916107e8565b6020808252825181830181905290939260005b8281106108cc57505060409293506000838284010152601f8019910116010190565b8181018601518482016040015285016108aa565b600435906001600160a01b03821682036108f657565b600080fd5b602435906001600160a01b03821682036108f657565b1561091857565b60405162461bcd60e51b815260206004820152600b60248201526a4e4f545f464143544f525960a81b6044820152606490fd5b9190820180921161095857565b634e487b7160e01b600052601160045260246000fd5b9190820391821161095857565b9060018060a01b0392838316926000848152600495602094878652604093858585205410610b58578784526009875260ff85852054161580610b45575b610a19575b50918392917fddf252ad1be2c89b69c2b068fc378daa952ba7f163c4a11628f55a4df523b3ef969594928883528987528383206109fb87825461096e565b90551697888252855220610a1083825461094b565b905551908152a3565b6006548015610b355760085490610a3661ffff918284169061094b565b431115610b2557600754431115610a4f575b50506109bd565b600354908260101c1690818102918183041490151715610b125761271090048711610b0257871c60ff16610a85575b8080610a48565b829081600d54168015159081610af8575b5015610af35750815b16808452600a8752438585205414610ae3578352600a86528383204390557fddf252ad1be2c89b69c2b068fc378daa952ba7f163c4a11628f55a4df523b3ef610a7e565b845163aa9a98df60e01b81528990fd5b610a9f565b9050891438610a96565b8551634d22aedf60e11b81528a90fd5b634e487b7160e01b865260118b52602486fd5b8651637b85e8b960e01b81528b90fd5b85516312f1f92360e01b81528a90fd5b50828216845260ff8585205416156109b8565b845162461bcd60e51b8152808a01889052600760248201526642414c414e434560c81b6044820152606490fdfea264697066735822122065474668e201ac05dea47a69fc4b12046ce31756b60115a495a75f2c7aef846464736f6c63430008140033ddf252ad1be2c89b69c2b068fc378daa952ba7f163c4a11628f55a4df523b3efb10e2d527612073b26eecdfd717e6a320cf44b4afac2b0732d9fcbe2b7fa0cf6","opcodes":"PUSH1 0x80 PUSH1 0x40 MSTORE CALLVALUE PUSH3 0x522 JUMPI PUSH3 0x1204 DUP1 CODESIZE SUB DUP1 PUSH3 0x1D DUP2 PUSH3 0x527 JUMP JUMPDEST SWAP3 DUP4 CODECOPY DUP2 ADD PUSH2 0x140 DUP3 DUP3 SUB SLT PUSH3 0x522 JUMPI DUP2 MLOAD PUSH1 0x1 PUSH1 0x1 PUSH1 0x40 SHL SUB SWAP3 SWAP1 DUP4 DUP2 GT PUSH3 0x522 JUMPI DUP3 PUSH3 0x50 SWAP2 DUP4 ADD PUSH3 0x54D JUMP JUMPDEST SWAP2 PUSH1 0x20 DUP3 ADD MLOAD SWAP1 DUP5 DUP3 GT PUSH3 0x522 JUMPI PUSH3 0x6C SWAP2 DUP4 ADD PUSH3 0x54D JUMP JUMPDEST SWAP3 PUSH1 0x40 DUP3 ADD MLOAD SWAP1 PUSH3 0x81 PUSH1 0x60 DUP5 ADD PUSH3 0x5BF JUMP JUMPDEST SWAP2 PUSH3 0x90 PUSH1 0x80 DUP6 ADD PUSH3 0x5BF JUMP JUMPDEST PUSH3 0x9E PUSH1 0xA0 DUP7 ADD PUSH3 0x5BF JUMP JUMPDEST SWAP3 PUSH3 0xAD PUSH1 0xC0 DUP8 ADD PUSH3 0x5D4 JUMP JUMPDEST SWAP7 PUSH3 0xBC PUSH1 0xE0 DUP9 ADD PUSH3 0x5D4 JUMP JUMPDEST POP PUSH2 0x120 PUSH3 0xCF PUSH2 0x100 DUP10 ADD PUSH3 0x5D4 JUMP JUMPDEST SWAP8 ADD MLOAD SWAP6 DUP7 ISZERO ISZERO DUP8 SUB PUSH3 0x522 JUMPI PUSH1 0x0 DUP1 SLOAD PUSH1 0x1 PUSH1 0x1 PUSH1 0xA0 SHL SUB NOT AND PUSH1 0x1 PUSH1 0x1 PUSH1 0xA0 SHL SUB SWAP3 SWAP1 SWAP3 AND SWAP2 DUP3 OR DUP2 SSTORE PUSH32 0x8BE0079C531659141344CD1FD0A4F28419497F9722A3DAAFE3B4186F6B6457E0 DUP2 DUP1 LOG3 DUP1 MLOAD SWAP1 DUP3 DUP3 GT PUSH3 0x413 JUMPI PUSH1 0x1 SLOAD SWAP1 PUSH1 0x1 DUP3 DUP2 SHR SWAP3 AND DUP1 ISZERO PUSH3 0x517 JUMPI JUMPDEST PUSH1 0x20 DUP4 LT EQ PUSH3 0x3F2 JUMPI DUP2 PUSH1 0x1F DUP5 SWAP4 GT PUSH3 0x4B3 JUMPI JUMPDEST POP PUSH1 0x20 SWAP1 PUSH1 0x1F DUP4 GT PUSH1 0x1 EQ PUSH3 0x435 JUMPI PUSH1 0x0 SWAP3 PUSH3 0x429 JUMPI JUMPDEST POP POP DUP2 PUSH1 0x1 SHL SWAP2 PUSH1 0x0 NOT SWAP1 PUSH1 0x3 SHL SHR NOT AND OR PUSH1 0x1 SSTORE JUMPDEST DUP8 MLOAD SWAP1 DUP2 GT PUSH3 0x413 JUMPI PUSH1 0x2 SLOAD PUSH1 0x1 DUP2 DUP2 SHR SWAP2 AND DUP1 ISZERO PUSH3 0x408 JUMPI JUMPDEST PUSH1 0x20 DUP3 LT EQ PUSH3 0x3F2 JUMPI PUSH1 0x1F DUP2 GT PUSH3 0x388 JUMPI JUMPDEST POP PUSH1 0x20 PUSH1 0x1F DUP3 GT PUSH1 0x1 EQ PUSH3 0x2FC JUMPI SWAP3 PUSH1 0x0 DUP1 MLOAD PUSH1 0x20 PUSH3 0x11C4 DUP4 CODECOPY DUP2 MLOAD SWAP2 MSTORE SWAP3 DUP3 PUSH1 0x20 SWAP4 PUSH1 0x0 SWAP7 PUSH4 0xFFFF0000 SWAP11 SWAP12 SWAP13 DUP9 SWAP3 PUSH3 0x2F0 JUMPI JUMPDEST POP POP DUP2 PUSH1 0x1 SHL SWAP2 DUP8 NOT SWAP1 PUSH1 0x3 SHL SHR NOT AND OR PUSH1 0x2 SSTORE JUMPDEST PUSH1 0xB DUP1 SLOAD PUSH1 0x1 PUSH1 0x1 PUSH1 0xA0 SHL SUB SWAP3 DUP4 AND PUSH1 0x1 PUSH1 0x1 PUSH1 0xA0 SHL SUB NOT SWAP2 DUP3 AND DUP2 OR SWAP1 SWAP3 SSTORE PUSH1 0xC DUP1 SLOAD SWAP9 SWAP1 SWAP4 AND SWAP8 AND SWAP7 SWAP1 SWAP7 OR SWAP1 SSTORE PUSH1 0x3 SLOAD PUSH3 0x240 SWAP1 DUP3 SWAP1 PUSH3 0x5E4 JUMP JUMPDEST PUSH1 0x3 SSTORE DUP5 DUP5 MSTORE PUSH1 0x4 DUP3 MSTORE PUSH1 0x40 DUP5 KECCAK256 PUSH3 0x25B DUP3 DUP3 SLOAD PUSH3 0x5E4 JUMP JUMPDEST SWAP1 SSTORE PUSH1 0x40 MLOAD SWAP1 DUP2 MSTORE LOG3 PUSH2 0xFFFF PUSH5 0xFF00000000 PUSH1 0x8 SLOAD SWAP3 ISZERO ISZERO PUSH1 0x20 SHL AND SWAP5 AND SWAP1 PUSH5 0xFFFFFFFFFF NOT AND OR SWAP2 PUSH1 0x10 SHL AND OR OR PUSH1 0x8 SSTORE PUSH1 0x1 DUP1 PUSH1 0xA0 SHL SUB PUSH1 0xB SLOAD AND PUSH1 0x0 MSTORE PUSH1 0x9 PUSH1 0x20 MSTORE PUSH1 0x40 PUSH1 0x0 KECCAK256 PUSH1 0xFF NOT SWAP1 PUSH1 0x1 DUP3 DUP3 SLOAD AND OR SWAP1 SSTORE PUSH1 0x1 DUP1 PUSH1 0xA0 SHL SUB PUSH1 0xC SLOAD AND PUSH1 0x0 MSTORE PUSH1 0x40 PUSH1 0x0 KECCAK256 PUSH1 0x1 DUP3 DUP3 SLOAD AND OR SWAP1 SSTORE PUSH1 0x0 DUP1 MSTORE PUSH1 0x1 PUSH1 0x40 PUSH1 0x0 KECCAK256 SWAP2 DUP3 SLOAD AND OR SWAP1 SSTORE PUSH1 0x40 MLOAD PUSH2 0xBBB SWAP1 DUP2 PUSH3 0x609 DUP3 CODECOPY RETURN JUMPDEST ADD MLOAD SWAP1 POP CODESIZE DUP1 PUSH3 0x1EB JUMP JUMPDEST PUSH1 0x2 PUSH1 0x0 MSTORE PUSH1 0x20 PUSH1 0x0 KECCAK256 SWAP9 PUSH1 0x0 JUMPDEST PUSH1 0x1F NOT DUP5 AND DUP2 LT PUSH3 0x36F JUMPI POP SWAP3 PUSH1 0x1 DUP4 PUSH4 0xFFFF0000 SWAP10 SWAP11 SWAP12 PUSH1 0x0 SWAP8 SWAP5 PUSH1 0x0 DUP1 MLOAD PUSH1 0x20 PUSH3 0x11C4 DUP4 CODECOPY DUP2 MLOAD SWAP2 MSTORE SWAP8 PUSH1 0x20 SWAP8 PUSH1 0x1F NOT DUP2 AND LT PUSH3 0x356 JUMPI JUMPDEST POP POP POP DUP2 SHL ADD PUSH1 0x2 SSTORE PUSH3 0x200 JUMP JUMPDEST ADD MLOAD DUP9 NOT PUSH1 0xF8 DUP5 PUSH1 0x3 SHL AND SHR NOT AND SWAP1 SSTORE CODESIZE DUP1 DUP1 PUSH3 0x347 JUMP JUMPDEST DUP3 DUP3 ADD MLOAD DUP12 SSTORE PUSH1 0x1 SWAP1 SWAP11 ADD SWAP10 PUSH1 0x20 SWAP3 DUP4 ADD SWAP3 ADD PUSH3 0x30A JUMP JUMPDEST PUSH1 0x2 PUSH1 0x0 MSTORE PUSH32 0x405787FA12A823E0F2B7631CC41B3BA8828B3321CA811111FA75CD3AA3BB5ACE PUSH1 0x1F DUP4 ADD PUSH1 0x5 SHR DUP2 ADD SWAP2 PUSH1 0x20 DUP5 LT PUSH3 0x3E7 JUMPI JUMPDEST PUSH1 0x1F ADD PUSH1 0x5 SHR ADD SWAP1 JUMPDEST DUP2 DUP2 LT PUSH3 0x3DA JUMPI POP PUSH3 0x1B3 JUMP JUMPDEST PUSH1 0x0 DUP2 SSTORE PUSH1 0x1 ADD PUSH3 0x3CB JUMP JUMPDEST SWAP1 SWAP2 POP DUP2 SWAP1 PUSH3 0x3C2 JUMP JUMPDEST PUSH4 0x4E487B71 PUSH1 0xE0 SHL PUSH1 0x0 MSTORE PUSH1 0x22 PUSH1 0x4 MSTORE PUSH1 0x24 PUSH1 0x0 REVERT JUMPDEST SWAP1 PUSH1 0x7F AND SWAP1 PUSH3 0x19F JUMP JUMPDEST PUSH4 0x4E487B71 PUSH1 0xE0 SHL PUSH1 0x0 MSTORE PUSH1 0x41 PUSH1 0x4 MSTORE PUSH1 0x24 PUSH1 0x0 REVERT JUMPDEST ADD MLOAD SWAP1 POP CODESIZE DUP1 PUSH3 0x16D JUMP JUMPDEST PUSH1 0x1 PUSH1 0x0 SWAP1 DUP2 MSTORE SWAP4 POP PUSH1 0x0 DUP1 MLOAD PUSH1 0x20 PUSH3 0x11E4 DUP4 CODECOPY DUP2 MLOAD SWAP2 MSTORE SWAP2 SWAP1 JUMPDEST PUSH1 0x1F NOT DUP5 AND DUP6 LT PUSH3 0x497 JUMPI PUSH1 0x1 SWAP5 POP DUP4 PUSH1 0x1F NOT DUP2 AND LT PUSH3 0x47D JUMPI JUMPDEST POP POP POP DUP2 SHL ADD PUSH1 0x1 SSTORE PUSH3 0x183 JUMP JUMPDEST ADD MLOAD PUSH1 0x0 NOT PUSH1 0xF8 DUP5 PUSH1 0x3 SHL AND SHR NOT AND SWAP1 SSTORE CODESIZE DUP1 DUP1 PUSH3 0x46E JUMP JUMPDEST DUP2 DUP2 ADD MLOAD DUP4 SSTORE PUSH1 0x20 SWAP5 DUP6 ADD SWAP5 PUSH1 0x1 SWAP1 SWAP4 ADD SWAP3 SWAP1 SWAP2 ADD SWAP1 PUSH3 0x451 JUMP JUMPDEST PUSH1 0x1 PUSH1 0x0 MSTORE SWAP1 SWAP2 POP PUSH1 0x0 DUP1 MLOAD PUSH1 0x20 PUSH3 0x11E4 DUP4 CODECOPY DUP2 MLOAD SWAP2 MSTORE PUSH1 0x1F DUP5 ADD PUSH1 0x5 SHR DUP2 ADD SWAP2 PUSH1 0x20 DUP6 LT PUSH3 0x50C JUMPI JUMPDEST SWAP1 PUSH1 0x1F DUP6 SWAP5 SWAP4 SWAP3 ADD PUSH1 0x5 SHR ADD SWAP1 JUMPDEST DUP2 DUP2 LT PUSH3 0x4FC JUMPI POP PUSH3 0x154 JUMP JUMPDEST PUSH1 0x0 DUP2 SSTORE DUP5 SWAP4 POP PUSH1 0x1 ADD PUSH3 0x4ED JUMP JUMPDEST SWAP1 SWAP2 POP DUP2 SWAP1 PUSH3 0x4DF JUMP JUMPDEST SWAP2 PUSH1 0x7F AND SWAP2 PUSH3 0x13E JUMP JUMPDEST PUSH1 0x0 DUP1 REVERT JUMPDEST PUSH1 0x40 MLOAD SWAP2 SWAP1 PUSH1 0x1F ADD PUSH1 0x1F NOT AND DUP3 ADD PUSH1 0x1 PUSH1 0x1 PUSH1 0x40 SHL SUB DUP2 GT DUP4 DUP3 LT OR PUSH3 0x413 JUMPI PUSH1 0x40 MSTORE JUMP JUMPDEST SWAP2 SWAP1 DUP1 PUSH1 0x1F DUP5 ADD SLT ISZERO PUSH3 0x522 JUMPI DUP3 MLOAD PUSH1 0x1 PUSH1 0x1 PUSH1 0x40 SHL SUB DUP2 GT PUSH3 0x413 JUMPI PUSH1 0x20 SWAP1 PUSH3 0x583 PUSH1 0x1F DUP3 ADD PUSH1 0x1F NOT AND DUP4 ADD PUSH3 0x527 JUMP JUMPDEST SWAP3 DUP2 DUP5 MSTORE DUP3 DUP3 DUP8 ADD ADD GT PUSH3 0x522 JUMPI PUSH1 0x0 JUMPDEST DUP2 DUP2 LT PUSH3 0x5AB JUMPI POP DUP3 PUSH1 0x0 SWAP4 SWAP5 SWAP6 POP ADD ADD MSTORE SWAP1 JUMP JUMPDEST DUP6 DUP2 ADD DUP4 ADD MLOAD DUP5 DUP3 ADD DUP5 ADD MSTORE DUP3 ADD PUSH3 0x595 JUMP JUMPDEST MLOAD SWAP1 PUSH1 0x1 PUSH1 0x1 PUSH1 0xA0 SHL SUB DUP3 AND DUP3 SUB PUSH3 0x522 JUMPI JUMP JUMPDEST MLOAD SWAP1 PUSH2 0xFFFF DUP3 AND DUP3 SUB PUSH3 0x522 JUMPI JUMP JUMPDEST SWAP2 SWAP1 DUP3 ADD DUP1 SWAP3 GT PUSH3 0x5F2 JUMPI JUMP JUMPDEST PUSH4 0x4E487B71 PUSH1 0xE0 SHL PUSH1 0x0 MSTORE PUSH1 0x11 PUSH1 0x4 MSTORE PUSH1 0x24 PUSH1 0x0 REVERT INVALID PUSH1 0x80 PUSH1 0x40 DUP2 DUP2 MSTORE PUSH1 0x4 SWAP2 DUP3 CALLDATASIZE LT ISZERO PUSH2 0x16 JUMPI PUSH1 0x0 DUP1 REVERT JUMPDEST PUSH1 0x0 SWAP3 DUP4 CALLDATALOAD PUSH1 0xE0 SHR SWAP2 DUP3 PUSH4 0x6FDDE03 EQ PUSH2 0x7C0 JUMPI POP DUP2 PUSH4 0x95EA7B3 EQ PUSH2 0x74F JUMPI DUP2 PUSH4 0x18160DDD EQ PUSH2 0x730 JUMPI DUP2 PUSH4 0x23B872DD EQ PUSH2 0x68A JUMPI DUP2 PUSH4 0x313CE567 EQ PUSH2 0x66E JUMPI DUP2 PUSH4 0x6760E74C EQ PUSH2 0x64B JUMPI DUP2 PUSH4 0x70A08231 EQ PUSH2 0x615 JUMPI DUP2 PUSH4 0x715018A6 EQ PUSH2 0x58A JUMPI DUP2 PUSH4 0x8187F516 EQ PUSH2 0x4CE JUMPI DUP2 PUSH4 0x8712523E EQ PUSH2 0x496 JUMPI DUP2 PUSH4 0x8DA5CB5B EQ PUSH2 0x46E JUMPI DUP2 PUSH4 0x95D89B41 EQ PUSH2 0x34D JUMPI DUP2 PUSH4 0x9605DDBB EQ PUSH2 0x32E JUMPI DUP2 PUSH4 0x9EBAA1C3 EQ PUSH2 0x309 JUMPI DUP2 PUSH4 0xA8AA1B31 EQ PUSH2 0x2E0 JUMPI DUP2 PUSH4 0xA9059CBB EQ PUSH2 0x2AF JUMPI DUP2 PUSH4 0xAD5DFF73 EQ PUSH2 0x271 JUMPI DUP2 PUSH4 0xB67D4266 EQ PUSH2 0x200 JUMPI POP DUP1 PUSH4 0xC45A0155 EQ PUSH2 0x1D8 JUMPI DUP1 PUSH4 0xD00EFB2F EQ PUSH2 0x1BA JUMPI DUP1 PUSH4 0xDD62ED3E EQ PUSH2 0x172 JUMPI DUP1 PUSH4 0xF887EA40 EQ PUSH2 0x14A JUMPI PUSH4 0xFF8EA3E5 EQ PUSH2 0x122 JUMPI PUSH1 0x0 DUP1 REVERT JUMPDEST CALLVALUE PUSH2 0x146 JUMPI DUP2 PUSH1 0x3 NOT CALLDATASIZE ADD SLT PUSH2 0x146 JUMPI PUSH1 0x20 SWAP1 PUSH2 0xFFFF PUSH1 0x8 SLOAD PUSH1 0x10 SHR AND SWAP1 MLOAD SWAP1 DUP2 MSTORE RETURN JUMPDEST POP DUP1 REVERT JUMPDEST POP CALLVALUE PUSH2 0x146 JUMPI DUP2 PUSH1 0x3 NOT CALLDATASIZE ADD SLT PUSH2 0x146 JUMPI PUSH1 0xC SLOAD SWAP1 MLOAD PUSH1 0x1 PUSH1 0x1 PUSH1 0xA0 SHL SUB SWAP1 SWAP2 AND DUP2 MSTORE PUSH1 0x20 SWAP1 RETURN JUMPDEST POP CALLVALUE PUSH2 0x146 JUMPI DUP1 PUSH1 0x3 NOT CALLDATASIZE ADD SLT PUSH2 0x146 JUMPI DUP1 PUSH1 0x20 SWAP3 PUSH2 0x18F PUSH2 0x8E0 JUMP JUMPDEST PUSH2 0x197 PUSH2 0x8FB JUMP JUMPDEST PUSH1 0x1 PUSH1 0x1 PUSH1 0xA0 SHL SUB SWAP2 DUP3 AND DUP4 MSTORE PUSH1 0x5 DUP7 MSTORE DUP4 DUP4 KECCAK256 SWAP2 AND DUP3 MSTORE DUP5 MSTORE KECCAK256 SLOAD SWAP1 MLOAD SWAP1 DUP2 MSTORE RETURN JUMPDEST POP CALLVALUE PUSH2 0x146 JUMPI DUP2 PUSH1 0x3 NOT CALLDATASIZE ADD SLT PUSH2 0x146 JUMPI PUSH1 0x20 SWAP1 PUSH1 0x6 SLOAD SWAP1 MLOAD SWAP1 DUP2 MSTORE RETURN JUMPDEST POP CALLVALUE PUSH2 0x146 JUMPI DUP2 PUSH1 0x3 NOT CALLDATASIZE ADD SLT PUSH2 0x146 JUMPI PUSH1 0xB SLOAD SWAP1 MLOAD PUSH1 0x1 PUSH1 0x1 PUSH1 0xA0 SHL SUB SWAP1 SWAP2 AND DUP2 MSTORE PUSH1 0x20 SWAP1 RETURN JUMPDEST SWAP2 SWAP1 POP CALLVALUE PUSH2 0x26D JUMPI CALLDATASIZE PUSH1 0x3 NOT ADD SLT PUSH2 0x146 JUMPI CALLDATALOAD PUSH1 0x24 CALLDATALOAD PUSH2 0xFFFF DUP1 DUP3 AND DUP1 SWAP3 SUB PUSH2 0x269 JUMPI PUSH2 0x238 PUSH1 0x1 DUP1 PUSH1 0xA0 SHL SUB PUSH1 0xB SLOAD AND CALLER EQ PUSH2 0x911 JUMP JUMPDEST PUSH1 0x6 SLOAD ISZERO PUSH2 0x244 JUMPI DUP4 DUP1 RETURN JUMPDEST DUP3 PUSH2 0x25A SWAP2 PUSH2 0x25F SWAP5 PUSH1 0x6 SSTORE PUSH1 0x8 SLOAD AND SWAP1 PUSH2 0x94B JUMP JUMPDEST PUSH2 0x94B JUMP JUMPDEST PUSH1 0x7 SSTORE CODESIZE DUP1 DUP1 DUP4 DUP1 RETURN JUMPDEST DUP4 DUP1 REVERT JUMPDEST DUP3 DUP1 REVERT JUMPDEST POP POP CALLVALUE PUSH2 0x146 JUMPI PUSH1 0x20 CALLDATASIZE PUSH1 0x3 NOT ADD SLT PUSH2 0x146 JUMPI PUSH1 0x20 SWAP2 PUSH1 0xFF SWAP1 DUP3 SWAP1 PUSH1 0x1 PUSH1 0x1 PUSH1 0xA0 SHL SUB PUSH2 0x29C PUSH2 0x8E0 JUMP JUMPDEST AND DUP2 MSTORE PUSH1 0x9 DUP6 MSTORE KECCAK256 SLOAD AND SWAP1 MLOAD SWAP1 ISZERO ISZERO DUP2 MSTORE RETURN JUMPDEST POP POP CALLVALUE PUSH2 0x146 JUMPI DUP1 PUSH1 0x3 NOT CALLDATASIZE ADD SLT PUSH2 0x146 JUMPI PUSH1 0x20 SWAP1 PUSH2 0x2D9 PUSH2 0x2CF PUSH2 0x8E0 JUMP JUMPDEST PUSH1 0x24 CALLDATALOAD SWAP1 CALLER PUSH2 0x97B JUMP JUMPDEST MLOAD PUSH1 0x1 DUP2 MSTORE RETURN JUMPDEST POP POP CALLVALUE PUSH2 0x146 JUMPI DUP2 PUSH1 0x3 NOT CALLDATASIZE ADD SLT PUSH2 0x146 JUMPI PUSH1 0xD SLOAD SWAP1 MLOAD PUSH1 0x1 PUSH1 0x1 PUSH1 0xA0 SHL SUB SWAP1 SWAP2 AND DUP2 MSTORE PUSH1 0x20 SWAP1 RETURN JUMPDEST POP POP CALLVALUE PUSH2 0x146 JUMPI DUP2 PUSH1 0x3 NOT CALLDATASIZE ADD SLT PUSH2 0x146 JUMPI PUSH1 0x8 SLOAD SWAP1 MLOAD PUSH1 0x20 SWAP2 DUP3 SHR PUSH1 0xFF AND ISZERO ISZERO DUP2 MSTORE RETURN JUMPDEST POP POP CALLVALUE PUSH2 0x146 JUMPI DUP2 PUSH1 0x3 NOT CALLDATASIZE ADD SLT PUSH2 0x146 JUMPI PUSH1 0x20 SWAP1 PUSH1 0x7 SLOAD SWAP1 MLOAD SWAP1 DUP2 MSTORE RETURN JUMPDEST DUP4 DUP4 CALLVALUE PUSH2 0x146 JUMPI DUP2 PUSH1 0x3 NOT CALLDATASIZE ADD SLT PUSH2 0x146 JUMPI DUP1 MLOAD SWAP1 DUP3 PUSH1 0x2 SLOAD PUSH1 0x1 DUP2 DUP2 SHR SWAP1 DUP1 DUP4 AND SWAP3 DUP4 ISZERO PUSH2 0x464 JUMPI JUMPDEST PUSH1 0x20 SWAP4 DUP5 DUP5 LT DUP2 EQ PUSH2 0x451 JUMPI DUP4 DUP9 MSTORE SWAP1 DUP2 ISZERO PUSH2 0x435 JUMPI POP PUSH1 0x1 EQ PUSH2 0x3DF JUMPI JUMPDEST POP POP POP DUP3 SWAP1 SUB PUSH1 0x1F ADD PUSH1 0x1F NOT AND DUP3 ADD SWAP3 PUSH8 0xFFFFFFFFFFFFFFFF DUP5 GT DUP4 DUP6 LT OR PUSH2 0x3CC JUMPI POP DUP3 SWAP2 DUP3 PUSH2 0x3C8 SWAP3 MSTORE DUP3 PUSH2 0x897 JUMP JUMPDEST SUB SWAP1 RETURN JUMPDEST PUSH4 0x4E487B71 PUSH1 0xE0 SHL DUP2 MSTORE PUSH1 0x41 DUP6 MSTORE PUSH1 0x24 SWAP1 REVERT JUMPDEST PUSH1 0x2 DUP8 MSTORE SWAP2 SWAP3 POP DUP6 SWAP2 DUP4 PUSH32 0x405787FA12A823E0F2B7631CC41B3BA8828B3321CA811111FA75CD3AA3BB5ACE JUMPDEST DUP4 DUP6 LT PUSH2 0x421 JUMPI POP POP POP POP DUP4 ADD ADD DUP6 DUP1 DUP1 PUSH2 0x396 JUMP JUMPDEST DUP1 SLOAD DUP9 DUP7 ADD DUP4 ADD MSTORE SWAP4 ADD SWAP3 DUP5 SWAP1 DUP3 ADD PUSH2 0x40B JUMP JUMPDEST PUSH1 0xFF NOT AND DUP8 DUP6 ADD MSTORE POP POP ISZERO ISZERO PUSH1 0x5 SHL DUP5 ADD ADD SWAP1 POP DUP6 DUP1 DUP1 PUSH2 0x396 JUMP JUMPDEST PUSH4 0x4E487B71 PUSH1 0xE0 SHL DUP10 MSTORE PUSH1 0x22 DUP11 MSTORE PUSH1 0x24 DUP10 REVERT JUMPDEST SWAP2 PUSH1 0x7F AND SWAP2 PUSH2 0x377 JUMP JUMPDEST POP POP CALLVALUE PUSH2 0x146 JUMPI DUP2 PUSH1 0x3 NOT CALLDATASIZE ADD SLT PUSH2 0x146 JUMPI SWAP1 SLOAD SWAP1 MLOAD PUSH1 0x1 PUSH1 0x1 PUSH1 0xA0 SHL SUB SWAP1 SWAP2 AND DUP2 MSTORE PUSH1 0x20 SWAP1 RETURN JUMPDEST POP POP CALLVALUE PUSH2 0x146 JUMPI PUSH1 0x20 CALLDATASIZE PUSH1 0x3 NOT ADD SLT PUSH2 0x146 JUMPI PUSH1 0x20 SWAP2 DUP2 SWAP1 PUSH1 0x1 PUSH1 0x1 PUSH1 0xA0 SHL SUB PUSH2 0x4BE PUSH2 0x8E0 JUMP JUMPDEST AND DUP2 MSTORE PUSH1 0xA DUP5 MSTORE KECCAK256 SLOAD SWAP1 MLOAD SWAP1 DUP2 MSTORE RETURN JUMPDEST SWAP1 POP CALLVALUE PUSH2 0x26D JUMPI PUSH1 0x20 CALLDATASIZE PUSH1 0x3 NOT ADD SLT PUSH2 0x26D JUMPI PUSH2 0x4E9 PUSH2 0x8E0 JUMP JUMPDEST SWAP1 PUSH1 0x1 DUP1 PUSH1 0xA0 SHL SUB PUSH2 0x500 DUP2 PUSH1 0xB SLOAD AND CALLER EQ PUSH2 0x911 JUMP JUMPDEST PUSH1 0xD SLOAD SWAP3 DUP2 DUP5 AND PUSH2 0x554 JUMPI AND SWAP3 DUP4 ISZERO PUSH2 0x526 JUMPI POP POP PUSH1 0x1 PUSH1 0x1 PUSH1 0xA0 SHL SUB NOT AND OR PUSH1 0xD SSTORE DUP1 RETURN JUMPDEST SWAP1 PUSH1 0x20 PUSH1 0x64 SWAP3 MLOAD SWAP2 PUSH3 0x461BCD PUSH1 0xE5 SHL DUP4 MSTORE DUP3 ADD MSTORE PUSH1 0x8 PUSH1 0x24 DUP3 ADD MSTORE PUSH8 0x2120A22FA820A4A9 PUSH1 0xC1 SHL PUSH1 0x44 DUP3 ADD MSTORE REVERT JUMPDEST DUP5 MLOAD PUSH3 0x461BCD PUSH1 0xE5 SHL DUP2 MSTORE PUSH1 0x20 DUP2 DUP6 ADD MSTORE PUSH1 0x10 PUSH1 0x24 DUP3 ADD MSTORE PUSH16 0x1410525497D053149150511657D4D155 PUSH1 0x82 SHL PUSH1 0x44 DUP3 ADD MSTORE PUSH1 0x64 SWAP1 REVERT JUMPDEST SWAP1 POP CALLVALUE PUSH2 0x26D JUMPI DUP3 PUSH1 0x3 NOT CALLDATASIZE ADD SLT PUSH2 0x26D JUMPI DUP3 SLOAD SWAP2 PUSH1 0x1 PUSH1 0x1 PUSH1 0xA0 SHL SUB DUP4 AND CALLER SUB PUSH2 0x5E6 JUMPI POP POP PUSH1 0x1 PUSH1 0x1 PUSH1 0xA0 SHL SUB NOT AND DUP2 SSTORE DUP1 CALLER PUSH32 0x8BE0079C531659141344CD1FD0A4F28419497F9722A3DAAFE3B4186F6B6457E0 DUP3 DUP1 LOG3 DUP1 RETURN JUMPDEST SWAP1 PUSH1 0x20 PUSH1 0x64 SWAP3 MLOAD SWAP2 PUSH3 0x461BCD PUSH1 0xE5 SHL DUP4 MSTORE DUP3 ADD MSTORE PUSH1 0x9 PUSH1 0x24 DUP3 ADD MSTORE PUSH9 0x2727AA2FA7ABA722A9 PUSH1 0xB9 SHL PUSH1 0x44 DUP3 ADD MSTORE REVERT JUMPDEST SWAP1 POP CALLVALUE PUSH2 0x26D JUMPI PUSH1 0x20 CALLDATASIZE PUSH1 0x3 NOT ADD SLT PUSH2 0x26D JUMPI PUSH1 0x20 SWAP3 DUP3 SWAP2 PUSH1 0x1 PUSH1 0x1 PUSH1 0xA0 SHL SUB PUSH2 0x63D PUSH2 0x8E0 JUMP JUMPDEST AND DUP3 MSTORE DUP5 MSTORE KECCAK256 SLOAD SWAP1 MLOAD SWAP1 DUP2 MSTORE RETURN JUMPDEST POP POP CALLVALUE PUSH2 0x146 JUMPI DUP2 PUSH1 0x3 NOT CALLDATASIZE ADD SLT PUSH2 0x146 JUMPI PUSH1 0x20 SWAP1 PUSH2 0xFFFF PUSH1 0x8 SLOAD AND SWAP1 MLOAD SWAP1 DUP2 MSTORE RETURN JUMPDEST POP POP CALLVALUE PUSH2 0x146 JUMPI DUP2 PUSH1 0x3 NOT CALLDATASIZE ADD SLT PUSH2 0x146 JUMPI PUSH1 0x20 SWAP1 MLOAD PUSH1 0x12 DUP2 MSTORE RETURN JUMPDEST SWAP2 SWAP1 POP CALLVALUE PUSH2 0x26D JUMPI PUSH1 0x60 CALLDATASIZE PUSH1 0x3 NOT ADD SLT PUSH2 0x26D JUMPI PUSH2 0x6A6 PUSH2 0x8E0 JUMP JUMPDEST PUSH2 0x6AE PUSH2 0x8FB JUMP JUMPDEST PUSH1 0x44 CALLDATALOAD SWAP2 PUSH1 0x1 DUP1 PUSH1 0xA0 SHL SUB DUP2 AND DUP1 DUP8 MSTORE PUSH1 0x20 SWAP6 PUSH1 0x5 DUP8 MSTORE DUP6 DUP9 KECCAK256 CALLER DUP10 MSTORE DUP8 MSTORE DUP6 DUP9 KECCAK256 SLOAD SWAP1 DUP6 DUP3 LT PUSH2 0x701 JUMPI POP SWAP5 DUP1 SWAP7 SWAP8 PUSH2 0x6EB DUP7 PUSH2 0x2D9 SWAP9 PUSH2 0x96E JUMP JUMPDEST SWAP3 DUP2 MSTORE PUSH1 0x5 DUP10 MSTORE DUP2 DUP2 KECCAK256 CALLER DUP3 MSTORE DUP10 MSTORE KECCAK256 SSTORE PUSH2 0x97B JUMP JUMPDEST DUP7 MLOAD PUSH3 0x461BCD PUSH1 0xE5 SHL DUP2 MSTORE SWAP1 DUP2 ADD DUP9 SWAP1 MSTORE PUSH1 0x9 PUSH1 0x24 DUP3 ADD MSTORE PUSH9 0x414C4C4F57414E4345 PUSH1 0xB8 SHL PUSH1 0x44 DUP3 ADD MSTORE PUSH1 0x64 SWAP1 REVERT JUMPDEST POP POP CALLVALUE PUSH2 0x146 JUMPI DUP2 PUSH1 0x3 NOT CALLDATASIZE ADD SLT PUSH2 0x146 JUMPI PUSH1 0x20 SWAP1 PUSH1 0x3 SLOAD SWAP1 MLOAD SWAP1 DUP2 MSTORE RETURN JUMPDEST POP POP CALLVALUE PUSH2 0x146 JUMPI DUP1 PUSH1 0x3 NOT CALLDATASIZE ADD SLT PUSH2 0x146 JUMPI PUSH1 0x20 SWAP2 DUP2 PUSH2 0x76D PUSH2 0x8E0 JUMP JUMPDEST SWAP2 PUSH1 0x24 CALLDATALOAD SWAP2 DUP3 SWAP2 CALLER DUP2 MSTORE PUSH1 0x5 DUP8 MSTORE DUP2 DUP2 KECCAK256 SWAP5 PUSH1 0x1 DUP1 PUSH1 0xA0 SHL SUB AND SWAP5 DUP6 DUP3 MSTORE DUP8 MSTORE KECCAK256 SSTORE DUP3 MLOAD SWAP1 DUP2 MSTORE PUSH32 0x8C5BE1E5EBEC7D5BD14F71427D1E84F3DD0314C0F7B2291E5B200AC8C7C3B925 DUP5 CALLER SWAP3 LOG3 MLOAD PUSH1 0x1 DUP2 MSTORE RETURN JUMPDEST DUP5 SWAP1 DUP5 CALLVALUE PUSH2 0x26D JUMPI DUP3 PUSH1 0x3 NOT CALLDATASIZE ADD SLT PUSH2 0x26D JUMPI DUP3 PUSH1 0x1 DUP1 SLOAD SWAP1 DUP2 DUP2 SHR SWAP1 DUP1 DUP4 AND SWAP3 DUP4 ISZERO PUSH2 0x88D JUMPI JUMPDEST PUSH1 0x20 SWAP4 DUP5 DUP5 LT DUP2 EQ PUSH2 0x451 JUMPI DUP4 DUP9 MSTORE SWAP1 DUP2 ISZERO PUSH2 0x435 JUMPI POP PUSH1 0x1 EQ PUSH2 0x838 JUMPI POP POP POP DUP3 SWAP1 SUB PUSH1 0x1F ADD PUSH1 0x1F NOT AND DUP3 ADD SWAP3 PUSH8 0xFFFFFFFFFFFFFFFF DUP5 GT DUP4 DUP6 LT OR PUSH2 0x3CC JUMPI POP DUP3 SWAP2 DUP3 PUSH2 0x3C8 SWAP3 MSTORE DUP3 PUSH2 0x897 JUMP JUMPDEST DUP1 DUP8 MSTORE SWAP2 SWAP3 POP DUP6 SWAP2 DUP4 PUSH32 0xB10E2D527612073B26EECDFD717E6A320CF44B4AFAC2B0732D9FCBE2B7FA0CF6 JUMPDEST DUP4 DUP6 LT PUSH2 0x879 JUMPI POP POP POP POP DUP4 ADD ADD DUP6 DUP1 DUP1 PUSH2 0x396 JUMP JUMPDEST DUP1 SLOAD DUP9 DUP7 ADD DUP4 ADD MSTORE SWAP4 ADD SWAP3 DUP5 SWAP1 DUP3 ADD PUSH2 0x863 JUMP JUMPDEST SWAP2 PUSH1 0x7F AND SWAP2 PUSH2 0x7E8 JUMP JUMPDEST PUSH1 0x20 DUP1 DUP3 MSTORE DUP3 MLOAD DUP2 DUP4 ADD DUP2 SWAP1 MSTORE SWAP1 SWAP4 SWAP3 PUSH1 0x0 JUMPDEST DUP3 DUP2 LT PUSH2 0x8CC JUMPI POP POP PUSH1 0x40 SWAP3 SWAP4 POP PUSH1 0x0 DUP4 DUP3 DUP5 ADD ADD MSTORE PUSH1 0x1F DUP1 NOT SWAP2 ADD AND ADD ADD SWAP1 JUMP JUMPDEST DUP2 DUP2 ADD DUP7 ADD MLOAD DUP5 DUP3 ADD PUSH1 0x40 ADD MSTORE DUP6 ADD PUSH2 0x8AA JUMP JUMPDEST PUSH1 0x4 CALLDATALOAD SWAP1 PUSH1 0x1 PUSH1 0x1 PUSH1 0xA0 SHL SUB DUP3 AND DUP3 SUB PUSH2 0x8F6 JUMPI JUMP JUMPDEST PUSH1 0x0 DUP1 REVERT JUMPDEST PUSH1 0x24 CALLDATALOAD SWAP1 PUSH1 0x1 PUSH1 0x1 PUSH1 0xA0 SHL SUB DUP3 AND DUP3 SUB PUSH2 0x8F6 JUMPI JUMP JUMPDEST ISZERO PUSH2 0x918 JUMPI JUMP JUMPDEST PUSH1 0x40 MLOAD PUSH3 0x461BCD PUSH1 0xE5 SHL DUP2 MSTORE PUSH1 0x20 PUSH1 0x4 DUP3 ADD MSTORE PUSH1 0xB PUSH1 0x24 DUP3 ADD MSTORE PUSH11 0x4E4F545F464143544F5259 PUSH1 0xA8 SHL PUSH1 0x44 DUP3 ADD MSTORE PUSH1 0x64 SWAP1 REVERT JUMPDEST SWAP2 SWAP1 DUP3 ADD DUP1 SWAP3 GT PUSH2 0x958 JUMPI JUMP JUMPDEST PUSH4 0x4E487B71 PUSH1 0xE0 SHL PUSH1 0x0 MSTORE PUSH1 0x11 PUSH1 0x4 MSTORE PUSH1 0x24 PUSH1 0x0 REVERT JUMPDEST SWAP2 SWAP1 DUP3 SUB SWAP2 DUP3 GT PUSH2 0x958 JUMPI JUMP JUMPDEST SWAP1 PUSH1 0x1 DUP1 PUSH1 0xA0 SHL SUB SWAP3 DUP4 DUP4 AND SWAP3 PUSH1 0x0 DUP5 DUP2 MSTORE PUSH1 0x4 SWAP6 PUSH1 0x20 SWAP5 DUP8 DUP7 MSTORE PUSH1 0x40 SWAP4 DUP6 DUP6 DUP6 KECCAK256 SLOAD LT PUSH2 0xB58 JUMPI DUP8 DUP5 MSTORE PUSH1 0x9 DUP8 MSTORE PUSH1 0xFF DUP6 DUP6 KECCAK256 SLOAD AND ISZERO DUP1 PUSH2 0xB45 JUMPI JUMPDEST PUSH2 0xA19 JUMPI JUMPDEST POP SWAP2 DUP4 SWAP3 SWAP2 PUSH32 0xDDF252AD1BE2C89B69C2B068FC378DAA952BA7F163C4A11628F55A4DF523B3EF SWAP7 SWAP6 SWAP5 SWAP3 DUP9 DUP4 MSTORE DUP10 DUP8 MSTORE DUP4 DUP4 KECCAK256 PUSH2 0x9FB DUP8 DUP3 SLOAD PUSH2 0x96E JUMP JUMPDEST SWAP1 SSTORE AND SWAP8 DUP9 DUP3 MSTORE DUP6 MSTORE KECCAK256 PUSH2 0xA10 DUP4 DUP3 SLOAD PUSH2 0x94B JUMP JUMPDEST SWAP1 SSTORE MLOAD SWAP1 DUP2 MSTORE LOG3 JUMP JUMPDEST PUSH1 0x6 SLOAD DUP1 ISZERO PUSH2 0xB35 JUMPI PUSH1 0x8 SLOAD SWAP1 PUSH2 0xA36 PUSH2 0xFFFF SWAP2 DUP3 DUP5 AND SWAP1 PUSH2 0x94B JUMP JUMPDEST NUMBER GT ISZERO PUSH2 0xB25 JUMPI PUSH1 0x7 SLOAD NUMBER GT ISZERO PUSH2 0xA4F JUMPI JUMPDEST POP POP PUSH2 0x9BD JUMP JUMPDEST PUSH1 0x3 SLOAD SWAP1 DUP3 PUSH1 0x10 SHR AND SWAP1 DUP2 DUP2 MUL SWAP2 DUP2 DUP4 DIV EQ SWAP1 ISZERO OR ISZERO PUSH2 0xB12 JUMPI PUSH2 0x2710 SWAP1 DIV DUP8 GT PUSH2 0xB02 JUMPI DUP8 SHR PUSH1 0xFF AND PUSH2 0xA85 JUMPI JUMPDEST DUP1 DUP1 PUSH2 0xA48 JUMP JUMPDEST DUP3 SWAP1 DUP2 PUSH1 0xD SLOAD AND DUP1 ISZERO ISZERO SWAP1 DUP2 PUSH2 0xAF8 JUMPI JUMPDEST POP ISZERO PUSH2 0xAF3 JUMPI POP DUP2 JUMPDEST AND DUP1 DUP5 MSTORE PUSH1 0xA DUP8 MSTORE NUMBER DUP6 DUP6 KECCAK256 SLOAD EQ PUSH2 0xAE3 JUMPI DUP4 MSTORE PUSH1 0xA DUP7 MSTORE DUP4 DUP4 KECCAK256 NUMBER SWAP1 SSTORE PUSH32 0xDDF252AD1BE2C89B69C2B068FC378DAA952BA7F163C4A11628F55A4DF523B3EF PUSH2 0xA7E JUMP JUMPDEST DUP5 MLOAD PUSH4 0xAA9A98DF PUSH1 0xE0 SHL DUP2 MSTORE DUP10 SWAP1 REVERT JUMPDEST PUSH2 0xA9F JUMP JUMPDEST SWAP1 POP DUP10 EQ CODESIZE PUSH2 0xA96 JUMP JUMPDEST DUP6 MLOAD PUSH4 0x4D22AEDF PUSH1 0xE1 SHL DUP2 MSTORE DUP11 SWAP1 REVERT JUMPDEST PUSH4 0x4E487B71 PUSH1 0xE0 SHL DUP7 MSTORE PUSH1 0x11 DUP12 MSTORE PUSH1 0x24 DUP7 REVERT JUMPDEST DUP7 MLOAD PUSH4 0x7B85E8B9 PUSH1 0xE0 SHL DUP2 MSTORE DUP12 SWAP1 REVERT JUMPDEST DUP6 MLOAD PUSH4 0x12F1F923 PUSH1 0xE0 SHL DUP2 MSTORE DUP11 SWAP1 REVERT JUMPDEST POP DUP3 DUP3 AND DUP5 MSTORE PUSH1 0xFF DUP6 DUP6 KECCAK256 SLOAD AND ISZERO PUSH2 0x9B8 JUMP JUMPDEST DUP5 MLOAD PUSH3 0x461BCD PUSH1 0xE5 SHL DUP2 MSTORE DUP1 DUP11 ADD DUP9 SWAP1 MSTORE PUSH1 0x7 PUSH1 0x24 DUP3 ADD MSTORE PUSH7 0x42414C414E4345 PUSH1 0xC8 SHL PUSH1 0x44 DUP3 ADD MSTORE PUSH1 0x64 SWAP1 REVERT INVALID LOG2 PUSH5 0x6970667358 0x22 SLT KECCAK256 PUSH6 0x474668E201AC SDIV 0xDE LOG4 PUSH27 0x69FC4B12046CE31756B60115A495A75F2C7AEF846464736F6C6343 STOP ADDMOD EQ STOP CALLER 0xDD CALLCODE MSTORE 0xAD SHL 0xE2 0xC8 SWAP12 PUSH10 0xC2B068FC378DAA952BA7 CALL PUSH4 0xC4A11628 CREATE2 GAS 0x4D CREATE2 0x23 0xB3 0xEF 0xB1 0xE 0x2D MSTORE PUSH23 0x12073B26EECDFD717E6A320CF44B4AFAC2B0732D9FCBE2 0xB7 STATICCALL 0xC 0xF6 "},"methodIdentifiers":{"allowance(address,address)":"dd62ed3e","approve(address,uint256)":"095ea7b3","balanceOf(address)":"70a08231","cooldownOneTxPerBlock()":"9ebaa1c3","decimals()":"313ce567","factory()":"c45a0155","isExempt(address)":"ad5dff73","lastTransferBlock(address)":"8712523e","launchBlock()":"d00efb2f","maxTxBps()":"ff8ea3e5","name()":"06fdde03","owner()":"8da5cb5b","pair()":"a8aa1b31","protectionEndBlock()":"9605ddbb","renounceOwnership()":"715018a6","router()":"f887ea40","setLaunchBlock(uint256,uint16)":"b67d4266","setPair(address)":"8187f516","symbol()":"95d89b41","totalSupply()":"18160ddd","tradingDelayBlocks()":"6760e74c","transfer(address,uint256)":"a9059cbb","transferFrom(address,address,uint256)":"23b872dd"}}}}}