{"contracts/NeonToken.sol":{"NeonToken":{"abi":[{"inputs":[{"internalType":"string","name":"_name","type":"string"},{"internalType":"string","name":"_symbol","type":"string"},{"internalType":"uint256","name":"supply","type":"uint256"},{"internalType":"address","name":"initialOwner","type":"address"},{"internalType":"address","name":"_factory","type":"address"},{"internalType":"address","name":"_router","type":"address"},{"internalType":"uint16","name":"_delayBlocks","type":"uint16"},{"internalType":"uint16","name":"","type":"uint16"},{"internalType":"uint16","name":"_maxTxBps","type":"uint16"},{"internalType":"bool","name":"_cooldown","type":"bool"},{"internalType":"bool","name":"_factoryMayRenounce","type":"bool"}],"stateMutability":"nonpayable","type":"constructor"},{"inputs":[],"name":"CooldownActive","type":"error"},{"inputs":[],"name":"MaxTxActive","type":"error"},{"inputs":[],"name":"TradingDelayActive","type":"error"},{"inputs":[],"name":"TradingNotEnabled","type":"error"},{"anonymous":false,"inputs":[{"indexed":true,"internalType":"address","name":"owner","type":"address"},{"indexed":true,"internalType":"address","name":"spender","type":"address"},{"indexed":false,"internalType":"uint256","name":"value","type":"uint256"}],"name":"Approval","type":"event"},{"anonymous":false,"inputs":[{"indexed":true,"internalType":"address","name":"prev","type":"address"},{"indexed":true,"internalType":"address","name":"next","type":"address"}],"name":"OwnershipTransferred","type":"event"},{"anonymous":false,"inputs":[{"indexed":true,"internalType":"address","name":"from","type":"address"},{"indexed":true,"internalType":"address","name":"to","type":"address"},{"indexed":false,"internalType":"uint256","name":"value","type":"uint256"}],"name":"Transfer","type":"event"},{"inputs":[{"internalType":"address","name":"o","type":"address"},{"internalType":"address","name":"s","type":"address"}],"name":"allowance","outputs":[{"internalType":"uint256","name":"","type":"uint256"}],"stateMutability":"view","type":"function"},{"inputs":[{"internalType":"address","name":"spender","type":"address"},{"internalType":"uint256","name":"value","type":"uint256"}],"name":"approve","outputs":[{"internalType":"bool","name":"","type":"bool"}],"stateMutability":"nonpayable","type":"function"},{"inputs":[{"internalType":"address","name":"who","type":"address"}],"name":"balanceOf","outputs":[{"internalType":"uint256","name":"","type":"uint256"}],"stateMutability":"view","type":"function"},{"inputs":[{"internalType":"uint256","name":"value","type":"uint256"}],"name":"burn","outputs":[],"stateMutability":"nonpayable","type":"function"},{"inputs":[],"name":"cooldownOneTxPerBlock","outputs":[{"internalType":"bool","name":"","type":"bool"}],"stateMutability":"view","type":"function"},{"inputs":[],"name":"decimals","outputs":[{"internalType":"uint8","name":"","type":"uint8"}],"stateMutability":"view","type":"function"},{"inputs":[],"name":"factory","outputs":[{"internalType":"address","name":"","type":"address"}],"stateMutability":"view","type":"function"},{"inputs":[],"name":"factoryMayRenounce","outputs":[{"internalType":"bool","name":"","type":"bool"}],"stateMutability":"view","type":"function"},{"inputs":[],"name":"factoryRenounce","outputs":[],"stateMutability":"nonpayable","type":"function"},{"inputs":[{"internalType":"address","name":"","type":"address"}],"name":"isAMMPair","outputs":[{"internalType":"bool","name":"","type":"bool"}],"stateMutability":"view","type":"function"},{"inputs":[{"internalType":"address","name":"","type":"address"}],"name":"isExempt","outputs":[{"internalType":"bool","name":"","type":"bool"}],"stateMutability":"view","type":"function"},{"inputs":[{"internalType":"address","name":"","type":"address"}],"name":"lastTransferBlock","outputs":[{"internalType":"uint256","name":"","type":"uint256"}],"stateMutability":"view","type":"function"},{"inputs":[],"name":"launchBlock","outputs":[{"internalType":"uint256","name":"","type":"uint256"}],"stateMutability":"view","type":"function"},{"inputs":[],"name":"maxTxBps","outputs":[{"internalType":"uint16","name":"","type":"uint16"}],"stateMutability":"view","type":"function"},{"inputs":[],"name":"name","outputs":[{"internalType":"string","name":"","type":"string"}],"stateMutability":"view","type":"function"},{"inputs":[],"name":"owner","outputs":[{"internalType":"address","name":"","type":"address"}],"stateMutability":"view","type":"function"},{"inputs":[],"name":"pair","outputs":[{"internalType":"address","name":"","type":"address"}],"stateMutability":"view","type":"function"},{"inputs":[],"name":"protectionEndBlock","outputs":[{"internalType":"uint256","name":"","type":"uint256"}],"stateMutability":"view","type":"function"},{"inputs":[],"name":"renounceOwnership","outputs":[],"stateMutability":"nonpayable","type":"function"},{"inputs":[],"name":"router","outputs":[{"internalType":"address","name":"","type":"address"}],"stateMutability":"view","type":"function"},{"inputs":[{"internalType":"uint256","name":"_launchBlock","type":"uint256"},{"internalType":"uint16","name":"protectionBlocks","type":"uint16"}],"name":"setLaunchBlock","outputs":[],"stateMutability":"nonpayable","type":"function"},{"inputs":[{"internalType":"address","name":"_pair","type":"address"}],"name":"setPair","outputs":[],"stateMutability":"nonpayable","type":"function"},{"inputs":[],"name":"symbol","outputs":[{"internalType":"string","name":"","type":"string"}],"stateMutability":"view","type":"function"},{"inputs":[],"name":"totalSupply","outputs":[{"internalType":"uint256","name":"","type":"uint256"}],"stateMutability":"view","type":"function"},{"inputs":[],"name":"tradingDelayBlocks","outputs":[{"internalType":"uint16","name":"","type":"uint16"}],"stateMutability":"view","type":"function"},{"inputs":[{"internalType":"address","name":"to","type":"address"},{"internalType":"uint256","name":"value","type":"uint256"}],"name":"transfer","outputs":[{"internalType":"bool","name":"","type":"bool"}],"stateMutability":"nonpayable","type":"function"},{"inputs":[{"internalType":"address","name":"from","type":"address"},{"internalType":"address","name":"to","type":"address"},{"internalType":"uint256","name":"value","type":"uint256"}],"name":"transferFrom","outputs":[{"internalType":"bool","name":"","type":"bool"}],"stateMutability":"nonpayable","type":"function"}],"evm":{"bytecode":{"linkReferences":{},"object":"608060405234620005495762001400803803806200001d816200054e565b92833981019061016081830312620005495780516001600160401b0381116200054957826200004e91830162000574565b602082015190926001600160401b03821162000549576200007191830162000574565b916040820151916200008660608201620005e6565b6200009460808301620005e6565b93620000a360a08401620005e6565b620000b160c08501620005fb565b95620000c060e08601620005fb565b50620000d06101008601620005fb565b95620000ef610140620000e761012089016200060b565b97016200060b565b600080546001600160a01b0319166001600160a01b0390971696871781559095907f8be0079c531659141344cd1fd0a4f28419497f9722a3daafe3b4186f6b6457e08180a38051906001600160401b0382116200043d5760015490600182811c921680156200053e575b60208310146200041c5781601f849311620004dd575b50602090601f83116001146200045f5760009262000453575b50508160011b916000199060031b1c1916176001555b87516001600160401b0381116200043d57600254600181811c9116801562000432575b60208210146200041c57601f8111620003b2575b506020601f82116001146200032557926020928260009693600080516020620013c08339815191529663ffff00009b9c9d899262000319575b50508160011b9188199060031b1c1916176002555b600d80546001600160a01b0319166001600160a01b03928316908117909155600e80546001600160a81b031916939092169290921796151560a01b60ff60a01b16969096179095556003546200027b90829062000619565b60035584845260048252604084206200029682825462000619565b9055604051908152a361ffff64ff0000000060085492151560201b1694169064ffffffffff1916179160101b16171760085560018060a01b03600d54166000526009602052604060002060ff199060018282541617905560018060a01b03600e54166000526001604060002091825416179055604051610d8290816200063e8239f35b0151905038806200020e565b600260005260206000209960005b601f19841681106200039957509260018363ffff00009a9b9c600080516020620013c0833981519152979460209760009a97601f1981161062000380575b505050811b0160025562000223565b0151891960f88460031b161c1916905538808062000371565b828201518c556001909b019a6020928301920162000333565b60026000527f405787fa12a823e0f2b7631cc41b3ba8828b3321ca811111fa75cd3aa3bb5ace601f830160051c8101916020841062000411575b601f0160051c01905b818110620004045750620001d5565b60008155600101620003f5565b9091508190620003ec565b634e487b7160e01b600052602260045260246000fd5b90607f1690620001c1565b634e487b7160e01b600052604160045260246000fd5b01519050388062000188565b600160009081529350600080516020620013e083398151915291905b601f1984168510620004c1576001945083601f19811610620004a7575b505050811b016001556200019e565b015160001960f88460031b161c1916905538808062000498565b818101518355602094850194600190930192909101906200047b565b6001600052909150600080516020620013e0833981519152601f840160051c81016020851062000536575b90849392915b601f830160051c82018110620005265750506200016f565b600081558594506001016200050e565b508062000508565b91607f169162000159565b600080fd5b6040519190601f01601f191682016001600160401b038111838210176200043d57604052565b919080601f84011215620005495782516001600160401b0381116200043d57602090620005aa601f8201601f191683016200054e565b92818452828287010111620005495760005b818110620005d257508260009394955001015290565b8581018301518482018401528201620005bc565b51906001600160a01b03821682036200054957565b519061ffff821682036200054957565b519081151582036200054957565b919082018092116200062757565b634e487b7160e01b600052601160045260246000fdfe608060408181526004918236101561001657600080fd5b600092833560e01c91826306fdde031461090b57508163095ea7b31461089a57816318160ddd1461087b5781631f94957a1461085457816323b872dd146107ae578163313ce567146107925783826342966c6814610710575081636760e74c146106ed57816370a08231146106b7578163715018a61461065b5781638187f516146105b35781638712523e1461057b5781638da5cb5b1461055357816395d89b41146104325781639605ddbb146104135781639ebaa1c3146103ee578163a8aa1b31146103c5578163a9059cbb14610394578163ad5dff7314610356578163b0249cc614610318578163b67d4266146102ab578163c45a015514610282578163ce5e589d1461020657508063d00efb2f146101e8578063dd62ed3e146101a0578063f887ea40146101785763ff8ea3e51461015057600080fd5b3461017457816003193601126101745760209061ffff60085460101c169051908152f35b5080fd5b5034610174578160031936011261017457600e5490516001600160a01b039091168152602090f35b5034610174578060031936011261017457806020926101bd610a2b565b6101c5610a46565b6001600160a01b0391821683526005865283832091168252845220549051908152f35b50346101745781600319360112610174576020906006549051908152f35b9190503461027e578260031936011261027e57600d546001600160a01b031633148061026f575b1561023e578261023b610a5c565b80f35b906020606492519162461bcd60e51b8352820152600b60248201526a1393d517d0531313d5d15160aa1b6044820152fd5b5060ff600e5460a01c1661022d565b8280fd5b505034610174578160031936011261017457600d5490516001600160a01b039091168152602090f35b9190503461027e57366003190112610174573560243561ffff808216809203610314576102e360018060a01b03600d54163314610a9c565b600654156102ef578380f35b826103059161030a946006556008541690610ad6565b610ad6565b6007553880808380f35b8380fd5b5050346101745760203660031901126101745760209160ff9082906001600160a01b03610343610a2b565b168152600c855220541690519015158152f35b5050346101745760203660031901126101745760209160ff9082906001600160a01b03610381610a2b565b1681526009855220541690519015158152f35b5050346101745780600319360112610174576020906103be6103b4610a2b565b6024359033610b3c565b5160018152f35b505034610174578160031936011261017457600b5490516001600160a01b039091168152602090f35b5050346101745781600319360112610174576008549051602091821c60ff1615158152f35b5050346101745781600319360112610174576020906007549051908152f35b83833461017457816003193601126101745780519082600254600181811c90808316928315610549575b60209384841081146105365783885290811561051a57506001146104c4575b505050829003601f01601f191682019267ffffffffffffffff8411838510176104b157508291826104ad9252826109e2565b0390f35b634e487b7160e01b815260418552602490fd5b600287529192508591837f405787fa12a823e0f2b7631cc41b3ba8828b3321ca811111fa75cd3aa3bb5ace5b838510610506575050505083010185808061047b565b8054888601830152930192849082016104f0565b60ff1916878501525050151560051b840101905085808061047b565b634e487b7160e01b895260228a52602489fd5b91607f169161045c565b505034610174578160031936011261017457905490516001600160a01b039091168152602090f35b5050346101745760203660031901126101745760209181906001600160a01b036105a3610a2b565b168152600a845220549051908152f35b90503461027e57602036600319011261027e576105ce610a2b565b600d546001600160a01b039182916105e99083163314610a9c565b1691821561062d5750600b548291811615610618575b50508252600c6020528120805460ff1916600117905580f35b6001600160a01b03191617600b5580386105ff565b606490602085519162461bcd60e51b835282015260086024820152672120a22fa820a4a960c11b6044820152fd5b9190503461027e578260031936011261027e5782546001600160a01b03163303610688578261023b610a5c565b906020606492519162461bcd60e51b835282015260096024820152682727aa2fa7aba722a960b91b6044820152fd5b90503461027e57602036600319011261027e5760209282916001600160a01b036106df610a2b565b168252845220549051908152f35b50503461017457816003193601126101745760209061ffff600854169051908152f35b8091843461078e57602036600319011261078e5781359133845280602052610747838386205461074282821015610b06565b610af9565b903385526020528184205561075e82600354610af9565b600355519081527fddf252ad1be2c89b69c2b068fc378daa952ba7f163c4a11628f55a4df523b3ef60203392a380f35b5050fd5b5050346101745781600319360112610174576020905160128152f35b9190503461027e57606036600319011261027e576107ca610a2b565b6107d2610a46565b6044359160018060a01b038116808752602095600587528588203389528752858820549085821061082557509480969761080f866103be98610af9565b9281526005895281812033825289522055610b3c565b865162461bcd60e51b81529081018890526009602482015268414c4c4f57414e434560b81b6044820152606490fd5b50503461017457816003193601126101745760209060ff600e5460a01c1690519015158152f35b5050346101745781600319360112610174576020906003549051908152f35b505034610174578060031936011261017457602091816108b8610a2b565b91602435918291338152600587528181209460018060a01b0316948582528752205582519081527f8c5be1e5ebec7d5bd14f71427d1e84f3dd0314c0f7b2291e5b200ac8c7c3b925843392a35160018152f35b8490843461027e578260031936011261027e5782600180549081811c908083169283156109d8575b60209384841081146105365783885290811561051a575060011461098357505050829003601f01601f191682019267ffffffffffffffff8411838510176104b157508291826104ad9252826109e2565b8087529192508591837fb10e2d527612073b26eecdfd717e6a320cf44b4afac2b0732d9fcbe2b7fa0cf65b8385106109c4575050505083010185808061047b565b8054888601830152930192849082016109ae565b91607f1691610933565b6020808252825181830181905290939260005b828110610a1757505060409293506000838284010152601f8019910116010190565b8181018601518482016040015285016109f5565b600435906001600160a01b0382168203610a4157565b600080fd5b602435906001600160a01b0382168203610a4157565b600080546001600160a01b0319811682556001600160a01b03167f8be0079c531659141344cd1fd0a4f28419497f9722a3daafe3b4186f6b6457e08280a3565b15610aa357565b60405162461bcd60e51b815260206004820152600b60248201526a4e4f545f464143544f525960a81b6044820152606490fd5b91908201809211610ae357565b634e487b7160e01b600052601160045260246000fd5b91908203918211610ae357565b15610b0d57565b60405162461bcd60e51b815260206004820152600760248201526642414c414e434560c81b6044820152606490fd5b6001600160a01b03939284831692908315610d1b57858316926000848152600497602094898652604093610b7586868620541015610b06565b8784526009875260ff85852054161580610d0a575b610be9575b50505080859697987fddf252ad1be2c89b69c2b068fc378daa952ba7f163c4a11628f55a4df523b3ef96849352808652828220610bcd868254610af9565b9055888252855220610be0838254610ad6565b905551908152a3565b6006548015610cfa5760085490610c0661ffff9182841690610ad6565b431115610cea57600754431115610c1f575b5050610b8f565b600354908260101c1690818102918183041490151715610cd75761271090048711610cc757871c60ff16610c55575b8080610c18565b878452600c87528484205460ff1615610cc057505b16808252600a8552438383205414610cb0578152600a8452818120439055807fddf252ad1be2c89b69c2b068fc378daa952ba7f163c4a11628f55a4df523b3ef83610c4e565b825163aa9a98df60e01b81528990fd5b9050610c6a565b8551634d22aedf60e11b81528c90fd5b634e487b7160e01b865260118d52602486fd5b8651637b85e8b960e01b81528d90fd5b85516312f1f92360e01b81528c90fd5b5088845260ff858520541615610b8a565b60405162461bcd60e51b81526020600482015260096024820152682d22a927afa0a2222960b91b6044820152606490fdfea26469706673582212202e5e4204b494241177e46c5a1bd91335d292d71619c939f6016b84a732d3f54564736f6c63430008140033ddf252ad1be2c89b69c2b068fc378daa952ba7f163c4a11628f55a4df523b3efb10e2d527612073b26eecdfd717e6a320cf44b4afac2b0732d9fcbe2b7fa0cf6","opcodes":"PUSH1 0x80 PUSH1 0x40 MSTORE CALLVALUE PUSH3 0x549 JUMPI PUSH3 0x1400 DUP1 CODESIZE SUB DUP1 PUSH3 0x1D DUP2 PUSH3 0x54E JUMP JUMPDEST SWAP3 DUP4 CODECOPY DUP2 ADD SWAP1 PUSH2 0x160 DUP2 DUP4 SUB SLT PUSH3 0x549 JUMPI DUP1 MLOAD PUSH1 0x1 PUSH1 0x1 PUSH1 0x40 SHL SUB DUP2 GT PUSH3 0x549 JUMPI DUP3 PUSH3 0x4E SWAP2 DUP4 ADD PUSH3 0x574 JUMP JUMPDEST PUSH1 0x20 DUP3 ADD MLOAD SWAP1 SWAP3 PUSH1 0x1 PUSH1 0x1 PUSH1 0x40 SHL SUB DUP3 GT PUSH3 0x549 JUMPI PUSH3 0x71 SWAP2 DUP4 ADD PUSH3 0x574 JUMP JUMPDEST SWAP2 PUSH1 0x40 DUP3 ADD MLOAD SWAP2 PUSH3 0x86 PUSH1 0x60 DUP3 ADD PUSH3 0x5E6 JUMP JUMPDEST PUSH3 0x94 PUSH1 0x80 DUP4 ADD PUSH3 0x5E6 JUMP JUMPDEST SWAP4 PUSH3 0xA3 PUSH1 0xA0 DUP5 ADD PUSH3 0x5E6 JUMP JUMPDEST PUSH3 0xB1 PUSH1 0xC0 DUP6 ADD PUSH3 0x5FB JUMP JUMPDEST SWAP6 PUSH3 0xC0 PUSH1 0xE0 DUP7 ADD PUSH3 0x5FB JUMP JUMPDEST POP PUSH3 0xD0 PUSH2 0x100 DUP7 ADD PUSH3 0x5FB JUMP JUMPDEST SWAP6 PUSH3 0xEF PUSH2 0x140 PUSH3 0xE7 PUSH2 0x120 DUP10 ADD PUSH3 0x60B JUMP JUMPDEST SWAP8 ADD PUSH3 0x60B JUMP JUMPDEST PUSH1 0x0 DUP1 SLOAD PUSH1 0x1 PUSH1 0x1 PUSH1 0xA0 SHL SUB NOT AND PUSH1 0x1 PUSH1 0x1 PUSH1 0xA0 SHL SUB SWAP1 SWAP8 AND SWAP7 DUP8 OR DUP2 SSTORE SWAP1 SWAP6 SWAP1 PUSH32 0x8BE0079C531659141344CD1FD0A4F28419497F9722A3DAAFE3B4186F6B6457E0 DUP2 DUP1 LOG3 DUP1 MLOAD SWAP1 PUSH1 0x1 PUSH1 0x1 PUSH1 0x40 SHL SUB DUP3 GT PUSH3 0x43D JUMPI PUSH1 0x1 SLOAD SWAP1 PUSH1 0x1 DUP3 DUP2 SHR SWAP3 AND DUP1 ISZERO PUSH3 0x53E JUMPI JUMPDEST PUSH1 0x20 DUP4 LT EQ PUSH3 0x41C JUMPI DUP2 PUSH1 0x1F DUP5 SWAP4 GT PUSH3 0x4DD JUMPI JUMPDEST POP PUSH1 0x20 SWAP1 PUSH1 0x1F DUP4 GT PUSH1 0x1 EQ PUSH3 0x45F JUMPI PUSH1 0x0 SWAP3 PUSH3 0x453 JUMPI JUMPDEST POP POP DUP2 PUSH1 0x1 SHL SWAP2 PUSH1 0x0 NOT SWAP1 PUSH1 0x3 SHL SHR NOT AND OR PUSH1 0x1 SSTORE JUMPDEST DUP8 MLOAD PUSH1 0x1 PUSH1 0x1 PUSH1 0x40 SHL SUB DUP2 GT PUSH3 0x43D JUMPI PUSH1 0x2 SLOAD PUSH1 0x1 DUP2 DUP2 SHR SWAP2 AND DUP1 ISZERO PUSH3 0x432 JUMPI JUMPDEST PUSH1 0x20 DUP3 LT EQ PUSH3 0x41C JUMPI PUSH1 0x1F DUP2 GT PUSH3 0x3B2 JUMPI JUMPDEST POP PUSH1 0x20 PUSH1 0x1F DUP3 GT PUSH1 0x1 EQ PUSH3 0x325 JUMPI SWAP3 PUSH1 0x20 SWAP3 DUP3 PUSH1 0x0 SWAP7 SWAP4 PUSH1 0x0 DUP1 MLOAD PUSH1 0x20 PUSH3 0x13C0 DUP4 CODECOPY DUP2 MLOAD SWAP2 MSTORE SWAP7 PUSH4 0xFFFF0000 SWAP12 SWAP13 SWAP14 DUP10 SWAP3 PUSH3 0x319 JUMPI JUMPDEST POP POP DUP2 PUSH1 0x1 SHL SWAP2 DUP9 NOT SWAP1 PUSH1 0x3 SHL SHR NOT AND OR PUSH1 0x2 SSTORE JUMPDEST PUSH1 0xD DUP1 SLOAD PUSH1 0x1 PUSH1 0x1 PUSH1 0xA0 SHL SUB NOT AND PUSH1 0x1 PUSH1 0x1 PUSH1 0xA0 SHL SUB SWAP3 DUP4 AND SWAP1 DUP2 OR SWAP1 SWAP2 SSTORE PUSH1 0xE DUP1 SLOAD PUSH1 0x1 PUSH1 0x1 PUSH1 0xA8 SHL SUB NOT AND SWAP4 SWAP1 SWAP3 AND SWAP3 SWAP1 SWAP3 OR SWAP7 ISZERO ISZERO PUSH1 0xA0 SHL PUSH1 0xFF PUSH1 0xA0 SHL AND SWAP7 SWAP1 SWAP7 OR SWAP1 SWAP6 SSTORE PUSH1 0x3 SLOAD PUSH3 0x27B SWAP1 DUP3 SWAP1 PUSH3 0x619 JUMP JUMPDEST PUSH1 0x3 SSTORE DUP5 DUP5 MSTORE PUSH1 0x4 DUP3 MSTORE PUSH1 0x40 DUP5 KECCAK256 PUSH3 0x296 DUP3 DUP3 SLOAD PUSH3 0x619 JUMP JUMPDEST SWAP1 SSTORE PUSH1 0x40 MLOAD SWAP1 DUP2 MSTORE LOG3 PUSH2 0xFFFF PUSH5 0xFF00000000 PUSH1 0x8 SLOAD SWAP3 ISZERO ISZERO PUSH1 0x20 SHL AND SWAP5 AND SWAP1 PUSH5 0xFFFFFFFFFF NOT AND OR SWAP2 PUSH1 0x10 SHL AND OR OR PUSH1 0x8 SSTORE PUSH1 0x1 DUP1 PUSH1 0xA0 SHL SUB PUSH1 0xD SLOAD AND PUSH1 0x0 MSTORE PUSH1 0x9 PUSH1 0x20 MSTORE PUSH1 0x40 PUSH1 0x0 KECCAK256 PUSH1 0xFF NOT SWAP1 PUSH1 0x1 DUP3 DUP3 SLOAD AND OR SWAP1 SSTORE PUSH1 0x1 DUP1 PUSH1 0xA0 SHL SUB PUSH1 0xE SLOAD AND PUSH1 0x0 MSTORE PUSH1 0x1 PUSH1 0x40 PUSH1 0x0 KECCAK256 SWAP2 DUP3 SLOAD AND OR SWAP1 SSTORE PUSH1 0x40 MLOAD PUSH2 0xD82 SWAP1 DUP2 PUSH3 0x63E DUP3 CODECOPY RETURN JUMPDEST ADD MLOAD SWAP1 POP CODESIZE DUP1 PUSH3 0x20E JUMP JUMPDEST PUSH1 0x2 PUSH1 0x0 MSTORE PUSH1 0x20 PUSH1 0x0 KECCAK256 SWAP10 PUSH1 0x0 JUMPDEST PUSH1 0x1F NOT DUP5 AND DUP2 LT PUSH3 0x399 JUMPI POP SWAP3 PUSH1 0x1 DUP4 PUSH4 0xFFFF0000 SWAP11 SWAP12 SWAP13 PUSH1 0x0 DUP1 MLOAD PUSH1 0x20 PUSH3 0x13C0 DUP4 CODECOPY DUP2 MLOAD SWAP2 MSTORE SWAP8 SWAP5 PUSH1 0x20 SWAP8 PUSH1 0x0 SWAP11 SWAP8 PUSH1 0x1F NOT DUP2 AND LT PUSH3 0x380 JUMPI JUMPDEST POP POP POP DUP2 SHL ADD PUSH1 0x2 SSTORE PUSH3 0x223 JUMP JUMPDEST ADD MLOAD DUP10 NOT PUSH1 0xF8 DUP5 PUSH1 0x3 SHL AND SHR NOT AND SWAP1 SSTORE CODESIZE DUP1 DUP1 PUSH3 0x371 JUMP JUMPDEST DUP3 DUP3 ADD MLOAD DUP13 SSTORE PUSH1 0x1 SWAP1 SWAP12 ADD SWAP11 PUSH1 0x20 SWAP3 DUP4 ADD SWAP3 ADD PUSH3 0x333 JUMP JUMPDEST PUSH1 0x2 PUSH1 0x0 MSTORE PUSH32 0x405787FA12A823E0F2B7631CC41B3BA8828B3321CA811111FA75CD3AA3BB5ACE PUSH1 0x1F DUP4 ADD PUSH1 0x5 SHR DUP2 ADD SWAP2 PUSH1 0x20 DUP5 LT PUSH3 0x411 JUMPI JUMPDEST PUSH1 0x1F ADD PUSH1 0x5 SHR ADD SWAP1 JUMPDEST DUP2 DUP2 LT PUSH3 0x404 JUMPI POP PUSH3 0x1D5 JUMP JUMPDEST PUSH1 0x0 DUP2 SSTORE PUSH1 0x1 ADD PUSH3 0x3F5 JUMP JUMPDEST SWAP1 SWAP2 POP DUP2 SWAP1 PUSH3 0x3EC JUMP JUMPDEST PUSH4 0x4E487B71 PUSH1 0xE0 SHL PUSH1 0x0 MSTORE PUSH1 0x22 PUSH1 0x4 MSTORE PUSH1 0x24 PUSH1 0x0 REVERT JUMPDEST SWAP1 PUSH1 0x7F AND SWAP1 PUSH3 0x1C1 JUMP JUMPDEST PUSH4 0x4E487B71 PUSH1 0xE0 SHL PUSH1 0x0 MSTORE PUSH1 0x41 PUSH1 0x4 MSTORE PUSH1 0x24 PUSH1 0x0 REVERT JUMPDEST ADD MLOAD SWAP1 POP CODESIZE DUP1 PUSH3 0x188 JUMP JUMPDEST PUSH1 0x1 PUSH1 0x0 SWAP1 DUP2 MSTORE SWAP4 POP PUSH1 0x0 DUP1 MLOAD PUSH1 0x20 PUSH3 0x13E0 DUP4 CODECOPY DUP2 MLOAD SWAP2 MSTORE SWAP2 SWAP1 JUMPDEST PUSH1 0x1F NOT DUP5 AND DUP6 LT PUSH3 0x4C1 JUMPI PUSH1 0x1 SWAP5 POP DUP4 PUSH1 0x1F NOT DUP2 AND LT PUSH3 0x4A7 JUMPI JUMPDEST POP POP POP DUP2 SHL ADD PUSH1 0x1 SSTORE PUSH3 0x19E JUMP JUMPDEST ADD MLOAD PUSH1 0x0 NOT PUSH1 0xF8 DUP5 PUSH1 0x3 SHL AND SHR NOT AND SWAP1 SSTORE CODESIZE DUP1 DUP1 PUSH3 0x498 JUMP JUMPDEST DUP2 DUP2 ADD MLOAD DUP4 SSTORE PUSH1 0x20 SWAP5 DUP6 ADD SWAP5 PUSH1 0x1 SWAP1 SWAP4 ADD SWAP3 SWAP1 SWAP2 ADD SWAP1 PUSH3 0x47B JUMP JUMPDEST PUSH1 0x1 PUSH1 0x0 MSTORE SWAP1 SWAP2 POP PUSH1 0x0 DUP1 MLOAD PUSH1 0x20 PUSH3 0x13E0 DUP4 CODECOPY DUP2 MLOAD SWAP2 MSTORE PUSH1 0x1F DUP5 ADD PUSH1 0x5 SHR DUP2 ADD PUSH1 0x20 DUP6 LT PUSH3 0x536 JUMPI JUMPDEST SWAP1 DUP5 SWAP4 SWAP3 SWAP2 JUMPDEST PUSH1 0x1F DUP4 ADD PUSH1 0x5 SHR DUP3 ADD DUP2 LT PUSH3 0x526 JUMPI POP POP PUSH3 0x16F JUMP JUMPDEST PUSH1 0x0 DUP2 SSTORE DUP6 SWAP5 POP PUSH1 0x1 ADD PUSH3 0x50E JUMP JUMPDEST POP DUP1 PUSH3 0x508 JUMP JUMPDEST SWAP2 PUSH1 0x7F AND SWAP2 PUSH3 0x159 JUMP JUMPDEST PUSH1 0x0 DUP1 REVERT JUMPDEST PUSH1 0x40 MLOAD SWAP2 SWAP1 PUSH1 0x1F ADD PUSH1 0x1F NOT AND DUP3 ADD PUSH1 0x1 PUSH1 0x1 PUSH1 0x40 SHL SUB DUP2 GT DUP4 DUP3 LT OR PUSH3 0x43D JUMPI PUSH1 0x40 MSTORE JUMP JUMPDEST SWAP2 SWAP1 DUP1 PUSH1 0x1F DUP5 ADD SLT ISZERO PUSH3 0x549 JUMPI DUP3 MLOAD PUSH1 0x1 PUSH1 0x1 PUSH1 0x40 SHL SUB DUP2 GT PUSH3 0x43D JUMPI PUSH1 0x20 SWAP1 PUSH3 0x5AA PUSH1 0x1F DUP3 ADD PUSH1 0x1F NOT AND DUP4 ADD PUSH3 0x54E JUMP JUMPDEST SWAP3 DUP2 DUP5 MSTORE DUP3 DUP3 DUP8 ADD ADD GT PUSH3 0x549 JUMPI PUSH1 0x0 JUMPDEST DUP2 DUP2 LT PUSH3 0x5D2 JUMPI POP DUP3 PUSH1 0x0 SWAP4 SWAP5 SWAP6 POP ADD ADD MSTORE SWAP1 JUMP JUMPDEST DUP6 DUP2 ADD DUP4 ADD MLOAD DUP5 DUP3 ADD DUP5 ADD MSTORE DUP3 ADD PUSH3 0x5BC JUMP JUMPDEST MLOAD SWAP1 PUSH1 0x1 PUSH1 0x1 PUSH1 0xA0 SHL SUB DUP3 AND DUP3 SUB PUSH3 0x549 JUMPI JUMP JUMPDEST MLOAD SWAP1 PUSH2 0xFFFF DUP3 AND DUP3 SUB PUSH3 0x549 JUMPI JUMP JUMPDEST MLOAD SWAP1 DUP2 ISZERO ISZERO DUP3 SUB PUSH3 0x549 JUMPI JUMP JUMPDEST SWAP2 SWAP1 DUP3 ADD DUP1 SWAP3 GT PUSH3 0x627 JUMPI JUMP JUMPDEST PUSH4 0x4E487B71 PUSH1 0xE0 SHL PUSH1 0x0 MSTORE PUSH1 0x11 PUSH1 0x4 MSTORE PUSH1 0x24 PUSH1 0x0 REVERT INVALID PUSH1 0x80 PUSH1 0x40 DUP2 DUP2 MSTORE PUSH1 0x4 SWAP2 DUP3 CALLDATASIZE LT ISZERO PUSH2 0x16 JUMPI PUSH1 0x0 DUP1 REVERT JUMPDEST PUSH1 0x0 SWAP3 DUP4 CALLDATALOAD PUSH1 0xE0 SHR SWAP2 DUP3 PUSH4 0x6FDDE03 EQ PUSH2 0x90B JUMPI POP DUP2 PUSH4 0x95EA7B3 EQ PUSH2 0x89A JUMPI DUP2 PUSH4 0x18160DDD EQ PUSH2 0x87B JUMPI DUP2 PUSH4 0x1F94957A EQ PUSH2 0x854 JUMPI DUP2 PUSH4 0x23B872DD EQ PUSH2 0x7AE JUMPI DUP2 PUSH4 0x313CE567 EQ PUSH2 0x792 JUMPI DUP4 DUP3 PUSH4 0x42966C68 EQ PUSH2 0x710 JUMPI POP DUP2 PUSH4 0x6760E74C EQ PUSH2 0x6ED JUMPI DUP2 PUSH4 0x70A08231 EQ PUSH2 0x6B7 JUMPI DUP2 PUSH4 0x715018A6 EQ PUSH2 0x65B JUMPI DUP2 PUSH4 0x8187F516 EQ PUSH2 0x5B3 JUMPI DUP2 PUSH4 0x8712523E EQ PUSH2 0x57B JUMPI DUP2 PUSH4 0x8DA5CB5B EQ PUSH2 0x553 JUMPI DUP2 PUSH4 0x95D89B41 EQ PUSH2 0x432 JUMPI DUP2 PUSH4 0x9605DDBB EQ PUSH2 0x413 JUMPI DUP2 PUSH4 0x9EBAA1C3 EQ PUSH2 0x3EE JUMPI DUP2 PUSH4 0xA8AA1B31 EQ PUSH2 0x3C5 JUMPI DUP2 PUSH4 0xA9059CBB EQ PUSH2 0x394 JUMPI DUP2 PUSH4 0xAD5DFF73 EQ PUSH2 0x356 JUMPI DUP2 PUSH4 0xB0249CC6 EQ PUSH2 0x318 JUMPI DUP2 PUSH4 0xB67D4266 EQ PUSH2 0x2AB JUMPI DUP2 PUSH4 0xC45A0155 EQ PUSH2 0x282 JUMPI DUP2 PUSH4 0xCE5E589D EQ PUSH2 0x206 JUMPI POP DUP1 PUSH4 0xD00EFB2F EQ PUSH2 0x1E8 JUMPI DUP1 PUSH4 0xDD62ED3E EQ PUSH2 0x1A0 JUMPI DUP1 PUSH4 0xF887EA40 EQ PUSH2 0x178 JUMPI PUSH4 0xFF8EA3E5 EQ PUSH2 0x150 JUMPI PUSH1 0x0 DUP1 REVERT JUMPDEST CALLVALUE PUSH2 0x174 JUMPI DUP2 PUSH1 0x3 NOT CALLDATASIZE ADD SLT PUSH2 0x174 JUMPI PUSH1 0x20 SWAP1 PUSH2 0xFFFF PUSH1 0x8 SLOAD PUSH1 0x10 SHR AND SWAP1 MLOAD SWAP1 DUP2 MSTORE RETURN JUMPDEST POP DUP1 REVERT JUMPDEST POP CALLVALUE PUSH2 0x174 JUMPI DUP2 PUSH1 0x3 NOT CALLDATASIZE ADD SLT PUSH2 0x174 JUMPI PUSH1 0xE SLOAD SWAP1 MLOAD PUSH1 0x1 PUSH1 0x1 PUSH1 0xA0 SHL SUB SWAP1 SWAP2 AND DUP2 MSTORE PUSH1 0x20 SWAP1 RETURN JUMPDEST POP CALLVALUE PUSH2 0x174 JUMPI DUP1 PUSH1 0x3 NOT CALLDATASIZE ADD SLT PUSH2 0x174 JUMPI DUP1 PUSH1 0x20 SWAP3 PUSH2 0x1BD PUSH2 0xA2B JUMP JUMPDEST PUSH2 0x1C5 PUSH2 0xA46 JUMP JUMPDEST PUSH1 0x1 PUSH1 0x1 PUSH1 0xA0 SHL SUB SWAP2 DUP3 AND DUP4 MSTORE PUSH1 0x5 DUP7 MSTORE DUP4 DUP4 KECCAK256 SWAP2 AND DUP3 MSTORE DUP5 MSTORE KECCAK256 SLOAD SWAP1 MLOAD SWAP1 DUP2 MSTORE RETURN JUMPDEST POP CALLVALUE PUSH2 0x174 JUMPI DUP2 PUSH1 0x3 NOT CALLDATASIZE ADD SLT PUSH2 0x174 JUMPI PUSH1 0x20 SWAP1 PUSH1 0x6 SLOAD SWAP1 MLOAD SWAP1 DUP2 MSTORE RETURN JUMPDEST SWAP2 SWAP1 POP CALLVALUE PUSH2 0x27E JUMPI DUP3 PUSH1 0x3 NOT CALLDATASIZE ADD SLT PUSH2 0x27E JUMPI PUSH1 0xD SLOAD PUSH1 0x1 PUSH1 0x1 PUSH1 0xA0 SHL SUB AND CALLER EQ DUP1 PUSH2 0x26F JUMPI JUMPDEST ISZERO PUSH2 0x23E JUMPI DUP3 PUSH2 0x23B PUSH2 0xA5C JUMP JUMPDEST DUP1 RETURN JUMPDEST SWAP1 PUSH1 0x20 PUSH1 0x64 SWAP3 MLOAD SWAP2 PUSH3 0x461BCD PUSH1 0xE5 SHL DUP4 MSTORE DUP3 ADD MSTORE PUSH1 0xB PUSH1 0x24 DUP3 ADD MSTORE PUSH11 0x1393D517D0531313D5D151 PUSH1 0xAA SHL PUSH1 0x44 DUP3 ADD MSTORE REVERT JUMPDEST POP PUSH1 0xFF PUSH1 0xE SLOAD PUSH1 0xA0 SHR AND PUSH2 0x22D JUMP JUMPDEST DUP3 DUP1 REVERT JUMPDEST POP POP CALLVALUE PUSH2 0x174 JUMPI DUP2 PUSH1 0x3 NOT CALLDATASIZE ADD SLT PUSH2 0x174 JUMPI PUSH1 0xD SLOAD SWAP1 MLOAD PUSH1 0x1 PUSH1 0x1 PUSH1 0xA0 SHL SUB SWAP1 SWAP2 AND DUP2 MSTORE PUSH1 0x20 SWAP1 RETURN JUMPDEST SWAP2 SWAP1 POP CALLVALUE PUSH2 0x27E JUMPI CALLDATASIZE PUSH1 0x3 NOT ADD SLT PUSH2 0x174 JUMPI CALLDATALOAD PUSH1 0x24 CALLDATALOAD PUSH2 0xFFFF DUP1 DUP3 AND DUP1 SWAP3 SUB PUSH2 0x314 JUMPI PUSH2 0x2E3 PUSH1 0x1 DUP1 PUSH1 0xA0 SHL SUB PUSH1 0xD SLOAD AND CALLER EQ PUSH2 0xA9C JUMP JUMPDEST PUSH1 0x6 SLOAD ISZERO PUSH2 0x2EF JUMPI DUP4 DUP1 RETURN JUMPDEST DUP3 PUSH2 0x305 SWAP2 PUSH2 0x30A SWAP5 PUSH1 0x6 SSTORE PUSH1 0x8 SLOAD AND SWAP1 PUSH2 0xAD6 JUMP JUMPDEST PUSH2 0xAD6 JUMP JUMPDEST PUSH1 0x7 SSTORE CODESIZE DUP1 DUP1 DUP4 DUP1 RETURN JUMPDEST DUP4 DUP1 REVERT JUMPDEST POP POP CALLVALUE PUSH2 0x174 JUMPI PUSH1 0x20 CALLDATASIZE PUSH1 0x3 NOT ADD SLT PUSH2 0x174 JUMPI PUSH1 0x20 SWAP2 PUSH1 0xFF SWAP1 DUP3 SWAP1 PUSH1 0x1 PUSH1 0x1 PUSH1 0xA0 SHL SUB PUSH2 0x343 PUSH2 0xA2B JUMP JUMPDEST AND DUP2 MSTORE PUSH1 0xC DUP6 MSTORE KECCAK256 SLOAD AND SWAP1 MLOAD SWAP1 ISZERO ISZERO DUP2 MSTORE RETURN JUMPDEST POP POP CALLVALUE PUSH2 0x174 JUMPI PUSH1 0x20 CALLDATASIZE PUSH1 0x3 NOT ADD SLT PUSH2 0x174 JUMPI PUSH1 0x20 SWAP2 PUSH1 0xFF SWAP1 DUP3 SWAP1 PUSH1 0x1 PUSH1 0x1 PUSH1 0xA0 SHL SUB PUSH2 0x381 PUSH2 0xA2B JUMP JUMPDEST AND DUP2 MSTORE PUSH1 0x9 DUP6 MSTORE KECCAK256 SLOAD AND SWAP1 MLOAD SWAP1 ISZERO ISZERO DUP2 MSTORE RETURN JUMPDEST POP POP CALLVALUE PUSH2 0x174 JUMPI DUP1 PUSH1 0x3 NOT CALLDATASIZE ADD SLT PUSH2 0x174 JUMPI PUSH1 0x20 SWAP1 PUSH2 0x3BE PUSH2 0x3B4 PUSH2 0xA2B JUMP JUMPDEST PUSH1 0x24 CALLDATALOAD SWAP1 CALLER PUSH2 0xB3C JUMP JUMPDEST MLOAD PUSH1 0x1 DUP2 MSTORE RETURN JUMPDEST POP POP CALLVALUE PUSH2 0x174 JUMPI DUP2 PUSH1 0x3 NOT CALLDATASIZE ADD SLT PUSH2 0x174 JUMPI PUSH1 0xB SLOAD SWAP1 MLOAD PUSH1 0x1 PUSH1 0x1 PUSH1 0xA0 SHL SUB SWAP1 SWAP2 AND DUP2 MSTORE PUSH1 0x20 SWAP1 RETURN JUMPDEST POP POP CALLVALUE PUSH2 0x174 JUMPI DUP2 PUSH1 0x3 NOT CALLDATASIZE ADD SLT PUSH2 0x174 JUMPI PUSH1 0x8 SLOAD SWAP1 MLOAD PUSH1 0x20 SWAP2 DUP3 SHR PUSH1 0xFF AND ISZERO ISZERO DUP2 MSTORE RETURN JUMPDEST POP POP CALLVALUE PUSH2 0x174 JUMPI DUP2 PUSH1 0x3 NOT CALLDATASIZE ADD SLT PUSH2 0x174 JUMPI PUSH1 0x20 SWAP1 PUSH1 0x7 SLOAD SWAP1 MLOAD SWAP1 DUP2 MSTORE RETURN JUMPDEST DUP4 DUP4 CALLVALUE PUSH2 0x174 JUMPI DUP2 PUSH1 0x3 NOT CALLDATASIZE ADD SLT PUSH2 0x174 JUMPI DUP1 MLOAD SWAP1 DUP3 PUSH1 0x2 SLOAD PUSH1 0x1 DUP2 DUP2 SHR SWAP1 DUP1 DUP4 AND SWAP3 DUP4 ISZERO PUSH2 0x549 JUMPI JUMPDEST PUSH1 0x20 SWAP4 DUP5 DUP5 LT DUP2 EQ PUSH2 0x536 JUMPI DUP4 DUP9 MSTORE SWAP1 DUP2 ISZERO PUSH2 0x51A JUMPI POP PUSH1 0x1 EQ PUSH2 0x4C4 JUMPI JUMPDEST POP POP POP DUP3 SWAP1 SUB PUSH1 0x1F ADD PUSH1 0x1F NOT AND DUP3 ADD SWAP3 PUSH8 0xFFFFFFFFFFFFFFFF DUP5 GT DUP4 DUP6 LT OR PUSH2 0x4B1 JUMPI POP DUP3 SWAP2 DUP3 PUSH2 0x4AD SWAP3 MSTORE DUP3 PUSH2 0x9E2 JUMP JUMPDEST SUB SWAP1 RETURN JUMPDEST PUSH4 0x4E487B71 PUSH1 0xE0 SHL DUP2 MSTORE PUSH1 0x41 DUP6 MSTORE PUSH1 0x24 SWAP1 REVERT JUMPDEST PUSH1 0x2 DUP8 MSTORE SWAP2 SWAP3 POP DUP6 SWAP2 DUP4 PUSH32 0x405787FA12A823E0F2B7631CC41B3BA8828B3321CA811111FA75CD3AA3BB5ACE JUMPDEST DUP4 DUP6 LT PUSH2 0x506 JUMPI POP POP POP POP DUP4 ADD ADD DUP6 DUP1 DUP1 PUSH2 0x47B JUMP JUMPDEST DUP1 SLOAD DUP9 DUP7 ADD DUP4 ADD MSTORE SWAP4 ADD SWAP3 DUP5 SWAP1 DUP3 ADD PUSH2 0x4F0 JUMP JUMPDEST PUSH1 0xFF NOT AND DUP8 DUP6 ADD MSTORE POP POP ISZERO ISZERO PUSH1 0x5 SHL DUP5 ADD ADD SWAP1 POP DUP6 DUP1 DUP1 PUSH2 0x47B JUMP JUMPDEST PUSH4 0x4E487B71 PUSH1 0xE0 SHL DUP10 MSTORE PUSH1 0x22 DUP11 MSTORE PUSH1 0x24 DUP10 REVERT JUMPDEST SWAP2 PUSH1 0x7F AND SWAP2 PUSH2 0x45C JUMP JUMPDEST POP POP CALLVALUE PUSH2 0x174 JUMPI DUP2 PUSH1 0x3 NOT CALLDATASIZE ADD SLT PUSH2 0x174 JUMPI SWAP1 SLOAD SWAP1 MLOAD PUSH1 0x1 PUSH1 0x1 PUSH1 0xA0 SHL SUB SWAP1 SWAP2 AND DUP2 MSTORE PUSH1 0x20 SWAP1 RETURN JUMPDEST POP POP CALLVALUE PUSH2 0x174 JUMPI PUSH1 0x20 CALLDATASIZE PUSH1 0x3 NOT ADD SLT PUSH2 0x174 JUMPI PUSH1 0x20 SWAP2 DUP2 SWAP1 PUSH1 0x1 PUSH1 0x1 PUSH1 0xA0 SHL SUB PUSH2 0x5A3 PUSH2 0xA2B JUMP JUMPDEST AND DUP2 MSTORE PUSH1 0xA DUP5 MSTORE KECCAK256 SLOAD SWAP1 MLOAD SWAP1 DUP2 MSTORE RETURN JUMPDEST SWAP1 POP CALLVALUE PUSH2 0x27E JUMPI PUSH1 0x20 CALLDATASIZE PUSH1 0x3 NOT ADD SLT PUSH2 0x27E JUMPI PUSH2 0x5CE PUSH2 0xA2B JUMP JUMPDEST PUSH1 0xD SLOAD PUSH1 0x1 PUSH1 0x1 PUSH1 0xA0 SHL SUB SWAP2 DUP3 SWAP2 PUSH2 0x5E9 SWAP1 DUP4 AND CALLER EQ PUSH2 0xA9C JUMP JUMPDEST AND SWAP2 DUP3 ISZERO PUSH2 0x62D JUMPI POP PUSH1 0xB SLOAD DUP3 SWAP2 DUP2 AND ISZERO PUSH2 0x618 JUMPI JUMPDEST POP POP DUP3 MSTORE PUSH1 0xC PUSH1 0x20 MSTORE DUP2 KECCAK256 DUP1 SLOAD PUSH1 0xFF NOT AND PUSH1 0x1 OR SWAP1 SSTORE DUP1 RETURN JUMPDEST PUSH1 0x1 PUSH1 0x1 PUSH1 0xA0 SHL SUB NOT AND OR PUSH1 0xB SSTORE DUP1 CODESIZE PUSH2 0x5FF JUMP JUMPDEST PUSH1 0x64 SWAP1 PUSH1 0x20 DUP6 MLOAD SWAP2 PUSH3 0x461BCD PUSH1 0xE5 SHL DUP4 MSTORE DUP3 ADD MSTORE PUSH1 0x8 PUSH1 0x24 DUP3 ADD MSTORE PUSH8 0x2120A22FA820A4A9 PUSH1 0xC1 SHL PUSH1 0x44 DUP3 ADD MSTORE REVERT JUMPDEST SWAP2 SWAP1 POP CALLVALUE PUSH2 0x27E JUMPI DUP3 PUSH1 0x3 NOT CALLDATASIZE ADD SLT PUSH2 0x27E JUMPI DUP3 SLOAD PUSH1 0x1 PUSH1 0x1 PUSH1 0xA0 SHL SUB AND CALLER SUB PUSH2 0x688 JUMPI DUP3 PUSH2 0x23B PUSH2 0xA5C JUMP JUMPDEST SWAP1 PUSH1 0x20 PUSH1 0x64 SWAP3 MLOAD SWAP2 PUSH3 0x461BCD PUSH1 0xE5 SHL DUP4 MSTORE DUP3 ADD MSTORE PUSH1 0x9 PUSH1 0x24 DUP3 ADD MSTORE PUSH9 0x2727AA2FA7ABA722A9 PUSH1 0xB9 SHL PUSH1 0x44 DUP3 ADD MSTORE REVERT JUMPDEST SWAP1 POP CALLVALUE PUSH2 0x27E JUMPI PUSH1 0x20 CALLDATASIZE PUSH1 0x3 NOT ADD SLT PUSH2 0x27E JUMPI PUSH1 0x20 SWAP3 DUP3 SWAP2 PUSH1 0x1 PUSH1 0x1 PUSH1 0xA0 SHL SUB PUSH2 0x6DF PUSH2 0xA2B JUMP JUMPDEST AND DUP3 MSTORE DUP5 MSTORE KECCAK256 SLOAD SWAP1 MLOAD SWAP1 DUP2 MSTORE RETURN JUMPDEST POP POP CALLVALUE PUSH2 0x174 JUMPI DUP2 PUSH1 0x3 NOT CALLDATASIZE ADD SLT PUSH2 0x174 JUMPI PUSH1 0x20 SWAP1 PUSH2 0xFFFF PUSH1 0x8 SLOAD AND SWAP1 MLOAD SWAP1 DUP2 MSTORE RETURN JUMPDEST DUP1 SWAP2 DUP5 CALLVALUE PUSH2 0x78E JUMPI PUSH1 0x20 CALLDATASIZE PUSH1 0x3 NOT ADD SLT PUSH2 0x78E JUMPI DUP2 CALLDATALOAD SWAP2 CALLER DUP5 MSTORE DUP1 PUSH1 0x20 MSTORE PUSH2 0x747 DUP4 DUP4 DUP7 KECCAK256 SLOAD PUSH2 0x742 DUP3 DUP3 LT ISZERO PUSH2 0xB06 JUMP JUMPDEST PUSH2 0xAF9 JUMP JUMPDEST SWAP1 CALLER DUP6 MSTORE PUSH1 0x20 MSTORE DUP2 DUP5 KECCAK256 SSTORE PUSH2 0x75E DUP3 PUSH1 0x3 SLOAD PUSH2 0xAF9 JUMP JUMPDEST PUSH1 0x3 SSTORE MLOAD SWAP1 DUP2 MSTORE PUSH32 0xDDF252AD1BE2C89B69C2B068FC378DAA952BA7F163C4A11628F55A4DF523B3EF PUSH1 0x20 CALLER SWAP3 LOG3 DUP1 RETURN JUMPDEST POP POP REVERT JUMPDEST POP POP CALLVALUE PUSH2 0x174 JUMPI DUP2 PUSH1 0x3 NOT CALLDATASIZE ADD SLT PUSH2 0x174 JUMPI PUSH1 0x20 SWAP1 MLOAD PUSH1 0x12 DUP2 MSTORE RETURN JUMPDEST SWAP2 SWAP1 POP CALLVALUE PUSH2 0x27E JUMPI PUSH1 0x60 CALLDATASIZE PUSH1 0x3 NOT ADD SLT PUSH2 0x27E JUMPI PUSH2 0x7CA PUSH2 0xA2B JUMP JUMPDEST PUSH2 0x7D2 PUSH2 0xA46 JUMP JUMPDEST PUSH1 0x44 CALLDATALOAD SWAP2 PUSH1 0x1 DUP1 PUSH1 0xA0 SHL SUB DUP2 AND DUP1 DUP8 MSTORE PUSH1 0x20 SWAP6 PUSH1 0x5 DUP8 MSTORE DUP6 DUP9 KECCAK256 CALLER DUP10 MSTORE DUP8 MSTORE DUP6 DUP9 KECCAK256 SLOAD SWAP1 DUP6 DUP3 LT PUSH2 0x825 JUMPI POP SWAP5 DUP1 SWAP7 SWAP8 PUSH2 0x80F DUP7 PUSH2 0x3BE SWAP9 PUSH2 0xAF9 JUMP JUMPDEST SWAP3 DUP2 MSTORE PUSH1 0x5 DUP10 MSTORE DUP2 DUP2 KECCAK256 CALLER DUP3 MSTORE DUP10 MSTORE KECCAK256 SSTORE PUSH2 0xB3C JUMP JUMPDEST DUP7 MLOAD PUSH3 0x461BCD PUSH1 0xE5 SHL DUP2 MSTORE SWAP1 DUP2 ADD DUP9 SWAP1 MSTORE PUSH1 0x9 PUSH1 0x24 DUP3 ADD MSTORE PUSH9 0x414C4C4F57414E4345 PUSH1 0xB8 SHL PUSH1 0x44 DUP3 ADD MSTORE PUSH1 0x64 SWAP1 REVERT JUMPDEST POP POP CALLVALUE PUSH2 0x174 JUMPI DUP2 PUSH1 0x3 NOT CALLDATASIZE ADD SLT PUSH2 0x174 JUMPI PUSH1 0x20 SWAP1 PUSH1 0xFF PUSH1 0xE SLOAD PUSH1 0xA0 SHR AND SWAP1 MLOAD SWAP1 ISZERO ISZERO DUP2 MSTORE RETURN JUMPDEST POP POP CALLVALUE PUSH2 0x174 JUMPI DUP2 PUSH1 0x3 NOT CALLDATASIZE ADD SLT PUSH2 0x174 JUMPI PUSH1 0x20 SWAP1 PUSH1 0x3 SLOAD SWAP1 MLOAD SWAP1 DUP2 MSTORE RETURN JUMPDEST POP POP CALLVALUE PUSH2 0x174 JUMPI DUP1 PUSH1 0x3 NOT CALLDATASIZE ADD SLT PUSH2 0x174 JUMPI PUSH1 0x20 SWAP2 DUP2 PUSH2 0x8B8 PUSH2 0xA2B JUMP JUMPDEST SWAP2 PUSH1 0x24 CALLDATALOAD SWAP2 DUP3 SWAP2 CALLER DUP2 MSTORE PUSH1 0x5 DUP8 MSTORE DUP2 DUP2 KECCAK256 SWAP5 PUSH1 0x1 DUP1 PUSH1 0xA0 SHL SUB AND SWAP5 DUP6 DUP3 MSTORE DUP8 MSTORE KECCAK256 SSTORE DUP3 MLOAD SWAP1 DUP2 MSTORE PUSH32 0x8C5BE1E5EBEC7D5BD14F71427D1E84F3DD0314C0F7B2291E5B200AC8C7C3B925 DUP5 CALLER SWAP3 LOG3 MLOAD PUSH1 0x1 DUP2 MSTORE RETURN JUMPDEST DUP5 SWAP1 DUP5 CALLVALUE PUSH2 0x27E JUMPI DUP3 PUSH1 0x3 NOT CALLDATASIZE ADD SLT PUSH2 0x27E JUMPI DUP3 PUSH1 0x1 DUP1 SLOAD SWAP1 DUP2 DUP2 SHR SWAP1 DUP1 DUP4 AND SWAP3 DUP4 ISZERO PUSH2 0x9D8 JUMPI JUMPDEST PUSH1 0x20 SWAP4 DUP5 DUP5 LT DUP2 EQ PUSH2 0x536 JUMPI DUP4 DUP9 MSTORE SWAP1 DUP2 ISZERO PUSH2 0x51A JUMPI POP PUSH1 0x1 EQ PUSH2 0x983 JUMPI POP POP POP DUP3 SWAP1 SUB PUSH1 0x1F ADD PUSH1 0x1F NOT AND DUP3 ADD SWAP3 PUSH8 0xFFFFFFFFFFFFFFFF DUP5 GT DUP4 DUP6 LT OR PUSH2 0x4B1 JUMPI POP DUP3 SWAP2 DUP3 PUSH2 0x4AD SWAP3 MSTORE DUP3 PUSH2 0x9E2 JUMP JUMPDEST DUP1 DUP8 MSTORE SWAP2 SWAP3 POP DUP6 SWAP2 DUP4 PUSH32 0xB10E2D527612073B26EECDFD717E6A320CF44B4AFAC2B0732D9FCBE2B7FA0CF6 JUMPDEST DUP4 DUP6 LT PUSH2 0x9C4 JUMPI POP POP POP POP DUP4 ADD ADD DUP6 DUP1 DUP1 PUSH2 0x47B JUMP JUMPDEST DUP1 SLOAD DUP9 DUP7 ADD DUP4 ADD MSTORE SWAP4 ADD SWAP3 DUP5 SWAP1 DUP3 ADD PUSH2 0x9AE JUMP JUMPDEST SWAP2 PUSH1 0x7F AND SWAP2 PUSH2 0x933 JUMP JUMPDEST PUSH1 0x20 DUP1 DUP3 MSTORE DUP3 MLOAD DUP2 DUP4 ADD DUP2 SWAP1 MSTORE SWAP1 SWAP4 SWAP3 PUSH1 0x0 JUMPDEST DUP3 DUP2 LT PUSH2 0xA17 JUMPI POP POP PUSH1 0x40 SWAP3 SWAP4 POP PUSH1 0x0 DUP4 DUP3 DUP5 ADD ADD MSTORE PUSH1 0x1F DUP1 NOT SWAP2 ADD AND ADD ADD SWAP1 JUMP JUMPDEST DUP2 DUP2 ADD DUP7 ADD MLOAD DUP5 DUP3 ADD PUSH1 0x40 ADD MSTORE DUP6 ADD PUSH2 0x9F5 JUMP JUMPDEST PUSH1 0x4 CALLDATALOAD SWAP1 PUSH1 0x1 PUSH1 0x1 PUSH1 0xA0 SHL SUB DUP3 AND DUP3 SUB PUSH2 0xA41 JUMPI JUMP JUMPDEST PUSH1 0x0 DUP1 REVERT JUMPDEST PUSH1 0x24 CALLDATALOAD SWAP1 PUSH1 0x1 PUSH1 0x1 PUSH1 0xA0 SHL SUB DUP3 AND DUP3 SUB PUSH2 0xA41 JUMPI JUMP JUMPDEST PUSH1 0x0 DUP1 SLOAD PUSH1 0x1 PUSH1 0x1 PUSH1 0xA0 SHL SUB NOT DUP2 AND DUP3 SSTORE PUSH1 0x1 PUSH1 0x1 PUSH1 0xA0 SHL SUB AND PUSH32 0x8BE0079C531659141344CD1FD0A4F28419497F9722A3DAAFE3B4186F6B6457E0 DUP3 DUP1 LOG3 JUMP JUMPDEST ISZERO PUSH2 0xAA3 JUMPI JUMP JUMPDEST PUSH1 0x40 MLOAD PUSH3 0x461BCD PUSH1 0xE5 SHL DUP2 MSTORE PUSH1 0x20 PUSH1 0x4 DUP3 ADD MSTORE PUSH1 0xB PUSH1 0x24 DUP3 ADD MSTORE PUSH11 0x4E4F545F464143544F5259 PUSH1 0xA8 SHL PUSH1 0x44 DUP3 ADD MSTORE PUSH1 0x64 SWAP1 REVERT JUMPDEST SWAP2 SWAP1 DUP3 ADD DUP1 SWAP3 GT PUSH2 0xAE3 JUMPI JUMP JUMPDEST PUSH4 0x4E487B71 PUSH1 0xE0 SHL PUSH1 0x0 MSTORE PUSH1 0x11 PUSH1 0x4 MSTORE PUSH1 0x24 PUSH1 0x0 REVERT JUMPDEST SWAP2 SWAP1 DUP3 SUB SWAP2 DUP3 GT PUSH2 0xAE3 JUMPI JUMP JUMPDEST ISZERO PUSH2 0xB0D JUMPI JUMP JUMPDEST PUSH1 0x40 MLOAD PUSH3 0x461BCD PUSH1 0xE5 SHL DUP2 MSTORE PUSH1 0x20 PUSH1 0x4 DUP3 ADD MSTORE PUSH1 0x7 PUSH1 0x24 DUP3 ADD MSTORE PUSH7 0x42414C414E4345 PUSH1 0xC8 SHL PUSH1 0x44 DUP3 ADD MSTORE PUSH1 0x64 SWAP1 REVERT JUMPDEST PUSH1 0x1 PUSH1 0x1 PUSH1 0xA0 SHL SUB SWAP4 SWAP3 DUP5 DUP4 AND SWAP3 SWAP1 DUP4 ISZERO PUSH2 0xD1B JUMPI DUP6 DUP4 AND SWAP3 PUSH1 0x0 DUP5 DUP2 MSTORE PUSH1 0x4 SWAP8 PUSH1 0x20 SWAP5 DUP10 DUP7 MSTORE PUSH1 0x40 SWAP4 PUSH2 0xB75 DUP7 DUP7 DUP7 KECCAK256 SLOAD LT ISZERO PUSH2 0xB06 JUMP JUMPDEST DUP8 DUP5 MSTORE PUSH1 0x9 DUP8 MSTORE PUSH1 0xFF DUP6 DUP6 KECCAK256 SLOAD AND ISZERO DUP1 PUSH2 0xD0A JUMPI JUMPDEST PUSH2 0xBE9 JUMPI JUMPDEST POP POP POP DUP1 DUP6 SWAP7 SWAP8 SWAP9 PUSH32 0xDDF252AD1BE2C89B69C2B068FC378DAA952BA7F163C4A11628F55A4DF523B3EF SWAP7 DUP5 SWAP4 MSTORE DUP1 DUP7 MSTORE DUP3 DUP3 KECCAK256 PUSH2 0xBCD DUP7 DUP3 SLOAD PUSH2 0xAF9 JUMP JUMPDEST SWAP1 SSTORE DUP9 DUP3 MSTORE DUP6 MSTORE KECCAK256 PUSH2 0xBE0 DUP4 DUP3 SLOAD PUSH2 0xAD6 JUMP JUMPDEST SWAP1 SSTORE MLOAD SWAP1 DUP2 MSTORE LOG3 JUMP JUMPDEST PUSH1 0x6 SLOAD DUP1 ISZERO PUSH2 0xCFA JUMPI PUSH1 0x8 SLOAD SWAP1 PUSH2 0xC06 PUSH2 0xFFFF SWAP2 DUP3 DUP5 AND SWAP1 PUSH2 0xAD6 JUMP JUMPDEST NUMBER GT ISZERO PUSH2 0xCEA JUMPI PUSH1 0x7 SLOAD NUMBER GT ISZERO PUSH2 0xC1F JUMPI JUMPDEST POP POP PUSH2 0xB8F JUMP JUMPDEST PUSH1 0x3 SLOAD SWAP1 DUP3 PUSH1 0x10 SHR AND SWAP1 DUP2 DUP2 MUL SWAP2 DUP2 DUP4 DIV EQ SWAP1 ISZERO OR ISZERO PUSH2 0xCD7 JUMPI PUSH2 0x2710 SWAP1 DIV DUP8 GT PUSH2 0xCC7 JUMPI DUP8 SHR PUSH1 0xFF AND PUSH2 0xC55 JUMPI JUMPDEST DUP1 DUP1 PUSH2 0xC18 JUMP JUMPDEST DUP8 DUP5 MSTORE PUSH1 0xC DUP8 MSTORE DUP5 DUP5 KECCAK256 SLOAD PUSH1 0xFF AND ISZERO PUSH2 0xCC0 JUMPI POP JUMPDEST AND DUP1 DUP3 MSTORE PUSH1 0xA DUP6 MSTORE NUMBER DUP4 DUP4 KECCAK256 SLOAD EQ PUSH2 0xCB0 JUMPI DUP2 MSTORE PUSH1 0xA DUP5 MSTORE DUP2 DUP2 KECCAK256 NUMBER SWAP1 SSTORE DUP1 PUSH32 0xDDF252AD1BE2C89B69C2B068FC378DAA952BA7F163C4A11628F55A4DF523B3EF DUP4 PUSH2 0xC4E JUMP JUMPDEST DUP3 MLOAD PUSH4 0xAA9A98DF PUSH1 0xE0 SHL DUP2 MSTORE DUP10 SWAP1 REVERT JUMPDEST SWAP1 POP PUSH2 0xC6A JUMP JUMPDEST DUP6 MLOAD PUSH4 0x4D22AEDF PUSH1 0xE1 SHL DUP2 MSTORE DUP13 SWAP1 REVERT JUMPDEST PUSH4 0x4E487B71 PUSH1 0xE0 SHL DUP7 MSTORE PUSH1 0x11 DUP14 MSTORE PUSH1 0x24 DUP7 REVERT JUMPDEST DUP7 MLOAD PUSH4 0x7B85E8B9 PUSH1 0xE0 SHL DUP2 MSTORE DUP14 SWAP1 REVERT JUMPDEST DUP6 MLOAD PUSH4 0x12F1F923 PUSH1 0xE0 SHL DUP2 MSTORE DUP13 SWAP1 REVERT JUMPDEST POP DUP9 DUP5 MSTORE PUSH1 0xFF DUP6 DUP6 KECCAK256 SLOAD AND ISZERO PUSH2 0xB8A JUMP JUMPDEST PUSH1 0x40 MLOAD PUSH3 0x461BCD PUSH1 0xE5 SHL DUP2 MSTORE PUSH1 0x20 PUSH1 0x4 DUP3 ADD MSTORE PUSH1 0x9 PUSH1 0x24 DUP3 ADD MSTORE PUSH9 0x2D22A927AFA0A22229 PUSH1 0xB9 SHL PUSH1 0x44 DUP3 ADD MSTORE PUSH1 0x64 SWAP1 REVERT INVALID LOG2 PUSH5 0x6970667358 0x22 SLT KECCAK256 0x2E 0x5E TIMESTAMP DIV 0xB4 SWAP5 0x24 GT PUSH24 0xE46C5A1BD91335D292D71619C939F6016B84A732D3F54564 PUSH20 0x6F6C63430008140033DDF252AD1BE2C89B69C2B0 PUSH9 0xFC378DAA952BA7F163 0xC4 LOG1 AND 0x28 CREATE2 GAS 0x4D CREATE2 0x23 0xB3 0xEF 0xB1 0xE 0x2D MSTORE PUSH23 0x12073B26EECDFD717E6A320CF44B4AFAC2B0732D9FCBE2 0xB7 STATICCALL 0xC 0xF6 "},"methodIdentifiers":{"allowance(address,address)":"dd62ed3e","approve(address,uint256)":"095ea7b3","balanceOf(address)":"70a08231","burn(uint256)":"42966c68","cooldownOneTxPerBlock()":"9ebaa1c3","decimals()":"313ce567","factory()":"c45a0155","factoryMayRenounce()":"1f94957a","factoryRenounce()":"ce5e589d","isAMMPair(address)":"b0249cc6","isExempt(address)":"ad5dff73","lastTransferBlock(address)":"8712523e","launchBlock()":"d00efb2f","maxTxBps()":"ff8ea3e5","name()":"06fdde03","owner()":"8da5cb5b","pair()":"a8aa1b31","protectionEndBlock()":"9605ddbb","renounceOwnership()":"715018a6","router()":"f887ea40","setLaunchBlock(uint256,uint16)":"b67d4266","setPair(address)":"8187f516","symbol()":"95d89b41","totalSupply()":"18160ddd","tradingDelayBlocks()":"6760e74c","transfer(address,uint256)":"a9059cbb","transferFrom(address,address,uint256)":"23b872dd"}}}}}