{"contracts/NeonLpLocker.sol":{"NeonLpLocker":{"abi":[{"inputs":[{"internalType":"address","name":"_factory","type":"address"}],"stateMutability":"nonpayable","type":"constructor"},{"anonymous":false,"inputs":[{"indexed":true,"internalType":"uint256","name":"lockId","type":"uint256"},{"indexed":true,"internalType":"address","name":"pair","type":"address"},{"indexed":true,"internalType":"address","name":"beneficiary","type":"address"},{"indexed":false,"internalType":"uint256","name":"amount","type":"uint256"},{"indexed":false,"internalType":"uint64","name":"unlockAt","type":"uint64"}],"name":"Locked","type":"event"},{"anonymous":false,"inputs":[{"indexed":true,"internalType":"uint256","name":"lockId","type":"uint256"},{"indexed":true,"internalType":"address","name":"beneficiary","type":"address"},{"indexed":false,"internalType":"uint256","name":"amount","type":"uint256"}],"name":"Withdrawn","type":"event"},{"inputs":[],"name":"factory","outputs":[{"internalType":"address","name":"","type":"address"}],"stateMutability":"view","type":"function"},{"inputs":[{"internalType":"address","name":"pair","type":"address"},{"internalType":"address","name":"beneficiary","type":"address"},{"internalType":"uint256","name":"amount","type":"uint256"},{"internalType":"uint64","name":"unlockAt","type":"uint64"}],"name":"lock","outputs":[{"internalType":"uint256","name":"lockId","type":"uint256"}],"stateMutability":"nonpayable","type":"function"},{"inputs":[{"internalType":"uint256","name":"","type":"uint256"}],"name":"locks","outputs":[{"internalType":"address","name":"pair","type":"address"},{"internalType":"address","name":"beneficiary","type":"address"},{"internalType":"uint256","name":"amount","type":"uint256"},{"internalType":"uint64","name":"unlockAt","type":"uint64"},{"internalType":"bool","name":"withdrawn","type":"bool"}],"stateMutability":"view","type":"function"},{"inputs":[],"name":"locksCount","outputs":[{"internalType":"uint256","name":"","type":"uint256"}],"stateMutability":"view","type":"function"},{"inputs":[{"internalType":"uint256","name":"lockId","type":"uint256"}],"name":"withdraw","outputs":[],"stateMutability":"nonpayable","type":"function"}],"evm":{"bytecode":{"linkReferences":{},"object":"60a0346100aa57601f61070438819003918201601f19168301916001600160401b038311848410176100af578084926020946040528339810103126100aa57516001600160a01b0381168082036100aa57156100775760805260405161063e90816100c6823960805181818161012801526103560152f35b60405162461bcd60e51b815260206004820152600b60248201526a4241445f464143544f525960a81b6044820152606490fd5b600080fd5b634e487b7160e01b600052604160045260246000fdfe6040608081526004908136101561001557600080fd5b600091823560e01c80632e1a7d4d146103a657806385cb720214610389578063c45a015514610341578063ee3d71d2146100d15763f4dadc611461005857600080fd5b346100cd5760203660031901126100cd57359180548310156100ca575060ff61008260a0936105bb565b50600180851b03928382541693600183015416916003600282015491015492825195865260208601528185015267ffffffffffffffff821660608501521c1615156080820152f35b80fd5b8280fd5b5090346100cd5760803660031901126100cd576001600160a01b0382358181169081900361033d5760249182359281841680940361033957604435966064359267ffffffffffffffff908185168095036100cd57807f00000000000000000000000000000000000000000000000000000000000000001633036103095785151580610300575b156102d15789156102a35787519160a083018381108282111761029157895286835260208301928884528981018c8152606082019488865260808301948786528754600160401b81101561027f578060016101b492018a556105bb565b94909461026e5790806003959493925116906bffffffffffffffffffffffff60a01b918286541617855560018501925116908254161790555160028201550192511660ff60401b8354925115158a1b169168ffffffffffffffffff191617179055805496600019880197881161025e575050507f8304b8c1ad220f367b10eb7062c3c2e5d5568a59cad020b216ff3d168766af17846020978793825191825289820152a451908152f35b634e487b7160e01b825260119052fd5b634e487b7160e01b8952888f528989fd5b634e487b7160e01b895260418f528989fd5b634e487b7160e01b855260418b528585fd5b875162461bcd60e51b81526020818b0152600981860152681393d7d05353d5539560ba1b6044820152606490fd5b875162461bcd60e51b81526020818b0152600a81860152694241445f504152414d5360b01b6044820152606490fd5b50861515610157565b875162461bcd60e51b81526020818b0152600b818601526a4e4f545f464143544f525960a81b6044820152606490fd5b8680fd5b8480fd5b505034610385578160031936011261038557517f00000000000000000000000000000000000000000000000000000000000000006001600160a01b03168152602090f35b5080fd5b505034610385578160031936011261038557602091549051908152f35b5090346100cd576020806003193601126105b7578235916103c6836105bb565b50600381019485549060ff82851c1661058a57600183019160018060a01b039384845416988933036105555767ffffffffffffffff92838116421061052957600160401b9060ff60401b19161790558660028683541692019960448b54918d8a51958694859363a9059cbb60e01b85528a85015260248401525af191821561051f578a926104bf575b5050156104895750907fcf7d23a3cbe4e8b36ff82fd1b05b1b17373dc7804b4ebbd6e2356716ef202372939291541694549051908152a380f35b835162461bcd60e51b8152908101859052601060248201526f131417d514905394d1915497d190525360821b6044820152606490fd5b90915086903d8811610517575b601f8201601f191683019081118382101761050457879183918852810103126105005751801515810361050057388061044f565b8880fd5b634e487b7160e01b8b526041845260248bfd5b3d91506104cc565b86513d8c823e3d90fd5b875162461bcd60e51b81528086018a905260066024820152651313d0d2d15160d21b6044820152606490fd5b865162461bcd60e51b8152808501899052600f60248201526e4e4f545f42454e454649434941525960881b6044820152606490fd5b835162461bcd60e51b81529081018590526007602482015266414c524541445960c81b6044820152606490fd5b8380fd5b9060009182548110156105f45782805260021b7f290decd9548b62a8d60345a988386fc84ba6bc95484008f6362f93160ef3e563019190565b634e487b7160e01b83526032600452602483fdfea2646970667358221220b970e8cfe045731eb2ac608318c7d495102ab446b8508631d521bd8d58b13eea64736f6c63430008140033","opcodes":"PUSH1 0xA0 CALLVALUE PUSH2 0xAA JUMPI PUSH1 0x1F PUSH2 0x704 CODESIZE DUP2 SWAP1 SUB SWAP2 DUP3 ADD PUSH1 0x1F NOT AND DUP4 ADD SWAP2 PUSH1 0x1 PUSH1 0x1 PUSH1 0x40 SHL SUB DUP4 GT DUP5 DUP5 LT OR PUSH2 0xAF JUMPI DUP1 DUP5 SWAP3 PUSH1 0x20 SWAP5 PUSH1 0x40 MSTORE DUP4 CODECOPY DUP2 ADD SUB SLT PUSH2 0xAA JUMPI MLOAD PUSH1 0x1 PUSH1 0x1 PUSH1 0xA0 SHL SUB DUP2 AND DUP1 DUP3 SUB PUSH2 0xAA JUMPI ISZERO PUSH2 0x77 JUMPI PUSH1 0x80 MSTORE PUSH1 0x40 MLOAD PUSH2 0x63E SWAP1 DUP2 PUSH2 0xC6 DUP3 CODECOPY PUSH1 0x80 MLOAD DUP2 DUP2 DUP2 PUSH2 0x128 ADD MSTORE PUSH2 0x356 ADD MSTORE RETURN JUMPDEST PUSH1 0x40 MLOAD PUSH3 0x461BCD PUSH1 0xE5 SHL DUP2 MSTORE PUSH1 0x20 PUSH1 0x4 DUP3 ADD MSTORE PUSH1 0xB PUSH1 0x24 DUP3 ADD MSTORE PUSH11 0x4241445F464143544F5259 PUSH1 0xA8 SHL PUSH1 0x44 DUP3 ADD MSTORE PUSH1 0x64 SWAP1 REVERT JUMPDEST PUSH1 0x0 DUP1 REVERT JUMPDEST PUSH4 0x4E487B71 PUSH1 0xE0 SHL PUSH1 0x0 MSTORE PUSH1 0x41 PUSH1 0x4 MSTORE PUSH1 0x24 PUSH1 0x0 REVERT INVALID PUSH1 0x40 PUSH1 0x80 DUP2 MSTORE PUSH1 0x4 SWAP1 DUP2 CALLDATASIZE LT ISZERO PUSH2 0x15 JUMPI PUSH1 0x0 DUP1 REVERT JUMPDEST PUSH1 0x0 SWAP2 DUP3 CALLDATALOAD PUSH1 0xE0 SHR DUP1 PUSH4 0x2E1A7D4D EQ PUSH2 0x3A6 JUMPI DUP1 PUSH4 0x85CB7202 EQ PUSH2 0x389 JUMPI DUP1 PUSH4 0xC45A0155 EQ PUSH2 0x341 JUMPI DUP1 PUSH4 0xEE3D71D2 EQ PUSH2 0xD1 JUMPI PUSH4 0xF4DADC61 EQ PUSH2 0x58 JUMPI PUSH1 0x0 DUP1 REVERT JUMPDEST CALLVALUE PUSH2 0xCD JUMPI PUSH1 0x20 CALLDATASIZE PUSH1 0x3 NOT ADD SLT PUSH2 0xCD JUMPI CALLDATALOAD SWAP2 DUP1 SLOAD DUP4 LT ISZERO PUSH2 0xCA JUMPI POP PUSH1 0xFF PUSH2 0x82 PUSH1 0xA0 SWAP4 PUSH2 0x5BB JUMP JUMPDEST POP PUSH1 0x1 DUP1 DUP6 SHL SUB SWAP3 DUP4 DUP3 SLOAD AND SWAP4 PUSH1 0x1 DUP4 ADD SLOAD AND SWAP2 PUSH1 0x3 PUSH1 0x2 DUP3 ADD SLOAD SWAP2 ADD SLOAD SWAP3 DUP3 MLOAD SWAP6 DUP7 MSTORE PUSH1 0x20 DUP7 ADD MSTORE DUP2 DUP6 ADD MSTORE PUSH8 0xFFFFFFFFFFFFFFFF DUP3 AND PUSH1 0x60 DUP6 ADD MSTORE SHR AND ISZERO ISZERO PUSH1 0x80 DUP3 ADD MSTORE RETURN JUMPDEST DUP1 REVERT JUMPDEST DUP3 DUP1 REVERT JUMPDEST POP SWAP1 CALLVALUE PUSH2 0xCD JUMPI PUSH1 0x80 CALLDATASIZE PUSH1 0x3 NOT ADD SLT PUSH2 0xCD JUMPI PUSH1 0x1 PUSH1 0x1 PUSH1 0xA0 SHL SUB DUP3 CALLDATALOAD DUP2 DUP2 AND SWAP1 DUP2 SWAP1 SUB PUSH2 0x33D JUMPI PUSH1 0x24 SWAP2 DUP3 CALLDATALOAD SWAP3 DUP2 DUP5 AND DUP1 SWAP5 SUB PUSH2 0x339 JUMPI PUSH1 0x44 CALLDATALOAD SWAP7 PUSH1 0x64 CALLDATALOAD SWAP3 PUSH8 0xFFFFFFFFFFFFFFFF SWAP1 DUP2 DUP6 AND DUP1 SWAP6 SUB PUSH2 0xCD JUMPI DUP1 PUSH32 0x0 AND CALLER SUB PUSH2 0x309 JUMPI DUP6 ISZERO ISZERO DUP1 PUSH2 0x300 JUMPI JUMPDEST ISZERO PUSH2 0x2D1 JUMPI DUP10 ISZERO PUSH2 0x2A3 JUMPI DUP8 MLOAD SWAP2 PUSH1 0xA0 DUP4 ADD DUP4 DUP2 LT DUP3 DUP3 GT OR PUSH2 0x291 JUMPI DUP10 MSTORE DUP7 DUP4 MSTORE PUSH1 0x20 DUP4 ADD SWAP3 DUP9 DUP5 MSTORE DUP10 DUP2 ADD DUP13 DUP2 MSTORE PUSH1 0x60 DUP3 ADD SWAP5 DUP9 DUP7 MSTORE PUSH1 0x80 DUP4 ADD SWAP5 DUP8 DUP7 MSTORE DUP8 SLOAD PUSH1 0x1 PUSH1 0x40 SHL DUP2 LT ISZERO PUSH2 0x27F JUMPI DUP1 PUSH1 0x1 PUSH2 0x1B4 SWAP3 ADD DUP11 SSTORE PUSH2 0x5BB JUMP JUMPDEST SWAP5 SWAP1 SWAP5 PUSH2 0x26E JUMPI SWAP1 DUP1 PUSH1 0x3 SWAP6 SWAP5 SWAP4 SWAP3 MLOAD AND SWAP1 PUSH12 0xFFFFFFFFFFFFFFFFFFFFFFFF PUSH1 0xA0 SHL SWAP2 DUP3 DUP7 SLOAD AND OR DUP6 SSTORE PUSH1 0x1 DUP6 ADD SWAP3 MLOAD AND SWAP1 DUP3 SLOAD AND OR SWAP1 SSTORE MLOAD PUSH1 0x2 DUP3 ADD SSTORE ADD SWAP3 MLOAD AND PUSH1 0xFF PUSH1 0x40 SHL DUP4 SLOAD SWAP3 MLOAD ISZERO ISZERO DUP11 SHL AND SWAP2 PUSH9 0xFFFFFFFFFFFFFFFFFF NOT AND OR OR SWAP1 SSTORE DUP1 SLOAD SWAP7 PUSH1 0x0 NOT DUP9 ADD SWAP8 DUP9 GT PUSH2 0x25E JUMPI POP POP POP PUSH32 0x8304B8C1AD220F367B10EB7062C3C2E5D5568A59CAD020B216FF3D168766AF17 DUP5 PUSH1 0x20 SWAP8 DUP8 SWAP4 DUP3 MLOAD SWAP2 DUP3 MSTORE DUP10 DUP3 ADD MSTORE LOG4 MLOAD SWAP1 DUP2 MSTORE RETURN JUMPDEST PUSH4 0x4E487B71 PUSH1 0xE0 SHL DUP3 MSTORE PUSH1 0x11 SWAP1 MSTORE REVERT JUMPDEST PUSH4 0x4E487B71 PUSH1 0xE0 SHL DUP10 MSTORE DUP9 DUP16 MSTORE DUP10 DUP10 REVERT JUMPDEST PUSH4 0x4E487B71 PUSH1 0xE0 SHL DUP10 MSTORE PUSH1 0x41 DUP16 MSTORE DUP10 DUP10 REVERT JUMPDEST PUSH4 0x4E487B71 PUSH1 0xE0 SHL DUP6 MSTORE PUSH1 0x41 DUP12 MSTORE DUP6 DUP6 REVERT JUMPDEST DUP8 MLOAD PUSH3 0x461BCD PUSH1 0xE5 SHL DUP2 MSTORE PUSH1 0x20 DUP2 DUP12 ADD MSTORE PUSH1 0x9 DUP2 DUP7 ADD MSTORE PUSH9 0x1393D7D05353D55395 PUSH1 0xBA SHL PUSH1 0x44 DUP3 ADD MSTORE PUSH1 0x64 SWAP1 REVERT JUMPDEST DUP8 MLOAD PUSH3 0x461BCD PUSH1 0xE5 SHL DUP2 MSTORE PUSH1 0x20 DUP2 DUP12 ADD MSTORE PUSH1 0xA DUP2 DUP7 ADD MSTORE PUSH10 0x4241445F504152414D53 PUSH1 0xB0 SHL PUSH1 0x44 DUP3 ADD MSTORE PUSH1 0x64 SWAP1 REVERT JUMPDEST POP DUP7 ISZERO ISZERO PUSH2 0x157 JUMP JUMPDEST DUP8 MLOAD PUSH3 0x461BCD PUSH1 0xE5 SHL DUP2 MSTORE PUSH1 0x20 DUP2 DUP12 ADD MSTORE PUSH1 0xB DUP2 DUP7 ADD MSTORE PUSH11 0x4E4F545F464143544F5259 PUSH1 0xA8 SHL PUSH1 0x44 DUP3 ADD MSTORE PUSH1 0x64 SWAP1 REVERT JUMPDEST DUP7 DUP1 REVERT JUMPDEST DUP5 DUP1 REVERT JUMPDEST POP POP CALLVALUE PUSH2 0x385 JUMPI DUP2 PUSH1 0x3 NOT CALLDATASIZE ADD SLT PUSH2 0x385 JUMPI MLOAD PUSH32 0x0 PUSH1 0x1 PUSH1 0x1 PUSH1 0xA0 SHL SUB AND DUP2 MSTORE PUSH1 0x20 SWAP1 RETURN JUMPDEST POP DUP1 REVERT JUMPDEST POP POP CALLVALUE PUSH2 0x385 JUMPI DUP2 PUSH1 0x3 NOT CALLDATASIZE ADD SLT PUSH2 0x385 JUMPI PUSH1 0x20 SWAP2 SLOAD SWAP1 MLOAD SWAP1 DUP2 MSTORE RETURN JUMPDEST POP SWAP1 CALLVALUE PUSH2 0xCD JUMPI PUSH1 0x20 DUP1 PUSH1 0x3 NOT CALLDATASIZE ADD SLT PUSH2 0x5B7 JUMPI DUP3 CALLDATALOAD SWAP2 PUSH2 0x3C6 DUP4 PUSH2 0x5BB JUMP JUMPDEST POP PUSH1 0x3 DUP2 ADD SWAP5 DUP6 SLOAD SWAP1 PUSH1 0xFF DUP3 DUP6 SHR AND PUSH2 0x58A JUMPI PUSH1 0x1 DUP4 ADD SWAP2 PUSH1 0x1 DUP1 PUSH1 0xA0 SHL SUB SWAP4 DUP5 DUP5 SLOAD AND SWAP9 DUP10 CALLER SUB PUSH2 0x555 JUMPI PUSH8 0xFFFFFFFFFFFFFFFF SWAP3 DUP4 DUP2 AND TIMESTAMP LT PUSH2 0x529 JUMPI PUSH1 0x1 PUSH1 0x40 SHL SWAP1 PUSH1 0xFF PUSH1 0x40 SHL NOT AND OR SWAP1 SSTORE DUP7 PUSH1 0x2 DUP7 DUP4 SLOAD AND SWAP3 ADD SWAP10 PUSH1 0x44 DUP12 SLOAD SWAP2 DUP14 DUP11 MLOAD SWAP6 DUP7 SWAP5 DUP6 SWAP4 PUSH4 0xA9059CBB PUSH1 0xE0 SHL DUP6 MSTORE DUP11 DUP6 ADD MSTORE PUSH1 0x24 DUP5 ADD MSTORE GAS CALL SWAP2 DUP3 ISZERO PUSH2 0x51F JUMPI DUP11 SWAP3 PUSH2 0x4BF JUMPI JUMPDEST POP POP ISZERO PUSH2 0x489 JUMPI POP SWAP1 PUSH32 0xCF7D23A3CBE4E8B36FF82FD1B05B1B17373DC7804B4EBBD6E2356716EF202372 SWAP4 SWAP3 SWAP2 SLOAD AND SWAP5 SLOAD SWAP1 MLOAD SWAP1 DUP2 MSTORE LOG3 DUP1 RETURN JUMPDEST DUP4 MLOAD PUSH3 0x461BCD PUSH1 0xE5 SHL DUP2 MSTORE SWAP1 DUP2 ADD DUP6 SWAP1 MSTORE PUSH1 0x10 PUSH1 0x24 DUP3 ADD MSTORE PUSH16 0x131417D514905394D1915497D1905253 PUSH1 0x82 SHL PUSH1 0x44 DUP3 ADD MSTORE PUSH1 0x64 SWAP1 REVERT JUMPDEST SWAP1 SWAP2 POP DUP7 SWAP1 RETURNDATASIZE DUP9 GT PUSH2 0x517 JUMPI JUMPDEST PUSH1 0x1F DUP3 ADD PUSH1 0x1F NOT AND DUP4 ADD SWAP1 DUP2 GT DUP4 DUP3 LT OR PUSH2 0x504 JUMPI DUP8 SWAP2 DUP4 SWAP2 DUP9 MSTORE DUP2 ADD SUB SLT PUSH2 0x500 JUMPI MLOAD DUP1 ISZERO ISZERO DUP2 SUB PUSH2 0x500 JUMPI CODESIZE DUP1 PUSH2 0x44F JUMP JUMPDEST DUP9 DUP1 REVERT JUMPDEST PUSH4 0x4E487B71 PUSH1 0xE0 SHL DUP12 MSTORE PUSH1 0x41 DUP5 MSTORE PUSH1 0x24 DUP12 REVERT JUMPDEST RETURNDATASIZE SWAP2 POP PUSH2 0x4CC JUMP JUMPDEST DUP7 MLOAD RETURNDATASIZE DUP13 DUP3 RETURNDATACOPY RETURNDATASIZE SWAP1 REVERT JUMPDEST DUP8 MLOAD PUSH3 0x461BCD PUSH1 0xE5 SHL DUP2 MSTORE DUP1 DUP7 ADD DUP11 SWAP1 MSTORE PUSH1 0x6 PUSH1 0x24 DUP3 ADD MSTORE PUSH6 0x1313D0D2D151 PUSH1 0xD2 SHL PUSH1 0x44 DUP3 ADD MSTORE PUSH1 0x64 SWAP1 REVERT JUMPDEST DUP7 MLOAD PUSH3 0x461BCD PUSH1 0xE5 SHL DUP2 MSTORE DUP1 DUP6 ADD DUP10 SWAP1 MSTORE PUSH1 0xF PUSH1 0x24 DUP3 ADD MSTORE PUSH15 0x4E4F545F42454E4546494349415259 PUSH1 0x88 SHL PUSH1 0x44 DUP3 ADD MSTORE PUSH1 0x64 SWAP1 REVERT JUMPDEST DUP4 MLOAD PUSH3 0x461BCD PUSH1 0xE5 SHL DUP2 MSTORE SWAP1 DUP2 ADD DUP6 SWAP1 MSTORE PUSH1 0x7 PUSH1 0x24 DUP3 ADD MSTORE PUSH7 0x414C5245414459 PUSH1 0xC8 SHL PUSH1 0x44 DUP3 ADD MSTORE PUSH1 0x64 SWAP1 REVERT JUMPDEST DUP4 DUP1 REVERT JUMPDEST SWAP1 PUSH1 0x0 SWAP2 DUP3 SLOAD DUP2 LT ISZERO PUSH2 0x5F4 JUMPI DUP3 DUP1 MSTORE PUSH1 0x2 SHL PUSH32 0x290DECD9548B62A8D60345A988386FC84BA6BC95484008F6362F93160EF3E563 ADD SWAP2 SWAP1 JUMP JUMPDEST PUSH4 0x4E487B71 PUSH1 0xE0 SHL DUP4 MSTORE PUSH1 0x32 PUSH1 0x4 MSTORE PUSH1 0x24 DUP4 REVERT INVALID LOG2 PUSH5 0x6970667358 0x22 SLT KECCAK256 0xB9 PUSH17 0xE8CFE045731EB2AC608318C7D495102AB4 CHAINID 0xB8 POP DUP7 BALANCE 0xD5 0x21 0xBD DUP14 PC 0xB1 RETURNDATACOPY 0xEA PUSH5 0x736F6C6343 STOP ADDMOD EQ STOP CALLER "},"methodIdentifiers":{"factory()":"c45a0155","lock(address,address,uint256,uint64)":"ee3d71d2","locks(uint256)":"f4dadc61","locksCount()":"85cb7202","withdraw(uint256)":"2e1a7d4d"}}}}}