{"contracts/NeonLaunchFactory.sol":{"NeonLaunchFactory":{"abi":[{"inputs":[{"internalType":"address","name":"routerAddress","type":"address"},{"internalType":"uint256","name":"_minLiquidityWei","type":"uint256"},{"internalType":"address","name":"_treasury","type":"address"}],"stateMutability":"nonpayable","type":"constructor"},{"anonymous":false,"inputs":[{"indexed":true,"internalType":"address","name":"creator","type":"address"},{"indexed":true,"internalType":"address","name":"token","type":"address"},{"indexed":true,"internalType":"address","name":"pair","type":"address"},{"indexed":false,"internalType":"uint256","name":"totalSupply","type":"uint256"},{"indexed":false,"internalType":"uint256","name":"liquidityWei","type":"uint256"},{"indexed":false,"internalType":"uint256","name":"feeWei","type":"uint256"},{"indexed":false,"internalType":"uint256","name":"launchBlock","type":"uint256"},{"indexed":false,"internalType":"uint256","name":"protectionEndBlock","type":"uint256"},{"components":[{"internalType":"bool","name":"renounceOwnership","type":"bool"},{"internalType":"bool","name":"enableAntiBot","type":"bool"},{"internalType":"bool","name":"lpLockRequested","type":"bool"}],"indexed":false,"internalType":"struct NeonLaunchFactory.CreateOptions","name":"options","type":"tuple"}],"name":"TokenCreated","type":"event"},{"inputs":[],"name":"COOLDOWN_1TX_PER_BLOCK","outputs":[{"internalType":"bool","name":"","type":"bool"}],"stateMutability":"view","type":"function"},{"inputs":[],"name":"DEFAULT_LOCK_DAYS","outputs":[{"internalType":"uint32","name":"","type":"uint32"}],"stateMutability":"view","type":"function"},{"inputs":[],"name":"FEE1","outputs":[{"internalType":"uint256","name":"","type":"uint256"}],"stateMutability":"view","type":"function"},{"inputs":[],"name":"FEE2","outputs":[{"internalType":"uint256","name":"","type":"uint256"}],"stateMutability":"view","type":"function"},{"inputs":[],"name":"FEE3","outputs":[{"internalType":"uint256","name":"","type":"uint256"}],"stateMutability":"view","type":"function"},{"inputs":[],"name":"FEE4","outputs":[{"internalType":"uint256","name":"","type":"uint256"}],"stateMutability":"view","type":"function"},{"inputs":[],"name":"LP_TOKEN_BPS","outputs":[{"internalType":"uint16","name":"","type":"uint16"}],"stateMutability":"view","type":"function"},{"inputs":[],"name":"MAX_TX_BPS","outputs":[{"internalType":"uint16","name":"","type":"uint16"}],"stateMutability":"view","type":"function"},{"inputs":[],"name":"PROTECTION_BLOCKS","outputs":[{"internalType":"uint16","name":"","type":"uint16"}],"stateMutability":"view","type":"function"},{"inputs":[],"name":"TRADING_DELAY_BLOCKS","outputs":[{"internalType":"uint16","name":"","type":"uint16"}],"stateMutability":"view","type":"function"},{"inputs":[],"name":"WINDOW","outputs":[{"internalType":"uint256","name":"","type":"uint256"}],"stateMutability":"view","type":"function"},{"inputs":[{"internalType":"string","name":"name","type":"string"},{"internalType":"string","name":"symbol","type":"string"},{"internalType":"uint256","name":"totalSupply","type":"uint256"},{"internalType":"uint256","name":"liquidityWei","type":"uint256"},{"components":[{"internalType":"bool","name":"renounceOwnership","type":"bool"},{"internalType":"bool","name":"enableAntiBot","type":"bool"},{"internalType":"bool","name":"lpLockRequested","type":"bool"}],"internalType":"struct NeonLaunchFactory.CreateOptions","name":"options","type":"tuple"}],"name":"createToken","outputs":[{"internalType":"address","name":"token","type":"address"},{"internalType":"address","name":"pair","type":"address"},{"internalType":"uint256","name":"liquidity","type":"uint256"}],"stateMutability":"payable","type":"function"},{"inputs":[],"name":"dexFactory","outputs":[{"internalType":"contract IPancakeFactoryV2","name":"","type":"address"}],"stateMutability":"view","type":"function"},{"inputs":[{"internalType":"address","name":"user","type":"address"}],"name":"getCreateFee","outputs":[{"internalType":"uint256","name":"","type":"uint256"}],"stateMutability":"view","type":"function"},{"inputs":[{"internalType":"address","name":"user","type":"address"}],"name":"getSoftLimitState","outputs":[{"internalType":"uint64","name":"resetAt","type":"uint64"},{"internalType":"uint8","name":"count24h","type":"uint8"}],"stateMutability":"view","type":"function"},{"inputs":[],"name":"locker","outputs":[{"internalType":"contract NeonLpLocker","name":"","type":"address"}],"stateMutability":"view","type":"function"},{"inputs":[],"name":"minLiquidityWei","outputs":[{"internalType":"uint256","name":"","type":"uint256"}],"stateMutability":"view","type":"function"},{"inputs":[],"name":"router","outputs":[{"internalType":"contract IPancakeRouterV2","name":"","type":"address"}],"stateMutability":"view","type":"function"},{"inputs":[],"name":"treasury","outputs":[{"internalType":"address","name":"","type":"address"}],"stateMutability":"view","type":"function"},{"stateMutability":"payable","type":"receive"}],"evm":{"bytecode":{"linkReferences":{},"object":"61012060409080825234620002245760608162002f88803803809162000026828562000229565b83398101031262000224576200003c816200024d565b60209162000050848483015192016200024d565b916001600160a01b039081168015620001f35781841615620001c057848160049260a05287519283809263c45a015560e01b82525afa908115620001b55760009162000175575b501660c05260805260e0528151906107048083016001600160401b038111848210176200015f5783916200288483393081520301906000f0908115620001555761010091825251612621918262000263833960805182818161035a0152610edc015260a05182818161014601528181610541015281816106340152818161071d0152610766015260c05182818161028601526107d2015260e0518281816103fe0152610e500152518181816101cf015281816106960152610a2a0152f35b513d6000823e3d90fd5b634e487b7160e01b600052604160045260246000fd5b908582813d8311620001ad575b6200018e818362000229565b81010312620001aa5750620001a3906200024d565b3862000097565b80fd5b503d62000182565b86513d6000823e3d90fd5b855162461bcd60e51b815260048101869052600c60248201526b4241445f545245415355525960a01b6044820152606490fd5b855162461bcd60e51b815260048101869052600a6024820152692120a22fa927aaaa22a960b11b6044820152606490fd5b600080fd5b601f909101601f19168101906001600160401b038211908210176200015f57604052565b51906001600160a01b0382168203620002245756fe608060405260043610156200001d575b36156200001b57600080fd5b005b6000803560e01c806304e03d4c1462000f4857806324f7b3681462000f245780633a0af5821462000eff5780633b8b896d1462000ec25780635561079d1462000ea45780635653c0cd1462000e7f57806361d027b31462000e3857806374b600311462000e1a578063873289b814620002f3578063a53e541214620002d3578063af34da3c14620002b5578063b8d8fbb4146200026e578063bf3b9a72146200021d578063cc29250514620001fe578063d7b96d4e14620001b7578063ebffa67b1462000193578063f40db5ec1462000175578063f887ea40146200012e5763f9e88c5e146200010e57506200000f565b346200012b57806003193601126200012b576020604051605a8152f35b80fd5b50346200012b57806003193601126200012b576040517f00000000000000000000000000000000000000000000000000000000000000006001600160a01b03168152602090f35b50346200012b57806003193601126200012b57602060405160328152f35b50346200012b57806003193601126200012b57602060405166b1a2bc2ec500008152f35b50346200012b57806003193601126200012b576040517f00000000000000000000000000000000000000000000000000000000000000006001600160a01b03168152602090f35b50346200012b57806003193601126200012b5760206040516103e88152f35b50346200012b5760203660031901126200012b57600435906001600160a01b03821682036200012b57604060ff62000255846200101e565b6001600160401b03849392935193168352166020820152f35b50346200012b57806003193601126200012b576040517f00000000000000000000000000000000000000000000000000000000000000006001600160a01b03168152602090f35b50346200012b57806003193601126200012b57602060405160028152f35b50346200012b57806003193601126200012b576020604051620151808152f35b5060e03660031901126200012b576004356001600160401b03811162000b06576200032390369060040162000f86565b6024929192356001600160401b03811162000e16576200034890369060040162000f86565b909190606036608319011262000e12577f00000000000000000000000000000000000000000000000000000000000000006064351062000ddf5733845283602052604084209485546001600160401b038116801590811562000dd4575b5062000d92575b50620003b833620010ac565b958054600160ff8260401c160160ff811162000d7e5760ff60401b9060401b169060ff60401b1916179055606435860180871162000d6a57340362000d355784808080897f00000000000000000000000000000000000000000000000000000000000000005af13d1562000d2f573d6001600160401b03811162000d1b576040519062000450601f8201601f19166020018362000ffc565b81528660203d92013e5b1562000ce6576200046a6200115f565b1562000cde576002915b6200047e6200115f565b1562000cd6576005945b620004926200115f565b1562000ccc576032905b620004a66200115f565b1562000cc4576001925b620004ba6200116f565b9460405197886114008101106001600160401b036114008b01111762000cb05761ffff938998979695936200050c869462000523946114008d620011ec90396101606114008e0181815201916200118f565b916114008b01830360206114008d0101526200118f565b604435611400890160408101919091523360608201523060808201527f00000000000000000000000000000000000000000000000000000000000000006001600160a01b031660a08201529190961660c082015288831660e0820152911661010082015290151561012082015290151561014090910152039083f08015620009c6576001600160a01b0316916103e86044358181029391818504149015171562000c9c57604435612710840481031162000c9c5760405163a9059cbb60e01b815233600482015261271084046044803591909103602483015260209082908186895af190811562000c3c57839162000c78575b501562000c475760405163095ea7b360e01b81526001600160a01b037f00000000000000000000000000000000000000000000000000000000000000001660048201526127108404602482015260208160448186895af190811562000c3c57839162000c06575b501562000bd2576200068e6200117f565b1562000bcb577f00000000000000000000000000000000000000000000000000000000000000006001600160a01b03165b6104b04201421162000bb7576127106040519463f305d71960e01b865286600487015204602485015282604485015282606485015260018060a01b031660848401526104b0420160a484015260608360c48160643560018060a01b037f0000000000000000000000000000000000000000000000000000000000000000165af1928315620009c657829362000b7a575b506040516315ab88c960e31b8152916020836004817f00000000000000000000000000000000000000000000000000000000000000006001600160a01b03165afa92831562000ae157819362000b54575b5060405163e6a4390560e01b8152600481018690526001600160a01b03938416602482015292602090849060449082907f0000000000000000000000000000000000000000000000000000000000000000165afa92831562000ae157819362000b1c575b50843b156200012b576040516340c3fa8b60e11b81526001600160a01b03841660048201528181602481838a5af18015620009c65762000b0a575b5090843b1562000b065761ffff60405191635b3ea13360e11b8352436004840152166024820152818160448183895af18015620009c65790829162000aee575b5050604051639605ddbb60e01b815290602082600481885afa91821562000ae157819262000aa7575b50620008b36200117f565b620009d1575b620008c36200116f565b6200097c575b50604051946044358652606435602087015260408601524360608601526080850152608435801515809103620009775760a085015260a435801515809103620009775760c085015260c43593841515809503620009775760609460e08201528360018060a01b038316917f65e0e9b2fe5ddf5dd3083f368a861e6c2035c2c7fdccd6864d77cddffdab69506101003392a4604080519384526001600160a01b03919091166020840152820152f35b600080fd5b843b156200012b5760405163ce5e589d60e01b81528181600481838a5af18015620009c657620009ae575b50620008c9565b620009ba829162000fb6565b6200012b5780620009a7565b6040513d84823e3d90fd5b6276a7004201421162000a915760405163771eb8e960e11b81526001600160a01b03848116600483015233602483015260448201869052426276a700016001600160401b031660648301526020908290608490829086907f0000000000000000000000000000000000000000000000000000000000000000165af18015620009c65762000a60575b50620008b9565b602090813d831162000a89575b62000a79818362000ffc565b8101031262000977573862000a59565b503d62000a6d565b634e487b7160e01b600052601160045260246000fd5b9091506020813d60201162000ad8575b8162000ac66020938362000ffc565b810103126200097757519038620008a8565b3d915062000ab7565b50604051903d90823e3d90fd5b62000af99062000fb6565b6200012b5780386200087f565b5080fd5b62000b159062000fb6565b386200083f565b62000b4491935060203d60201162000b4c575b62000b3b818362000ffc565b810190620011ca565b913862000804565b503d62000b2f565b62000b7291935060203d60201162000b4c5762000b3b818362000ffc565b9138620007a0565b9092506060813d60601162000bae575b8162000b996060938362000ffc565b8101031262000b06576040015191386200074f565b3d915062000b8a565b634e487b7160e01b83526011600452602483fd5b33620006bf565b60405162461bcd60e51b815260206004820152600c60248201526b1054141493d59157d190525360a21b6044820152606490fd5b62000c2d915060203d60201162000c34575b62000c24818362000ffc565b810190620011b0565b386200067d565b503d62000c18565b6040513d85823e3d90fd5b60405162461bcd60e51b81526020600482015260096024820152681611915497d190525360ba1b6044820152606490fd5b62000c95915060203d60201162000c345762000c24818362000ffc565b3862000616565b634e487b7160e01b82526011600452602482fd5b634e487b7160e01b8b52604160045260248bfd5b8792620004b0565b612710906200049c565b859462000488565b849162000474565b60405162461bcd60e51b815260206004820152600d60248201526c11915157d611915497d1905253609a1b6044820152606490fd5b634e487b7160e01b87526041600452602487fd5b6200045a565b60405162461bcd60e51b815260206004820152600d60248201526c4241445f4d53475f56414c554560981b6044820152606490fd5b634e487b7160e01b86526011600452602486fd5b634e487b7160e01b88526011600452602488fd5b62015180420180421162000dc0576001600160401b03169068ffffffffffffffffff191617865538620003ac565b634e487b7160e01b87526011600452602487fd5b9050421138620003a5565b60405162461bcd60e51b815260206004820152600b60248201526a4c49515f544f4f5f4c4f5760a81b6044820152606490fd5b8380fd5b8280fd5b50346200012b57806003193601126200012b57602060405160018152f35b50346200012b57806003193601126200012b576040517f00000000000000000000000000000000000000000000000000000000000000006001600160a01b03168152602090f35b50346200012b57806003193601126200012b57602060405167016345785d8a00008152f35b50346200012b57806003193601126200012b57602060405160058152f35b50346200012b57806003193601126200012b5760206040517f00000000000000000000000000000000000000000000000000000000000000008152f35b50346200012b57806003193601126200012b5760206040516702c68af0bb1400008152f35b50346200012b57806003193601126200012b57602060405166470de4df8200008152f35b50346200012b5760203660031901126200012b57600435906001600160a01b03821682036200012b57602062000f7e83620010ac565b604051908152f35b9181601f8401121562000977578235916001600160401b0383116200097757602083818601950101116200097757565b6001600160401b03811162000fca57604052565b634e487b7160e01b600052604160045260246000fd5b604081019081106001600160401b0382111762000fca57604052565b90601f801991011681019081106001600160401b0382111762000fca57604052565b6001600160a01b03166000908152602081905260408082209051929190620010468462000fe0565b54926001600160401b039182851680835260ff602084019660401c1686521562001082578282511642116200108257509060ff91511692511690565b9350506201518042018042116200109857169190565b634e487b7160e01b84526011600452602484fd5b60018060a01b031660005260006020526040600020602060405191620010d28362000fe0565b549160ff6001600160401b0384169384835260401c16918291015290801590811562001154575b506200114b575b60ff1680156200113f5760018114620011335760021462001127576702c68af0bb14000090565b67016345785d8a000090565b5066b1a2bc2ec5000090565b5066470de4df82000090565b50600062001100565b9050421138620010f9565b60a4358015158103620009775790565b6084358015158103620009775790565b60c4358015158103620009775790565b908060209392818452848401376000828201840152601f01601f1916010190565b908160209103126200097757518015158103620009775790565b908160209103126200097757516001600160a01b038116810362000977579056fe608060405234620005495762001400803803806200001d816200054e565b92833981019061016081830312620005495780516001600160401b0381116200054957826200004e91830162000574565b602082015190926001600160401b03821162000549576200007191830162000574565b916040820151916200008660608201620005e6565b6200009460808301620005e6565b93620000a360a08401620005e6565b620000b160c08501620005fb565b95620000c060e08601620005fb565b50620000d06101008601620005fb565b95620000ef610140620000e761012089016200060b565b97016200060b565b600080546001600160a01b0319166001600160a01b0390971696871781559095907f8be0079c531659141344cd1fd0a4f28419497f9722a3daafe3b4186f6b6457e08180a38051906001600160401b0382116200043d5760015490600182811c921680156200053e575b60208310146200041c5781601f849311620004dd575b50602090601f83116001146200045f5760009262000453575b50508160011b916000199060031b1c1916176001555b87516001600160401b0381116200043d57600254600181811c9116801562000432575b60208210146200041c57601f8111620003b2575b506020601f82116001146200032557926020928260009693600080516020620013c08339815191529663ffff00009b9c9d899262000319575b50508160011b9188199060031b1c1916176002555b600d80546001600160a01b0319166001600160a01b03928316908117909155600e80546001600160a81b031916939092169290921796151560a01b60ff60a01b16969096179095556003546200027b90829062000619565b60035584845260048252604084206200029682825462000619565b9055604051908152a361ffff64ff0000000060085492151560201b1694169064ffffffffff1916179160101b16171760085560018060a01b03600d54166000526009602052604060002060ff199060018282541617905560018060a01b03600e54166000526001604060002091825416179055604051610d8290816200063e8239f35b0151905038806200020e565b600260005260206000209960005b601f19841681106200039957509260018363ffff00009a9b9c600080516020620013c0833981519152979460209760009a97601f1981161062000380575b505050811b0160025562000223565b0151891960f88460031b161c1916905538808062000371565b828201518c556001909b019a6020928301920162000333565b60026000527f405787fa12a823e0f2b7631cc41b3ba8828b3321ca811111fa75cd3aa3bb5ace601f830160051c8101916020841062000411575b601f0160051c01905b818110620004045750620001d5565b60008155600101620003f5565b9091508190620003ec565b634e487b7160e01b600052602260045260246000fd5b90607f1690620001c1565b634e487b7160e01b600052604160045260246000fd5b01519050388062000188565b600160009081529350600080516020620013e083398151915291905b601f1984168510620004c1576001945083601f19811610620004a7575b505050811b016001556200019e565b015160001960f88460031b161c1916905538808062000498565b818101518355602094850194600190930192909101906200047b565b6001600052909150600080516020620013e0833981519152601f840160051c81016020851062000536575b90849392915b601f830160051c82018110620005265750506200016f565b600081558594506001016200050e565b508062000508565b91607f169162000159565b600080fd5b6040519190601f01601f191682016001600160401b038111838210176200043d57604052565b919080601f84011215620005495782516001600160401b0381116200043d57602090620005aa601f8201601f191683016200054e565b92818452828287010111620005495760005b818110620005d257508260009394955001015290565b8581018301518482018401528201620005bc565b51906001600160a01b03821682036200054957565b519061ffff821682036200054957565b519081151582036200054957565b919082018092116200062757565b634e487b7160e01b600052601160045260246000fdfe608060408181526004918236101561001657600080fd5b600092833560e01c91826306fdde031461090b57508163095ea7b31461089a57816318160ddd1461087b5781631f94957a1461085457816323b872dd146107ae578163313ce567146107925783826342966c6814610710575081636760e74c146106ed57816370a08231146106b7578163715018a61461065b5781638187f516146105b35781638712523e1461057b5781638da5cb5b1461055357816395d89b41146104325781639605ddbb146104135781639ebaa1c3146103ee578163a8aa1b31146103c5578163a9059cbb14610394578163ad5dff7314610356578163b0249cc614610318578163b67d4266146102ab578163c45a015514610282578163ce5e589d1461020657508063d00efb2f146101e8578063dd62ed3e146101a0578063f887ea40146101785763ff8ea3e51461015057600080fd5b3461017457816003193601126101745760209061ffff60085460101c169051908152f35b5080fd5b5034610174578160031936011261017457600e5490516001600160a01b039091168152602090f35b5034610174578060031936011261017457806020926101bd610a2b565b6101c5610a46565b6001600160a01b0391821683526005865283832091168252845220549051908152f35b50346101745781600319360112610174576020906006549051908152f35b9190503461027e578260031936011261027e57600d546001600160a01b031633148061026f575b1561023e578261023b610a5c565b80f35b906020606492519162461bcd60e51b8352820152600b60248201526a1393d517d0531313d5d15160aa1b6044820152fd5b5060ff600e5460a01c1661022d565b8280fd5b505034610174578160031936011261017457600d5490516001600160a01b039091168152602090f35b9190503461027e57366003190112610174573560243561ffff808216809203610314576102e360018060a01b03600d54163314610a9c565b600654156102ef578380f35b826103059161030a946006556008541690610ad6565b610ad6565b6007553880808380f35b8380fd5b5050346101745760203660031901126101745760209160ff9082906001600160a01b03610343610a2b565b168152600c855220541690519015158152f35b5050346101745760203660031901126101745760209160ff9082906001600160a01b03610381610a2b565b1681526009855220541690519015158152f35b5050346101745780600319360112610174576020906103be6103b4610a2b565b6024359033610b3c565b5160018152f35b505034610174578160031936011261017457600b5490516001600160a01b039091168152602090f35b5050346101745781600319360112610174576008549051602091821c60ff1615158152f35b5050346101745781600319360112610174576020906007549051908152f35b83833461017457816003193601126101745780519082600254600181811c90808316928315610549575b60209384841081146105365783885290811561051a57506001146104c4575b505050829003601f01601f191682019267ffffffffffffffff8411838510176104b157508291826104ad9252826109e2565b0390f35b634e487b7160e01b815260418552602490fd5b600287529192508591837f405787fa12a823e0f2b7631cc41b3ba8828b3321ca811111fa75cd3aa3bb5ace5b838510610506575050505083010185808061047b565b8054888601830152930192849082016104f0565b60ff1916878501525050151560051b840101905085808061047b565b634e487b7160e01b895260228a52602489fd5b91607f169161045c565b505034610174578160031936011261017457905490516001600160a01b039091168152602090f35b5050346101745760203660031901126101745760209181906001600160a01b036105a3610a2b565b168152600a845220549051908152f35b90503461027e57602036600319011261027e576105ce610a2b565b600d546001600160a01b039182916105e99083163314610a9c565b1691821561062d5750600b548291811615610618575b50508252600c6020528120805460ff1916600117905580f35b6001600160a01b03191617600b5580386105ff565b606490602085519162461bcd60e51b835282015260086024820152672120a22fa820a4a960c11b6044820152fd5b9190503461027e578260031936011261027e5782546001600160a01b03163303610688578261023b610a5c565b906020606492519162461bcd60e51b835282015260096024820152682727aa2fa7aba722a960b91b6044820152fd5b90503461027e57602036600319011261027e5760209282916001600160a01b036106df610a2b565b168252845220549051908152f35b50503461017457816003193601126101745760209061ffff600854169051908152f35b8091843461078e57602036600319011261078e5781359133845280602052610747838386205461074282821015610b06565b610af9565b903385526020528184205561075e82600354610af9565b600355519081527fddf252ad1be2c89b69c2b068fc378daa952ba7f163c4a11628f55a4df523b3ef60203392a380f35b5050fd5b5050346101745781600319360112610174576020905160128152f35b9190503461027e57606036600319011261027e576107ca610a2b565b6107d2610a46565b6044359160018060a01b038116808752602095600587528588203389528752858820549085821061082557509480969761080f866103be98610af9565b9281526005895281812033825289522055610b3c565b865162461bcd60e51b81529081018890526009602482015268414c4c4f57414e434560b81b6044820152606490fd5b50503461017457816003193601126101745760209060ff600e5460a01c1690519015158152f35b5050346101745781600319360112610174576020906003549051908152f35b505034610174578060031936011261017457602091816108b8610a2b565b91602435918291338152600587528181209460018060a01b0316948582528752205582519081527f8c5be1e5ebec7d5bd14f71427d1e84f3dd0314c0f7b2291e5b200ac8c7c3b925843392a35160018152f35b8490843461027e578260031936011261027e5782600180549081811c908083169283156109d8575b60209384841081146105365783885290811561051a575060011461098357505050829003601f01601f191682019267ffffffffffffffff8411838510176104b157508291826104ad9252826109e2565b8087529192508591837fb10e2d527612073b26eecdfd717e6a320cf44b4afac2b0732d9fcbe2b7fa0cf65b8385106109c4575050505083010185808061047b565b8054888601830152930192849082016109ae565b91607f1691610933565b6020808252825181830181905290939260005b828110610a1757505060409293506000838284010152601f8019910116010190565b8181018601518482016040015285016109f5565b600435906001600160a01b0382168203610a4157565b600080fd5b602435906001600160a01b0382168203610a4157565b600080546001600160a01b0319811682556001600160a01b03167f8be0079c531659141344cd1fd0a4f28419497f9722a3daafe3b4186f6b6457e08280a3565b15610aa357565b60405162461bcd60e51b815260206004820152600b60248201526a4e4f545f464143544f525960a81b6044820152606490fd5b91908201809211610ae357565b634e487b7160e01b600052601160045260246000fd5b91908203918211610ae357565b15610b0d57565b60405162461bcd60e51b815260206004820152600760248201526642414c414e434560c81b6044820152606490fd5b6001600160a01b03939284831692908315610d1b57858316926000848152600497602094898652604093610b7586868620541015610b06565b8784526009875260ff85852054161580610d0a575b610be9575b50505080859697987fddf252ad1be2c89b69c2b068fc378daa952ba7f163c4a11628f55a4df523b3ef96849352808652828220610bcd868254610af9565b9055888252855220610be0838254610ad6565b905551908152a3565b6006548015610cfa5760085490610c0661ffff9182841690610ad6565b431115610cea57600754431115610c1f575b5050610b8f565b600354908260101c1690818102918183041490151715610cd75761271090048711610cc757871c60ff16610c55575b8080610c18565b878452600c87528484205460ff1615610cc057505b16808252600a8552438383205414610cb0578152600a8452818120439055807fddf252ad1be2c89b69c2b068fc378daa952ba7f163c4a11628f55a4df523b3ef83610c4e565b825163aa9a98df60e01b81528990fd5b9050610c6a565b8551634d22aedf60e11b81528c90fd5b634e487b7160e01b865260118d52602486fd5b8651637b85e8b960e01b81528d90fd5b85516312f1f92360e01b81528c90fd5b5088845260ff858520541615610b8a565b60405162461bcd60e51b81526020600482015260096024820152682d22a927afa0a2222960b91b6044820152606490fdfea26469706673582212202e5e4204b494241177e46c5a1bd91335d292d71619c939f6016b84a732d3f54564736f6c63430008140033ddf252ad1be2c89b69c2b068fc378daa952ba7f163c4a11628f55a4df523b3efb10e2d527612073b26eecdfd717e6a320cf44b4afac2b0732d9fcbe2b7fa0cf6a26469706673582212209a9306971007cf7f1cc9b8fb84ef1304795865e15d340e58fe43b2f551c8043c64736f6c6343000814003360a0346100aa57601f61070438819003918201601f19168301916001600160401b038311848410176100af578084926020946040528339810103126100aa57516001600160a01b0381168082036100aa57156100775760805260405161063e90816100c6823960805181818161012801526103560152f35b60405162461bcd60e51b815260206004820152600b60248201526a4241445f464143544f525960a81b6044820152606490fd5b600080fd5b634e487b7160e01b600052604160045260246000fdfe6040608081526004908136101561001557600080fd5b600091823560e01c80632e1a7d4d146103a657806385cb720214610389578063c45a015514610341578063ee3d71d2146100d15763f4dadc611461005857600080fd5b346100cd5760203660031901126100cd57359180548310156100ca575060ff61008260a0936105bb565b50600180851b03928382541693600183015416916003600282015491015492825195865260208601528185015267ffffffffffffffff821660608501521c1615156080820152f35b80fd5b8280fd5b5090346100cd5760803660031901126100cd576001600160a01b0382358181169081900361033d5760249182359281841680940361033957604435966064359267ffffffffffffffff908185168095036100cd57807f00000000000000000000000000000000000000000000000000000000000000001633036103095785151580610300575b156102d15789156102a35787519160a083018381108282111761029157895286835260208301928884528981018c8152606082019488865260808301948786528754600160401b81101561027f578060016101b492018a556105bb565b94909461026e5790806003959493925116906bffffffffffffffffffffffff60a01b918286541617855560018501925116908254161790555160028201550192511660ff60401b8354925115158a1b169168ffffffffffffffffff191617179055805496600019880197881161025e575050507f8304b8c1ad220f367b10eb7062c3c2e5d5568a59cad020b216ff3d168766af17846020978793825191825289820152a451908152f35b634e487b7160e01b825260119052fd5b634e487b7160e01b8952888f528989fd5b634e487b7160e01b895260418f528989fd5b634e487b7160e01b855260418b528585fd5b875162461bcd60e51b81526020818b0152600981860152681393d7d05353d5539560ba1b6044820152606490fd5b875162461bcd60e51b81526020818b0152600a81860152694241445f504152414d5360b01b6044820152606490fd5b50861515610157565b875162461bcd60e51b81526020818b0152600b818601526a4e4f545f464143544f525960a81b6044820152606490fd5b8680fd5b8480fd5b505034610385578160031936011261038557517f00000000000000000000000000000000000000000000000000000000000000006001600160a01b03168152602090f35b5080fd5b505034610385578160031936011261038557602091549051908152f35b5090346100cd576020806003193601126105b7578235916103c6836105bb565b50600381019485549060ff82851c1661058a57600183019160018060a01b039384845416988933036105555767ffffffffffffffff92838116421061052957600160401b9060ff60401b19161790558660028683541692019960448b54918d8a51958694859363a9059cbb60e01b85528a85015260248401525af191821561051f578a926104bf575b5050156104895750907fcf7d23a3cbe4e8b36ff82fd1b05b1b17373dc7804b4ebbd6e2356716ef202372939291541694549051908152a380f35b835162461bcd60e51b8152908101859052601060248201526f131417d514905394d1915497d190525360821b6044820152606490fd5b90915086903d8811610517575b601f8201601f191683019081118382101761050457879183918852810103126105005751801515810361050057388061044f565b8880fd5b634e487b7160e01b8b526041845260248bfd5b3d91506104cc565b86513d8c823e3d90fd5b875162461bcd60e51b81528086018a905260066024820152651313d0d2d15160d21b6044820152606490fd5b865162461bcd60e51b8152808501899052600f60248201526e4e4f545f42454e454649434941525960881b6044820152606490fd5b835162461bcd60e51b81529081018590526007602482015266414c524541445960c81b6044820152606490fd5b8380fd5b9060009182548110156105f45782805260021b7f290decd9548b62a8d60345a988386fc84ba6bc95484008f6362f93160ef3e563019190565b634e487b7160e01b83526032600452602483fdfea2646970667358221220b970e8cfe045731eb2ac608318c7d495102ab446b8508631d521bd8d58b13eea64736f6c63430008140033","opcodes":"PUSH2 0x120 PUSH1 0x40 SWAP1 DUP1 DUP3 MSTORE CALLVALUE PUSH3 0x224 JUMPI PUSH1 0x60 DUP2 PUSH3 0x2F88 DUP1 CODESIZE SUB DUP1 SWAP2 PUSH3 0x26 DUP3 DUP6 PUSH3 0x229 JUMP JUMPDEST DUP4 CODECOPY DUP2 ADD SUB SLT PUSH3 0x224 JUMPI PUSH3 0x3C DUP2 PUSH3 0x24D JUMP JUMPDEST PUSH1 0x20 SWAP2 PUSH3 0x50 DUP5 DUP5 DUP4 ADD MLOAD SWAP3 ADD PUSH3 0x24D JUMP JUMPDEST SWAP2 PUSH1 0x1 PUSH1 0x1 PUSH1 0xA0 SHL SUB SWAP1 DUP2 AND DUP1 ISZERO PUSH3 0x1F3 JUMPI DUP2 DUP5 AND ISZERO PUSH3 0x1C0 JUMPI DUP5 DUP2 PUSH1 0x4 SWAP3 PUSH1 0xA0 MSTORE DUP8 MLOAD SWAP3 DUP4 DUP1 SWAP3 PUSH4 0xC45A0155 PUSH1 0xE0 SHL DUP3 MSTORE GAS STATICCALL SWAP1 DUP2 ISZERO PUSH3 0x1B5 JUMPI PUSH1 0x0 SWAP2 PUSH3 0x175 JUMPI JUMPDEST POP AND PUSH1 0xC0 MSTORE PUSH1 0x80 MSTORE PUSH1 0xE0 MSTORE DUP2 MLOAD SWAP1 PUSH2 0x704 DUP1 DUP4 ADD PUSH1 0x1 PUSH1 0x1 PUSH1 0x40 SHL SUB DUP2 GT DUP5 DUP3 LT OR PUSH3 0x15F JUMPI DUP4 SWAP2 PUSH3 0x2884 DUP4 CODECOPY ADDRESS DUP2 MSTORE SUB ADD SWAP1 PUSH1 0x0 CREATE SWAP1 DUP2 ISZERO PUSH3 0x155 JUMPI PUSH2 0x100 SWAP2 DUP3 MSTORE MLOAD PUSH2 0x2621 SWAP2 DUP3 PUSH3 0x263 DUP4 CODECOPY PUSH1 0x80 MLOAD DUP3 DUP2 DUP2 PUSH2 0x35A ADD MSTORE PUSH2 0xEDC ADD MSTORE PUSH1 0xA0 MLOAD DUP3 DUP2 DUP2 PUSH2 0x146 ADD MSTORE DUP2 DUP2 PUSH2 0x541 ADD MSTORE DUP2 DUP2 PUSH2 0x634 ADD MSTORE DUP2 DUP2 PUSH2 0x71D ADD MSTORE PUSH2 0x766 ADD MSTORE PUSH1 0xC0 MLOAD DUP3 DUP2 DUP2 PUSH2 0x286 ADD MSTORE PUSH2 0x7D2 ADD MSTORE PUSH1 0xE0 MLOAD DUP3 DUP2 DUP2 PUSH2 0x3FE ADD MSTORE PUSH2 0xE50 ADD MSTORE MLOAD DUP2 DUP2 DUP2 PUSH2 0x1CF ADD MSTORE DUP2 DUP2 PUSH2 0x696 ADD MSTORE PUSH2 0xA2A ADD MSTORE RETURN JUMPDEST MLOAD RETURNDATASIZE PUSH1 0x0 DUP3 RETURNDATACOPY RETURNDATASIZE SWAP1 REVERT JUMPDEST PUSH4 0x4E487B71 PUSH1 0xE0 SHL PUSH1 0x0 MSTORE PUSH1 0x41 PUSH1 0x4 MSTORE PUSH1 0x24 PUSH1 0x0 REVERT JUMPDEST SWAP1 DUP6 DUP3 DUP2 RETURNDATASIZE DUP4 GT PUSH3 0x1AD JUMPI JUMPDEST PUSH3 0x18E DUP2 DUP4 PUSH3 0x229 JUMP JUMPDEST DUP2 ADD SUB SLT PUSH3 0x1AA JUMPI POP PUSH3 0x1A3 SWAP1 PUSH3 0x24D JUMP JUMPDEST CODESIZE PUSH3 0x97 JUMP JUMPDEST DUP1 REVERT JUMPDEST POP RETURNDATASIZE PUSH3 0x182 JUMP JUMPDEST DUP7 MLOAD RETURNDATASIZE PUSH1 0x0 DUP3 RETURNDATACOPY RETURNDATASIZE SWAP1 REVERT JUMPDEST DUP6 MLOAD PUSH3 0x461BCD PUSH1 0xE5 SHL DUP2 MSTORE PUSH1 0x4 DUP2 ADD DUP7 SWAP1 MSTORE PUSH1 0xC PUSH1 0x24 DUP3 ADD MSTORE PUSH12 0x4241445F5452454153555259 PUSH1 0xA0 SHL PUSH1 0x44 DUP3 ADD MSTORE PUSH1 0x64 SWAP1 REVERT JUMPDEST DUP6 MLOAD PUSH3 0x461BCD PUSH1 0xE5 SHL DUP2 MSTORE PUSH1 0x4 DUP2 ADD DUP7 SWAP1 MSTORE PUSH1 0xA PUSH1 0x24 DUP3 ADD MSTORE PUSH10 0x2120A22FA927AAAA22A9 PUSH1 0xB1 SHL PUSH1 0x44 DUP3 ADD MSTORE PUSH1 0x64 SWAP1 REVERT JUMPDEST PUSH1 0x0 DUP1 REVERT JUMPDEST PUSH1 0x1F SWAP1 SWAP2 ADD PUSH1 0x1F NOT AND DUP2 ADD SWAP1 PUSH1 0x1 PUSH1 0x1 PUSH1 0x40 SHL SUB DUP3 GT SWAP1 DUP3 LT OR PUSH3 0x15F JUMPI PUSH1 0x40 MSTORE JUMP JUMPDEST MLOAD SWAP1 PUSH1 0x1 PUSH1 0x1 PUSH1 0xA0 SHL SUB DUP3 AND DUP3 SUB PUSH3 0x224 JUMPI JUMP INVALID PUSH1 0x80 PUSH1 0x40 MSTORE PUSH1 0x4 CALLDATASIZE LT ISZERO PUSH3 0x1D JUMPI JUMPDEST CALLDATASIZE ISZERO PUSH3 0x1B JUMPI PUSH1 0x0 DUP1 REVERT JUMPDEST STOP JUMPDEST PUSH1 0x0 DUP1 CALLDATALOAD PUSH1 0xE0 SHR DUP1 PUSH4 0x4E03D4C EQ PUSH3 0xF48 JUMPI DUP1 PUSH4 0x24F7B368 EQ PUSH3 0xF24 JUMPI DUP1 PUSH4 0x3A0AF582 EQ PUSH3 0xEFF JUMPI DUP1 PUSH4 0x3B8B896D EQ PUSH3 0xEC2 JUMPI DUP1 PUSH4 0x5561079D EQ PUSH3 0xEA4 JUMPI DUP1 PUSH4 0x5653C0CD EQ PUSH3 0xE7F JUMPI DUP1 PUSH4 0x61D027B3 EQ PUSH3 0xE38 JUMPI DUP1 PUSH4 0x74B60031 EQ PUSH3 0xE1A JUMPI DUP1 PUSH4 0x873289B8 EQ PUSH3 0x2F3 JUMPI DUP1 PUSH4 0xA53E5412 EQ PUSH3 0x2D3 JUMPI DUP1 PUSH4 0xAF34DA3C EQ PUSH3 0x2B5 JUMPI DUP1 PUSH4 0xB8D8FBB4 EQ PUSH3 0x26E JUMPI DUP1 PUSH4 0xBF3B9A72 EQ PUSH3 0x21D JUMPI DUP1 PUSH4 0xCC292505 EQ PUSH3 0x1FE JUMPI DUP1 PUSH4 0xD7B96D4E EQ PUSH3 0x1B7 JUMPI DUP1 PUSH4 0xEBFFA67B EQ PUSH3 0x193 JUMPI DUP1 PUSH4 0xF40DB5EC EQ PUSH3 0x175 JUMPI DUP1 PUSH4 0xF887EA40 EQ PUSH3 0x12E JUMPI PUSH4 0xF9E88C5E EQ PUSH3 0x10E JUMPI POP PUSH3 0xF JUMP JUMPDEST CALLVALUE PUSH3 0x12B JUMPI DUP1 PUSH1 0x3 NOT CALLDATASIZE ADD SLT PUSH3 0x12B JUMPI PUSH1 0x20 PUSH1 0x40 MLOAD PUSH1 0x5A DUP2 MSTORE RETURN JUMPDEST DUP1 REVERT JUMPDEST POP CALLVALUE PUSH3 0x12B JUMPI DUP1 PUSH1 0x3 NOT CALLDATASIZE ADD SLT PUSH3 0x12B JUMPI PUSH1 0x40 MLOAD PUSH32 0x0 PUSH1 0x1 PUSH1 0x1 PUSH1 0xA0 SHL SUB AND DUP2 MSTORE PUSH1 0x20 SWAP1 RETURN JUMPDEST POP CALLVALUE PUSH3 0x12B JUMPI DUP1 PUSH1 0x3 NOT CALLDATASIZE ADD SLT PUSH3 0x12B JUMPI PUSH1 0x20 PUSH1 0x40 MLOAD PUSH1 0x32 DUP2 MSTORE RETURN JUMPDEST POP CALLVALUE PUSH3 0x12B JUMPI DUP1 PUSH1 0x3 NOT CALLDATASIZE ADD SLT PUSH3 0x12B JUMPI PUSH1 0x20 PUSH1 0x40 MLOAD PUSH7 0xB1A2BC2EC50000 DUP2 MSTORE RETURN JUMPDEST POP CALLVALUE PUSH3 0x12B JUMPI DUP1 PUSH1 0x3 NOT CALLDATASIZE ADD SLT PUSH3 0x12B JUMPI PUSH1 0x40 MLOAD PUSH32 0x0 PUSH1 0x1 PUSH1 0x1 PUSH1 0xA0 SHL SUB AND DUP2 MSTORE PUSH1 0x20 SWAP1 RETURN JUMPDEST POP CALLVALUE PUSH3 0x12B JUMPI DUP1 PUSH1 0x3 NOT CALLDATASIZE ADD SLT PUSH3 0x12B JUMPI PUSH1 0x20 PUSH1 0x40 MLOAD PUSH2 0x3E8 DUP2 MSTORE RETURN JUMPDEST POP CALLVALUE PUSH3 0x12B JUMPI PUSH1 0x20 CALLDATASIZE PUSH1 0x3 NOT ADD SLT PUSH3 0x12B JUMPI PUSH1 0x4 CALLDATALOAD SWAP1 PUSH1 0x1 PUSH1 0x1 PUSH1 0xA0 SHL SUB DUP3 AND DUP3 SUB PUSH3 0x12B JUMPI PUSH1 0x40 PUSH1 0xFF PUSH3 0x255 DUP5 PUSH3 0x101E JUMP JUMPDEST PUSH1 0x1 PUSH1 0x1 PUSH1 0x40 SHL SUB DUP5 SWAP4 SWAP3 SWAP4 MLOAD SWAP4 AND DUP4 MSTORE AND PUSH1 0x20 DUP3 ADD MSTORE RETURN JUMPDEST POP CALLVALUE PUSH3 0x12B JUMPI DUP1 PUSH1 0x3 NOT CALLDATASIZE ADD SLT PUSH3 0x12B JUMPI PUSH1 0x40 MLOAD PUSH32 0x0 PUSH1 0x1 PUSH1 0x1 PUSH1 0xA0 SHL SUB AND DUP2 MSTORE PUSH1 0x20 SWAP1 RETURN JUMPDEST POP CALLVALUE PUSH3 0x12B JUMPI DUP1 PUSH1 0x3 NOT CALLDATASIZE ADD SLT PUSH3 0x12B JUMPI PUSH1 0x20 PUSH1 0x40 MLOAD PUSH1 0x2 DUP2 MSTORE RETURN JUMPDEST POP CALLVALUE PUSH3 0x12B JUMPI DUP1 PUSH1 0x3 NOT CALLDATASIZE ADD SLT PUSH3 0x12B JUMPI PUSH1 0x20 PUSH1 0x40 MLOAD PUSH3 0x15180 DUP2 MSTORE RETURN JUMPDEST POP PUSH1 0xE0 CALLDATASIZE PUSH1 0x3 NOT ADD SLT PUSH3 0x12B JUMPI PUSH1 0x4 CALLDATALOAD PUSH1 0x1 PUSH1 0x1 PUSH1 0x40 SHL SUB DUP2 GT PUSH3 0xB06 JUMPI PUSH3 0x323 SWAP1 CALLDATASIZE SWAP1 PUSH1 0x4 ADD PUSH3 0xF86 JUMP JUMPDEST PUSH1 0x24 SWAP3 SWAP2 SWAP3 CALLDATALOAD PUSH1 0x1 PUSH1 0x1 PUSH1 0x40 SHL SUB DUP2 GT PUSH3 0xE16 JUMPI PUSH3 0x348 SWAP1 CALLDATASIZE SWAP1 PUSH1 0x4 ADD PUSH3 0xF86 JUMP JUMPDEST SWAP1 SWAP2 SWAP1 PUSH1 0x60 CALLDATASIZE PUSH1 0x83 NOT ADD SLT PUSH3 0xE12 JUMPI PUSH32 0x0 PUSH1 0x64 CALLDATALOAD LT PUSH3 0xDDF JUMPI CALLER DUP5 MSTORE DUP4 PUSH1 0x20 MSTORE PUSH1 0x40 DUP5 KECCAK256 SWAP5 DUP6 SLOAD PUSH1 0x1 PUSH1 0x1 PUSH1 0x40 SHL SUB DUP2 AND DUP1 ISZERO SWAP1 DUP2 ISZERO PUSH3 0xDD4 JUMPI JUMPDEST POP PUSH3 0xD92 JUMPI JUMPDEST POP PUSH3 0x3B8 CALLER PUSH3 0x10AC JUMP JUMPDEST SWAP6 DUP1 SLOAD PUSH1 0x1 PUSH1 0xFF DUP3 PUSH1 0x40 SHR AND ADD PUSH1 0xFF DUP2 GT PUSH3 0xD7E JUMPI PUSH1 0xFF PUSH1 0x40 SHL SWAP1 PUSH1 0x40 SHL AND SWAP1 PUSH1 0xFF PUSH1 0x40 SHL NOT AND OR SWAP1 SSTORE PUSH1 0x64 CALLDATALOAD DUP7 ADD DUP1 DUP8 GT PUSH3 0xD6A JUMPI CALLVALUE SUB PUSH3 0xD35 JUMPI DUP5 DUP1 DUP1 DUP1 DUP10 PUSH32 0x0 GAS CALL RETURNDATASIZE ISZERO PUSH3 0xD2F JUMPI RETURNDATASIZE PUSH1 0x1 PUSH1 0x1 PUSH1 0x40 SHL SUB DUP2 GT PUSH3 0xD1B JUMPI PUSH1 0x40 MLOAD SWAP1 PUSH3 0x450 PUSH1 0x1F DUP3 ADD PUSH1 0x1F NOT AND PUSH1 0x20 ADD DUP4 PUSH3 0xFFC JUMP JUMPDEST DUP2 MSTORE DUP7 PUSH1 0x20 RETURNDATASIZE SWAP3 ADD RETURNDATACOPY JUMPDEST ISZERO PUSH3 0xCE6 JUMPI PUSH3 0x46A PUSH3 0x115F JUMP JUMPDEST ISZERO PUSH3 0xCDE JUMPI PUSH1 0x2 SWAP2 JUMPDEST PUSH3 0x47E PUSH3 0x115F JUMP JUMPDEST ISZERO PUSH3 0xCD6 JUMPI PUSH1 0x5 SWAP5 JUMPDEST PUSH3 0x492 PUSH3 0x115F JUMP JUMPDEST ISZERO PUSH3 0xCCC JUMPI PUSH1 0x32 SWAP1 JUMPDEST PUSH3 0x4A6 PUSH3 0x115F JUMP JUMPDEST ISZERO PUSH3 0xCC4 JUMPI PUSH1 0x1 SWAP3 JUMPDEST PUSH3 0x4BA PUSH3 0x116F JUMP JUMPDEST SWAP5 PUSH1 0x40 MLOAD SWAP8 DUP9 PUSH2 0x1400 DUP2 ADD LT PUSH1 0x1 PUSH1 0x1 PUSH1 0x40 SHL SUB PUSH2 0x1400 DUP12 ADD GT OR PUSH3 0xCB0 JUMPI PUSH2 0xFFFF SWAP4 DUP10 SWAP9 SWAP8 SWAP7 SWAP6 SWAP4 PUSH3 0x50C DUP7 SWAP5 PUSH3 0x523 SWAP5 PUSH2 0x1400 DUP14 PUSH3 0x11EC SWAP1 CODECOPY PUSH2 0x160 PUSH2 0x1400 DUP15 ADD DUP2 DUP2 MSTORE ADD SWAP2 PUSH3 0x118F JUMP JUMPDEST SWAP2 PUSH2 0x1400 DUP12 ADD DUP4 SUB PUSH1 0x20 PUSH2 0x1400 DUP14 ADD ADD MSTORE PUSH3 0x118F JUMP JUMPDEST PUSH1 0x44 CALLDATALOAD PUSH2 0x1400 DUP10 ADD PUSH1 0x40 DUP2 ADD SWAP2 SWAP1 SWAP2 MSTORE CALLER PUSH1 0x60 DUP3 ADD MSTORE ADDRESS PUSH1 0x80 DUP3 ADD MSTORE PUSH32 0x0 PUSH1 0x1 PUSH1 0x1 PUSH1 0xA0 SHL SUB AND PUSH1 0xA0 DUP3 ADD MSTORE SWAP2 SWAP1 SWAP7 AND PUSH1 0xC0 DUP3 ADD MSTORE DUP9 DUP4 AND PUSH1 0xE0 DUP3 ADD MSTORE SWAP2 AND PUSH2 0x100 DUP3 ADD MSTORE SWAP1 ISZERO ISZERO PUSH2 0x120 DUP3 ADD MSTORE SWAP1 ISZERO ISZERO PUSH2 0x140 SWAP1 SWAP2 ADD MSTORE SUB SWAP1 DUP4 CREATE DUP1 ISZERO PUSH3 0x9C6 JUMPI PUSH1 0x1 PUSH1 0x1 PUSH1 0xA0 SHL SUB AND SWAP2 PUSH2 0x3E8 PUSH1 0x44 CALLDATALOAD DUP2 DUP2 MUL SWAP4 SWAP2 DUP2 DUP6 DIV EQ SWAP1 ISZERO OR ISZERO PUSH3 0xC9C JUMPI PUSH1 0x44 CALLDATALOAD PUSH2 0x2710 DUP5 DIV DUP2 SUB GT PUSH3 0xC9C JUMPI PUSH1 0x40 MLOAD PUSH4 0xA9059CBB PUSH1 0xE0 SHL DUP2 MSTORE CALLER PUSH1 0x4 DUP3 ADD MSTORE PUSH2 0x2710 DUP5 DIV PUSH1 0x44 DUP1 CALLDATALOAD SWAP2 SWAP1 SWAP2 SUB PUSH1 0x24 DUP4 ADD MSTORE PUSH1 0x20 SWAP1 DUP3 SWAP1 DUP2 DUP7 DUP10 GAS CALL SWAP1 DUP2 ISZERO PUSH3 0xC3C JUMPI DUP4 SWAP2 PUSH3 0xC78 JUMPI JUMPDEST POP ISZERO PUSH3 0xC47 JUMPI PUSH1 0x40 MLOAD PUSH4 0x95EA7B3 PUSH1 0xE0 SHL DUP2 MSTORE PUSH1 0x1 PUSH1 0x1 PUSH1 0xA0 SHL SUB PUSH32 0x0 AND PUSH1 0x4 DUP3 ADD MSTORE PUSH2 0x2710 DUP5 DIV PUSH1 0x24 DUP3 ADD MSTORE PUSH1 0x20 DUP2 PUSH1 0x44 DUP2 DUP7 DUP10 GAS CALL SWAP1 DUP2 ISZERO PUSH3 0xC3C JUMPI DUP4 SWAP2 PUSH3 0xC06 JUMPI JUMPDEST POP ISZERO PUSH3 0xBD2 JUMPI PUSH3 0x68E PUSH3 0x117F JUMP JUMPDEST ISZERO PUSH3 0xBCB JUMPI PUSH32 0x0 PUSH1 0x1 PUSH1 0x1 PUSH1 0xA0 SHL SUB AND JUMPDEST PUSH2 0x4B0 TIMESTAMP ADD TIMESTAMP GT PUSH3 0xBB7 JUMPI PUSH2 0x2710 PUSH1 0x40 MLOAD SWAP5 PUSH4 0xF305D719 PUSH1 0xE0 SHL DUP7 MSTORE DUP7 PUSH1 0x4 DUP8 ADD MSTORE DIV PUSH1 0x24 DUP6 ADD MSTORE DUP3 PUSH1 0x44 DUP6 ADD MSTORE DUP3 PUSH1 0x64 DUP6 ADD MSTORE PUSH1 0x1 DUP1 PUSH1 0xA0 SHL SUB AND PUSH1 0x84 DUP5 ADD MSTORE PUSH2 0x4B0 TIMESTAMP ADD PUSH1 0xA4 DUP5 ADD MSTORE PUSH1 0x60 DUP4 PUSH1 0xC4 DUP2 PUSH1 0x64 CALLDATALOAD PUSH1 0x1 DUP1 PUSH1 0xA0 SHL SUB PUSH32 0x0 AND GAS CALL SWAP3 DUP4 ISZERO PUSH3 0x9C6 JUMPI DUP3 SWAP4 PUSH3 0xB7A JUMPI JUMPDEST POP PUSH1 0x40 MLOAD PUSH4 0x15AB88C9 PUSH1 0xE3 SHL DUP2 MSTORE SWAP2 PUSH1 0x20 DUP4 PUSH1 0x4 DUP2 PUSH32 0x0 PUSH1 0x1 PUSH1 0x1 PUSH1 0xA0 SHL SUB AND GAS STATICCALL SWAP3 DUP4 ISZERO PUSH3 0xAE1 JUMPI DUP2 SWAP4 PUSH3 0xB54 JUMPI JUMPDEST POP PUSH1 0x40 MLOAD PUSH4 0xE6A43905 PUSH1 0xE0 SHL DUP2 MSTORE PUSH1 0x4 DUP2 ADD DUP7 SWAP1 MSTORE PUSH1 0x1 PUSH1 0x1 PUSH1 0xA0 SHL SUB SWAP4 DUP5 AND PUSH1 0x24 DUP3 ADD MSTORE SWAP3 PUSH1 0x20 SWAP1 DUP5 SWAP1 PUSH1 0x44 SWAP1 DUP3 SWAP1 PUSH32 0x0 AND GAS STATICCALL SWAP3 DUP4 ISZERO PUSH3 0xAE1 JUMPI DUP2 SWAP4 PUSH3 0xB1C JUMPI JUMPDEST POP DUP5 EXTCODESIZE ISZERO PUSH3 0x12B JUMPI PUSH1 0x40 MLOAD PUSH4 0x40C3FA8B PUSH1 0xE1 SHL DUP2 MSTORE PUSH1 0x1 PUSH1 0x1 PUSH1 0xA0 SHL SUB DUP5 AND PUSH1 0x4 DUP3 ADD MSTORE DUP2 DUP2 PUSH1 0x24 DUP2 DUP4 DUP11 GAS CALL DUP1 ISZERO PUSH3 0x9C6 JUMPI PUSH3 0xB0A JUMPI JUMPDEST POP SWAP1 DUP5 EXTCODESIZE ISZERO PUSH3 0xB06 JUMPI PUSH2 0xFFFF PUSH1 0x40 MLOAD SWAP2 PUSH4 0x5B3EA133 PUSH1 0xE1 SHL DUP4 MSTORE NUMBER PUSH1 0x4 DUP5 ADD MSTORE AND PUSH1 0x24 DUP3 ADD MSTORE DUP2 DUP2 PUSH1 0x44 DUP2 DUP4 DUP10 GAS CALL DUP1 ISZERO PUSH3 0x9C6 JUMPI SWAP1 DUP3 SWAP2 PUSH3 0xAEE JUMPI JUMPDEST POP POP PUSH1 0x40 MLOAD PUSH4 0x9605DDBB PUSH1 0xE0 SHL DUP2 MSTORE SWAP1 PUSH1 0x20 DUP3 PUSH1 0x4 DUP2 DUP9 GAS STATICCALL SWAP2 DUP3 ISZERO PUSH3 0xAE1 JUMPI DUP2 SWAP3 PUSH3 0xAA7 JUMPI JUMPDEST POP PUSH3 0x8B3 PUSH3 0x117F JUMP JUMPDEST PUSH3 0x9D1 JUMPI JUMPDEST PUSH3 0x8C3 PUSH3 0x116F JUMP JUMPDEST PUSH3 0x97C JUMPI JUMPDEST POP PUSH1 0x40 MLOAD SWAP5 PUSH1 0x44 CALLDATALOAD DUP7 MSTORE PUSH1 0x64 CALLDATALOAD PUSH1 0x20 DUP8 ADD MSTORE PUSH1 0x40 DUP7 ADD MSTORE NUMBER PUSH1 0x60 DUP7 ADD MSTORE PUSH1 0x80 DUP6 ADD MSTORE PUSH1 0x84 CALLDATALOAD DUP1 ISZERO ISZERO DUP1 SWAP2 SUB PUSH3 0x977 JUMPI PUSH1 0xA0 DUP6 ADD MSTORE PUSH1 0xA4 CALLDATALOAD DUP1 ISZERO ISZERO DUP1 SWAP2 SUB PUSH3 0x977 JUMPI PUSH1 0xC0 DUP6 ADD MSTORE PUSH1 0xC4 CALLDATALOAD SWAP4 DUP5 ISZERO ISZERO DUP1 SWAP6 SUB PUSH3 0x977 JUMPI PUSH1 0x60 SWAP5 PUSH1 0xE0 DUP3 ADD MSTORE DUP4 PUSH1 0x1 DUP1 PUSH1 0xA0 SHL SUB DUP4 AND SWAP2 PUSH32 0x65E0E9B2FE5DDF5DD3083F368A861E6C2035C2C7FDCCD6864D77CDDFFDAB6950 PUSH2 0x100 CALLER SWAP3 LOG4 PUSH1 0x40 DUP1 MLOAD SWAP4 DUP5 MSTORE PUSH1 0x1 PUSH1 0x1 PUSH1 0xA0 SHL SUB SWAP2 SWAP1 SWAP2 AND PUSH1 0x20 DUP5 ADD MSTORE DUP3 ADD MSTORE RETURN JUMPDEST PUSH1 0x0 DUP1 REVERT JUMPDEST DUP5 EXTCODESIZE ISZERO PUSH3 0x12B JUMPI PUSH1 0x40 MLOAD PUSH4 0xCE5E589D PUSH1 0xE0 SHL DUP2 MSTORE DUP2 DUP2 PUSH1 0x4 DUP2 DUP4 DUP11 GAS CALL DUP1 ISZERO PUSH3 0x9C6 JUMPI PUSH3 0x9AE JUMPI JUMPDEST POP PUSH3 0x8C9 JUMP JUMPDEST PUSH3 0x9BA DUP3 SWAP2 PUSH3 0xFB6 JUMP JUMPDEST PUSH3 0x12B JUMPI DUP1 PUSH3 0x9A7 JUMP JUMPDEST PUSH1 0x40 MLOAD RETURNDATASIZE DUP5 DUP3 RETURNDATACOPY RETURNDATASIZE SWAP1 REVERT JUMPDEST PUSH3 0x76A700 TIMESTAMP ADD TIMESTAMP GT PUSH3 0xA91 JUMPI PUSH1 0x40 MLOAD PUSH4 0x771EB8E9 PUSH1 0xE1 SHL DUP2 MSTORE PUSH1 0x1 PUSH1 0x1 PUSH1 0xA0 SHL SUB DUP5 DUP2 AND PUSH1 0x4 DUP4 ADD MSTORE CALLER PUSH1 0x24 DUP4 ADD MSTORE PUSH1 0x44 DUP3 ADD DUP7 SWAP1 MSTORE TIMESTAMP PUSH3 0x76A700 ADD PUSH1 0x1 PUSH1 0x1 PUSH1 0x40 SHL SUB AND PUSH1 0x64 DUP4 ADD MSTORE PUSH1 0x20 SWAP1 DUP3 SWAP1 PUSH1 0x84 SWAP1 DUP3 SWAP1 DUP7 SWAP1 PUSH32 0x0 AND GAS CALL DUP1 ISZERO PUSH3 0x9C6 JUMPI PUSH3 0xA60 JUMPI JUMPDEST POP PUSH3 0x8B9 JUMP JUMPDEST PUSH1 0x20 SWAP1 DUP2 RETURNDATASIZE DUP4 GT PUSH3 0xA89 JUMPI JUMPDEST PUSH3 0xA79 DUP2 DUP4 PUSH3 0xFFC JUMP JUMPDEST DUP2 ADD SUB SLT PUSH3 0x977 JUMPI CODESIZE PUSH3 0xA59 JUMP JUMPDEST POP RETURNDATASIZE PUSH3 0xA6D JUMP JUMPDEST PUSH4 0x4E487B71 PUSH1 0xE0 SHL PUSH1 0x0 MSTORE PUSH1 0x11 PUSH1 0x4 MSTORE PUSH1 0x24 PUSH1 0x0 REVERT JUMPDEST SWAP1 SWAP2 POP PUSH1 0x20 DUP2 RETURNDATASIZE PUSH1 0x20 GT PUSH3 0xAD8 JUMPI JUMPDEST DUP2 PUSH3 0xAC6 PUSH1 0x20 SWAP4 DUP4 PUSH3 0xFFC JUMP JUMPDEST DUP2 ADD SUB SLT PUSH3 0x977 JUMPI MLOAD SWAP1 CODESIZE PUSH3 0x8A8 JUMP JUMPDEST RETURNDATASIZE SWAP2 POP PUSH3 0xAB7 JUMP JUMPDEST POP PUSH1 0x40 MLOAD SWAP1 RETURNDATASIZE SWAP1 DUP3 RETURNDATACOPY RETURNDATASIZE SWAP1 REVERT JUMPDEST PUSH3 0xAF9 SWAP1 PUSH3 0xFB6 JUMP JUMPDEST PUSH3 0x12B JUMPI DUP1 CODESIZE PUSH3 0x87F JUMP JUMPDEST POP DUP1 REVERT JUMPDEST PUSH3 0xB15 SWAP1 PUSH3 0xFB6 JUMP JUMPDEST CODESIZE PUSH3 0x83F JUMP JUMPDEST PUSH3 0xB44 SWAP2 SWAP4 POP PUSH1 0x20 RETURNDATASIZE PUSH1 0x20 GT PUSH3 0xB4C JUMPI JUMPDEST PUSH3 0xB3B DUP2 DUP4 PUSH3 0xFFC JUMP JUMPDEST DUP2 ADD SWAP1 PUSH3 0x11CA JUMP JUMPDEST SWAP2 CODESIZE PUSH3 0x804 JUMP JUMPDEST POP RETURNDATASIZE PUSH3 0xB2F JUMP JUMPDEST PUSH3 0xB72 SWAP2 SWAP4 POP PUSH1 0x20 RETURNDATASIZE PUSH1 0x20 GT PUSH3 0xB4C JUMPI PUSH3 0xB3B DUP2 DUP4 PUSH3 0xFFC JUMP JUMPDEST SWAP2 CODESIZE PUSH3 0x7A0 JUMP JUMPDEST SWAP1 SWAP3 POP PUSH1 0x60 DUP2 RETURNDATASIZE PUSH1 0x60 GT PUSH3 0xBAE JUMPI JUMPDEST DUP2 PUSH3 0xB99 PUSH1 0x60 SWAP4 DUP4 PUSH3 0xFFC JUMP JUMPDEST DUP2 ADD SUB SLT PUSH3 0xB06 JUMPI PUSH1 0x40 ADD MLOAD SWAP2 CODESIZE PUSH3 0x74F JUMP JUMPDEST RETURNDATASIZE SWAP2 POP PUSH3 0xB8A JUMP JUMPDEST PUSH4 0x4E487B71 PUSH1 0xE0 SHL DUP4 MSTORE PUSH1 0x11 PUSH1 0x4 MSTORE PUSH1 0x24 DUP4 REVERT JUMPDEST CALLER PUSH3 0x6BF JUMP JUMPDEST PUSH1 0x40 MLOAD PUSH3 0x461BCD PUSH1 0xE5 SHL DUP2 MSTORE PUSH1 0x20 PUSH1 0x4 DUP3 ADD MSTORE PUSH1 0xC PUSH1 0x24 DUP3 ADD MSTORE PUSH12 0x1054141493D59157D1905253 PUSH1 0xA2 SHL PUSH1 0x44 DUP3 ADD MSTORE PUSH1 0x64 SWAP1 REVERT JUMPDEST PUSH3 0xC2D SWAP2 POP PUSH1 0x20 RETURNDATASIZE PUSH1 0x20 GT PUSH3 0xC34 JUMPI JUMPDEST PUSH3 0xC24 DUP2 DUP4 PUSH3 0xFFC JUMP JUMPDEST DUP2 ADD SWAP1 PUSH3 0x11B0 JUMP JUMPDEST CODESIZE PUSH3 0x67D JUMP JUMPDEST POP RETURNDATASIZE PUSH3 0xC18 JUMP JUMPDEST PUSH1 0x40 MLOAD RETURNDATASIZE DUP6 DUP3 RETURNDATACOPY RETURNDATASIZE SWAP1 REVERT JUMPDEST PUSH1 0x40 MLOAD PUSH3 0x461BCD PUSH1 0xE5 SHL DUP2 MSTORE PUSH1 0x20 PUSH1 0x4 DUP3 ADD MSTORE PUSH1 0x9 PUSH1 0x24 DUP3 ADD MSTORE PUSH9 0x1611915497D1905253 PUSH1 0xBA SHL PUSH1 0x44 DUP3 ADD MSTORE PUSH1 0x64 SWAP1 REVERT JUMPDEST PUSH3 0xC95 SWAP2 POP PUSH1 0x20 RETURNDATASIZE PUSH1 0x20 GT PUSH3 0xC34 JUMPI PUSH3 0xC24 DUP2 DUP4 PUSH3 0xFFC JUMP JUMPDEST CODESIZE PUSH3 0x616 JUMP JUMPDEST PUSH4 0x4E487B71 PUSH1 0xE0 SHL DUP3 MSTORE PUSH1 0x11 PUSH1 0x4 MSTORE PUSH1 0x24 DUP3 REVERT JUMPDEST PUSH4 0x4E487B71 PUSH1 0xE0 SHL DUP12 MSTORE PUSH1 0x41 PUSH1 0x4 MSTORE PUSH1 0x24 DUP12 REVERT JUMPDEST DUP8 SWAP3 PUSH3 0x4B0 JUMP JUMPDEST PUSH2 0x2710 SWAP1 PUSH3 0x49C JUMP JUMPDEST DUP6 SWAP5 PUSH3 0x488 JUMP JUMPDEST DUP5 SWAP2 PUSH3 0x474 JUMP JUMPDEST PUSH1 0x40 MLOAD PUSH3 0x461BCD PUSH1 0xE5 SHL DUP2 MSTORE PUSH1 0x20 PUSH1 0x4 DUP3 ADD MSTORE PUSH1 0xD PUSH1 0x24 DUP3 ADD MSTORE PUSH13 0x11915157D611915497D1905253 PUSH1 0x9A SHL PUSH1 0x44 DUP3 ADD MSTORE PUSH1 0x64 SWAP1 REVERT JUMPDEST PUSH4 0x4E487B71 PUSH1 0xE0 SHL DUP8 MSTORE PUSH1 0x41 PUSH1 0x4 MSTORE PUSH1 0x24 DUP8 REVERT JUMPDEST PUSH3 0x45A JUMP JUMPDEST PUSH1 0x40 MLOAD PUSH3 0x461BCD PUSH1 0xE5 SHL DUP2 MSTORE PUSH1 0x20 PUSH1 0x4 DUP3 ADD MSTORE PUSH1 0xD PUSH1 0x24 DUP3 ADD MSTORE PUSH13 0x4241445F4D53475F56414C5545 PUSH1 0x98 SHL PUSH1 0x44 DUP3 ADD MSTORE PUSH1 0x64 SWAP1 REVERT JUMPDEST PUSH4 0x4E487B71 PUSH1 0xE0 SHL DUP7 MSTORE PUSH1 0x11 PUSH1 0x4 MSTORE PUSH1 0x24 DUP7 REVERT JUMPDEST PUSH4 0x4E487B71 PUSH1 0xE0 SHL DUP9 MSTORE PUSH1 0x11 PUSH1 0x4 MSTORE PUSH1 0x24 DUP9 REVERT JUMPDEST PUSH3 0x15180 TIMESTAMP ADD DUP1 TIMESTAMP GT PUSH3 0xDC0 JUMPI PUSH1 0x1 PUSH1 0x1 PUSH1 0x40 SHL SUB AND SWAP1 PUSH9 0xFFFFFFFFFFFFFFFFFF NOT AND OR DUP7 SSTORE CODESIZE PUSH3 0x3AC JUMP JUMPDEST PUSH4 0x4E487B71 PUSH1 0xE0 SHL DUP8 MSTORE PUSH1 0x11 PUSH1 0x4 MSTORE PUSH1 0x24 DUP8 REVERT JUMPDEST SWAP1 POP TIMESTAMP GT CODESIZE PUSH3 0x3A5 JUMP JUMPDEST PUSH1 0x40 MLOAD PUSH3 0x461BCD PUSH1 0xE5 SHL DUP2 MSTORE PUSH1 0x20 PUSH1 0x4 DUP3 ADD MSTORE PUSH1 0xB PUSH1 0x24 DUP3 ADD MSTORE PUSH11 0x4C49515F544F4F5F4C4F57 PUSH1 0xA8 SHL PUSH1 0x44 DUP3 ADD MSTORE PUSH1 0x64 SWAP1 REVERT JUMPDEST DUP4 DUP1 REVERT JUMPDEST DUP3 DUP1 REVERT JUMPDEST POP CALLVALUE PUSH3 0x12B JUMPI DUP1 PUSH1 0x3 NOT CALLDATASIZE ADD SLT PUSH3 0x12B JUMPI PUSH1 0x20 PUSH1 0x40 MLOAD PUSH1 0x1 DUP2 MSTORE RETURN JUMPDEST POP CALLVALUE PUSH3 0x12B JUMPI DUP1 PUSH1 0x3 NOT CALLDATASIZE ADD SLT PUSH3 0x12B JUMPI PUSH1 0x40 MLOAD PUSH32 0x0 PUSH1 0x1 PUSH1 0x1 PUSH1 0xA0 SHL SUB AND DUP2 MSTORE PUSH1 0x20 SWAP1 RETURN JUMPDEST POP CALLVALUE PUSH3 0x12B JUMPI DUP1 PUSH1 0x3 NOT CALLDATASIZE ADD SLT PUSH3 0x12B JUMPI PUSH1 0x20 PUSH1 0x40 MLOAD PUSH8 0x16345785D8A0000 DUP2 MSTORE RETURN JUMPDEST POP CALLVALUE PUSH3 0x12B JUMPI DUP1 PUSH1 0x3 NOT CALLDATASIZE ADD SLT PUSH3 0x12B JUMPI PUSH1 0x20 PUSH1 0x40 MLOAD PUSH1 0x5 DUP2 MSTORE RETURN JUMPDEST POP CALLVALUE PUSH3 0x12B JUMPI DUP1 PUSH1 0x3 NOT CALLDATASIZE ADD SLT PUSH3 0x12B JUMPI PUSH1 0x20 PUSH1 0x40 MLOAD PUSH32 0x0 DUP2 MSTORE RETURN JUMPDEST POP CALLVALUE PUSH3 0x12B JUMPI DUP1 PUSH1 0x3 NOT CALLDATASIZE ADD SLT PUSH3 0x12B JUMPI PUSH1 0x20 PUSH1 0x40 MLOAD PUSH8 0x2C68AF0BB140000 DUP2 MSTORE RETURN JUMPDEST POP CALLVALUE PUSH3 0x12B JUMPI DUP1 PUSH1 0x3 NOT CALLDATASIZE ADD SLT PUSH3 0x12B JUMPI PUSH1 0x20 PUSH1 0x40 MLOAD PUSH7 0x470DE4DF820000 DUP2 MSTORE RETURN JUMPDEST POP CALLVALUE PUSH3 0x12B JUMPI PUSH1 0x20 CALLDATASIZE PUSH1 0x3 NOT ADD SLT PUSH3 0x12B JUMPI PUSH1 0x4 CALLDATALOAD SWAP1 PUSH1 0x1 PUSH1 0x1 PUSH1 0xA0 SHL SUB DUP3 AND DUP3 SUB PUSH3 0x12B JUMPI PUSH1 0x20 PUSH3 0xF7E DUP4 PUSH3 0x10AC JUMP JUMPDEST PUSH1 0x40 MLOAD SWAP1 DUP2 MSTORE RETURN JUMPDEST SWAP2 DUP2 PUSH1 0x1F DUP5 ADD SLT ISZERO PUSH3 0x977 JUMPI DUP3 CALLDATALOAD SWAP2 PUSH1 0x1 PUSH1 0x1 PUSH1 0x40 SHL SUB DUP4 GT PUSH3 0x977 JUMPI PUSH1 0x20 DUP4 DUP2 DUP7 ADD SWAP6 ADD ADD GT PUSH3 0x977 JUMPI JUMP JUMPDEST PUSH1 0x1 PUSH1 0x1 PUSH1 0x40 SHL SUB DUP2 GT PUSH3 0xFCA JUMPI PUSH1 0x40 MSTORE JUMP JUMPDEST PUSH4 0x4E487B71 PUSH1 0xE0 SHL PUSH1 0x0 MSTORE PUSH1 0x41 PUSH1 0x4 MSTORE PUSH1 0x24 PUSH1 0x0 REVERT JUMPDEST PUSH1 0x40 DUP2 ADD SWAP1 DUP2 LT PUSH1 0x1 PUSH1 0x1 PUSH1 0x40 SHL SUB DUP3 GT OR PUSH3 0xFCA JUMPI PUSH1 0x40 MSTORE JUMP JUMPDEST SWAP1 PUSH1 0x1F DUP1 NOT SWAP2 ADD AND DUP2 ADD SWAP1 DUP2 LT PUSH1 0x1 PUSH1 0x1 PUSH1 0x40 SHL SUB DUP3 GT OR PUSH3 0xFCA JUMPI PUSH1 0x40 MSTORE JUMP JUMPDEST PUSH1 0x1 PUSH1 0x1 PUSH1 0xA0 SHL SUB AND PUSH1 0x0 SWAP1 DUP2 MSTORE PUSH1 0x20 DUP2 SWAP1 MSTORE PUSH1 0x40 DUP1 DUP3 KECCAK256 SWAP1 MLOAD SWAP3 SWAP2 SWAP1 PUSH3 0x1046 DUP5 PUSH3 0xFE0 JUMP JUMPDEST SLOAD SWAP3 PUSH1 0x1 PUSH1 0x1 PUSH1 0x40 SHL SUB SWAP2 DUP3 DUP6 AND DUP1 DUP4 MSTORE PUSH1 0xFF PUSH1 0x20 DUP5 ADD SWAP7 PUSH1 0x40 SHR AND DUP7 MSTORE ISZERO PUSH3 0x1082 JUMPI DUP3 DUP3 MLOAD AND TIMESTAMP GT PUSH3 0x1082 JUMPI POP SWAP1 PUSH1 0xFF SWAP2 MLOAD AND SWAP3 MLOAD AND SWAP1 JUMP JUMPDEST SWAP4 POP POP PUSH3 0x15180 TIMESTAMP ADD DUP1 TIMESTAMP GT PUSH3 0x1098 JUMPI AND SWAP2 SWAP1 JUMP JUMPDEST PUSH4 0x4E487B71 PUSH1 0xE0 SHL DUP5 MSTORE PUSH1 0x11 PUSH1 0x4 MSTORE PUSH1 0x24 DUP5 REVERT JUMPDEST PUSH1 0x1 DUP1 PUSH1 0xA0 SHL SUB AND PUSH1 0x0 MSTORE PUSH1 0x0 PUSH1 0x20 MSTORE PUSH1 0x40 PUSH1 0x0 KECCAK256 PUSH1 0x20 PUSH1 0x40 MLOAD SWAP2 PUSH3 0x10D2 DUP4 PUSH3 0xFE0 JUMP JUMPDEST SLOAD SWAP2 PUSH1 0xFF PUSH1 0x1 PUSH1 0x1 PUSH1 0x40 SHL SUB DUP5 AND SWAP4 DUP5 DUP4 MSTORE PUSH1 0x40 SHR AND SWAP2 DUP3 SWAP2 ADD MSTORE SWAP1 DUP1 ISZERO SWAP1 DUP2 ISZERO PUSH3 0x1154 JUMPI JUMPDEST POP PUSH3 0x114B JUMPI JUMPDEST PUSH1 0xFF AND DUP1 ISZERO PUSH3 0x113F JUMPI PUSH1 0x1 DUP2 EQ PUSH3 0x1133 JUMPI PUSH1 0x2 EQ PUSH3 0x1127 JUMPI PUSH8 0x2C68AF0BB140000 SWAP1 JUMP JUMPDEST PUSH8 0x16345785D8A0000 SWAP1 JUMP JUMPDEST POP PUSH7 0xB1A2BC2EC50000 SWAP1 JUMP JUMPDEST POP PUSH7 0x470DE4DF820000 SWAP1 JUMP JUMPDEST POP PUSH1 0x0 PUSH3 0x1100 JUMP JUMPDEST SWAP1 POP TIMESTAMP GT CODESIZE PUSH3 0x10F9 JUMP JUMPDEST PUSH1 0xA4 CALLDATALOAD DUP1 ISZERO ISZERO DUP2 SUB PUSH3 0x977 JUMPI SWAP1 JUMP JUMPDEST PUSH1 0x84 CALLDATALOAD DUP1 ISZERO ISZERO DUP2 SUB PUSH3 0x977 JUMPI SWAP1 JUMP JUMPDEST PUSH1 0xC4 CALLDATALOAD DUP1 ISZERO ISZERO DUP2 SUB PUSH3 0x977 JUMPI SWAP1 JUMP JUMPDEST SWAP1 DUP1 PUSH1 0x20 SWAP4 SWAP3 DUP2 DUP5 MSTORE DUP5 DUP5 ADD CALLDATACOPY PUSH1 0x0 DUP3 DUP3 ADD DUP5 ADD MSTORE PUSH1 0x1F ADD PUSH1 0x1F NOT AND ADD ADD SWAP1 JUMP JUMPDEST SWAP1 DUP2 PUSH1 0x20 SWAP2 SUB SLT PUSH3 0x977 JUMPI MLOAD DUP1 ISZERO ISZERO DUP2 SUB PUSH3 0x977 JUMPI SWAP1 JUMP JUMPDEST SWAP1 DUP2 PUSH1 0x20 SWAP2 SUB SLT PUSH3 0x977 JUMPI MLOAD PUSH1 0x1 PUSH1 0x1 PUSH1 0xA0 SHL SUB DUP2 AND DUP2 SUB PUSH3 0x977 JUMPI SWAP1 JUMP INVALID PUSH1 0x80 PUSH1 0x40 MSTORE CALLVALUE PUSH3 0x549 JUMPI PUSH3 0x1400 DUP1 CODESIZE SUB DUP1 PUSH3 0x1D DUP2 PUSH3 0x54E JUMP JUMPDEST SWAP3 DUP4 CODECOPY DUP2 ADD SWAP1 PUSH2 0x160 DUP2 DUP4 SUB SLT PUSH3 0x549 JUMPI DUP1 MLOAD PUSH1 0x1 PUSH1 0x1 PUSH1 0x40 SHL SUB DUP2 GT PUSH3 0x549 JUMPI DUP3 PUSH3 0x4E SWAP2 DUP4 ADD PUSH3 0x574 JUMP JUMPDEST PUSH1 0x20 DUP3 ADD MLOAD SWAP1 SWAP3 PUSH1 0x1 PUSH1 0x1 PUSH1 0x40 SHL SUB DUP3 GT PUSH3 0x549 JUMPI PUSH3 0x71 SWAP2 DUP4 ADD PUSH3 0x574 JUMP JUMPDEST SWAP2 PUSH1 0x40 DUP3 ADD MLOAD SWAP2 PUSH3 0x86 PUSH1 0x60 DUP3 ADD PUSH3 0x5E6 JUMP JUMPDEST PUSH3 0x94 PUSH1 0x80 DUP4 ADD PUSH3 0x5E6 JUMP JUMPDEST SWAP4 PUSH3 0xA3 PUSH1 0xA0 DUP5 ADD PUSH3 0x5E6 JUMP JUMPDEST PUSH3 0xB1 PUSH1 0xC0 DUP6 ADD PUSH3 0x5FB JUMP JUMPDEST SWAP6 PUSH3 0xC0 PUSH1 0xE0 DUP7 ADD PUSH3 0x5FB JUMP JUMPDEST POP PUSH3 0xD0 PUSH2 0x100 DUP7 ADD PUSH3 0x5FB JUMP JUMPDEST SWAP6 PUSH3 0xEF PUSH2 0x140 PUSH3 0xE7 PUSH2 0x120 DUP10 ADD PUSH3 0x60B JUMP JUMPDEST SWAP8 ADD PUSH3 0x60B JUMP JUMPDEST PUSH1 0x0 DUP1 SLOAD PUSH1 0x1 PUSH1 0x1 PUSH1 0xA0 SHL SUB NOT AND PUSH1 0x1 PUSH1 0x1 PUSH1 0xA0 SHL SUB SWAP1 SWAP8 AND SWAP7 DUP8 OR DUP2 SSTORE SWAP1 SWAP6 SWAP1 PUSH32 0x8BE0079C531659141344CD1FD0A4F28419497F9722A3DAAFE3B4186F6B6457E0 DUP2 DUP1 LOG3 DUP1 MLOAD SWAP1 PUSH1 0x1 PUSH1 0x1 PUSH1 0x40 SHL SUB DUP3 GT PUSH3 0x43D JUMPI PUSH1 0x1 SLOAD SWAP1 PUSH1 0x1 DUP3 DUP2 SHR SWAP3 AND DUP1 ISZERO PUSH3 0x53E JUMPI JUMPDEST PUSH1 0x20 DUP4 LT EQ PUSH3 0x41C JUMPI DUP2 PUSH1 0x1F DUP5 SWAP4 GT PUSH3 0x4DD JUMPI JUMPDEST POP PUSH1 0x20 SWAP1 PUSH1 0x1F DUP4 GT PUSH1 0x1 EQ PUSH3 0x45F JUMPI PUSH1 0x0 SWAP3 PUSH3 0x453 JUMPI JUMPDEST POP POP DUP2 PUSH1 0x1 SHL SWAP2 PUSH1 0x0 NOT SWAP1 PUSH1 0x3 SHL SHR NOT AND OR PUSH1 0x1 SSTORE JUMPDEST DUP8 MLOAD PUSH1 0x1 PUSH1 0x1 PUSH1 0x40 SHL SUB DUP2 GT PUSH3 0x43D JUMPI PUSH1 0x2 SLOAD PUSH1 0x1 DUP2 DUP2 SHR SWAP2 AND DUP1 ISZERO PUSH3 0x432 JUMPI JUMPDEST PUSH1 0x20 DUP3 LT EQ PUSH3 0x41C JUMPI PUSH1 0x1F DUP2 GT PUSH3 0x3B2 JUMPI JUMPDEST POP PUSH1 0x20 PUSH1 0x1F DUP3 GT PUSH1 0x1 EQ PUSH3 0x325 JUMPI SWAP3 PUSH1 0x20 SWAP3 DUP3 PUSH1 0x0 SWAP7 SWAP4 PUSH1 0x0 DUP1 MLOAD PUSH1 0x20 PUSH3 0x13C0 DUP4 CODECOPY DUP2 MLOAD SWAP2 MSTORE SWAP7 PUSH4 0xFFFF0000 SWAP12 SWAP13 SWAP14 DUP10 SWAP3 PUSH3 0x319 JUMPI JUMPDEST POP POP DUP2 PUSH1 0x1 SHL SWAP2 DUP9 NOT SWAP1 PUSH1 0x3 SHL SHR NOT AND OR PUSH1 0x2 SSTORE JUMPDEST PUSH1 0xD DUP1 SLOAD PUSH1 0x1 PUSH1 0x1 PUSH1 0xA0 SHL SUB NOT AND PUSH1 0x1 PUSH1 0x1 PUSH1 0xA0 SHL SUB SWAP3 DUP4 AND SWAP1 DUP2 OR SWAP1 SWAP2 SSTORE PUSH1 0xE DUP1 SLOAD PUSH1 0x1 PUSH1 0x1 PUSH1 0xA8 SHL SUB NOT AND SWAP4 SWAP1 SWAP3 AND SWAP3 SWAP1 SWAP3 OR SWAP7 ISZERO ISZERO PUSH1 0xA0 SHL PUSH1 0xFF PUSH1 0xA0 SHL AND SWAP7 SWAP1 SWAP7 OR SWAP1 SWAP6 SSTORE PUSH1 0x3 SLOAD PUSH3 0x27B SWAP1 DUP3 SWAP1 PUSH3 0x619 JUMP JUMPDEST PUSH1 0x3 SSTORE DUP5 DUP5 MSTORE PUSH1 0x4 DUP3 MSTORE PUSH1 0x40 DUP5 KECCAK256 PUSH3 0x296 DUP3 DUP3 SLOAD PUSH3 0x619 JUMP JUMPDEST SWAP1 SSTORE PUSH1 0x40 MLOAD SWAP1 DUP2 MSTORE LOG3 PUSH2 0xFFFF PUSH5 0xFF00000000 PUSH1 0x8 SLOAD SWAP3 ISZERO ISZERO PUSH1 0x20 SHL AND SWAP5 AND SWAP1 PUSH5 0xFFFFFFFFFF NOT AND OR SWAP2 PUSH1 0x10 SHL AND OR OR PUSH1 0x8 SSTORE PUSH1 0x1 DUP1 PUSH1 0xA0 SHL SUB PUSH1 0xD SLOAD AND PUSH1 0x0 MSTORE PUSH1 0x9 PUSH1 0x20 MSTORE PUSH1 0x40 PUSH1 0x0 KECCAK256 PUSH1 0xFF NOT SWAP1 PUSH1 0x1 DUP3 DUP3 SLOAD AND OR SWAP1 SSTORE PUSH1 0x1 DUP1 PUSH1 0xA0 SHL SUB PUSH1 0xE SLOAD AND PUSH1 0x0 MSTORE PUSH1 0x1 PUSH1 0x40 PUSH1 0x0 KECCAK256 SWAP2 DUP3 SLOAD AND OR SWAP1 SSTORE PUSH1 0x40 MLOAD PUSH2 0xD82 SWAP1 DUP2 PUSH3 0x63E DUP3 CODECOPY RETURN JUMPDEST ADD MLOAD SWAP1 POP CODESIZE DUP1 PUSH3 0x20E JUMP JUMPDEST PUSH1 0x2 PUSH1 0x0 MSTORE PUSH1 0x20 PUSH1 0x0 KECCAK256 SWAP10 PUSH1 0x0 JUMPDEST PUSH1 0x1F NOT DUP5 AND DUP2 LT PUSH3 0x399 JUMPI POP SWAP3 PUSH1 0x1 DUP4 PUSH4 0xFFFF0000 SWAP11 SWAP12 SWAP13 PUSH1 0x0 DUP1 MLOAD PUSH1 0x20 PUSH3 0x13C0 DUP4 CODECOPY DUP2 MLOAD SWAP2 MSTORE SWAP8 SWAP5 PUSH1 0x20 SWAP8 PUSH1 0x0 SWAP11 SWAP8 PUSH1 0x1F NOT DUP2 AND LT PUSH3 0x380 JUMPI JUMPDEST POP POP POP DUP2 SHL ADD PUSH1 0x2 SSTORE PUSH3 0x223 JUMP JUMPDEST ADD MLOAD DUP10 NOT PUSH1 0xF8 DUP5 PUSH1 0x3 SHL AND SHR NOT AND SWAP1 SSTORE CODESIZE DUP1 DUP1 PUSH3 0x371 JUMP JUMPDEST DUP3 DUP3 ADD MLOAD DUP13 SSTORE PUSH1 0x1 SWAP1 SWAP12 ADD SWAP11 PUSH1 0x20 SWAP3 DUP4 ADD SWAP3 ADD PUSH3 0x333 JUMP JUMPDEST PUSH1 0x2 PUSH1 0x0 MSTORE PUSH32 0x405787FA12A823E0F2B7631CC41B3BA8828B3321CA811111FA75CD3AA3BB5ACE PUSH1 0x1F DUP4 ADD PUSH1 0x5 SHR DUP2 ADD SWAP2 PUSH1 0x20 DUP5 LT PUSH3 0x411 JUMPI JUMPDEST PUSH1 0x1F ADD PUSH1 0x5 SHR ADD SWAP1 JUMPDEST DUP2 DUP2 LT PUSH3 0x404 JUMPI POP PUSH3 0x1D5 JUMP JUMPDEST PUSH1 0x0 DUP2 SSTORE PUSH1 0x1 ADD PUSH3 0x3F5 JUMP JUMPDEST SWAP1 SWAP2 POP DUP2 SWAP1 PUSH3 0x3EC JUMP JUMPDEST PUSH4 0x4E487B71 PUSH1 0xE0 SHL PUSH1 0x0 MSTORE PUSH1 0x22 PUSH1 0x4 MSTORE PUSH1 0x24 PUSH1 0x0 REVERT JUMPDEST SWAP1 PUSH1 0x7F AND SWAP1 PUSH3 0x1C1 JUMP JUMPDEST PUSH4 0x4E487B71 PUSH1 0xE0 SHL PUSH1 0x0 MSTORE PUSH1 0x41 PUSH1 0x4 MSTORE PUSH1 0x24 PUSH1 0x0 REVERT JUMPDEST ADD MLOAD SWAP1 POP CODESIZE DUP1 PUSH3 0x188 JUMP JUMPDEST PUSH1 0x1 PUSH1 0x0 SWAP1 DUP2 MSTORE SWAP4 POP PUSH1 0x0 DUP1 MLOAD PUSH1 0x20 PUSH3 0x13E0 DUP4 CODECOPY DUP2 MLOAD SWAP2 MSTORE SWAP2 SWAP1 JUMPDEST PUSH1 0x1F NOT DUP5 AND DUP6 LT PUSH3 0x4C1 JUMPI PUSH1 0x1 SWAP5 POP DUP4 PUSH1 0x1F NOT DUP2 AND LT PUSH3 0x4A7 JUMPI JUMPDEST POP POP POP DUP2 SHL ADD PUSH1 0x1 SSTORE PUSH3 0x19E JUMP JUMPDEST ADD MLOAD PUSH1 0x0 NOT PUSH1 0xF8 DUP5 PUSH1 0x3 SHL AND SHR NOT AND SWAP1 SSTORE CODESIZE DUP1 DUP1 PUSH3 0x498 JUMP JUMPDEST DUP2 DUP2 ADD MLOAD DUP4 SSTORE PUSH1 0x20 SWAP5 DUP6 ADD SWAP5 PUSH1 0x1 SWAP1 SWAP4 ADD SWAP3 SWAP1 SWAP2 ADD SWAP1 PUSH3 0x47B JUMP JUMPDEST PUSH1 0x1 PUSH1 0x0 MSTORE SWAP1 SWAP2 POP PUSH1 0x0 DUP1 MLOAD PUSH1 0x20 PUSH3 0x13E0 DUP4 CODECOPY DUP2 MLOAD SWAP2 MSTORE PUSH1 0x1F DUP5 ADD PUSH1 0x5 SHR DUP2 ADD PUSH1 0x20 DUP6 LT PUSH3 0x536 JUMPI JUMPDEST SWAP1 DUP5 SWAP4 SWAP3 SWAP2 JUMPDEST PUSH1 0x1F DUP4 ADD PUSH1 0x5 SHR DUP3 ADD DUP2 LT PUSH3 0x526 JUMPI POP POP PUSH3 0x16F JUMP JUMPDEST PUSH1 0x0 DUP2 SSTORE DUP6 SWAP5 POP PUSH1 0x1 ADD PUSH3 0x50E JUMP JUMPDEST POP DUP1 PUSH3 0x508 JUMP JUMPDEST SWAP2 PUSH1 0x7F AND SWAP2 PUSH3 0x159 JUMP JUMPDEST PUSH1 0x0 DUP1 REVERT JUMPDEST PUSH1 0x40 MLOAD SWAP2 SWAP1 PUSH1 0x1F ADD PUSH1 0x1F NOT AND DUP3 ADD PUSH1 0x1 PUSH1 0x1 PUSH1 0x40 SHL SUB DUP2 GT DUP4 DUP3 LT OR PUSH3 0x43D JUMPI PUSH1 0x40 MSTORE JUMP JUMPDEST SWAP2 SWAP1 DUP1 PUSH1 0x1F DUP5 ADD SLT ISZERO PUSH3 0x549 JUMPI DUP3 MLOAD PUSH1 0x1 PUSH1 0x1 PUSH1 0x40 SHL SUB DUP2 GT PUSH3 0x43D JUMPI PUSH1 0x20 SWAP1 PUSH3 0x5AA PUSH1 0x1F DUP3 ADD PUSH1 0x1F NOT AND DUP4 ADD PUSH3 0x54E JUMP JUMPDEST SWAP3 DUP2 DUP5 MSTORE DUP3 DUP3 DUP8 ADD ADD GT PUSH3 0x549 JUMPI PUSH1 0x0 JUMPDEST DUP2 DUP2 LT PUSH3 0x5D2 JUMPI POP DUP3 PUSH1 0x0 SWAP4 SWAP5 SWAP6 POP ADD ADD MSTORE SWAP1 JUMP JUMPDEST DUP6 DUP2 ADD DUP4 ADD MLOAD DUP5 DUP3 ADD DUP5 ADD MSTORE DUP3 ADD PUSH3 0x5BC JUMP JUMPDEST MLOAD SWAP1 PUSH1 0x1 PUSH1 0x1 PUSH1 0xA0 SHL SUB DUP3 AND DUP3 SUB PUSH3 0x549 JUMPI JUMP JUMPDEST MLOAD SWAP1 PUSH2 0xFFFF DUP3 AND DUP3 SUB PUSH3 0x549 JUMPI JUMP JUMPDEST MLOAD SWAP1 DUP2 ISZERO ISZERO DUP3 SUB PUSH3 0x549 JUMPI JUMP JUMPDEST SWAP2 SWAP1 DUP3 ADD DUP1 SWAP3 GT PUSH3 0x627 JUMPI JUMP JUMPDEST PUSH4 0x4E487B71 PUSH1 0xE0 SHL PUSH1 0x0 MSTORE PUSH1 0x11 PUSH1 0x4 MSTORE PUSH1 0x24 PUSH1 0x0 REVERT INVALID PUSH1 0x80 PUSH1 0x40 DUP2 DUP2 MSTORE PUSH1 0x4 SWAP2 DUP3 CALLDATASIZE LT ISZERO PUSH2 0x16 JUMPI PUSH1 0x0 DUP1 REVERT JUMPDEST PUSH1 0x0 SWAP3 DUP4 CALLDATALOAD PUSH1 0xE0 SHR SWAP2 DUP3 PUSH4 0x6FDDE03 EQ PUSH2 0x90B JUMPI POP DUP2 PUSH4 0x95EA7B3 EQ PUSH2 0x89A JUMPI DUP2 PUSH4 0x18160DDD EQ PUSH2 0x87B JUMPI DUP2 PUSH4 0x1F94957A EQ PUSH2 0x854 JUMPI DUP2 PUSH4 0x23B872DD EQ PUSH2 0x7AE JUMPI DUP2 PUSH4 0x313CE567 EQ PUSH2 0x792 JUMPI DUP4 DUP3 PUSH4 0x42966C68 EQ PUSH2 0x710 JUMPI POP DUP2 PUSH4 0x6760E74C EQ PUSH2 0x6ED JUMPI DUP2 PUSH4 0x70A08231 EQ PUSH2 0x6B7 JUMPI DUP2 PUSH4 0x715018A6 EQ PUSH2 0x65B JUMPI DUP2 PUSH4 0x8187F516 EQ PUSH2 0x5B3 JUMPI DUP2 PUSH4 0x8712523E EQ PUSH2 0x57B JUMPI DUP2 PUSH4 0x8DA5CB5B EQ PUSH2 0x553 JUMPI DUP2 PUSH4 0x95D89B41 EQ PUSH2 0x432 JUMPI DUP2 PUSH4 0x9605DDBB EQ PUSH2 0x413 JUMPI DUP2 PUSH4 0x9EBAA1C3 EQ PUSH2 0x3EE JUMPI DUP2 PUSH4 0xA8AA1B31 EQ PUSH2 0x3C5 JUMPI DUP2 PUSH4 0xA9059CBB EQ PUSH2 0x394 JUMPI DUP2 PUSH4 0xAD5DFF73 EQ PUSH2 0x356 JUMPI DUP2 PUSH4 0xB0249CC6 EQ PUSH2 0x318 JUMPI DUP2 PUSH4 0xB67D4266 EQ PUSH2 0x2AB JUMPI DUP2 PUSH4 0xC45A0155 EQ PUSH2 0x282 JUMPI DUP2 PUSH4 0xCE5E589D EQ PUSH2 0x206 JUMPI POP DUP1 PUSH4 0xD00EFB2F EQ PUSH2 0x1E8 JUMPI DUP1 PUSH4 0xDD62ED3E EQ PUSH2 0x1A0 JUMPI DUP1 PUSH4 0xF887EA40 EQ PUSH2 0x178 JUMPI PUSH4 0xFF8EA3E5 EQ PUSH2 0x150 JUMPI PUSH1 0x0 DUP1 REVERT JUMPDEST CALLVALUE PUSH2 0x174 JUMPI DUP2 PUSH1 0x3 NOT CALLDATASIZE ADD SLT PUSH2 0x174 JUMPI PUSH1 0x20 SWAP1 PUSH2 0xFFFF PUSH1 0x8 SLOAD PUSH1 0x10 SHR AND SWAP1 MLOAD SWAP1 DUP2 MSTORE RETURN JUMPDEST POP DUP1 REVERT JUMPDEST POP CALLVALUE PUSH2 0x174 JUMPI DUP2 PUSH1 0x3 NOT CALLDATASIZE ADD SLT PUSH2 0x174 JUMPI PUSH1 0xE SLOAD SWAP1 MLOAD PUSH1 0x1 PUSH1 0x1 PUSH1 0xA0 SHL SUB SWAP1 SWAP2 AND DUP2 MSTORE PUSH1 0x20 SWAP1 RETURN JUMPDEST POP CALLVALUE PUSH2 0x174 JUMPI DUP1 PUSH1 0x3 NOT CALLDATASIZE ADD SLT PUSH2 0x174 JUMPI DUP1 PUSH1 0x20 SWAP3 PUSH2 0x1BD PUSH2 0xA2B JUMP JUMPDEST PUSH2 0x1C5 PUSH2 0xA46 JUMP JUMPDEST PUSH1 0x1 PUSH1 0x1 PUSH1 0xA0 SHL SUB SWAP2 DUP3 AND DUP4 MSTORE PUSH1 0x5 DUP7 MSTORE DUP4 DUP4 KECCAK256 SWAP2 AND DUP3 MSTORE DUP5 MSTORE KECCAK256 SLOAD SWAP1 MLOAD SWAP1 DUP2 MSTORE RETURN JUMPDEST POP CALLVALUE PUSH2 0x174 JUMPI DUP2 PUSH1 0x3 NOT CALLDATASIZE ADD SLT PUSH2 0x174 JUMPI PUSH1 0x20 SWAP1 PUSH1 0x6 SLOAD SWAP1 MLOAD SWAP1 DUP2 MSTORE RETURN JUMPDEST SWAP2 SWAP1 POP CALLVALUE PUSH2 0x27E JUMPI DUP3 PUSH1 0x3 NOT CALLDATASIZE ADD SLT PUSH2 0x27E JUMPI PUSH1 0xD SLOAD PUSH1 0x1 PUSH1 0x1 PUSH1 0xA0 SHL SUB AND CALLER EQ DUP1 PUSH2 0x26F JUMPI JUMPDEST ISZERO PUSH2 0x23E JUMPI DUP3 PUSH2 0x23B PUSH2 0xA5C JUMP JUMPDEST DUP1 RETURN JUMPDEST SWAP1 PUSH1 0x20 PUSH1 0x64 SWAP3 MLOAD SWAP2 PUSH3 0x461BCD PUSH1 0xE5 SHL DUP4 MSTORE DUP3 ADD MSTORE PUSH1 0xB PUSH1 0x24 DUP3 ADD MSTORE PUSH11 0x1393D517D0531313D5D151 PUSH1 0xAA SHL PUSH1 0x44 DUP3 ADD MSTORE REVERT JUMPDEST POP PUSH1 0xFF PUSH1 0xE SLOAD PUSH1 0xA0 SHR AND PUSH2 0x22D JUMP JUMPDEST DUP3 DUP1 REVERT JUMPDEST POP POP CALLVALUE PUSH2 0x174 JUMPI DUP2 PUSH1 0x3 NOT CALLDATASIZE ADD SLT PUSH2 0x174 JUMPI PUSH1 0xD SLOAD SWAP1 MLOAD PUSH1 0x1 PUSH1 0x1 PUSH1 0xA0 SHL SUB SWAP1 SWAP2 AND DUP2 MSTORE PUSH1 0x20 SWAP1 RETURN JUMPDEST SWAP2 SWAP1 POP CALLVALUE PUSH2 0x27E JUMPI CALLDATASIZE PUSH1 0x3 NOT ADD SLT PUSH2 0x174 JUMPI CALLDATALOAD PUSH1 0x24 CALLDATALOAD PUSH2 0xFFFF DUP1 DUP3 AND DUP1 SWAP3 SUB PUSH2 0x314 JUMPI PUSH2 0x2E3 PUSH1 0x1 DUP1 PUSH1 0xA0 SHL SUB PUSH1 0xD SLOAD AND CALLER EQ PUSH2 0xA9C JUMP JUMPDEST PUSH1 0x6 SLOAD ISZERO PUSH2 0x2EF JUMPI DUP4 DUP1 RETURN JUMPDEST DUP3 PUSH2 0x305 SWAP2 PUSH2 0x30A SWAP5 PUSH1 0x6 SSTORE PUSH1 0x8 SLOAD AND SWAP1 PUSH2 0xAD6 JUMP JUMPDEST PUSH2 0xAD6 JUMP JUMPDEST PUSH1 0x7 SSTORE CODESIZE DUP1 DUP1 DUP4 DUP1 RETURN JUMPDEST DUP4 DUP1 REVERT JUMPDEST POP POP CALLVALUE PUSH2 0x174 JUMPI PUSH1 0x20 CALLDATASIZE PUSH1 0x3 NOT ADD SLT PUSH2 0x174 JUMPI PUSH1 0x20 SWAP2 PUSH1 0xFF SWAP1 DUP3 SWAP1 PUSH1 0x1 PUSH1 0x1 PUSH1 0xA0 SHL SUB PUSH2 0x343 PUSH2 0xA2B JUMP JUMPDEST AND DUP2 MSTORE PUSH1 0xC DUP6 MSTORE KECCAK256 SLOAD AND SWAP1 MLOAD SWAP1 ISZERO ISZERO DUP2 MSTORE RETURN JUMPDEST POP POP CALLVALUE PUSH2 0x174 JUMPI PUSH1 0x20 CALLDATASIZE PUSH1 0x3 NOT ADD SLT PUSH2 0x174 JUMPI PUSH1 0x20 SWAP2 PUSH1 0xFF SWAP1 DUP3 SWAP1 PUSH1 0x1 PUSH1 0x1 PUSH1 0xA0 SHL SUB PUSH2 0x381 PUSH2 0xA2B JUMP JUMPDEST AND DUP2 MSTORE PUSH1 0x9 DUP6 MSTORE KECCAK256 SLOAD AND SWAP1 MLOAD SWAP1 ISZERO ISZERO DUP2 MSTORE RETURN JUMPDEST POP POP CALLVALUE PUSH2 0x174 JUMPI DUP1 PUSH1 0x3 NOT CALLDATASIZE ADD SLT PUSH2 0x174 JUMPI PUSH1 0x20 SWAP1 PUSH2 0x3BE PUSH2 0x3B4 PUSH2 0xA2B JUMP JUMPDEST PUSH1 0x24 CALLDATALOAD SWAP1 CALLER PUSH2 0xB3C JUMP JUMPDEST MLOAD PUSH1 0x1 DUP2 MSTORE RETURN JUMPDEST POP POP CALLVALUE PUSH2 0x174 JUMPI DUP2 PUSH1 0x3 NOT CALLDATASIZE ADD SLT PUSH2 0x174 JUMPI PUSH1 0xB SLOAD SWAP1 MLOAD PUSH1 0x1 PUSH1 0x1 PUSH1 0xA0 SHL SUB SWAP1 SWAP2 AND DUP2 MSTORE PUSH1 0x20 SWAP1 RETURN JUMPDEST POP POP CALLVALUE PUSH2 0x174 JUMPI DUP2 PUSH1 0x3 NOT CALLDATASIZE ADD SLT PUSH2 0x174 JUMPI PUSH1 0x8 SLOAD SWAP1 MLOAD PUSH1 0x20 SWAP2 DUP3 SHR PUSH1 0xFF AND ISZERO ISZERO DUP2 MSTORE RETURN JUMPDEST POP POP CALLVALUE PUSH2 0x174 JUMPI DUP2 PUSH1 0x3 NOT CALLDATASIZE ADD SLT PUSH2 0x174 JUMPI PUSH1 0x20 SWAP1 PUSH1 0x7 SLOAD SWAP1 MLOAD SWAP1 DUP2 MSTORE RETURN JUMPDEST DUP4 DUP4 CALLVALUE PUSH2 0x174 JUMPI DUP2 PUSH1 0x3 NOT CALLDATASIZE ADD SLT PUSH2 0x174 JUMPI DUP1 MLOAD SWAP1 DUP3 PUSH1 0x2 SLOAD PUSH1 0x1 DUP2 DUP2 SHR SWAP1 DUP1 DUP4 AND SWAP3 DUP4 ISZERO PUSH2 0x549 JUMPI JUMPDEST PUSH1 0x20 SWAP4 DUP5 DUP5 LT DUP2 EQ PUSH2 0x536 JUMPI DUP4 DUP9 MSTORE SWAP1 DUP2 ISZERO PUSH2 0x51A JUMPI POP PUSH1 0x1 EQ PUSH2 0x4C4 JUMPI JUMPDEST POP POP POP DUP3 SWAP1 SUB PUSH1 0x1F ADD PUSH1 0x1F NOT AND DUP3 ADD SWAP3 PUSH8 0xFFFFFFFFFFFFFFFF DUP5 GT DUP4 DUP6 LT OR PUSH2 0x4B1 JUMPI POP DUP3 SWAP2 DUP3 PUSH2 0x4AD SWAP3 MSTORE DUP3 PUSH2 0x9E2 JUMP JUMPDEST SUB SWAP1 RETURN JUMPDEST PUSH4 0x4E487B71 PUSH1 0xE0 SHL DUP2 MSTORE PUSH1 0x41 DUP6 MSTORE PUSH1 0x24 SWAP1 REVERT JUMPDEST PUSH1 0x2 DUP8 MSTORE SWAP2 SWAP3 POP DUP6 SWAP2 DUP4 PUSH32 0x405787FA12A823E0F2B7631CC41B3BA8828B3321CA811111FA75CD3AA3BB5ACE JUMPDEST DUP4 DUP6 LT PUSH2 0x506 JUMPI POP POP POP POP DUP4 ADD ADD DUP6 DUP1 DUP1 PUSH2 0x47B JUMP JUMPDEST DUP1 SLOAD DUP9 DUP7 ADD DUP4 ADD MSTORE SWAP4 ADD SWAP3 DUP5 SWAP1 DUP3 ADD PUSH2 0x4F0 JUMP JUMPDEST PUSH1 0xFF NOT AND DUP8 DUP6 ADD MSTORE POP POP ISZERO ISZERO PUSH1 0x5 SHL DUP5 ADD ADD SWAP1 POP DUP6 DUP1 DUP1 PUSH2 0x47B JUMP JUMPDEST PUSH4 0x4E487B71 PUSH1 0xE0 SHL DUP10 MSTORE PUSH1 0x22 DUP11 MSTORE PUSH1 0x24 DUP10 REVERT JUMPDEST SWAP2 PUSH1 0x7F AND SWAP2 PUSH2 0x45C JUMP JUMPDEST POP POP CALLVALUE PUSH2 0x174 JUMPI DUP2 PUSH1 0x3 NOT CALLDATASIZE ADD SLT PUSH2 0x174 JUMPI SWAP1 SLOAD SWAP1 MLOAD PUSH1 0x1 PUSH1 0x1 PUSH1 0xA0 SHL SUB SWAP1 SWAP2 AND DUP2 MSTORE PUSH1 0x20 SWAP1 RETURN JUMPDEST POP POP CALLVALUE PUSH2 0x174 JUMPI PUSH1 0x20 CALLDATASIZE PUSH1 0x3 NOT ADD SLT PUSH2 0x174 JUMPI PUSH1 0x20 SWAP2 DUP2 SWAP1 PUSH1 0x1 PUSH1 0x1 PUSH1 0xA0 SHL SUB PUSH2 0x5A3 PUSH2 0xA2B JUMP JUMPDEST AND DUP2 MSTORE PUSH1 0xA DUP5 MSTORE KECCAK256 SLOAD SWAP1 MLOAD SWAP1 DUP2 MSTORE RETURN JUMPDEST SWAP1 POP CALLVALUE PUSH2 0x27E JUMPI PUSH1 0x20 CALLDATASIZE PUSH1 0x3 NOT ADD SLT PUSH2 0x27E JUMPI PUSH2 0x5CE PUSH2 0xA2B JUMP JUMPDEST PUSH1 0xD SLOAD PUSH1 0x1 PUSH1 0x1 PUSH1 0xA0 SHL SUB SWAP2 DUP3 SWAP2 PUSH2 0x5E9 SWAP1 DUP4 AND CALLER EQ PUSH2 0xA9C JUMP JUMPDEST AND SWAP2 DUP3 ISZERO PUSH2 0x62D JUMPI POP PUSH1 0xB SLOAD DUP3 SWAP2 DUP2 AND ISZERO PUSH2 0x618 JUMPI JUMPDEST POP POP DUP3 MSTORE PUSH1 0xC PUSH1 0x20 MSTORE DUP2 KECCAK256 DUP1 SLOAD PUSH1 0xFF NOT AND PUSH1 0x1 OR SWAP1 SSTORE DUP1 RETURN JUMPDEST PUSH1 0x1 PUSH1 0x1 PUSH1 0xA0 SHL SUB NOT AND OR PUSH1 0xB SSTORE DUP1 CODESIZE PUSH2 0x5FF JUMP JUMPDEST PUSH1 0x64 SWAP1 PUSH1 0x20 DUP6 MLOAD SWAP2 PUSH3 0x461BCD PUSH1 0xE5 SHL DUP4 MSTORE DUP3 ADD MSTORE PUSH1 0x8 PUSH1 0x24 DUP3 ADD MSTORE PUSH8 0x2120A22FA820A4A9 PUSH1 0xC1 SHL PUSH1 0x44 DUP3 ADD MSTORE REVERT JUMPDEST SWAP2 SWAP1 POP CALLVALUE PUSH2 0x27E JUMPI DUP3 PUSH1 0x3 NOT CALLDATASIZE ADD SLT PUSH2 0x27E JUMPI DUP3 SLOAD PUSH1 0x1 PUSH1 0x1 PUSH1 0xA0 SHL SUB AND CALLER SUB PUSH2 0x688 JUMPI DUP3 PUSH2 0x23B PUSH2 0xA5C JUMP JUMPDEST SWAP1 PUSH1 0x20 PUSH1 0x64 SWAP3 MLOAD SWAP2 PUSH3 0x461BCD PUSH1 0xE5 SHL DUP4 MSTORE DUP3 ADD MSTORE PUSH1 0x9 PUSH1 0x24 DUP3 ADD MSTORE PUSH9 0x2727AA2FA7ABA722A9 PUSH1 0xB9 SHL PUSH1 0x44 DUP3 ADD MSTORE REVERT JUMPDEST SWAP1 POP CALLVALUE PUSH2 0x27E JUMPI PUSH1 0x20 CALLDATASIZE PUSH1 0x3 NOT ADD SLT PUSH2 0x27E JUMPI PUSH1 0x20 SWAP3 DUP3 SWAP2 PUSH1 0x1 PUSH1 0x1 PUSH1 0xA0 SHL SUB PUSH2 0x6DF PUSH2 0xA2B JUMP JUMPDEST AND DUP3 MSTORE DUP5 MSTORE KECCAK256 SLOAD SWAP1 MLOAD SWAP1 DUP2 MSTORE RETURN JUMPDEST POP POP CALLVALUE PUSH2 0x174 JUMPI DUP2 PUSH1 0x3 NOT CALLDATASIZE ADD SLT PUSH2 0x174 JUMPI PUSH1 0x20 SWAP1 PUSH2 0xFFFF PUSH1 0x8 SLOAD AND SWAP1 MLOAD SWAP1 DUP2 MSTORE RETURN JUMPDEST DUP1 SWAP2 DUP5 CALLVALUE PUSH2 0x78E JUMPI PUSH1 0x20 CALLDATASIZE PUSH1 0x3 NOT ADD SLT PUSH2 0x78E JUMPI DUP2 CALLDATALOAD SWAP2 CALLER DUP5 MSTORE DUP1 PUSH1 0x20 MSTORE PUSH2 0x747 DUP4 DUP4 DUP7 KECCAK256 SLOAD PUSH2 0x742 DUP3 DUP3 LT ISZERO PUSH2 0xB06 JUMP JUMPDEST PUSH2 0xAF9 JUMP JUMPDEST SWAP1 CALLER DUP6 MSTORE PUSH1 0x20 MSTORE DUP2 DUP5 KECCAK256 SSTORE PUSH2 0x75E DUP3 PUSH1 0x3 SLOAD PUSH2 0xAF9 JUMP JUMPDEST PUSH1 0x3 SSTORE MLOAD SWAP1 DUP2 MSTORE PUSH32 0xDDF252AD1BE2C89B69C2B068FC378DAA952BA7F163C4A11628F55A4DF523B3EF PUSH1 0x20 CALLER SWAP3 LOG3 DUP1 RETURN JUMPDEST POP POP REVERT JUMPDEST POP POP CALLVALUE PUSH2 0x174 JUMPI DUP2 PUSH1 0x3 NOT CALLDATASIZE ADD SLT PUSH2 0x174 JUMPI PUSH1 0x20 SWAP1 MLOAD PUSH1 0x12 DUP2 MSTORE RETURN JUMPDEST SWAP2 SWAP1 POP CALLVALUE PUSH2 0x27E JUMPI PUSH1 0x60 CALLDATASIZE PUSH1 0x3 NOT ADD SLT PUSH2 0x27E JUMPI PUSH2 0x7CA PUSH2 0xA2B JUMP JUMPDEST PUSH2 0x7D2 PUSH2 0xA46 JUMP JUMPDEST PUSH1 0x44 CALLDATALOAD SWAP2 PUSH1 0x1 DUP1 PUSH1 0xA0 SHL SUB DUP2 AND DUP1 DUP8 MSTORE PUSH1 0x20 SWAP6 PUSH1 0x5 DUP8 MSTORE DUP6 DUP9 KECCAK256 CALLER DUP10 MSTORE DUP8 MSTORE DUP6 DUP9 KECCAK256 SLOAD SWAP1 DUP6 DUP3 LT PUSH2 0x825 JUMPI POP SWAP5 DUP1 SWAP7 SWAP8 PUSH2 0x80F DUP7 PUSH2 0x3BE SWAP9 PUSH2 0xAF9 JUMP JUMPDEST SWAP3 DUP2 MSTORE PUSH1 0x5 DUP10 MSTORE DUP2 DUP2 KECCAK256 CALLER DUP3 MSTORE DUP10 MSTORE KECCAK256 SSTORE PUSH2 0xB3C JUMP JUMPDEST DUP7 MLOAD PUSH3 0x461BCD PUSH1 0xE5 SHL DUP2 MSTORE SWAP1 DUP2 ADD DUP9 SWAP1 MSTORE PUSH1 0x9 PUSH1 0x24 DUP3 ADD MSTORE PUSH9 0x414C4C4F57414E4345 PUSH1 0xB8 SHL PUSH1 0x44 DUP3 ADD MSTORE PUSH1 0x64 SWAP1 REVERT JUMPDEST POP POP CALLVALUE PUSH2 0x174 JUMPI DUP2 PUSH1 0x3 NOT CALLDATASIZE ADD SLT PUSH2 0x174 JUMPI PUSH1 0x20 SWAP1 PUSH1 0xFF PUSH1 0xE SLOAD PUSH1 0xA0 SHR AND SWAP1 MLOAD SWAP1 ISZERO ISZERO DUP2 MSTORE RETURN JUMPDEST POP POP CALLVALUE PUSH2 0x174 JUMPI DUP2 PUSH1 0x3 NOT CALLDATASIZE ADD SLT PUSH2 0x174 JUMPI PUSH1 0x20 SWAP1 PUSH1 0x3 SLOAD SWAP1 MLOAD SWAP1 DUP2 MSTORE RETURN JUMPDEST POP POP CALLVALUE PUSH2 0x174 JUMPI DUP1 PUSH1 0x3 NOT CALLDATASIZE ADD SLT PUSH2 0x174 JUMPI PUSH1 0x20 SWAP2 DUP2 PUSH2 0x8B8 PUSH2 0xA2B JUMP JUMPDEST SWAP2 PUSH1 0x24 CALLDATALOAD SWAP2 DUP3 SWAP2 CALLER DUP2 MSTORE PUSH1 0x5 DUP8 MSTORE DUP2 DUP2 KECCAK256 SWAP5 PUSH1 0x1 DUP1 PUSH1 0xA0 SHL SUB AND SWAP5 DUP6 DUP3 MSTORE DUP8 MSTORE KECCAK256 SSTORE DUP3 MLOAD SWAP1 DUP2 MSTORE PUSH32 0x8C5BE1E5EBEC7D5BD14F71427D1E84F3DD0314C0F7B2291E5B200AC8C7C3B925 DUP5 CALLER SWAP3 LOG3 MLOAD PUSH1 0x1 DUP2 MSTORE RETURN JUMPDEST DUP5 SWAP1 DUP5 CALLVALUE PUSH2 0x27E JUMPI DUP3 PUSH1 0x3 NOT CALLDATASIZE ADD SLT PUSH2 0x27E JUMPI DUP3 PUSH1 0x1 DUP1 SLOAD SWAP1 DUP2 DUP2 SHR SWAP1 DUP1 DUP4 AND SWAP3 DUP4 ISZERO PUSH2 0x9D8 JUMPI JUMPDEST PUSH1 0x20 SWAP4 DUP5 DUP5 LT DUP2 EQ PUSH2 0x536 JUMPI DUP4 DUP9 MSTORE SWAP1 DUP2 ISZERO PUSH2 0x51A JUMPI POP PUSH1 0x1 EQ PUSH2 0x983 JUMPI POP POP POP DUP3 SWAP1 SUB PUSH1 0x1F ADD PUSH1 0x1F NOT AND DUP3 ADD SWAP3 PUSH8 0xFFFFFFFFFFFFFFFF DUP5 GT DUP4 DUP6 LT OR PUSH2 0x4B1 JUMPI POP DUP3 SWAP2 DUP3 PUSH2 0x4AD SWAP3 MSTORE DUP3 PUSH2 0x9E2 JUMP JUMPDEST DUP1 DUP8 MSTORE SWAP2 SWAP3 POP DUP6 SWAP2 DUP4 PUSH32 0xB10E2D527612073B26EECDFD717E6A320CF44B4AFAC2B0732D9FCBE2B7FA0CF6 JUMPDEST DUP4 DUP6 LT PUSH2 0x9C4 JUMPI POP POP POP POP DUP4 ADD ADD DUP6 DUP1 DUP1 PUSH2 0x47B JUMP JUMPDEST DUP1 SLOAD DUP9 DUP7 ADD DUP4 ADD MSTORE SWAP4 ADD SWAP3 DUP5 SWAP1 DUP3 ADD PUSH2 0x9AE JUMP JUMPDEST SWAP2 PUSH1 0x7F AND SWAP2 PUSH2 0x933 JUMP JUMPDEST PUSH1 0x20 DUP1 DUP3 MSTORE DUP3 MLOAD DUP2 DUP4 ADD DUP2 SWAP1 MSTORE SWAP1 SWAP4 SWAP3 PUSH1 0x0 JUMPDEST DUP3 DUP2 LT PUSH2 0xA17 JUMPI POP POP PUSH1 0x40 SWAP3 SWAP4 POP PUSH1 0x0 DUP4 DUP3 DUP5 ADD ADD MSTORE PUSH1 0x1F DUP1 NOT SWAP2 ADD AND ADD ADD SWAP1 JUMP JUMPDEST DUP2 DUP2 ADD DUP7 ADD MLOAD DUP5 DUP3 ADD PUSH1 0x40 ADD MSTORE DUP6 ADD PUSH2 0x9F5 JUMP JUMPDEST PUSH1 0x4 CALLDATALOAD SWAP1 PUSH1 0x1 PUSH1 0x1 PUSH1 0xA0 SHL SUB DUP3 AND DUP3 SUB PUSH2 0xA41 JUMPI JUMP JUMPDEST PUSH1 0x0 DUP1 REVERT JUMPDEST PUSH1 0x24 CALLDATALOAD SWAP1 PUSH1 0x1 PUSH1 0x1 PUSH1 0xA0 SHL SUB DUP3 AND DUP3 SUB PUSH2 0xA41 JUMPI JUMP JUMPDEST PUSH1 0x0 DUP1 SLOAD PUSH1 0x1 PUSH1 0x1 PUSH1 0xA0 SHL SUB NOT DUP2 AND DUP3 SSTORE PUSH1 0x1 PUSH1 0x1 PUSH1 0xA0 SHL SUB AND PUSH32 0x8BE0079C531659141344CD1FD0A4F28419497F9722A3DAAFE3B4186F6B6457E0 DUP3 DUP1 LOG3 JUMP JUMPDEST ISZERO PUSH2 0xAA3 JUMPI JUMP JUMPDEST PUSH1 0x40 MLOAD PUSH3 0x461BCD PUSH1 0xE5 SHL DUP2 MSTORE PUSH1 0x20 PUSH1 0x4 DUP3 ADD MSTORE PUSH1 0xB PUSH1 0x24 DUP3 ADD MSTORE PUSH11 0x4E4F545F464143544F5259 PUSH1 0xA8 SHL PUSH1 0x44 DUP3 ADD MSTORE PUSH1 0x64 SWAP1 REVERT JUMPDEST SWAP2 SWAP1 DUP3 ADD DUP1 SWAP3 GT PUSH2 0xAE3 JUMPI JUMP JUMPDEST PUSH4 0x4E487B71 PUSH1 0xE0 SHL PUSH1 0x0 MSTORE PUSH1 0x11 PUSH1 0x4 MSTORE PUSH1 0x24 PUSH1 0x0 REVERT JUMPDEST SWAP2 SWAP1 DUP3 SUB SWAP2 DUP3 GT PUSH2 0xAE3 JUMPI JUMP JUMPDEST ISZERO PUSH2 0xB0D JUMPI JUMP JUMPDEST PUSH1 0x40 MLOAD PUSH3 0x461BCD PUSH1 0xE5 SHL DUP2 MSTORE PUSH1 0x20 PUSH1 0x4 DUP3 ADD MSTORE PUSH1 0x7 PUSH1 0x24 DUP3 ADD MSTORE PUSH7 0x42414C414E4345 PUSH1 0xC8 SHL PUSH1 0x44 DUP3 ADD MSTORE PUSH1 0x64 SWAP1 REVERT JUMPDEST PUSH1 0x1 PUSH1 0x1 PUSH1 0xA0 SHL SUB SWAP4 SWAP3 DUP5 DUP4 AND SWAP3 SWAP1 DUP4 ISZERO PUSH2 0xD1B JUMPI DUP6 DUP4 AND SWAP3 PUSH1 0x0 DUP5 DUP2 MSTORE PUSH1 0x4 SWAP8 PUSH1 0x20 SWAP5 DUP10 DUP7 MSTORE PUSH1 0x40 SWAP4 PUSH2 0xB75 DUP7 DUP7 DUP7 KECCAK256 SLOAD LT ISZERO PUSH2 0xB06 JUMP JUMPDEST DUP8 DUP5 MSTORE PUSH1 0x9 DUP8 MSTORE PUSH1 0xFF DUP6 DUP6 KECCAK256 SLOAD AND ISZERO DUP1 PUSH2 0xD0A JUMPI JUMPDEST PUSH2 0xBE9 JUMPI JUMPDEST POP POP POP DUP1 DUP6 SWAP7 SWAP8 SWAP9 PUSH32 0xDDF252AD1BE2C89B69C2B068FC378DAA952BA7F163C4A11628F55A4DF523B3EF SWAP7 DUP5 SWAP4 MSTORE DUP1 DUP7 MSTORE DUP3 DUP3 KECCAK256 PUSH2 0xBCD DUP7 DUP3 SLOAD PUSH2 0xAF9 JUMP JUMPDEST SWAP1 SSTORE DUP9 DUP3 MSTORE DUP6 MSTORE KECCAK256 PUSH2 0xBE0 DUP4 DUP3 SLOAD PUSH2 0xAD6 JUMP JUMPDEST SWAP1 SSTORE MLOAD SWAP1 DUP2 MSTORE LOG3 JUMP JUMPDEST PUSH1 0x6 SLOAD DUP1 ISZERO PUSH2 0xCFA JUMPI PUSH1 0x8 SLOAD SWAP1 PUSH2 0xC06 PUSH2 0xFFFF SWAP2 DUP3 DUP5 AND SWAP1 PUSH2 0xAD6 JUMP JUMPDEST NUMBER GT ISZERO PUSH2 0xCEA JUMPI PUSH1 0x7 SLOAD NUMBER GT ISZERO PUSH2 0xC1F JUMPI JUMPDEST POP POP PUSH2 0xB8F JUMP JUMPDEST PUSH1 0x3 SLOAD SWAP1 DUP3 PUSH1 0x10 SHR AND SWAP1 DUP2 DUP2 MUL SWAP2 DUP2 DUP4 DIV EQ SWAP1 ISZERO OR ISZERO PUSH2 0xCD7 JUMPI PUSH2 0x2710 SWAP1 DIV DUP8 GT PUSH2 0xCC7 JUMPI DUP8 SHR PUSH1 0xFF AND PUSH2 0xC55 JUMPI JUMPDEST DUP1 DUP1 PUSH2 0xC18 JUMP JUMPDEST DUP8 DUP5 MSTORE PUSH1 0xC DUP8 MSTORE DUP5 DUP5 KECCAK256 SLOAD PUSH1 0xFF AND ISZERO PUSH2 0xCC0 JUMPI POP JUMPDEST AND DUP1 DUP3 MSTORE PUSH1 0xA DUP6 MSTORE NUMBER DUP4 DUP4 KECCAK256 SLOAD EQ PUSH2 0xCB0 JUMPI DUP2 MSTORE PUSH1 0xA DUP5 MSTORE DUP2 DUP2 KECCAK256 NUMBER SWAP1 SSTORE DUP1 PUSH32 0xDDF252AD1BE2C89B69C2B068FC378DAA952BA7F163C4A11628F55A4DF523B3EF DUP4 PUSH2 0xC4E JUMP JUMPDEST DUP3 MLOAD PUSH4 0xAA9A98DF PUSH1 0xE0 SHL DUP2 MSTORE DUP10 SWAP1 REVERT JUMPDEST SWAP1 POP PUSH2 0xC6A JUMP JUMPDEST DUP6 MLOAD PUSH4 0x4D22AEDF PUSH1 0xE1 SHL DUP2 MSTORE DUP13 SWAP1 REVERT JUMPDEST PUSH4 0x4E487B71 PUSH1 0xE0 SHL DUP7 MSTORE PUSH1 0x11 DUP14 MSTORE PUSH1 0x24 DUP7 REVERT JUMPDEST DUP7 MLOAD PUSH4 0x7B85E8B9 PUSH1 0xE0 SHL DUP2 MSTORE DUP14 SWAP1 REVERT JUMPDEST DUP6 MLOAD PUSH4 0x12F1F923 PUSH1 0xE0 SHL DUP2 MSTORE DUP13 SWAP1 REVERT JUMPDEST POP DUP9 DUP5 MSTORE PUSH1 0xFF DUP6 DUP6 KECCAK256 SLOAD AND ISZERO PUSH2 0xB8A JUMP JUMPDEST PUSH1 0x40 MLOAD PUSH3 0x461BCD PUSH1 0xE5 SHL DUP2 MSTORE PUSH1 0x20 PUSH1 0x4 DUP3 ADD MSTORE PUSH1 0x9 PUSH1 0x24 DUP3 ADD MSTORE PUSH9 0x2D22A927AFA0A22229 PUSH1 0xB9 SHL PUSH1 0x44 DUP3 ADD MSTORE PUSH1 0x64 SWAP1 REVERT INVALID LOG2 PUSH5 0x6970667358 0x22 SLT KECCAK256 0x2E 0x5E TIMESTAMP DIV 0xB4 SWAP5 0x24 GT PUSH24 0xE46C5A1BD91335D292D71619C939F6016B84A732D3F54564 PUSH20 0x6F6C63430008140033DDF252AD1BE2C89B69C2B0 PUSH9 0xFC378DAA952BA7F163 0xC4 LOG1 AND 0x28 CREATE2 GAS 0x4D CREATE2 0x23 0xB3 0xEF 0xB1 0xE 0x2D MSTORE PUSH23 0x12073B26EECDFD717E6A320CF44B4AFAC2B0732D9FCBE2 0xB7 STATICCALL 0xC 0xF6 LOG2 PUSH5 0x6970667358 0x22 SLT KECCAK256 SWAP11 SWAP4 MOD SWAP8 LT SMOD 0xCF PUSH32 0x1CC9B8FB84EF1304795865E15D340E58FE43B2F551C8043C64736F6C63430008 EQ STOP CALLER PUSH1 0xA0 CALLVALUE PUSH2 0xAA JUMPI PUSH1 0x1F PUSH2 0x704 CODESIZE DUP2 SWAP1 SUB SWAP2 DUP3 ADD PUSH1 0x1F NOT AND DUP4 ADD SWAP2 PUSH1 0x1 PUSH1 0x1 PUSH1 0x40 SHL SUB DUP4 GT DUP5 DUP5 LT OR PUSH2 0xAF JUMPI DUP1 DUP5 SWAP3 PUSH1 0x20 SWAP5 PUSH1 0x40 MSTORE DUP4 CODECOPY DUP2 ADD SUB SLT PUSH2 0xAA JUMPI MLOAD PUSH1 0x1 PUSH1 0x1 PUSH1 0xA0 SHL SUB DUP2 AND DUP1 DUP3 SUB PUSH2 0xAA JUMPI ISZERO PUSH2 0x77 JUMPI PUSH1 0x80 MSTORE PUSH1 0x40 MLOAD PUSH2 0x63E SWAP1 DUP2 PUSH2 0xC6 DUP3 CODECOPY PUSH1 0x80 MLOAD DUP2 DUP2 DUP2 PUSH2 0x128 ADD MSTORE PUSH2 0x356 ADD MSTORE RETURN JUMPDEST PUSH1 0x40 MLOAD PUSH3 0x461BCD PUSH1 0xE5 SHL DUP2 MSTORE PUSH1 0x20 PUSH1 0x4 DUP3 ADD MSTORE PUSH1 0xB PUSH1 0x24 DUP3 ADD MSTORE PUSH11 0x4241445F464143544F5259 PUSH1 0xA8 SHL PUSH1 0x44 DUP3 ADD MSTORE PUSH1 0x64 SWAP1 REVERT JUMPDEST PUSH1 0x0 DUP1 REVERT JUMPDEST PUSH4 0x4E487B71 PUSH1 0xE0 SHL PUSH1 0x0 MSTORE PUSH1 0x41 PUSH1 0x4 MSTORE PUSH1 0x24 PUSH1 0x0 REVERT INVALID PUSH1 0x40 PUSH1 0x80 DUP2 MSTORE PUSH1 0x4 SWAP1 DUP2 CALLDATASIZE LT ISZERO PUSH2 0x15 JUMPI PUSH1 0x0 DUP1 REVERT JUMPDEST PUSH1 0x0 SWAP2 DUP3 CALLDATALOAD PUSH1 0xE0 SHR DUP1 PUSH4 0x2E1A7D4D EQ PUSH2 0x3A6 JUMPI DUP1 PUSH4 0x85CB7202 EQ PUSH2 0x389 JUMPI DUP1 PUSH4 0xC45A0155 EQ PUSH2 0x341 JUMPI DUP1 PUSH4 0xEE3D71D2 EQ PUSH2 0xD1 JUMPI PUSH4 0xF4DADC61 EQ PUSH2 0x58 JUMPI PUSH1 0x0 DUP1 REVERT JUMPDEST CALLVALUE PUSH2 0xCD JUMPI PUSH1 0x20 CALLDATASIZE PUSH1 0x3 NOT ADD SLT PUSH2 0xCD JUMPI CALLDATALOAD SWAP2 DUP1 SLOAD DUP4 LT ISZERO PUSH2 0xCA JUMPI POP PUSH1 0xFF PUSH2 0x82 PUSH1 0xA0 SWAP4 PUSH2 0x5BB JUMP JUMPDEST POP PUSH1 0x1 DUP1 DUP6 SHL SUB SWAP3 DUP4 DUP3 SLOAD AND SWAP4 PUSH1 0x1 DUP4 ADD SLOAD AND SWAP2 PUSH1 0x3 PUSH1 0x2 DUP3 ADD SLOAD SWAP2 ADD SLOAD SWAP3 DUP3 MLOAD SWAP6 DUP7 MSTORE PUSH1 0x20 DUP7 ADD MSTORE DUP2 DUP6 ADD MSTORE PUSH8 0xFFFFFFFFFFFFFFFF DUP3 AND PUSH1 0x60 DUP6 ADD MSTORE SHR AND ISZERO ISZERO PUSH1 0x80 DUP3 ADD MSTORE RETURN JUMPDEST DUP1 REVERT JUMPDEST DUP3 DUP1 REVERT JUMPDEST POP SWAP1 CALLVALUE PUSH2 0xCD JUMPI PUSH1 0x80 CALLDATASIZE PUSH1 0x3 NOT ADD SLT PUSH2 0xCD JUMPI PUSH1 0x1 PUSH1 0x1 PUSH1 0xA0 SHL SUB DUP3 CALLDATALOAD DUP2 DUP2 AND SWAP1 DUP2 SWAP1 SUB PUSH2 0x33D JUMPI PUSH1 0x24 SWAP2 DUP3 CALLDATALOAD SWAP3 DUP2 DUP5 AND DUP1 SWAP5 SUB PUSH2 0x339 JUMPI PUSH1 0x44 CALLDATALOAD SWAP7 PUSH1 0x64 CALLDATALOAD SWAP3 PUSH8 0xFFFFFFFFFFFFFFFF SWAP1 DUP2 DUP6 AND DUP1 SWAP6 SUB PUSH2 0xCD JUMPI DUP1 PUSH32 0x0 AND CALLER SUB PUSH2 0x309 JUMPI DUP6 ISZERO ISZERO DUP1 PUSH2 0x300 JUMPI JUMPDEST ISZERO PUSH2 0x2D1 JUMPI DUP10 ISZERO PUSH2 0x2A3 JUMPI DUP8 MLOAD SWAP2 PUSH1 0xA0 DUP4 ADD DUP4 DUP2 LT DUP3 DUP3 GT OR PUSH2 0x291 JUMPI DUP10 MSTORE DUP7 DUP4 MSTORE PUSH1 0x20 DUP4 ADD SWAP3 DUP9 DUP5 MSTORE DUP10 DUP2 ADD DUP13 DUP2 MSTORE PUSH1 0x60 DUP3 ADD SWAP5 DUP9 DUP7 MSTORE PUSH1 0x80 DUP4 ADD SWAP5 DUP8 DUP7 MSTORE DUP8 SLOAD PUSH1 0x1 PUSH1 0x40 SHL DUP2 LT ISZERO PUSH2 0x27F JUMPI DUP1 PUSH1 0x1 PUSH2 0x1B4 SWAP3 ADD DUP11 SSTORE PUSH2 0x5BB JUMP JUMPDEST SWAP5 SWAP1 SWAP5 PUSH2 0x26E JUMPI SWAP1 DUP1 PUSH1 0x3 SWAP6 SWAP5 SWAP4 SWAP3 MLOAD AND SWAP1 PUSH12 0xFFFFFFFFFFFFFFFFFFFFFFFF PUSH1 0xA0 SHL SWAP2 DUP3 DUP7 SLOAD AND OR DUP6 SSTORE PUSH1 0x1 DUP6 ADD SWAP3 MLOAD AND SWAP1 DUP3 SLOAD AND OR SWAP1 SSTORE MLOAD PUSH1 0x2 DUP3 ADD SSTORE ADD SWAP3 MLOAD AND PUSH1 0xFF PUSH1 0x40 SHL DUP4 SLOAD SWAP3 MLOAD ISZERO ISZERO DUP11 SHL AND SWAP2 PUSH9 0xFFFFFFFFFFFFFFFFFF NOT AND OR OR SWAP1 SSTORE DUP1 SLOAD SWAP7 PUSH1 0x0 NOT DUP9 ADD SWAP8 DUP9 GT PUSH2 0x25E JUMPI POP POP POP PUSH32 0x8304B8C1AD220F367B10EB7062C3C2E5D5568A59CAD020B216FF3D168766AF17 DUP5 PUSH1 0x20 SWAP8 DUP8 SWAP4 DUP3 MLOAD SWAP2 DUP3 MSTORE DUP10 DUP3 ADD MSTORE LOG4 MLOAD SWAP1 DUP2 MSTORE RETURN JUMPDEST PUSH4 0x4E487B71 PUSH1 0xE0 SHL DUP3 MSTORE PUSH1 0x11 SWAP1 MSTORE REVERT JUMPDEST PUSH4 0x4E487B71 PUSH1 0xE0 SHL DUP10 MSTORE DUP9 DUP16 MSTORE DUP10 DUP10 REVERT JUMPDEST PUSH4 0x4E487B71 PUSH1 0xE0 SHL DUP10 MSTORE PUSH1 0x41 DUP16 MSTORE DUP10 DUP10 REVERT JUMPDEST PUSH4 0x4E487B71 PUSH1 0xE0 SHL DUP6 MSTORE PUSH1 0x41 DUP12 MSTORE DUP6 DUP6 REVERT JUMPDEST DUP8 MLOAD PUSH3 0x461BCD PUSH1 0xE5 SHL DUP2 MSTORE PUSH1 0x20 DUP2 DUP12 ADD MSTORE PUSH1 0x9 DUP2 DUP7 ADD MSTORE PUSH9 0x1393D7D05353D55395 PUSH1 0xBA SHL PUSH1 0x44 DUP3 ADD MSTORE PUSH1 0x64 SWAP1 REVERT JUMPDEST DUP8 MLOAD PUSH3 0x461BCD PUSH1 0xE5 SHL DUP2 MSTORE PUSH1 0x20 DUP2 DUP12 ADD MSTORE PUSH1 0xA DUP2 DUP7 ADD MSTORE PUSH10 0x4241445F504152414D53 PUSH1 0xB0 SHL PUSH1 0x44 DUP3 ADD MSTORE PUSH1 0x64 SWAP1 REVERT JUMPDEST POP DUP7 ISZERO ISZERO PUSH2 0x157 JUMP JUMPDEST DUP8 MLOAD PUSH3 0x461BCD PUSH1 0xE5 SHL DUP2 MSTORE PUSH1 0x20 DUP2 DUP12 ADD MSTORE PUSH1 0xB DUP2 DUP7 ADD MSTORE PUSH11 0x4E4F545F464143544F5259 PUSH1 0xA8 SHL PUSH1 0x44 DUP3 ADD MSTORE PUSH1 0x64 SWAP1 REVERT JUMPDEST DUP7 DUP1 REVERT JUMPDEST DUP5 DUP1 REVERT JUMPDEST POP POP CALLVALUE PUSH2 0x385 JUMPI DUP2 PUSH1 0x3 NOT CALLDATASIZE ADD SLT PUSH2 0x385 JUMPI MLOAD PUSH32 0x0 PUSH1 0x1 PUSH1 0x1 PUSH1 0xA0 SHL SUB AND DUP2 MSTORE PUSH1 0x20 SWAP1 RETURN JUMPDEST POP DUP1 REVERT JUMPDEST POP POP CALLVALUE PUSH2 0x385 JUMPI DUP2 PUSH1 0x3 NOT CALLDATASIZE ADD SLT PUSH2 0x385 JUMPI PUSH1 0x20 SWAP2 SLOAD SWAP1 MLOAD SWAP1 DUP2 MSTORE RETURN JUMPDEST POP SWAP1 CALLVALUE PUSH2 0xCD JUMPI PUSH1 0x20 DUP1 PUSH1 0x3 NOT CALLDATASIZE ADD SLT PUSH2 0x5B7 JUMPI DUP3 CALLDATALOAD SWAP2 PUSH2 0x3C6 DUP4 PUSH2 0x5BB JUMP JUMPDEST POP PUSH1 0x3 DUP2 ADD SWAP5 DUP6 SLOAD SWAP1 PUSH1 0xFF DUP3 DUP6 SHR AND PUSH2 0x58A JUMPI PUSH1 0x1 DUP4 ADD SWAP2 PUSH1 0x1 DUP1 PUSH1 0xA0 SHL SUB SWAP4 DUP5 DUP5 SLOAD AND SWAP9 DUP10 CALLER SUB PUSH2 0x555 JUMPI PUSH8 0xFFFFFFFFFFFFFFFF SWAP3 DUP4 DUP2 AND TIMESTAMP LT PUSH2 0x529 JUMPI PUSH1 0x1 PUSH1 0x40 SHL SWAP1 PUSH1 0xFF PUSH1 0x40 SHL NOT AND OR SWAP1 SSTORE DUP7 PUSH1 0x2 DUP7 DUP4 SLOAD AND SWAP3 ADD SWAP10 PUSH1 0x44 DUP12 SLOAD SWAP2 DUP14 DUP11 MLOAD SWAP6 DUP7 SWAP5 DUP6 SWAP4 PUSH4 0xA9059CBB PUSH1 0xE0 SHL DUP6 MSTORE DUP11 DUP6 ADD MSTORE PUSH1 0x24 DUP5 ADD MSTORE GAS CALL SWAP2 DUP3 ISZERO PUSH2 0x51F JUMPI DUP11 SWAP3 PUSH2 0x4BF JUMPI JUMPDEST POP POP ISZERO PUSH2 0x489 JUMPI POP SWAP1 PUSH32 0xCF7D23A3CBE4E8B36FF82FD1B05B1B17373DC7804B4EBBD6E2356716EF202372 SWAP4 SWAP3 SWAP2 SLOAD AND SWAP5 SLOAD SWAP1 MLOAD SWAP1 DUP2 MSTORE LOG3 DUP1 RETURN JUMPDEST DUP4 MLOAD PUSH3 0x461BCD PUSH1 0xE5 SHL DUP2 MSTORE SWAP1 DUP2 ADD DUP6 SWAP1 MSTORE PUSH1 0x10 PUSH1 0x24 DUP3 ADD MSTORE PUSH16 0x131417D514905394D1915497D1905253 PUSH1 0x82 SHL PUSH1 0x44 DUP3 ADD MSTORE PUSH1 0x64 SWAP1 REVERT JUMPDEST SWAP1 SWAP2 POP DUP7 SWAP1 RETURNDATASIZE DUP9 GT PUSH2 0x517 JUMPI JUMPDEST PUSH1 0x1F DUP3 ADD PUSH1 0x1F NOT AND DUP4 ADD SWAP1 DUP2 GT DUP4 DUP3 LT OR PUSH2 0x504 JUMPI DUP8 SWAP2 DUP4 SWAP2 DUP9 MSTORE DUP2 ADD SUB SLT PUSH2 0x500 JUMPI MLOAD DUP1 ISZERO ISZERO DUP2 SUB PUSH2 0x500 JUMPI CODESIZE DUP1 PUSH2 0x44F JUMP JUMPDEST DUP9 DUP1 REVERT JUMPDEST PUSH4 0x4E487B71 PUSH1 0xE0 SHL DUP12 MSTORE PUSH1 0x41 DUP5 MSTORE PUSH1 0x24 DUP12 REVERT JUMPDEST RETURNDATASIZE SWAP2 POP PUSH2 0x4CC JUMP JUMPDEST DUP7 MLOAD RETURNDATASIZE DUP13 DUP3 RETURNDATACOPY RETURNDATASIZE SWAP1 REVERT JUMPDEST DUP8 MLOAD PUSH3 0x461BCD PUSH1 0xE5 SHL DUP2 MSTORE DUP1 DUP7 ADD DUP11 SWAP1 MSTORE PUSH1 0x6 PUSH1 0x24 DUP3 ADD MSTORE PUSH6 0x1313D0D2D151 PUSH1 0xD2 SHL PUSH1 0x44 DUP3 ADD MSTORE PUSH1 0x64 SWAP1 REVERT JUMPDEST DUP7 MLOAD PUSH3 0x461BCD PUSH1 0xE5 SHL DUP2 MSTORE DUP1 DUP6 ADD DUP10 SWAP1 MSTORE PUSH1 0xF PUSH1 0x24 DUP3 ADD MSTORE PUSH15 0x4E4F545F42454E4546494349415259 PUSH1 0x88 SHL PUSH1 0x44 DUP3 ADD MSTORE PUSH1 0x64 SWAP1 REVERT JUMPDEST DUP4 MLOAD PUSH3 0x461BCD PUSH1 0xE5 SHL DUP2 MSTORE SWAP1 DUP2 ADD DUP6 SWAP1 MSTORE PUSH1 0x7 PUSH1 0x24 DUP3 ADD MSTORE PUSH7 0x414C5245414459 PUSH1 0xC8 SHL PUSH1 0x44 DUP3 ADD MSTORE PUSH1 0x64 SWAP1 REVERT JUMPDEST DUP4 DUP1 REVERT JUMPDEST SWAP1 PUSH1 0x0 SWAP2 DUP3 SLOAD DUP2 LT ISZERO PUSH2 0x5F4 JUMPI DUP3 DUP1 MSTORE PUSH1 0x2 SHL PUSH32 0x290DECD9548B62A8D60345A988386FC84BA6BC95484008F6362F93160EF3E563 ADD SWAP2 SWAP1 JUMP JUMPDEST PUSH4 0x4E487B71 PUSH1 0xE0 SHL DUP4 MSTORE PUSH1 0x32 PUSH1 0x4 MSTORE PUSH1 0x24 DUP4 REVERT INVALID LOG2 PUSH5 0x6970667358 0x22 SLT KECCAK256 0xB9 PUSH17 0xE8CFE045731EB2AC608318C7D495102AB4 CHAINID 0xB8 POP DUP7 BALANCE 0xD5 0x21 0xBD DUP14 PC 0xB1 RETURNDATACOPY 0xEA PUSH5 0x736F6C6343 STOP ADDMOD EQ STOP CALLER "},"methodIdentifiers":{"COOLDOWN_1TX_PER_BLOCK()":"74b60031","DEFAULT_LOCK_DAYS()":"f9e88c5e","FEE1()":"24f7b368","FEE2()":"ebffa67b","FEE3()":"5653c0cd","FEE4()":"3a0af582","LP_TOKEN_BPS()":"cc292505","MAX_TX_BPS()":"f40db5ec","PROTECTION_BLOCKS()":"5561079d","TRADING_DELAY_BLOCKS()":"af34da3c","WINDOW()":"a53e5412","createToken(string,string,uint256,uint256,(bool,bool,bool))":"873289b8","dexFactory()":"b8d8fbb4","getCreateFee(address)":"04e03d4c","getSoftLimitState(address)":"bf3b9a72","locker()":"d7b96d4e","minLiquidityWei()":"3b8b896d","router()":"f887ea40","treasury()":"61d027b3"}}}}}