{
  "_format": "hh-sol-artifact-1",
  "contractName": "NeonLaunchFactory",
  "sourceName": "contracts/NeonLaunchFactory.sol",
  "abi": [
    {
      "inputs": [
        {
          "internalType": "address",
          "name": "routerAddress",
          "type": "address"
        },
        {
          "internalType": "uint256",
          "name": "_minLiquidityWei",
          "type": "uint256"
        },
        {
          "internalType": "address",
          "name": "_treasury",
          "type": "address"
        }
      ],
      "stateMutability": "nonpayable",
      "type": "constructor"
    },
    {
      "anonymous": false,
      "inputs": [
        {
          "indexed": true,
          "internalType": "address",
          "name": "creator",
          "type": "address"
        },
        {
          "indexed": true,
          "internalType": "address",
          "name": "token",
          "type": "address"
        },
        {
          "indexed": true,
          "internalType": "address",
          "name": "pair",
          "type": "address"
        },
        {
          "indexed": false,
          "internalType": "uint256",
          "name": "totalSupply",
          "type": "uint256"
        },
        {
          "indexed": false,
          "internalType": "uint256",
          "name": "liquidityWei",
          "type": "uint256"
        },
        {
          "indexed": false,
          "internalType": "uint256",
          "name": "feeWei",
          "type": "uint256"
        },
        {
          "indexed": false,
          "internalType": "uint256",
          "name": "launchBlock",
          "type": "uint256"
        },
        {
          "indexed": false,
          "internalType": "uint256",
          "name": "protectionEndBlock",
          "type": "uint256"
        },
        {
          "components": [
            {
              "internalType": "bool",
              "name": "renounceOwnership",
              "type": "bool"
            },
            {
              "internalType": "bool",
              "name": "enableAntiBot",
              "type": "bool"
            },
            {
              "internalType": "bool",
              "name": "lpLockRequested",
              "type": "bool"
            }
          ],
          "indexed": false,
          "internalType": "struct NeonLaunchFactory.CreateOptions",
          "name": "options",
          "type": "tuple"
        }
      ],
      "name": "TokenCreated",
      "type": "event"
    },
    {
      "inputs": [],
      "name": "COOLDOWN_1TX_PER_BLOCK",
      "outputs": [
        {
          "internalType": "bool",
          "name": "",
          "type": "bool"
        }
      ],
      "stateMutability": "view",
      "type": "function"
    },
    {
      "inputs": [],
      "name": "DEFAULT_LOCK_DAYS",
      "outputs": [
        {
          "internalType": "uint32",
          "name": "",
          "type": "uint32"
        }
      ],
      "stateMutability": "view",
      "type": "function"
    },
    {
      "inputs": [],
      "name": "FEE1",
      "outputs": [
        {
          "internalType": "uint256",
          "name": "",
          "type": "uint256"
        }
      ],
      "stateMutability": "view",
      "type": "function"
    },
    {
      "inputs": [],
      "name": "FEE2",
      "outputs": [
        {
          "internalType": "uint256",
          "name": "",
          "type": "uint256"
        }
      ],
      "stateMutability": "view",
      "type": "function"
    },
    {
      "inputs": [],
      "name": "FEE3",
      "outputs": [
        {
          "internalType": "uint256",
          "name": "",
          "type": "uint256"
        }
      ],
      "stateMutability": "view",
      "type": "function"
    },
    {
      "inputs": [],
      "name": "FEE4",
      "outputs": [
        {
          "internalType": "uint256",
          "name": "",
          "type": "uint256"
        }
      ],
      "stateMutability": "view",
      "type": "function"
    },
    {
      "inputs": [],
      "name": "LP_TOKEN_BPS",
      "outputs": [
        {
          "internalType": "uint16",
          "name": "",
          "type": "uint16"
        }
      ],
      "stateMutability": "view",
      "type": "function"
    },
    {
      "inputs": [],
      "name": "MAX_TX_BPS",
      "outputs": [
        {
          "internalType": "uint16",
          "name": "",
          "type": "uint16"
        }
      ],
      "stateMutability": "view",
      "type": "function"
    },
    {
      "inputs": [],
      "name": "PROTECTION_BLOCKS",
      "outputs": [
        {
          "internalType": "uint16",
          "name": "",
          "type": "uint16"
        }
      ],
      "stateMutability": "view",
      "type": "function"
    },
    {
      "inputs": [],
      "name": "TRADING_DELAY_BLOCKS",
      "outputs": [
        {
          "internalType": "uint16",
          "name": "",
          "type": "uint16"
        }
      ],
      "stateMutability": "view",
      "type": "function"
    },
    {
      "inputs": [],
      "name": "WINDOW",
      "outputs": [
        {
          "internalType": "uint256",
          "name": "",
          "type": "uint256"
        }
      ],
      "stateMutability": "view",
      "type": "function"
    },
    {
      "inputs": [
        {
          "internalType": "string",
          "name": "name",
          "type": "string"
        },
        {
          "internalType": "string",
          "name": "symbol",
          "type": "string"
        },
        {
          "internalType": "uint256",
          "name": "totalSupply",
          "type": "uint256"
        },
        {
          "internalType": "uint256",
          "name": "liquidityWei",
          "type": "uint256"
        },
        {
          "components": [
            {
              "internalType": "bool",
              "name": "renounceOwnership",
              "type": "bool"
            },
            {
              "internalType": "bool",
              "name": "enableAntiBot",
              "type": "bool"
            },
            {
              "internalType": "bool",
              "name": "lpLockRequested",
              "type": "bool"
            }
          ],
          "internalType": "struct NeonLaunchFactory.CreateOptions",
          "name": "options",
          "type": "tuple"
        }
      ],
      "name": "createToken",
      "outputs": [
        {
          "internalType": "address",
          "name": "token",
          "type": "address"
        },
        {
          "internalType": "address",
          "name": "pair",
          "type": "address"
        },
        {
          "internalType": "uint256",
          "name": "liquidity",
          "type": "uint256"
        }
      ],
      "stateMutability": "payable",
      "type": "function"
    },
    {
      "inputs": [],
      "name": "dexFactory",
      "outputs": [
        {
          "internalType": "contract IPancakeFactoryV2",
          "name": "",
          "type": "address"
        }
      ],
      "stateMutability": "view",
      "type": "function"
    },
    {
      "inputs": [
        {
          "internalType": "address",
          "name": "user",
          "type": "address"
        }
      ],
      "name": "getCreateFee",
      "outputs": [
        {
          "internalType": "uint256",
          "name": "",
          "type": "uint256"
        }
      ],
      "stateMutability": "view",
      "type": "function"
    },
    {
      "inputs": [
        {
          "internalType": "address",
          "name": "user",
          "type": "address"
        }
      ],
      "name": "getSoftLimitState",
      "outputs": [
        {
          "internalType": "uint64",
          "name": "resetAt",
          "type": "uint64"
        },
        {
          "internalType": "uint8",
          "name": "count24h",
          "type": "uint8"
        }
      ],
      "stateMutability": "view",
      "type": "function"
    },
    {
      "inputs": [],
      "name": "locker",
      "outputs": [
        {
          "internalType": "contract NeonLpLocker",
          "name": "",
          "type": "address"
        }
      ],
      "stateMutability": "view",
      "type": "function"
    },
    {
      "inputs": [],
      "name": "minLiquidityWei",
      "outputs": [
        {
          "internalType": "uint256",
          "name": "",
          "type": "uint256"
        }
      ],
      "stateMutability": "view",
      "type": "function"
    },
    {
      "inputs": [],
      "name": "router",
      "outputs": [
        {
          "internalType": "contract IPancakeRouterV2",
          "name": "",
          "type": "address"
        }
      ],
      "stateMutability": "view",
      "type": "function"
    },
    {
      "inputs": [],
      "name": "treasury",
      "outputs": [
        {
          "internalType": "address",
          "name": "",
          "type": "address"
        }
      ],
      "stateMutability": "view",
      "type": "function"
    },
    {
      "stateMutability": "payable",
      "type": "receive"
    }
  ],
  "bytecode": "0x61012060409080825234620002245760608162002f88803803809162000026828562000229565b83398101031262000224576200003c816200024d565b60209162000050848483015192016200024d565b916001600160a01b039081168015620001f35781841615620001c057848160049260a05287519283809263c45a015560e01b82525afa908115620001b55760009162000175575b501660c05260805260e0528151906107048083016001600160401b038111848210176200015f5783916200288483393081520301906000f0908115620001555761010091825251612621918262000263833960805182818161035a0152610edc015260a05182818161014601528181610541015281816106340152818161071d0152610766015260c05182818161028601526107d2015260e0518281816103fe0152610e500152518181816101cf015281816106960152610a2a0152f35b513d6000823e3d90fd5b634e487b7160e01b600052604160045260246000fd5b908582813d8311620001ad575b6200018e818362000229565b81010312620001aa5750620001a3906200024d565b3862000097565b80fd5b503d62000182565b86513d6000823e3d90fd5b855162461bcd60e51b815260048101869052600c60248201526b4241445f545245415355525960a01b6044820152606490fd5b855162461bcd60e51b815260048101869052600a6024820152692120a22fa927aaaa22a960b11b6044820152606490fd5b600080fd5b601f909101601f19168101906001600160401b038211908210176200015f57604052565b51906001600160a01b0382168203620002245756fe608060405260043610156200001d575b36156200001b57600080fd5b005b6000803560e01c806304e03d4c1462000f4857806324f7b3681462000f245780633a0af5821462000eff5780633b8b896d1462000ec25780635561079d1462000ea45780635653c0cd1462000e7f57806361d027b31462000e3857806374b600311462000e1a578063873289b814620002f3578063a53e541214620002d3578063af34da3c14620002b5578063b8d8fbb4146200026e578063bf3b9a72146200021d578063cc29250514620001fe578063d7b96d4e14620001b7578063ebffa67b1462000193578063f40db5ec1462000175578063f887ea40146200012e5763f9e88c5e146200010e57506200000f565b346200012b57806003193601126200012b576020604051605a8152f35b80fd5b50346200012b57806003193601126200012b576040517f00000000000000000000000000000000000000000000000000000000000000006001600160a01b03168152602090f35b50346200012b57806003193601126200012b57602060405160328152f35b50346200012b57806003193601126200012b57602060405166b1a2bc2ec500008152f35b50346200012b57806003193601126200012b576040517f00000000000000000000000000000000000000000000000000000000000000006001600160a01b03168152602090f35b50346200012b57806003193601126200012b5760206040516103e88152f35b50346200012b5760203660031901126200012b57600435906001600160a01b03821682036200012b57604060ff62000255846200101e565b6001600160401b03849392935193168352166020820152f35b50346200012b57806003193601126200012b576040517f00000000000000000000000000000000000000000000000000000000000000006001600160a01b03168152602090f35b50346200012b57806003193601126200012b57602060405160028152f35b50346200012b57806003193601126200012b576020604051620151808152f35b5060e03660031901126200012b576004356001600160401b03811162000b06576200032390369060040162000f86565b6024929192356001600160401b03811162000e16576200034890369060040162000f86565b909190606036608319011262000e12577f00000000000000000000000000000000000000000000000000000000000000006064351062000ddf5733845283602052604084209485546001600160401b038116801590811562000dd4575b5062000d92575b50620003b833620010ac565b958054600160ff8260401c160160ff811162000d7e5760ff60401b9060401b169060ff60401b1916179055606435860180871162000d6a57340362000d355784808080897f00000000000000000000000000000000000000000000000000000000000000005af13d1562000d2f573d6001600160401b03811162000d1b576040519062000450601f8201601f19166020018362000ffc565b81528660203d92013e5b1562000ce6576200046a6200115f565b1562000cde576002915b6200047e6200115f565b1562000cd6576005945b620004926200115f565b1562000ccc576032905b620004a66200115f565b1562000cc4576001925b620004ba6200116f565b9460405197886114008101106001600160401b036114008b01111762000cb05761ffff938998979695936200050c869462000523946114008d620011ec90396101606114008e0181815201916200118f565b916114008b01830360206114008d0101526200118f565b604435611400890160408101919091523360608201523060808201527f00000000000000000000000000000000000000000000000000000000000000006001600160a01b031660a08201529190961660c082015288831660e0820152911661010082015290151561012082015290151561014090910152039083f08015620009c6576001600160a01b0316916103e86044358181029391818504149015171562000c9c57604435612710840481031162000c9c5760405163a9059cbb60e01b815233600482015261271084046044803591909103602483015260209082908186895af190811562000c3c57839162000c78575b501562000c475760405163095ea7b360e01b81526001600160a01b037f00000000000000000000000000000000000000000000000000000000000000001660048201526127108404602482015260208160448186895af190811562000c3c57839162000c06575b501562000bd2576200068e6200117f565b1562000bcb577f00000000000000000000000000000000000000000000000000000000000000006001600160a01b03165b6104b04201421162000bb7576127106040519463f305d71960e01b865286600487015204602485015282604485015282606485015260018060a01b031660848401526104b0420160a484015260608360c48160643560018060a01b037f0000000000000000000000000000000000000000000000000000000000000000165af1928315620009c657829362000b7a575b506040516315ab88c960e31b8152916020836004817f00000000000000000000000000000000000000000000000000000000000000006001600160a01b03165afa92831562000ae157819362000b54575b5060405163e6a4390560e01b8152600481018690526001600160a01b03938416602482015292602090849060449082907f0000000000000000000000000000000000000000000000000000000000000000165afa92831562000ae157819362000b1c575b50843b156200012b576040516340c3fa8b60e11b81526001600160a01b03841660048201528181602481838a5af18015620009c65762000b0a575b5090843b1562000b065761ffff60405191635b3ea13360e11b8352436004840152166024820152818160448183895af18015620009c65790829162000aee575b5050604051639605ddbb60e01b815290602082600481885afa91821562000ae157819262000aa7575b50620008b36200117f565b620009d1575b620008c36200116f565b6200097c575b50604051946044358652606435602087015260408601524360608601526080850152608435801515809103620009775760a085015260a435801515809103620009775760c085015260c43593841515809503620009775760609460e08201528360018060a01b038316917f65e0e9b2fe5ddf5dd3083f368a861e6c2035c2c7fdccd6864d77cddffdab69506101003392a4604080519384526001600160a01b03919091166020840152820152f35b600080fd5b843b156200012b5760405163ce5e589d60e01b81528181600481838a5af18015620009c657620009ae575b50620008c9565b620009ba829162000fb6565b6200012b5780620009a7565b6040513d84823e3d90fd5b6276a7004201421162000a915760405163771eb8e960e11b81526001600160a01b03848116600483015233602483015260448201869052426276a700016001600160401b031660648301526020908290608490829086907f0000000000000000000000000000000000000000000000000000000000000000165af18015620009c65762000a60575b50620008b9565b602090813d831162000a89575b62000a79818362000ffc565b8101031262000977573862000a59565b503d62000a6d565b634e487b7160e01b600052601160045260246000fd5b9091506020813d60201162000ad8575b8162000ac66020938362000ffc565b810103126200097757519038620008a8565b3d915062000ab7565b50604051903d90823e3d90fd5b62000af99062000fb6565b6200012b5780386200087f565b5080fd5b62000b159062000fb6565b386200083f565b62000b4491935060203d60201162000b4c575b62000b3b818362000ffc565b810190620011ca565b913862000804565b503d62000b2f565b62000b7291935060203d60201162000b4c5762000b3b818362000ffc565b9138620007a0565b9092506060813d60601162000bae575b8162000b996060938362000ffc565b8101031262000b06576040015191386200074f565b3d915062000b8a565b634e487b7160e01b83526011600452602483fd5b33620006bf565b60405162461bcd60e51b815260206004820152600c60248201526b1054141493d59157d190525360a21b6044820152606490fd5b62000c2d915060203d60201162000c34575b62000c24818362000ffc565b810190620011b0565b386200067d565b503d62000c18565b6040513d85823e3d90fd5b60405162461bcd60e51b81526020600482015260096024820152681611915497d190525360ba1b6044820152606490fd5b62000c95915060203d60201162000c345762000c24818362000ffc565b3862000616565b634e487b7160e01b82526011600452602482fd5b634e487b7160e01b8b52604160045260248bfd5b8792620004b0565b612710906200049c565b859462000488565b849162000474565b60405162461bcd60e51b815260206004820152600d60248201526c11915157d611915497d1905253609a1b6044820152606490fd5b634e487b7160e01b87526041600452602487fd5b6200045a565b60405162461bcd60e51b815260206004820152600d60248201526c4241445f4d53475f56414c554560981b6044820152606490fd5b634e487b7160e01b86526011600452602486fd5b634e487b7160e01b88526011600452602488fd5b62015180420180421162000dc0576001600160401b03169068ffffffffffffffffff191617865538620003ac565b634e487b7160e01b87526011600452602487fd5b9050421138620003a5565b60405162461bcd60e51b815260206004820152600b60248201526a4c49515f544f4f5f4c4f5760a81b6044820152606490fd5b8380fd5b8280fd5b50346200012b57806003193601126200012b57602060405160018152f35b50346200012b57806003193601126200012b576040517f00000000000000000000000000000000000000000000000000000000000000006001600160a01b03168152602090f35b50346200012b57806003193601126200012b57602060405167016345785d8a00008152f35b50346200012b57806003193601126200012b57602060405160058152f35b50346200012b57806003193601126200012b5760206040517f00000000000000000000000000000000000000000000000000000000000000008152f35b50346200012b57806003193601126200012b5760206040516702c68af0bb1400008152f35b50346200012b57806003193601126200012b57602060405166470de4df8200008152f35b50346200012b5760203660031901126200012b57600435906001600160a01b03821682036200012b57602062000f7e83620010ac565b604051908152f35b9181601f8401121562000977578235916001600160401b0383116200097757602083818601950101116200097757565b6001600160401b03811162000fca57604052565b634e487b7160e01b600052604160045260246000fd5b604081019081106001600160401b0382111762000fca57604052565b90601f801991011681019081106001600160401b0382111762000fca57604052565b6001600160a01b03166000908152602081905260408082209051929190620010468462000fe0565b54926001600160401b039182851680835260ff602084019660401c1686521562001082578282511642116200108257509060ff91511692511690565b9350506201518042018042116200109857169190565b634e487b7160e01b84526011600452602484fd5b60018060a01b031660005260006020526040600020602060405191620010d28362000fe0565b549160ff6001600160401b0384169384835260401c16918291015290801590811562001154575b506200114b575b60ff1680156200113f5760018114620011335760021462001127576702c68af0bb14000090565b67016345785d8a000090565b5066b1a2bc2ec5000090565b5066470de4df82000090565b50600062001100565b9050421138620010f9565b60a4358015158103620009775790565b6084358015158103620009775790565b60c4358015158103620009775790565b908060209392818452848401376000828201840152601f01601f1916010190565b908160209103126200097757518015158103620009775790565b908160209103126200097757516001600160a01b038116810362000977579056fe608060405234620005495762001400803803806200001d816200054e565b92833981019061016081830312620005495780516001600160401b0381116200054957826200004e91830162000574565b602082015190926001600160401b03821162000549576200007191830162000574565b916040820151916200008660608201620005e6565b6200009460808301620005e6565b93620000a360a08401620005e6565b620000b160c08501620005fb565b95620000c060e08601620005fb565b50620000d06101008601620005fb565b95620000ef610140620000e761012089016200060b565b97016200060b565b600080546001600160a01b0319166001600160a01b0390971696871781559095907f8be0079c531659141344cd1fd0a4f28419497f9722a3daafe3b4186f6b6457e08180a38051906001600160401b0382116200043d5760015490600182811c921680156200053e575b60208310146200041c5781601f849311620004dd575b50602090601f83116001146200045f5760009262000453575b50508160011b916000199060031b1c1916176001555b87516001600160401b0381116200043d57600254600181811c9116801562000432575b60208210146200041c57601f8111620003b2575b506020601f82116001146200032557926020928260009693600080516020620013c08339815191529663ffff00009b9c9d899262000319575b50508160011b9188199060031b1c1916176002555b600d80546001600160a01b0319166001600160a01b03928316908117909155600e80546001600160a81b031916939092169290921796151560a01b60ff60a01b16969096179095556003546200027b90829062000619565b60035584845260048252604084206200029682825462000619565b9055604051908152a361ffff64ff0000000060085492151560201b1694169064ffffffffff1916179160101b16171760085560018060a01b03600d54166000526009602052604060002060ff199060018282541617905560018060a01b03600e54166000526001604060002091825416179055604051610d8290816200063e8239f35b0151905038806200020e565b600260005260206000209960005b601f19841681106200039957509260018363ffff00009a9b9c600080516020620013c0833981519152979460209760009a97601f1981161062000380575b505050811b0160025562000223565b0151891960f88460031b161c1916905538808062000371565b828201518c556001909b019a6020928301920162000333565b60026000527f405787fa12a823e0f2b7631cc41b3ba8828b3321ca811111fa75cd3aa3bb5ace601f830160051c8101916020841062000411575b601f0160051c01905b818110620004045750620001d5565b60008155600101620003f5565b9091508190620003ec565b634e487b7160e01b600052602260045260246000fd5b90607f1690620001c1565b634e487b7160e01b600052604160045260246000fd5b01519050388062000188565b600160009081529350600080516020620013e083398151915291905b601f1984168510620004c1576001945083601f19811610620004a7575b505050811b016001556200019e565b015160001960f88460031b161c1916905538808062000498565b818101518355602094850194600190930192909101906200047b565b6001600052909150600080516020620013e0833981519152601f840160051c81016020851062000536575b90849392915b601f830160051c82018110620005265750506200016f565b600081558594506001016200050e565b508062000508565b91607f169162000159565b600080fd5b6040519190601f01601f191682016001600160401b038111838210176200043d57604052565b919080601f84011215620005495782516001600160401b0381116200043d57602090620005aa601f8201601f191683016200054e565b92818452828287010111620005495760005b818110620005d257508260009394955001015290565b8581018301518482018401528201620005bc565b51906001600160a01b03821682036200054957565b519061ffff821682036200054957565b519081151582036200054957565b919082018092116200062757565b634e487b7160e01b600052601160045260246000fdfe608060408181526004918236101561001657600080fd5b600092833560e01c91826306fdde031461090b57508163095ea7b31461089a57816318160ddd1461087b5781631f94957a1461085457816323b872dd146107ae578163313ce567146107925783826342966c6814610710575081636760e74c146106ed57816370a08231146106b7578163715018a61461065b5781638187f516146105b35781638712523e1461057b5781638da5cb5b1461055357816395d89b41146104325781639605ddbb146104135781639ebaa1c3146103ee578163a8aa1b31146103c5578163a9059cbb14610394578163ad5dff7314610356578163b0249cc614610318578163b67d4266146102ab578163c45a015514610282578163ce5e589d1461020657508063d00efb2f146101e8578063dd62ed3e146101a0578063f887ea40146101785763ff8ea3e51461015057600080fd5b3461017457816003193601126101745760209061ffff60085460101c169051908152f35b5080fd5b5034610174578160031936011261017457600e5490516001600160a01b039091168152602090f35b5034610174578060031936011261017457806020926101bd610a2b565b6101c5610a46565b6001600160a01b0391821683526005865283832091168252845220549051908152f35b50346101745781600319360112610174576020906006549051908152f35b9190503461027e578260031936011261027e57600d546001600160a01b031633148061026f575b1561023e578261023b610a5c565b80f35b906020606492519162461bcd60e51b8352820152600b60248201526a1393d517d0531313d5d15160aa1b6044820152fd5b5060ff600e5460a01c1661022d565b8280fd5b505034610174578160031936011261017457600d5490516001600160a01b039091168152602090f35b9190503461027e57366003190112610174573560243561ffff808216809203610314576102e360018060a01b03600d54163314610a9c565b600654156102ef578380f35b826103059161030a946006556008541690610ad6565b610ad6565b6007553880808380f35b8380fd5b5050346101745760203660031901126101745760209160ff9082906001600160a01b03610343610a2b565b168152600c855220541690519015158152f35b5050346101745760203660031901126101745760209160ff9082906001600160a01b03610381610a2b565b1681526009855220541690519015158152f35b5050346101745780600319360112610174576020906103be6103b4610a2b565b6024359033610b3c565b5160018152f35b505034610174578160031936011261017457600b5490516001600160a01b039091168152602090f35b5050346101745781600319360112610174576008549051602091821c60ff1615158152f35b5050346101745781600319360112610174576020906007549051908152f35b83833461017457816003193601126101745780519082600254600181811c90808316928315610549575b60209384841081146105365783885290811561051a57506001146104c4575b505050829003601f01601f191682019267ffffffffffffffff8411838510176104b157508291826104ad9252826109e2565b0390f35b634e487b7160e01b815260418552602490fd5b600287529192508591837f405787fa12a823e0f2b7631cc41b3ba8828b3321ca811111fa75cd3aa3bb5ace5b838510610506575050505083010185808061047b565b8054888601830152930192849082016104f0565b60ff1916878501525050151560051b840101905085808061047b565b634e487b7160e01b895260228a52602489fd5b91607f169161045c565b505034610174578160031936011261017457905490516001600160a01b039091168152602090f35b5050346101745760203660031901126101745760209181906001600160a01b036105a3610a2b565b168152600a845220549051908152f35b90503461027e57602036600319011261027e576105ce610a2b565b600d546001600160a01b039182916105e99083163314610a9c565b1691821561062d5750600b548291811615610618575b50508252600c6020528120805460ff1916600117905580f35b6001600160a01b03191617600b5580386105ff565b606490602085519162461bcd60e51b835282015260086024820152672120a22fa820a4a960c11b6044820152fd5b9190503461027e578260031936011261027e5782546001600160a01b03163303610688578261023b610a5c565b906020606492519162461bcd60e51b835282015260096024820152682727aa2fa7aba722a960b91b6044820152fd5b90503461027e57602036600319011261027e5760209282916001600160a01b036106df610a2b565b168252845220549051908152f35b50503461017457816003193601126101745760209061ffff600854169051908152f35b8091843461078e57602036600319011261078e5781359133845280602052610747838386205461074282821015610b06565b610af9565b903385526020528184205561075e82600354610af9565b600355519081527fddf252ad1be2c89b69c2b068fc378daa952ba7f163c4a11628f55a4df523b3ef60203392a380f35b5050fd5b5050346101745781600319360112610174576020905160128152f35b9190503461027e57606036600319011261027e576107ca610a2b565b6107d2610a46565b6044359160018060a01b038116808752602095600587528588203389528752858820549085821061082557509480969761080f866103be98610af9565b9281526005895281812033825289522055610b3c565b865162461bcd60e51b81529081018890526009602482015268414c4c4f57414e434560b81b6044820152606490fd5b50503461017457816003193601126101745760209060ff600e5460a01c1690519015158152f35b5050346101745781600319360112610174576020906003549051908152f35b505034610174578060031936011261017457602091816108b8610a2b565b91602435918291338152600587528181209460018060a01b0316948582528752205582519081527f8c5be1e5ebec7d5bd14f71427d1e84f3dd0314c0f7b2291e5b200ac8c7c3b925843392a35160018152f35b8490843461027e578260031936011261027e5782600180549081811c908083169283156109d8575b60209384841081146105365783885290811561051a575060011461098357505050829003601f01601f191682019267ffffffffffffffff8411838510176104b157508291826104ad9252826109e2565b8087529192508591837fb10e2d527612073b26eecdfd717e6a320cf44b4afac2b0732d9fcbe2b7fa0cf65b8385106109c4575050505083010185808061047b565b8054888601830152930192849082016109ae565b91607f1691610933565b6020808252825181830181905290939260005b828110610a1757505060409293506000838284010152601f8019910116010190565b8181018601518482016040015285016109f5565b600435906001600160a01b0382168203610a4157565b600080fd5b602435906001600160a01b0382168203610a4157565b600080546001600160a01b0319811682556001600160a01b03167f8be0079c531659141344cd1fd0a4f28419497f9722a3daafe3b4186f6b6457e08280a3565b15610aa357565b60405162461bcd60e51b815260206004820152600b60248201526a4e4f545f464143544f525960a81b6044820152606490fd5b91908201809211610ae357565b634e487b7160e01b600052601160045260246000fd5b91908203918211610ae357565b15610b0d57565b60405162461bcd60e51b815260206004820152600760248201526642414c414e434560c81b6044820152606490fd5b6001600160a01b03939284831692908315610d1b57858316926000848152600497602094898652604093610b7586868620541015610b06565b8784526009875260ff85852054161580610d0a575b610be9575b50505080859697987fddf252ad1be2c89b69c2b068fc378daa952ba7f163c4a11628f55a4df523b3ef96849352808652828220610bcd868254610af9565b9055888252855220610be0838254610ad6565b905551908152a3565b6006548015610cfa5760085490610c0661ffff9182841690610ad6565b431115610cea57600754431115610c1f575b5050610b8f565b600354908260101c1690818102918183041490151715610cd75761271090048711610cc757871c60ff16610c55575b8080610c18565b878452600c87528484205460ff1615610cc057505b16808252600a8552438383205414610cb0578152600a8452818120439055807fddf252ad1be2c89b69c2b068fc378daa952ba7f163c4a11628f55a4df523b3ef83610c4e565b825163aa9a98df60e01b81528990fd5b9050610c6a565b8551634d22aedf60e11b81528c90fd5b634e487b7160e01b865260118d52602486fd5b8651637b85e8b960e01b81528d90fd5b85516312f1f92360e01b81528c90fd5b5088845260ff858520541615610b8a565b60405162461bcd60e51b81526020600482015260096024820152682d22a927afa0a2222960b91b6044820152606490fdfea26469706673582212202e5e4204b494241177e46c5a1bd91335d292d71619c939f6016b84a732d3f54564736f6c63430008140033ddf252ad1be2c89b69c2b068fc378daa952ba7f163c4a11628f55a4df523b3efb10e2d527612073b26eecdfd717e6a320cf44b4afac2b0732d9fcbe2b7fa0cf6a26469706673582212209a9306971007cf7f1cc9b8fb84ef1304795865e15d340e58fe43b2f551c8043c64736f6c6343000814003360a0346100aa57601f61070438819003918201601f19168301916001600160401b038311848410176100af578084926020946040528339810103126100aa57516001600160a01b0381168082036100aa57156100775760805260405161063e90816100c6823960805181818161012801526103560152f35b60405162461bcd60e51b815260206004820152600b60248201526a4241445f464143544f525960a81b6044820152606490fd5b600080fd5b634e487b7160e01b600052604160045260246000fdfe6040608081526004908136101561001557600080fd5b600091823560e01c80632e1a7d4d146103a657806385cb720214610389578063c45a015514610341578063ee3d71d2146100d15763f4dadc611461005857600080fd5b346100cd5760203660031901126100cd57359180548310156100ca575060ff61008260a0936105bb565b50600180851b03928382541693600183015416916003600282015491015492825195865260208601528185015267ffffffffffffffff821660608501521c1615156080820152f35b80fd5b8280fd5b5090346100cd5760803660031901126100cd576001600160a01b0382358181169081900361033d5760249182359281841680940361033957604435966064359267ffffffffffffffff908185168095036100cd57807f00000000000000000000000000000000000000000000000000000000000000001633036103095785151580610300575b156102d15789156102a35787519160a083018381108282111761029157895286835260208301928884528981018c8152606082019488865260808301948786528754600160401b81101561027f578060016101b492018a556105bb565b94909461026e5790806003959493925116906bffffffffffffffffffffffff60a01b918286541617855560018501925116908254161790555160028201550192511660ff60401b8354925115158a1b169168ffffffffffffffffff191617179055805496600019880197881161025e575050507f8304b8c1ad220f367b10eb7062c3c2e5d5568a59cad020b216ff3d168766af17846020978793825191825289820152a451908152f35b634e487b7160e01b825260119052fd5b634e487b7160e01b8952888f528989fd5b634e487b7160e01b895260418f528989fd5b634e487b7160e01b855260418b528585fd5b875162461bcd60e51b81526020818b0152600981860152681393d7d05353d5539560ba1b6044820152606490fd5b875162461bcd60e51b81526020818b0152600a81860152694241445f504152414d5360b01b6044820152606490fd5b50861515610157565b875162461bcd60e51b81526020818b0152600b818601526a4e4f545f464143544f525960a81b6044820152606490fd5b8680fd5b8480fd5b505034610385578160031936011261038557517f00000000000000000000000000000000000000000000000000000000000000006001600160a01b03168152602090f35b5080fd5b505034610385578160031936011261038557602091549051908152f35b5090346100cd576020806003193601126105b7578235916103c6836105bb565b50600381019485549060ff82851c1661058a57600183019160018060a01b039384845416988933036105555767ffffffffffffffff92838116421061052957600160401b9060ff60401b19161790558660028683541692019960448b54918d8a51958694859363a9059cbb60e01b85528a85015260248401525af191821561051f578a926104bf575b5050156104895750907fcf7d23a3cbe4e8b36ff82fd1b05b1b17373dc7804b4ebbd6e2356716ef202372939291541694549051908152a380f35b835162461bcd60e51b8152908101859052601060248201526f131417d514905394d1915497d190525360821b6044820152606490fd5b90915086903d8811610517575b601f8201601f191683019081118382101761050457879183918852810103126105005751801515810361050057388061044f565b8880fd5b634e487b7160e01b8b526041845260248bfd5b3d91506104cc565b86513d8c823e3d90fd5b875162461bcd60e51b81528086018a905260066024820152651313d0d2d15160d21b6044820152606490fd5b865162461bcd60e51b8152808501899052600f60248201526e4e4f545f42454e454649434941525960881b6044820152606490fd5b835162461bcd60e51b81529081018590526007602482015266414c524541445960c81b6044820152606490fd5b8380fd5b9060009182548110156105f45782805260021b7f290decd9548b62a8d60345a988386fc84ba6bc95484008f6362f93160ef3e563019190565b634e487b7160e01b83526032600452602483fdfea2646970667358221220b970e8cfe045731eb2ac608318c7d495102ab446b8508631d521bd8d58b13eea64736f6c63430008140033",
  "linkReferences": {},
  "deployedLinkReferences": {}
}