{
  "_format": "hh-sol-artifact-1",
  "contractName": "NeonLpLocker",
  "sourceName": "contracts/NeonLpLocker.sol",
  "abi": [
    {
      "inputs": [
        {
          "internalType": "address",
          "name": "_factory",
          "type": "address"
        }
      ],
      "stateMutability": "nonpayable",
      "type": "constructor"
    },
    {
      "anonymous": false,
      "inputs": [
        {
          "indexed": true,
          "internalType": "uint256",
          "name": "lockId",
          "type": "uint256"
        },
        {
          "indexed": true,
          "internalType": "address",
          "name": "pair",
          "type": "address"
        },
        {
          "indexed": true,
          "internalType": "address",
          "name": "beneficiary",
          "type": "address"
        },
        {
          "indexed": false,
          "internalType": "uint256",
          "name": "amount",
          "type": "uint256"
        },
        {
          "indexed": false,
          "internalType": "uint64",
          "name": "unlockAt",
          "type": "uint64"
        }
      ],
      "name": "Locked",
      "type": "event"
    },
    {
      "anonymous": false,
      "inputs": [
        {
          "indexed": true,
          "internalType": "uint256",
          "name": "lockId",
          "type": "uint256"
        },
        {
          "indexed": true,
          "internalType": "address",
          "name": "beneficiary",
          "type": "address"
        },
        {
          "indexed": false,
          "internalType": "uint256",
          "name": "amount",
          "type": "uint256"
        }
      ],
      "name": "Withdrawn",
      "type": "event"
    },
    {
      "inputs": [],
      "name": "factory",
      "outputs": [
        {
          "internalType": "address",
          "name": "",
          "type": "address"
        }
      ],
      "stateMutability": "view",
      "type": "function"
    },
    {
      "inputs": [
        {
          "internalType": "address",
          "name": "pair",
          "type": "address"
        },
        {
          "internalType": "address",
          "name": "beneficiary",
          "type": "address"
        },
        {
          "internalType": "uint256",
          "name": "amount",
          "type": "uint256"
        },
        {
          "internalType": "uint64",
          "name": "unlockAt",
          "type": "uint64"
        }
      ],
      "name": "lock",
      "outputs": [
        {
          "internalType": "uint256",
          "name": "lockId",
          "type": "uint256"
        }
      ],
      "stateMutability": "nonpayable",
      "type": "function"
    },
    {
      "inputs": [
        {
          "internalType": "uint256",
          "name": "",
          "type": "uint256"
        }
      ],
      "name": "locks",
      "outputs": [
        {
          "internalType": "address",
          "name": "pair",
          "type": "address"
        },
        {
          "internalType": "address",
          "name": "beneficiary",
          "type": "address"
        },
        {
          "internalType": "uint256",
          "name": "amount",
          "type": "uint256"
        },
        {
          "internalType": "uint64",
          "name": "unlockAt",
          "type": "uint64"
        },
        {
          "internalType": "bool",
          "name": "withdrawn",
          "type": "bool"
        }
      ],
      "stateMutability": "view",
      "type": "function"
    },
    {
      "inputs": [],
      "name": "locksCount",
      "outputs": [
        {
          "internalType": "uint256",
          "name": "",
          "type": "uint256"
        }
      ],
      "stateMutability": "view",
      "type": "function"
    },
    {
      "inputs": [
        {
          "internalType": "uint256",
          "name": "lockId",
          "type": "uint256"
        }
      ],
      "name": "withdraw",
      "outputs": [],
      "stateMutability": "nonpayable",
      "type": "function"
    }
  ],
  "bytecode": "0x60a0346100aa57601f61070438819003918201601f19168301916001600160401b038311848410176100af578084926020946040528339810103126100aa57516001600160a01b0381168082036100aa57156100775760805260405161063e90816100c6823960805181818161012801526103560152f35b60405162461bcd60e51b815260206004820152600b60248201526a4241445f464143544f525960a81b6044820152606490fd5b600080fd5b634e487b7160e01b600052604160045260246000fdfe6040608081526004908136101561001557600080fd5b600091823560e01c80632e1a7d4d146103a657806385cb720214610389578063c45a015514610341578063ee3d71d2146100d15763f4dadc611461005857600080fd5b346100cd5760203660031901126100cd57359180548310156100ca575060ff61008260a0936105bb565b50600180851b03928382541693600183015416916003600282015491015492825195865260208601528185015267ffffffffffffffff821660608501521c1615156080820152f35b80fd5b8280fd5b5090346100cd5760803660031901126100cd576001600160a01b0382358181169081900361033d5760249182359281841680940361033957604435966064359267ffffffffffffffff908185168095036100cd57807f00000000000000000000000000000000000000000000000000000000000000001633036103095785151580610300575b156102d15789156102a35787519160a083018381108282111761029157895286835260208301928884528981018c8152606082019488865260808301948786528754600160401b81101561027f578060016101b492018a556105bb565b94909461026e5790806003959493925116906bffffffffffffffffffffffff60a01b918286541617855560018501925116908254161790555160028201550192511660ff60401b8354925115158a1b169168ffffffffffffffffff191617179055805496600019880197881161025e575050507f8304b8c1ad220f367b10eb7062c3c2e5d5568a59cad020b216ff3d168766af17846020978793825191825289820152a451908152f35b634e487b7160e01b825260119052fd5b634e487b7160e01b8952888f528989fd5b634e487b7160e01b895260418f528989fd5b634e487b7160e01b855260418b528585fd5b875162461bcd60e51b81526020818b0152600981860152681393d7d05353d5539560ba1b6044820152606490fd5b875162461bcd60e51b81526020818b0152600a81860152694241445f504152414d5360b01b6044820152606490fd5b50861515610157565b875162461bcd60e51b81526020818b0152600b818601526a4e4f545f464143544f525960a81b6044820152606490fd5b8680fd5b8480fd5b505034610385578160031936011261038557517f00000000000000000000000000000000000000000000000000000000000000006001600160a01b03168152602090f35b5080fd5b505034610385578160031936011261038557602091549051908152f35b5090346100cd576020806003193601126105b7578235916103c6836105bb565b50600381019485549060ff82851c1661058a57600183019160018060a01b039384845416988933036105555767ffffffffffffffff92838116421061052957600160401b9060ff60401b19161790558660028683541692019960448b54918d8a51958694859363a9059cbb60e01b85528a85015260248401525af191821561051f578a926104bf575b5050156104895750907fcf7d23a3cbe4e8b36ff82fd1b05b1b17373dc7804b4ebbd6e2356716ef202372939291541694549051908152a380f35b835162461bcd60e51b8152908101859052601060248201526f131417d514905394d1915497d190525360821b6044820152606490fd5b90915086903d8811610517575b601f8201601f191683019081118382101761050457879183918852810103126105005751801515810361050057388061044f565b8880fd5b634e487b7160e01b8b526041845260248bfd5b3d91506104cc565b86513d8c823e3d90fd5b875162461bcd60e51b81528086018a905260066024820152651313d0d2d15160d21b6044820152606490fd5b865162461bcd60e51b8152808501899052600f60248201526e4e4f545f42454e454649434941525960881b6044820152606490fd5b835162461bcd60e51b81529081018590526007602482015266414c524541445960c81b6044820152606490fd5b8380fd5b9060009182548110156105f45782805260021b7f290decd9548b62a8d60345a988386fc84ba6bc95484008f6362f93160ef3e563019190565b634e487b7160e01b83526032600452602483fdfea2646970667358221220b970e8cfe045731eb2ac608318c7d495102ab446b8508631d521bd8d58b13eea64736f6c63430008140033",
  "linkReferences": {},
  "deployedLinkReferences": {}
}