{
  "_format": "hh-sol-artifact-1",
  "contractName": "NeonToken",
  "sourceName": "contracts/NeonToken.sol",
  "abi": [
    {
      "inputs": [
        {
          "internalType": "string",
          "name": "_name",
          "type": "string"
        },
        {
          "internalType": "string",
          "name": "_symbol",
          "type": "string"
        },
        {
          "internalType": "uint256",
          "name": "supply",
          "type": "uint256"
        },
        {
          "internalType": "address",
          "name": "initialOwner",
          "type": "address"
        },
        {
          "internalType": "address",
          "name": "_factory",
          "type": "address"
        },
        {
          "internalType": "address",
          "name": "_router",
          "type": "address"
        },
        {
          "internalType": "uint16",
          "name": "_delayBlocks",
          "type": "uint16"
        },
        {
          "internalType": "uint16",
          "name": "",
          "type": "uint16"
        },
        {
          "internalType": "uint16",
          "name": "_maxTxBps",
          "type": "uint16"
        },
        {
          "internalType": "bool",
          "name": "_cooldown",
          "type": "bool"
        },
        {
          "internalType": "bool",
          "name": "_factoryMayRenounce",
          "type": "bool"
        }
      ],
      "stateMutability": "nonpayable",
      "type": "constructor"
    },
    {
      "inputs": [],
      "name": "CooldownActive",
      "type": "error"
    },
    {
      "inputs": [],
      "name": "MaxTxActive",
      "type": "error"
    },
    {
      "inputs": [],
      "name": "TradingDelayActive",
      "type": "error"
    },
    {
      "inputs": [],
      "name": "TradingNotEnabled",
      "type": "error"
    },
    {
      "anonymous": false,
      "inputs": [
        {
          "indexed": true,
          "internalType": "address",
          "name": "owner",
          "type": "address"
        },
        {
          "indexed": true,
          "internalType": "address",
          "name": "spender",
          "type": "address"
        },
        {
          "indexed": false,
          "internalType": "uint256",
          "name": "value",
          "type": "uint256"
        }
      ],
      "name": "Approval",
      "type": "event"
    },
    {
      "anonymous": false,
      "inputs": [
        {
          "indexed": true,
          "internalType": "address",
          "name": "prev",
          "type": "address"
        },
        {
          "indexed": true,
          "internalType": "address",
          "name": "next",
          "type": "address"
        }
      ],
      "name": "OwnershipTransferred",
      "type": "event"
    },
    {
      "anonymous": false,
      "inputs": [
        {
          "indexed": true,
          "internalType": "address",
          "name": "from",
          "type": "address"
        },
        {
          "indexed": true,
          "internalType": "address",
          "name": "to",
          "type": "address"
        },
        {
          "indexed": false,
          "internalType": "uint256",
          "name": "value",
          "type": "uint256"
        }
      ],
      "name": "Transfer",
      "type": "event"
    },
    {
      "inputs": [
        {
          "internalType": "address",
          "name": "o",
          "type": "address"
        },
        {
          "internalType": "address",
          "name": "s",
          "type": "address"
        }
      ],
      "name": "allowance",
      "outputs": [
        {
          "internalType": "uint256",
          "name": "",
          "type": "uint256"
        }
      ],
      "stateMutability": "view",
      "type": "function"
    },
    {
      "inputs": [
        {
          "internalType": "address",
          "name": "spender",
          "type": "address"
        },
        {
          "internalType": "uint256",
          "name": "value",
          "type": "uint256"
        }
      ],
      "name": "approve",
      "outputs": [
        {
          "internalType": "bool",
          "name": "",
          "type": "bool"
        }
      ],
      "stateMutability": "nonpayable",
      "type": "function"
    },
    {
      "inputs": [
        {
          "internalType": "address",
          "name": "who",
          "type": "address"
        }
      ],
      "name": "balanceOf",
      "outputs": [
        {
          "internalType": "uint256",
          "name": "",
          "type": "uint256"
        }
      ],
      "stateMutability": "view",
      "type": "function"
    },
    {
      "inputs": [
        {
          "internalType": "uint256",
          "name": "value",
          "type": "uint256"
        }
      ],
      "name": "burn",
      "outputs": [],
      "stateMutability": "nonpayable",
      "type": "function"
    },
    {
      "inputs": [],
      "name": "cooldownOneTxPerBlock",
      "outputs": [
        {
          "internalType": "bool",
          "name": "",
          "type": "bool"
        }
      ],
      "stateMutability": "view",
      "type": "function"
    },
    {
      "inputs": [],
      "name": "decimals",
      "outputs": [
        {
          "internalType": "uint8",
          "name": "",
          "type": "uint8"
        }
      ],
      "stateMutability": "view",
      "type": "function"
    },
    {
      "inputs": [],
      "name": "factory",
      "outputs": [
        {
          "internalType": "address",
          "name": "",
          "type": "address"
        }
      ],
      "stateMutability": "view",
      "type": "function"
    },
    {
      "inputs": [],
      "name": "factoryMayRenounce",
      "outputs": [
        {
          "internalType": "bool",
          "name": "",
          "type": "bool"
        }
      ],
      "stateMutability": "view",
      "type": "function"
    },
    {
      "inputs": [],
      "name": "factoryRenounce",
      "outputs": [],
      "stateMutability": "nonpayable",
      "type": "function"
    },
    {
      "inputs": [
        {
          "internalType": "address",
          "name": "",
          "type": "address"
        }
      ],
      "name": "isAMMPair",
      "outputs": [
        {
          "internalType": "bool",
          "name": "",
          "type": "bool"
        }
      ],
      "stateMutability": "view",
      "type": "function"
    },
    {
      "inputs": [
        {
          "internalType": "address",
          "name": "",
          "type": "address"
        }
      ],
      "name": "isExempt",
      "outputs": [
        {
          "internalType": "bool",
          "name": "",
          "type": "bool"
        }
      ],
      "stateMutability": "view",
      "type": "function"
    },
    {
      "inputs": [
        {
          "internalType": "address",
          "name": "",
          "type": "address"
        }
      ],
      "name": "lastTransferBlock",
      "outputs": [
        {
          "internalType": "uint256",
          "name": "",
          "type": "uint256"
        }
      ],
      "stateMutability": "view",
      "type": "function"
    },
    {
      "inputs": [],
      "name": "launchBlock",
      "outputs": [
        {
          "internalType": "uint256",
          "name": "",
          "type": "uint256"
        }
      ],
      "stateMutability": "view",
      "type": "function"
    },
    {
      "inputs": [],
      "name": "maxTxBps",
      "outputs": [
        {
          "internalType": "uint16",
          "name": "",
          "type": "uint16"
        }
      ],
      "stateMutability": "view",
      "type": "function"
    },
    {
      "inputs": [],
      "name": "name",
      "outputs": [
        {
          "internalType": "string",
          "name": "",
          "type": "string"
        }
      ],
      "stateMutability": "view",
      "type": "function"
    },
    {
      "inputs": [],
      "name": "owner",
      "outputs": [
        {
          "internalType": "address",
          "name": "",
          "type": "address"
        }
      ],
      "stateMutability": "view",
      "type": "function"
    },
    {
      "inputs": [],
      "name": "pair",
      "outputs": [
        {
          "internalType": "address",
          "name": "",
          "type": "address"
        }
      ],
      "stateMutability": "view",
      "type": "function"
    },
    {
      "inputs": [],
      "name": "protectionEndBlock",
      "outputs": [
        {
          "internalType": "uint256",
          "name": "",
          "type": "uint256"
        }
      ],
      "stateMutability": "view",
      "type": "function"
    },
    {
      "inputs": [],
      "name": "renounceOwnership",
      "outputs": [],
      "stateMutability": "nonpayable",
      "type": "function"
    },
    {
      "inputs": [],
      "name": "router",
      "outputs": [
        {
          "internalType": "address",
          "name": "",
          "type": "address"
        }
      ],
      "stateMutability": "view",
      "type": "function"
    },
    {
      "inputs": [
        {
          "internalType": "uint256",
          "name": "_launchBlock",
          "type": "uint256"
        },
        {
          "internalType": "uint16",
          "name": "protectionBlocks",
          "type": "uint16"
        }
      ],
      "name": "setLaunchBlock",
      "outputs": [],
      "stateMutability": "nonpayable",
      "type": "function"
    },
    {
      "inputs": [
        {
          "internalType": "address",
          "name": "_pair",
          "type": "address"
        }
      ],
      "name": "setPair",
      "outputs": [],
      "stateMutability": "nonpayable",
      "type": "function"
    },
    {
      "inputs": [],
      "name": "symbol",
      "outputs": [
        {
          "internalType": "string",
          "name": "",
          "type": "string"
        }
      ],
      "stateMutability": "view",
      "type": "function"
    },
    {
      "inputs": [],
      "name": "totalSupply",
      "outputs": [
        {
          "internalType": "uint256",
          "name": "",
          "type": "uint256"
        }
      ],
      "stateMutability": "view",
      "type": "function"
    },
    {
      "inputs": [],
      "name": "tradingDelayBlocks",
      "outputs": [
        {
          "internalType": "uint16",
          "name": "",
          "type": "uint16"
        }
      ],
      "stateMutability": "view",
      "type": "function"
    },
    {
      "inputs": [
        {
          "internalType": "address",
          "name": "to",
          "type": "address"
        },
        {
          "internalType": "uint256",
          "name": "value",
          "type": "uint256"
        }
      ],
      "name": "transfer",
      "outputs": [
        {
          "internalType": "bool",
          "name": "",
          "type": "bool"
        }
      ],
      "stateMutability": "nonpayable",
      "type": "function"
    },
    {
      "inputs": [
        {
          "internalType": "address",
          "name": "from",
          "type": "address"
        },
        {
          "internalType": "address",
          "name": "to",
          "type": "address"
        },
        {
          "internalType": "uint256",
          "name": "value",
          "type": "uint256"
        }
      ],
      "name": "transferFrom",
      "outputs": [
        {
          "internalType": "bool",
          "name": "",
          "type": "bool"
        }
      ],
      "stateMutability": "nonpayable",
      "type": "function"
    }
  ],
  "bytecode": "0x608060405234620005495762001400803803806200001d816200054e565b92833981019061016081830312620005495780516001600160401b0381116200054957826200004e91830162000574565b602082015190926001600160401b03821162000549576200007191830162000574565b916040820151916200008660608201620005e6565b6200009460808301620005e6565b93620000a360a08401620005e6565b620000b160c08501620005fb565b95620000c060e08601620005fb565b50620000d06101008601620005fb565b95620000ef610140620000e761012089016200060b565b97016200060b565b600080546001600160a01b0319166001600160a01b0390971696871781559095907f8be0079c531659141344cd1fd0a4f28419497f9722a3daafe3b4186f6b6457e08180a38051906001600160401b0382116200043d5760015490600182811c921680156200053e575b60208310146200041c5781601f849311620004dd575b50602090601f83116001146200045f5760009262000453575b50508160011b916000199060031b1c1916176001555b87516001600160401b0381116200043d57600254600181811c9116801562000432575b60208210146200041c57601f8111620003b2575b506020601f82116001146200032557926020928260009693600080516020620013c08339815191529663ffff00009b9c9d899262000319575b50508160011b9188199060031b1c1916176002555b600d80546001600160a01b0319166001600160a01b03928316908117909155600e80546001600160a81b031916939092169290921796151560a01b60ff60a01b16969096179095556003546200027b90829062000619565b60035584845260048252604084206200029682825462000619565b9055604051908152a361ffff64ff0000000060085492151560201b1694169064ffffffffff1916179160101b16171760085560018060a01b03600d54166000526009602052604060002060ff199060018282541617905560018060a01b03600e54166000526001604060002091825416179055604051610d8290816200063e8239f35b0151905038806200020e565b600260005260206000209960005b601f19841681106200039957509260018363ffff00009a9b9c600080516020620013c0833981519152979460209760009a97601f1981161062000380575b505050811b0160025562000223565b0151891960f88460031b161c1916905538808062000371565b828201518c556001909b019a6020928301920162000333565b60026000527f405787fa12a823e0f2b7631cc41b3ba8828b3321ca811111fa75cd3aa3bb5ace601f830160051c8101916020841062000411575b601f0160051c01905b818110620004045750620001d5565b60008155600101620003f5565b9091508190620003ec565b634e487b7160e01b600052602260045260246000fd5b90607f1690620001c1565b634e487b7160e01b600052604160045260246000fd5b01519050388062000188565b600160009081529350600080516020620013e083398151915291905b601f1984168510620004c1576001945083601f19811610620004a7575b505050811b016001556200019e565b015160001960f88460031b161c1916905538808062000498565b818101518355602094850194600190930192909101906200047b565b6001600052909150600080516020620013e0833981519152601f840160051c81016020851062000536575b90849392915b601f830160051c82018110620005265750506200016f565b600081558594506001016200050e565b508062000508565b91607f169162000159565b600080fd5b6040519190601f01601f191682016001600160401b038111838210176200043d57604052565b919080601f84011215620005495782516001600160401b0381116200043d57602090620005aa601f8201601f191683016200054e565b92818452828287010111620005495760005b818110620005d257508260009394955001015290565b8581018301518482018401528201620005bc565b51906001600160a01b03821682036200054957565b519061ffff821682036200054957565b519081151582036200054957565b919082018092116200062757565b634e487b7160e01b600052601160045260246000fdfe608060408181526004918236101561001657600080fd5b600092833560e01c91826306fdde031461090b57508163095ea7b31461089a57816318160ddd1461087b5781631f94957a1461085457816323b872dd146107ae578163313ce567146107925783826342966c6814610710575081636760e74c146106ed57816370a08231146106b7578163715018a61461065b5781638187f516146105b35781638712523e1461057b5781638da5cb5b1461055357816395d89b41146104325781639605ddbb146104135781639ebaa1c3146103ee578163a8aa1b31146103c5578163a9059cbb14610394578163ad5dff7314610356578163b0249cc614610318578163b67d4266146102ab578163c45a015514610282578163ce5e589d1461020657508063d00efb2f146101e8578063dd62ed3e146101a0578063f887ea40146101785763ff8ea3e51461015057600080fd5b3461017457816003193601126101745760209061ffff60085460101c169051908152f35b5080fd5b5034610174578160031936011261017457600e5490516001600160a01b039091168152602090f35b5034610174578060031936011261017457806020926101bd610a2b565b6101c5610a46565b6001600160a01b0391821683526005865283832091168252845220549051908152f35b50346101745781600319360112610174576020906006549051908152f35b9190503461027e578260031936011261027e57600d546001600160a01b031633148061026f575b1561023e578261023b610a5c565b80f35b906020606492519162461bcd60e51b8352820152600b60248201526a1393d517d0531313d5d15160aa1b6044820152fd5b5060ff600e5460a01c1661022d565b8280fd5b505034610174578160031936011261017457600d5490516001600160a01b039091168152602090f35b9190503461027e57366003190112610174573560243561ffff808216809203610314576102e360018060a01b03600d54163314610a9c565b600654156102ef578380f35b826103059161030a946006556008541690610ad6565b610ad6565b6007553880808380f35b8380fd5b5050346101745760203660031901126101745760209160ff9082906001600160a01b03610343610a2b565b168152600c855220541690519015158152f35b5050346101745760203660031901126101745760209160ff9082906001600160a01b03610381610a2b565b1681526009855220541690519015158152f35b5050346101745780600319360112610174576020906103be6103b4610a2b565b6024359033610b3c565b5160018152f35b505034610174578160031936011261017457600b5490516001600160a01b039091168152602090f35b5050346101745781600319360112610174576008549051602091821c60ff1615158152f35b5050346101745781600319360112610174576020906007549051908152f35b83833461017457816003193601126101745780519082600254600181811c90808316928315610549575b60209384841081146105365783885290811561051a57506001146104c4575b505050829003601f01601f191682019267ffffffffffffffff8411838510176104b157508291826104ad9252826109e2565b0390f35b634e487b7160e01b815260418552602490fd5b600287529192508591837f405787fa12a823e0f2b7631cc41b3ba8828b3321ca811111fa75cd3aa3bb5ace5b838510610506575050505083010185808061047b565b8054888601830152930192849082016104f0565b60ff1916878501525050151560051b840101905085808061047b565b634e487b7160e01b895260228a52602489fd5b91607f169161045c565b505034610174578160031936011261017457905490516001600160a01b039091168152602090f35b5050346101745760203660031901126101745760209181906001600160a01b036105a3610a2b565b168152600a845220549051908152f35b90503461027e57602036600319011261027e576105ce610a2b565b600d546001600160a01b039182916105e99083163314610a9c565b1691821561062d5750600b548291811615610618575b50508252600c6020528120805460ff1916600117905580f35b6001600160a01b03191617600b5580386105ff565b606490602085519162461bcd60e51b835282015260086024820152672120a22fa820a4a960c11b6044820152fd5b9190503461027e578260031936011261027e5782546001600160a01b03163303610688578261023b610a5c565b906020606492519162461bcd60e51b835282015260096024820152682727aa2fa7aba722a960b91b6044820152fd5b90503461027e57602036600319011261027e5760209282916001600160a01b036106df610a2b565b168252845220549051908152f35b50503461017457816003193601126101745760209061ffff600854169051908152f35b8091843461078e57602036600319011261078e5781359133845280602052610747838386205461074282821015610b06565b610af9565b903385526020528184205561075e82600354610af9565b600355519081527fddf252ad1be2c89b69c2b068fc378daa952ba7f163c4a11628f55a4df523b3ef60203392a380f35b5050fd5b5050346101745781600319360112610174576020905160128152f35b9190503461027e57606036600319011261027e576107ca610a2b565b6107d2610a46565b6044359160018060a01b038116808752602095600587528588203389528752858820549085821061082557509480969761080f866103be98610af9565b9281526005895281812033825289522055610b3c565b865162461bcd60e51b81529081018890526009602482015268414c4c4f57414e434560b81b6044820152606490fd5b50503461017457816003193601126101745760209060ff600e5460a01c1690519015158152f35b5050346101745781600319360112610174576020906003549051908152f35b505034610174578060031936011261017457602091816108b8610a2b565b91602435918291338152600587528181209460018060a01b0316948582528752205582519081527f8c5be1e5ebec7d5bd14f71427d1e84f3dd0314c0f7b2291e5b200ac8c7c3b925843392a35160018152f35b8490843461027e578260031936011261027e5782600180549081811c908083169283156109d8575b60209384841081146105365783885290811561051a575060011461098357505050829003601f01601f191682019267ffffffffffffffff8411838510176104b157508291826104ad9252826109e2565b8087529192508591837fb10e2d527612073b26eecdfd717e6a320cf44b4afac2b0732d9fcbe2b7fa0cf65b8385106109c4575050505083010185808061047b565b8054888601830152930192849082016109ae565b91607f1691610933565b6020808252825181830181905290939260005b828110610a1757505060409293506000838284010152601f8019910116010190565b8181018601518482016040015285016109f5565b600435906001600160a01b0382168203610a4157565b600080fd5b602435906001600160a01b0382168203610a4157565b600080546001600160a01b0319811682556001600160a01b03167f8be0079c531659141344cd1fd0a4f28419497f9722a3daafe3b4186f6b6457e08280a3565b15610aa357565b60405162461bcd60e51b815260206004820152600b60248201526a4e4f545f464143544f525960a81b6044820152606490fd5b91908201809211610ae357565b634e487b7160e01b600052601160045260246000fd5b91908203918211610ae357565b15610b0d57565b60405162461bcd60e51b815260206004820152600760248201526642414c414e434560c81b6044820152606490fd5b6001600160a01b03939284831692908315610d1b57858316926000848152600497602094898652604093610b7586868620541015610b06565b8784526009875260ff85852054161580610d0a575b610be9575b50505080859697987fddf252ad1be2c89b69c2b068fc378daa952ba7f163c4a11628f55a4df523b3ef96849352808652828220610bcd868254610af9565b9055888252855220610be0838254610ad6565b905551908152a3565b6006548015610cfa5760085490610c0661ffff9182841690610ad6565b431115610cea57600754431115610c1f575b5050610b8f565b600354908260101c1690818102918183041490151715610cd75761271090048711610cc757871c60ff16610c55575b8080610c18565b878452600c87528484205460ff1615610cc057505b16808252600a8552438383205414610cb0578152600a8452818120439055807fddf252ad1be2c89b69c2b068fc378daa952ba7f163c4a11628f55a4df523b3ef83610c4e565b825163aa9a98df60e01b81528990fd5b9050610c6a565b8551634d22aedf60e11b81528c90fd5b634e487b7160e01b865260118d52602486fd5b8651637b85e8b960e01b81528d90fd5b85516312f1f92360e01b81528c90fd5b5088845260ff858520541615610b8a565b60405162461bcd60e51b81526020600482015260096024820152682d22a927afa0a2222960b91b6044820152606490fdfea26469706673582212202e5e4204b494241177e46c5a1bd91335d292d71619c939f6016b84a732d3f54564736f6c63430008140033ddf252ad1be2c89b69c2b068fc378daa952ba7f163c4a11628f55a4df523b3efb10e2d527612073b26eecdfd717e6a320cf44b4afac2b0732d9fcbe2b7fa0cf6",
  "linkReferences": {},
  "deployedLinkReferences": {}
}